:080000000218C1C283D2842260
:10000B00021D7500007EA03F7CBA147CAB78F922F0
:10001B00021494C281D28222021E38CA797CEB125E
:10002B001C5474D0121BB77CBE121BB77CB7121BAF
:07003B00B712008CDA7922F4
:10004300021E0BCA3B7F30E47AB301937AB3019269
:10005300E47E730192121AF3E47AB301937E3BB008
:100063007E7001121AC80B747EB30193047AB30134
:1000730093B480E97EB30192047AB301927E730153
:1000830092BE700840CADA3B22121E2DC2B7D2B606
:10009300121E2DD2B7021E2D02193A5D22680D5D84
:1000A3000078122D220B4068099F11222D000B00AE
:1000B30078F90202961202595C800B806808248149
:1000C30050072CB0500A02029E2CB0400302029B40
:1000D3007C8B5D1178267CB17CA5BE1080680A5D9F
:1000E30033780DA5BD80057F100202886D00803036
:1000F3007F017C5B7CB17CA5AD1280245D337806E7
:10010300A5BD80F080E1CA887D41AD437CB17CA56B
:10011300AD122D1450020B047C5BAD232F01DA8842
:10012300A42D05BE008040060B80780480982F0024
:100133007C437C507C617C72020272BE24FFFF68A8
:1001430006BE04FFFF78030202961202595CB00454
:1001530068F57CB8A54868EF7CB870039F1122A5A9
:10016300B8000302029E2E008150079C80380702CC
:10017300029B9C8050ED0A51C2E74D517803020265
:10018300887E5400807E901A6C0080061B90681451
:100193002F11BF1040049F104CAB0330E7EECAA8E9
:1001A3006CAA80E8DA39DA587C4ABE5080500A1BC0
:1001B3008068BC2F1150020B700202727EA0208057
:1001C3000C7EA01080057EA0086C556D333392D54C
:1001D300500A6E34FFFF6E24FFFF0B1CA5EC334067
:1001E300062F11D5F0F6227CBA247EA2D5137C7695
:1001F3007C65A5CC92E77C5B227CB5337CB43392DF
:10020300D54E5080248140039F11227C457C567C2F
:10021300676C7724E0500E7E1CFFFF221E341E24E1
:1002230050034E60800478F430D50A6E34FFFF6EBD
:1002330024FFFF0B1C227F707F517EC400007ED4FD
:10024300014E7E94024C0202D74005E47A7BB02231
:100253007A7BB00B7C222D0092D50E104E10807D40
:10026300422D445002B2D54E50806C447CB8222CAF
:100273004450120B1C7E40005E507FBE1800007875
:10028300040B806816A2D57CB8137C4B7CB592E72F
:100293007C5B227E1CFFFF229F11227E24FF802095
:1002A300D5026C456D3322540F2490D43440D4309E
:1002B300F30CBEB0414007BEB05B500224204CCCCF
:1002C30068021BC00B84D389944CCC680B74201236
:1002D30002C180F5CA3B6D889F337CAE7E5BB00B59
:1002E3005C7007C37D38DA3B8994B42569C2F37E19
:1002F3005BB00B5CA5F824D0BEB00A501B7E500A3D
:1003030020F60DAC5CA52D7CCB70034EF00180DD97
:10031300AC5DA52D7CDB80D524CFBEB01AA5E850FB
:10032300055E00DFD2F39006ACA3E4936011BCB08A
:1003330078F77417934CAB30F6B34EF08080AEA3CE
:10034300E4936010BCB078F77416937C3B742393EA
:100353007C2B89147CB0801374201202C120F20517
:10036300BEC00250F31B6D29B600011202C1020286
:10037300CC1B6E691600020B6A00BE0800007808E9
:100383007E0400FF7E141E6720F21E4CCC681A7F89
:1003930010E47E1B804C8868070B1C04BCBD78F2FC
:1003A300C2F6CA0B1204ABDA0B7E0BB060C0CA0BE9
:1003B3001202C1DA0B0B0C4CDD68EE1BD078EA801D
:1003C300ADD2F07E101080037E10085EB05F800A0D
:1003D300D2F67E100A80057E100AC2F66D119F11B7
:1003E3007E00201B6C7E6B7030F6021A3720F105FD
:1003F3001B6C7E6B6030F6041A261A2430F0051B42
:100403006D0B6A20A5EC3382F692F6500A7CEA9FC4
:10041300229F217F127CAE4C44780F7C457C567C16
:10042300676C772E00F878EF80122F117CB3337C42
:100433003B9CB140047C3B0B70A5D8EE7CB230E012
:1004430005DAB8C44C3BCA380B207E00207E30004E
:10045300BE18000078C1BE1008780730F404C2F457
:1004630080B5CA287CB2BCBD38027CBD1204ABDAAD
:1004730028BC2D500A1BD0E4CA281202AA80F07CA3
:10048300B213DAB84004C4CAB8C4CA28BEF0804064
:10049300095CDD7805A5DA0260065EF07F1202AA28
:1004A300DA28A5DADA0202CCBEF001680F30F402D2
:1004B300240220F50620F70330F6010420F229BCBC
:1004C300BC5025CAB87CBF13B0E6742050117430F9
:1004D3007C8A5E80F068081204EB5EA00F80031232
:1004E30002C1DAB8BCBC78DB30F40F74301202C13D
:1004F300745830F30274781202C130F605742D0279
:1005030002C1742B20F5F8742020F7F3221B6C7EB4
:100513006BB010F1021B6C20F60B30E704F404D22D
:10052300F27CCB800520E7057CDB0202F05EF07FE6
:1005330080F81B6E691600020B6A0030F0076D220B
:100543001B0A200B0D1B0A800202DBE46C22BE3067
:1005530007500B7F1F2D312E34FFF77E39B0227CDD
:10056300BF20E7A8742E4EF0800202C11206954008
:100573003D7CBD7003047CDB1207AC7C3D4C3368CF
:10058300101B307CBE20E40912054E70044C3378F6
:10059300F07CBD7CD3BEA0FD481CBCAB5818E49CCA
:1005A300BA2CB31801E47CDB020636120695406EC2
:1005B3007CBD041207AC7AFBA07CAE7CBDA2F49296
:1005C300F0C2F4400260010424051204AB7E30FF44
:1005D3000B3012054ECA381202AA20F0044CDD6813
:1005E30003120562DA38BC3D78E6740E1202AA746F
:1005F3002B7EFBA030F707742D6EA0FF0BA07AFBB8
:10060300A01202C17EA00A7EFBB0847AFBA0120274
:10061300AA7EFBB01202AA9EF800080202CCD2F214
:100623007ED00002038B12069540F37CBA2CBD04E6
:100633001207AC7AFBA07CBA7CAE30E701E404205D
:10064300F4044CDD6805D2F0C2F4042CBD1204ABF3
:100653006C337EFBB0601B20E712147AFBB01205EB
:100663004ECA381202AADA380B3080E6047AFBB09D
:100673001B3012054ECA381202AA4CDD6807120558
:10068300621BD080E19EF8000930F003120562027C
:1006930002CC7CEA7CAF10F7037ED0067CFA1B6E9B
:1006A300693600020B6A200206F42D2B204C4248C7
:1006B300232E0053584F44494355502A4E4645472D
:1006C30000042080010200104074C6CBD3D360DA4B
:1006D300C4103529AE6F03030303030303030505A6
:1006E3000605054E614E002B494E46002D494E46E8
:1006F300007D522D557CBE92E67CEB7CBA601F04D4
:1007030070287CB5C2E77E0400FF60067E1406E60F
:10071300D3227E1406EF40047E1406EAD322DA09BC
:100723009F22CA2BCA2BC3CA09220A0A7E144D1060
:10073300AD109E083AF09E10267CB5C2E77EA05607
:100743007C9BA46E54FFFF2E54C511ACA92D15E458
:10075300A539CAB8CA1B20E70A12081FDA1B1201FF
:100763003E800AF40412081FDA1B12009EDAA87CEA
:10077300B5337CB4334E50806C4424822F111478EB
:10078300FBDA497407BE400A40099E400ACA0201C7
:10079300140BA0CA486C442F117F012F112F112F66
:1007A300101478EFCA48CA49227F0F20E73ABEB037
:1007B30007400274070A0B2D109E1400097E19B01E
:1007C3002EB0FB501F4C116817E47A19B01B147E2E
:1007D30019B0047A19B0B40A0BE47A19B0A5D9EDAB
:1007E3000BA074017A19B0225EE0BF223F800000A3
:1007F3004120000042C80000447A0000461C40002B
:1008030047C35000497424004B1896804CBEBC204B
:100813005A0E1BCA6753C21C749DC5AE7C7B60060F
:100823005407681623231208447CB75438680A7F98
:100833001012084112009E7F01227CB75438032412
:100843001C6CAA2E5407EF7E4400FF0B2A0069128A
:100853000002227D02AD31AD102D21226D007410F6
:100863004D00780B4D2278278D317D126D22227D2C
:10087300437D326D222F112D445002A50FBF10402E
:10088300049F100B901478ED7F016D227D34227D3F
:10089300417D138D247D022F004004BD0440049D3F
:1008A300040B141478F17D237D317D106D0022CA71
:1008B3003B7F307A7300BC7AB300BBE4020ABF7E8D
:1008C3007300BD0A372D377D267E1BA0BEA0B05016
:1008D30003020964BEA0F728030209647EB300BDC6
:1008E3000A3B2D377D2629B10001BEB0A140720A13
:1008F3003A6D229E1800B07E14005E1208567A1FCD
:1009030001860A1B6D002E0802AD2F107A1F018687
:100913007E1400207E1F01861208567A1F01867EF0
:100923000F01867CB17A1300BE7C727A2300BF7CF0
:10093300637A3300C07E0800C17E50201217247EE4
:10094300B300BB7E7300BC7E0800C11217D67EB312
:1009530000BB24107AB300BB7EB300BD0BB1020A07
:10096300BF7E7300BD0A372D377D267E1B70BE7098
:10097300A15003020A237E7300BD0A372D377D265B
:100983007E1B70BE70A32803020A237E7300BD0A78
:10099300372D377D2629B10001BEB0A15003020ACD
:1009A300237EA300BD0A3A2D377D267E1BA00A3A7B
:1009B3006D229E1800A17E14005E1208567A1F0154
:1009C300860A1B6D009E0800A12F107A1F01867EE8
:1009D3001400207E1F01861208567A1F01867E0F9F
:1009E30001867CB17A1300BE7C727A2300BF7C63DC
:1009F3007A3300C07E0800C17E50201217247EB3D4
:100A030000BB7E7300BC7E0800C11217D67EB30004
:100A1300BB24107AB300BB7EB300BD0BB1020ABF87
:100A23007E7300BD0A372D377D267E1B70BE702076
:100A33005003020ABA7E7300BD0A372D377D267E26
:100A43001B70BE707E38707E7300BD0A372D377DF4
:100A5300267E1B700A376D229E1800207A1F01869E
:100A630074042F111478FB7A1F01862E2400032EA1
:100A730018CF807A1F01867E0F01867CB17A13001E
:100A8300BE7C727A2300BF7C637A3300C07E080089
:100A9300E17E50101217247EB300BB7E7300BC7E30
:100AA3000800E112182C7EB300BB24087AB300BB04
:100AB3007EB300BD0480057EB300BD047AB300BDE0
:100AC3007E7300BD0A372D377D267E1B70BE7000F6
:100AD30028030208C2DA3B22CAF874AA7E34FEB2A3
:100AE3007E24007E7A1BB0E47E34FED07A1BB07481
:100AF300177E34FED17A1BB0E47E14FECC7E040054
:100B03007E7A0BB07E34FECD7A1BB07EF0707E54BD
:100B1300FEC87E44007E7A2BF07E54FEC97A2BF009
:100B23007E54FECA7A2BF07E54FECB7A2BF07433BC
:100B33007A0BB07A1BB074037E34FED57A1BB07483
:100B4300E87E34FED67A1BB074037E34FED77A1B5C
:100B5300B074E87E34FED87A1BB074037E34FED9B9
:100B63007A1BB074E87E34FEDA7A1BB074037E34E9
:100B7300FEDB7A1BB074E87E34FEDC7A1BB07403B0
:100B83007E34FED27A1BB074E87E34FED37A1BB077
:100B930074557E34FEB17A1BB074807E34FEDD7AE8
:100BA3001BB074017E34FEC07A1BB074AA7E34FE7F
:100BB300B67A1BB0E47E34FEF07A1BB074177E3431
:100BC300FEF17A1BB0E47E14FEEC7A0BB07E34FEA9
:100BD300ED7A1BB07E54FEE87A2BF07E54FEE97A60
:100BE3002BF07E54FEEA7A2BF07E54FEEB7A2BF048
:100BF30074337A0BB07A1BB074017E34FEF57A1B22
:100C0300B074F47E34FEF67A1BB074017E34FEF7C2
:100C13007A1BB074F47E34FEF87A1BB074017E3410
:100C2300FEF97A1BB074F47E34FEFA7A1BB07401B9
:100C33007E34FEFB7A1BB074F47E34FEFC7A1BB068
:100C430074037E34FEF27A1BB074E87E34FEF37ACA
:100C53001BB074557E34FEB57A1BB074807E34FEAF
:100C6300FD7A1BB074017E34FEE07A1BB0DAF82201
:100C73007E3700264D336803020DE57E3400017A8A
:100C83003700267E0800921215ED7E3400927E24F2
:100C930000000B1A207CB41201C46DFF7EE44600F1
:100CA3007F0712013E7A1F00337E3400947E2400B6
:100CB300000B1A207CB41201C47F0712013E7A1F75
:100CC30000397E3400967E2400000B1A207CB41277
:100CD30001C47F0712013E7A1F003D7E1F00457A43
:100CE3001F002B7E1F00497A1F002F7E34009A7E3F
:100CF3002400000B1A209E27007B7CB41201C47EC3
:100D0300E442837F0712013E7A1F00457E34009C34
:100D13007E2400000B1A209E27007D7CB41201C4A0
:100D23007F0712013E7A1F00497E34009E7E240015
:100D3300000B1A209E27007F7CB41201C47F071288
:100D4300013E7A1F00617EE442C87E1F00337F07A5
:100D530012009E1201FC7A3700737E1F00397F0751
:100D630012009E1201FC7A3700757E1F003D7F073B
:100D730012009E1201FC7A3700797403121E4B7421
:100D8300FC121E4B7E4700737E540064AD54121E4A
:100D93004B7E2700737E340064AD321A56121E4B0D
:100DA3007E4700757E540064AD54121E4B7E2700AF
:100DB300757E340064AD321A56121E4B7E4700799D
:100DC3007E540064AD54121E4B7E2700797E34009E
:100DD30064AD321A56121E4B74FC121E4B7403027E
:100DE3001E4B22CA3B7CD67F707CE77CFB9F117A2B
:100DF3001F01797408ACBD0A3F2D352E3400087CE1
:100E0300F76D117E0442C87F1712009E1201FC7A0F
:100E13001F017D0A5F9E5400187C7E7E141FDF7EB7
:100E23000400FF1208B26CCC020F197ED4000A7EB4
:100E33007F017D7F177D1D12085F7A0F01797F1770
:100E43007D1D12085F7A1F017D9EF008BEC00278E7
:100E5300039EF0087E2F0179BE28000A4003020F8B
:100E6300177EA003A4900E6C73020E8A020E9802E2
:100E73000EA6020EB4020EC2020ED0020EDE020E47
:100E8300EC020EFA020F087CBF7C7E7E141FDD7E0F
:100E93000400FF807C7CBF7C7E7E141FDB7E04000D
:100EA300FF806E7CBF7C7E7E141FD97E0400FF8092
:100EB300607CBF7C7E7E141FD77E0400FF80527C43
:100EC300BF7C7E7E141FD57E0400FF80447CBF7CE4
:100ED3007E7E141FD37E0400FF80367CBF7C7E7E23
:100EE300141FD17E0400FF80287CBF7C7E7E141FEC
:100EF300CF7E0400FF801A7CBF7C7E7E141FCD7ED4
:100F03000400FF800C7CBF7C7E7E141FCB7E04001C
:100F1300FF1208B20BC0BCDC2803020E2EDA3B2200
:100F23007E3700374D3368030210387E3400017A70
:100F33003700377E7300651A377A37014C7E080015
:100F43000D7E341FC07E2400FF120239E46C777ECD
:100F530008000D1212B47E3700907A37014C7E08D8
:100F6300000D7E341FB57E2400FF120239E47E702B
:100F7300047E08000D1212B47E3700797A37014CD3
:100F83007E08000D7E341FAD7E2400FF120239E47B
:100F93007E70067E08000D1212B47E1F00841201BB
:100FA300FC7A37014C7E1F008C1201FC7A37014A10
:100FB3007E08000D7E341FA17E2400FF12023974C7
:100FC300406C777E08000D1212B47E3700737A37B7
:100FD300014C7E08000D7E341F997E2400FF12020F
:100FE3003974407E70027E08000D1212B47E370001
:100FF300757A37014C7E08000D7E341F917E2400E4
:10100300FF12023974407E70047E08000D1212B480
:101013007E7300430A377A37014C7E08000D7E3415
:101023001F917E2400FF12023974407E70077E08F0
:10103300000D0212B4227E3700414D3368030211C2
:10104300167E3400017A3700411211177A73006556
:10105300BE700218097E730065BE70FE58207EB311
:101063000065B4FD0874017AB3000A801F7EB300E3
:1010730065B403187E73002A7A730065800E7401C9
:101083007AB3000A7E7300657A73002A7E43006593
:101093007CB41201C97F717E0F008412009E12017D
:1010A300FC7A37000B7E0F00887F1712009E120117
:1010B300FC7A3700087E4300837CB41201C97E0F9B
:1010C300008C12009E1201FC7A3700B97EB30065D2
:1010D300601E7E37000B2E3700902E3700B97A370B
:1010E300016F7E3700909E37000B9E3700B9800852
:1010F3007E3700907A37016F7A37016D7EB3000A2D
:101103007E37016F7E27016D1216C57E7300657AE7
:1011130073008322A286E433B401057EA01080020B
:101123006CAAA285E433B401054EA00880035EA037
:10113300F7A287E433B401054EA00480035EA0FB4D
:10114300A2CBE433B401054EA00280035EA0FDA24E
:10115300CAE433B401054EA00180035EA0FE7CBA4D
:1011630014BEB01F40030211EE7EA003A4901174BD
:10117300730211E20211D60211E80211D10211EE3B
:101183000211DC0211EE0211D30211EE0211EE0282
:1011930011EE0211D90211EE0211EE0211EE02114B
:1011A300DF0211EE0211EE0211EE0211EE0211EE58
:1011B3000211EE0211EE0211E50211EE0211EE022E
:1011C30011EE0211EE0211EE0211EE0211EBE42216
:1011D30074012274FF2274012274FF2274022274A8
:1011E300FE2274022274FE2274FD22740322D2951D
:1011F300D2C77E3400C8121C8574AE6C77121AC82D
:1012030074026C77121AC874106C77121AC874407F
:101213006C77121AC874B06C77121AC874816C7721
:10122300121AC874CF6C77121AC874A16C77121A89
:10123300C874A66C77121AC874A86C77121AC8748B
:101243003F6C77121AC874AD6C77121AC8748B6C22
:1012530077121AC874336C77121AC874C86C771271
:101263001AC874D36C77121AC8E46C77121AC8744C
:10127300D56C77121AC874806C77121AC874D96C3B
:1012830077121AC8741F6C77121AC874DA6C771243
:101293001AC874126C77121AC874DB6C77121AC8E6
:1012A30074406C77121AC81219A974AF6C77021ABA
:1012B300C8CA3B7F307A7301277AB30126E4807E64
:1012C3007E7301280A372D377D267E1B70BE702062
:1012D3004067BE707E38620A376D229E1800207AFE
:1012E3001F01862F112F112F117A1F01862E240023
:1012F300032E18BFC07A1F01867E0F01867CB17A48
:101303001301297C727A23012A7C637A33012B7EB1
:1013130008012C7E50081217247EB301267E730128
:10132300277E08012C121A9C7EB3012624067AB369
:1013330001267EB301280480057EB30128047AB315
:1013430001287E7301280A372D377D267E1B70BE48
:10135300700028030212C3DA3B22CA3B7F307AB300
:1013630000F1E47AB30125121DF07A73012474FDB0
:101373007AB300F2E47AB300F37E7301240A372EC2
:101383003400037A7300F474017AB300F57EB3007A
:10139300F1C454F044017AB300F66D22097200F2ED
:1013A3006E7301257A7301250B24BE24000578ECA6
:1013B3006D2280117F032D127E0B706E7301257ACF
:1013C3007301250B247E7301240A37BD3238E5CA25
:1013D300397F137E0800F7121B921BFD7E730125D4
:1013E3007E6301240A26197200F77E0800F27E73D9
:1013F30001240A572E5400050B54121B1EDA3B22FC
:101403007E370175BE34FC4A58087E34FC4A7A376D
:1014130001757E370175BE3403B608087E3403B602
:101423007A3701757E370173BE34FC4A58087E341F
:10143300FC4A7A3701737E370173BE3403B608085A
:101443007E3403B67A3701737E370171BE34FC4AAA
:1014530058087E34FC4A7A3701717E370171BE34F5
:1014630003B608087E3403B67A3701717E370177F5
:10147300BE34FC4A58087E34FC4A7A3701777E37FB
:101483000177BE3403B608087E3403B67A37017792
:1014930022CA39C0D17E3700370B347A370037BEC2
:1014A30034006478066D337A3700377E3700410B9A
:1014B300347A370041BE34000A78066D337A370038
:1014C300417E3700260B347A370026BE340032784B
:1014D300066D337A3700267E3700770B347A370070
:1014E30077BE34006478066D337A3700777E370031
:1014F300A30B347A3700A3BE34138840066D337AC6
:101503003700A3D0D1DA3932CA3B7D627D73BE7412
:1015130000005806D2FAC2FB8004C2FAD2FB7D3720
:10152300121DAE1A167E34FED97E24007E7A1B303D
:101533007D37121DAE7C377E34FEDA7E24007E7A40
:101543001B30BE7400005806C2F9D2F88004D2F9E9
:10155300C2F87D36121DAE1A167E34FEDB7E2400E1
:101563007E7A1B307D36121DAE7C377E34FEDC7EE8
:1015730024007E7A1B30DA3B22CA3B7D727D63BE38
:101583006400005806D2C4C2C38004C2C4D2C37D5F
:1015930036121DAE1A167E34FED57E24007E7A1BCB
:1015A300307D36121DAE7C377E34FED67E24007E1F
:1015B3007A1B30BE7400005806C2A3D2A48004D2A2
:1015C300A3C2A47D37121DAE1A167E34FED77E2425
:1015D300007E7A1B307D37121DAE7C377E34FED8F9
:1015E3007E24007E7A1B30DA3B22CA3B7F30121CFA
:1015F3005474D0121BB7743B121BB7121C5474D112
:10160300121BB7E47AB30126121B477EA301260AF5
:101613003A2D377D267A1BB0C2B7D2B6121E2DC221
:10162300B6121E2D7EB30126047AB301267E730102
:1016330026BE700D40D2121B477EA301260A3A2D07
:10164300377D267A1BB0D2B7D2B6121E2DC2B61280
:101653001E2D12008CDA3B22CA3BD29012000E12CE
:10166300000EC2903091FDC28C758C00758A00D239
:101673008C2091FDC28C7E14FFFE7E1F0181120817
:1016830056E58C7C0B6C11E58A0A1B4D106D002FFF
:1016930010E41201BF7E149BA67E043A4412009EFE
:1016A3001201FC7F31758C00758A009F117A1F012E
:1016B30081BE38012C38047D3780047E3400FFDA84
:1016C3003B22CA3B7D727D637C7BA5BF00046D66B4
:1016D3006D77BE640000580B6E64FFFF0B64121E2F
:1016E30062800312001EBE740000580B6E74FFFF6D
:1016F3000B74121E5D80031200031A1E7E34FED586
:101703007E24007E7A1B307E34FED67A1BF01A1CB0
:101713007E34FED77A1B307E34FED87A1BD0DA3B78
:1017230022CA3B7A5301377F307A6301367A7301D9
:10173300357AB30134C2C77403121C397EB3013442
:10174300121C397EB30135121C397EB30136121CCB
:1017530039E48015121C6E7EA301380A3A2D377DB9
:10176300267A1BB07EB30138047AB301387E730145
:1017730037BE73013838DDD2C7DA3B2212190012A3
:1017830011F1E4121C1BE4121A701219A9121D9B09
:10179300121D4B121DD0121C9CA9C6A2A9C7A2A937
:1017A300D4FF1219E0121E547E3402587A37009087
:1017B3006D337E2443C87A1F00849F117A1F0088EB
:1017C3007E2441A07A1F008C120F23120C7312186F
:1017D3008280F5CA3B7F307A73018B7AB3018AE446
:1017E3007AB3018D7EB3018A7E73018B121AF3E4FF
:1017F3007AB3018C7E3BB07E7001121AC80B747EE3
:10180300B3018C047AB3018CB410E97EB3018B0469
:101813007AB3018B7EB3018D047AB3018D7E73019C
:101823008DBE700240BEDA3B22CA3B7F307A730121
:101833008F7AB3018EE47AB301917EB3018E7E7306
:10184300018F121AF3E47AB301907E3BB07E7001EC
:10185300121AC80B747EB30190047AB30190B408D2
:10186300E97EB3018F047AB3018F7EB30191047AC9
:10187300B301917E730191BE700240BEDA3B227EBA
:101883003700774D3378367E3400017A370077128C
:101893001A137AB300827CAB6EA300A25EA300820C
:1018A3007AA300817AB300A27EB300811BB16807DB
:1018B30004780A7401800274027AB30044227584A6
:1018C300017E44041FE47A49B01B4478F97EF80191
:1018D300967E0400FF7E141E6B0B0A405D44681A5B
:1018E300692000020B0E0B44800A7E0BB07A29B0EC
:1018F3000B240B0C1B4478F280DF02177F75E90081
:10190300A9D7BA75EA0075930075940075910075AF
:10191300920075950075960075B10075B20075B3A8
:101923000075B40075C90075CA0075CB0075CC008D
:1019330075E10075E20022CAB8CA78C0D17EB3004F
:1019430029B401247EB30043047AB300437E7300B9
:1019530043BE706428127EB30066047AB30066E463
:101963007AB300437AB30029D0D1DA78DAB832CA2D
:10197300796CEE0A5E2E5400B06C77121AC874109C
:101983006C77121AC874026C77121AC86CFFE47E63
:101993007001121AC80BF0BEF01078F20BE0BEE033
:1019A3000840D0DA7922CA796CFF0A5F2E5400B05E
:1019B3006C77121AC874106C77121AC874026C7799
:1019C300121AC86CEEE47E7001121AC80BE0BEE076
:1019D3008078F20BF0BEF00840D0DA7922121E2D87
:1019E300121E2D121E2D121E2D746B6C77120026E3
:1019F300121BDA74197E7007120026741A7E7004A3
:101A0300120026741B7E7008120026741C02002626
:101A13006CAAA2A4E43378057EA001801FA2C4E4CB
:101A23003378057EA0028014A2C2E43378057EA039
:101A3300038009A2FBE43378037EA0047CBA227EF0
:101A4300730066BE700438031210397EB30065B4A8
:101A5300FD1A74017AB300297EB30066B4060DE45F
:101A63007AB300667AB300297AB3004422CAF87CB9
:101A7300FB4CFB780E74C86C77121AC874A16C7790
:101A8300121AC8BEF001780E74C06C77121AC874AB
:101A9300A06C77121AC8DAF822CA3B7F30121AF305
:101AA300E47AB301347E3BB07E7001121AC80B7422
:101AB3007EB30134047AB301347E730134BE7006FD
:101AC30040E3DA3B227C6B4C776804D2968002C2F7
:101AD30096C2957E7008C2937CB630E704D2978095
:101AE30002C297D2933E601B7078EBD295D29622B6
:101AF300CAF87CFB0BF10A572E5400B06C77121A0C
:101B0300C87CBF54F0C4540F44106C77121AC87CBD
:101B1300BF540F6C77121AC8DAF822CA3B7AB301A2
:101B2300947F30E4800D7E3BB00B74121E177EB39E
:101B33000195047AB301957E730194BE73019538C0
:101B4300E5DA3B22CA796CFFD2B76CEE3EF0D2B62F
:101B5300121E2DA2B7E4334CFBC2B6121E2D0BE0AE
:101B6300BEE00840E77CBFDA79221210397EB30069
:101B730065B4FD1A74017AB300297EB30066B40418
:101B83000DE47AB300667AB300297AB30044227F66
:101B9300217F707F10800A7E2B307A1B300B540B11
:101BA30034691FFFFD7D011B04790FFFFD4D117883
:101BB300E67F1722CA797CFB6CEE3EF0A2D792B780
:101BC300D2B6121E2DC2B6121E2D0BE0BEE0084087
:101BD300E9121D0BDA792200007EA0057E70907E4B
:101BE30060477CB6147C6B78F97CB7147C7B78F205
:101BF3007CBA147CAB78EB22BE3400004806C28169
:101C0300D2828004D281C282BE2400004805C283EE
:101C1300D28422D283C28422CAF87CFB4CFB78078D
:101C230074A66C77121AC8BEF001780774A76C7794
:101C3300121AC8DAF8227C6B7E7008C2937CB63025
:101C4300E704D2978002C2973E60D2931B7078EB71
:101C530022121E2D121E2DD2B7D2B6121E2D121E07
:101C63002DC2B7121E2DC2B6021E2D6CAA7E70089D
:101C7300C2933EA03094020BA0D2931B7078F17CE8
:101C8300BA227D13800E7E0407087D301B044D337A
:101C930078F81B144D1178EE22759850438E01434A
:101CA3008E0475D78F75D6FD438E10D2ACD2AF227A
:101CB300CA3B7F3080087E3BB00B74121E4B7E3BC9
:101CC300B070F3DA3B22CA3B7F3080087E3BB00B17
:101CD30074121E177E3BB070F3DA3B22CA3B7F308F
:101CE30080087E3BB00B74121E227E3BB070F3DA89
:101CF3003B2275AC1053ACBF438E0475D7CC75D65D
:101D0300FF438E10A9D3AF22D2B7121E2DD2B61223
:101D13001E2DA2B792D7C2B6121E2DA2D722748D42
:101D23006C77121AC874106C77121AC874AE6C7779
:101D3300021AC8748D6C77121AC874146C77121A4D
:101D4300C874AF6C77021AC8438E4053890F758BE2
:101D5300A0758DF6C28FD28ED2ABD2AF227EB300E6
:101D630044B40103121B6D7EB30044B40203021A90
:101D73004222CA1BC0D17E1F01810B1C7A1F018125
:101D8300D0D1DA1B32759A50438E0475D78F75D62E
:101D9300FD438E10A9D0AF22438E805389F0758AFC
:101DA30000758C00C28DC28CD2A922BE34000058AB
:101DB300066D229D2380027D237D3222CA3B7F3024
:101DC300121DF07CB77F03121B1EDA3B2243DD0298
:101DD30075D54075D4A243DD0843AF202212165BAC
:101DE300BE340028380674017AB30185226D33802E
:101DF300020B347E0BB00B1470F7227D236D3380FE
:101E0300020B34BD2338FA22C0D1A9309A03A9C0EA
:101E13009AD0D1327AB19BA9319AFCA9C19A227A7C
:101E2300B19BA9319AFCA9C19A227EA0077CBA145E
:101E33007CAB78F922C0D1309802C298D0D132D28B
:101E4300A4D2C4D2C2D2FB227AB1993099FDC299ED
:101E530022120ADB12000302001ED283C28422D2A2
:101E630081C28222283029000001000A01000100FA
:101E7300280000010029000004002B0000000000DE
:101E830004002F00000000000400330000000000E5
:101E9300040039000000000004003D0000000000C1
:101EA300010043000001004400000400450000005D
:101EB300000004004900000000000400610000006D
:101EC3000000010066000004006700000000000439
:101ED300006B000000000004006F0000000000021F
:101EE300007300000002007500000002007900008A
:101EF3000002007B00000002007D00000002007F62
:101F0300000000010081000001008200000100A226
:101F130000000200A300000004018600000000008E
:101F230002016D00000002016F0000000201710058
:101F330000000201730000000201750000000201AD
:101F430077000000010196000004018100000000F9
:101F530000010185000006014EFD00033100CF00A2
:101F6300050154FD000202FD00050159FD00028830
:101F7300770005015EFD000204FB00050163FD001F
:101F83000221DE00050168FD000203FC0000593A4E
:101F9300202535642000523A202535642000703A0C
:101FA3002534642C643A253464005A3A2535642078
:101FB300200062617369633A25336420006C696EA3
:101FC300653A253264202000390038003700360096
:0E1FD3003500340033003200310030002E00A3
:00000001FF
