:100000000218F76CAA7E7008C2C73EA03097020B98
:0A001000A0D2C71B7078F17CBA2261
:07001B0002168528302900C0
:10002300021DAB5D22680D5D0078122D220B406826
:10003300099F11222D000B0078F902019D12016026
:100043005C800B806808248150072CB0500A0201A1
:10005300A52CB040030201A27C8B5D1178267CB1F4
:100063007CA5BE1080680A5D33780DA5BD80057F31
:100073001002018F6D0080307F017C5B7CB17CA519
:10008300AD1280245D337806A5BD80F080E1CA8877
:100093007D41AD437CB17CA5AD122D1450020B0400
:1000A3007C5BAD232F01DA88A42D05BE00804006BA
:1000B3000B80780480982F007C437C507C617C7299
:1000C3000201797EA020800C7EA01080057EA0080E
:1000D3006C556D333392D5500A6E34FFFF6E24FF97
:1000E300FF0B1CA5EC3340062F11D5F0F6227CBA8A
:1000F300247EA2D5137C767C65A5CC92E77C5B221B
:100103007CB5337CB43392D54E5080248140039F19
:1001130011227C457C567C676C7724E0500E7E1C54
:10012300FFFF221E341E2450034E60800478F430F7
:10013300D50A6E34FFFF6E24FFFF0B1C227F707FF6
:10014300517EC400007ED400497E9401530201DE37
:100153004005E47A7BB0227A7BB00B7C222D00929F
:10016300D50E104E10807D422D445002B2D54E5014
:10017300806C447CB8222C4450120B1C7E40005EE1
:10018300507FBE18000078040B806816A2D57CB897
:10019300137C4B7CB592E77C5B227E1CFFFF229F86
:1001A30011227E24FF8020D5026C456D3322540F2B
:1001B3002490D43440D430F30CBEB0414007BEB0D9
:1001C3005B500224204CCC68021BC00B84D389945F
:1001D3004CCC680B74201201C880F5CA3B6D889F14
:1001E300337CAE7E5BB00B5C7007C37D38DA3B8932
:1001F30094B42569C2F37E5BB00B5CA5F824D0BE32
:10020300B00A501B7E500A20F60DAC5CA52D7CCBAA
:1002130070034EF00180DDAC5DA52D7CDB80D52421
:10022300CFBEB01AA5E850055E00DFD2F39005B348
:10023300A3E4936011BCB078F77417934CAB30F61A
:10024300B34EF08080AEA3E4936010BCB078F77433
:1002530016937C3B7423937C2B89147CB08013749A
:10026300201201C820F205BEC00250F31B6D29B64F
:1002730000011201C80201D31B6E691600020B6A4A
:1002830000BE08000078087E0400FF7E14001E20D4
:10029300F21E4CCC681A7F10E47E1B804C886807E2
:1002A3000B1C04BCBD78F2C2F6CA0B1203B2DA0B04
:1002B3007E0BB060C0CA0B1201C8DA0B0B0C4CDD0D
:1002C30068EE1BD078EA80ADD2F07E101080037EFA
:1002D30010085EB05F800AD2F67E100A80057E1099
:1002E3000AC2F66D119F117E00201B6C7E6B70306D
:1002F300F6021A3720F1051B6C7E6B6030F6041A88
:10030300261A2430F0051B6D0B6A20A5EC3382F608
:1003130092F6500A7CEA9F229F217F127CAE4C44C6
:10032300780F7C457C567C676C772E00F878EF80DD
:10033300122F117CB3337C3B9CB140047C3B0B708C
:10034300A5D8EE7CB230E005DAB8C44C3BCA380B12
:10035300207E00207E3000BE18000078C1BE100849
:10036300780730F404C2F480B5CA287CB2BCBD3827
:10037300027CBD1203B2DA28BC2D500A1BD0E4CA9A
:10038300281201B180F07CB213DAB84004C4CAB8B1
:10039300C4CA28BEF08040095CDD7805A5DA026096
:1003A300065EF07F1201B1DA28A5DADA0201D3BEC4
:1003B300F001680F30F402240220F50620F7033021
:1003C300F6010420F229BCBC5025CAB87CBF13B087
:1003D300E67420501174307C8A5E80F06808120342
:1003E300F25EA00F80031201C8DAB8BCBC78DB3020
:1003F300F40F74301201C8745830F3027478120188
:10040300C830F605742D0201C8742B20F5F874204A
:1004130020F7F3221B6C7E6BB010F1021B6C20F6ED
:100423000B30E704F404D2F27CCB800520E7057C93
:10043300DB0201F75EF07F80F81B6E691600020B8A
:100443006A0030F0076D221B0A200B0D1B0A800285
:1004530001E2E46C22BE3007500B7F1F2D312E3496
:10046300FFF77E39B0227CBF20E7A8742E4EF080C0
:100473000201C812059C403D7CBD7003047CDB1265
:1004830006B37C3D4C3368101B307CBE20E409125C
:10049300045570044C3378F07CBD7CD3BEA0FD487A
:1004A3001CBCAB5818E49CBA2CB31801E47CDB02E7
:1004B300053D12059C406E7CBD041206B37AFBA079
:1004C3007CAE7CBDA2F492F0C2F44002600104242D
:1004D300051203B27E30FF0B30120455CA381201E5
:1004E300B120F0044CDD6803120469DA38BC3D78AE
:1004F300E6740E1201B1742B7EFBA030F707742D46
:100503006EA0FF0BA07AFBA01201C87EA00A7EFB9F
:10051300B0847AFBA01201B17EFBB01201B19EF848
:1005230000080201D3D2F27ED00002029212059C8F
:1005330040F37CBA2CBD041206B37AFBA07CBA7CD0
:10054300AE30E701E40420F4044CDD6805D2F0C2C8
:10055300F4042CBD1203B26C337EFBB0601B20E7A6
:1005630012147AFBB0120455CA381201B1DA380BEF
:100573003080E6047AFBB01B30120455CA381201EE
:10058300B14CDD68071204691BD080E19EF80009B5
:1005930030F0031204690201D37CEA7CAF10F70345
:1005A3007ED0067CFA1B6E693600020B6A200205B8
:1005B300FB2D2B204C4248232E0053584F444943D4
:1005C30055502A4E46454700042080010200104042
:1005D3007BCDD2DADA67E1CB173C30B57602020283
:1005E300020202020204040504044E614E002B4978
:1005F3004E46002D494E46007D522D557CBE92E657
:100603007CEB7CBA601F0470287CB5C2E77E0400D3
:10061300FF60067E1405EDD3227E1405F640047EAA
:100623001405F1D322DA099F22CA2BCA2BC3CA09A4
:10063300220A0A7E144D10AD109E083AF09E102631
:100643007CB5C2E77EA0567C9BA46E54FFFF2E545C
:10065300C511ACA92D15E4A539CAB8CA1B20E70AF0
:100663001207A7DA1B1206F6800AF4041207A7DAA8
:100673001B120026DAA87CB5337CB4334E50806C51
:100683004424822F111478FBDA497407BE400A40D0
:10069300099E400ACA0201140BA0CA486C442F11D8
:1006A3007F012F112F112F101478EFCA48CA492246
:1006B3007F0F20E73ABEB007400274070A0B2D10E4
:1006C3009E1400097E19B02EB0FB501F4C11681701
:1006D300E47A19B01B147E19B0047A19B0B40A0B6A
:1006E300E47A19B0A5D9ED0BA074017A19B0225E92
:1006F300E0BF22BE24FFFF6806BE04FFFF780302AB
:10070300019D1201605CB00468F57CB8A54868EFF0
:100713007CB870039F1122A5B800030201A52E0027
:100723008150079C8038070201A29C8050ED0A513A
:10073300C2E74D51780302018F7E5400807E901AE8
:100743006C0080061B9068142F11BF1040049F108B
:100753004CAB0330E7EECAA86CAA80E8DA39DA5862
:100763007C4ABE5080500A1B8068BC2F1150020B7C
:10077300700201793F8000004120000042C8000060
:10078300447A0000461C400047C3500049742400CB
:100793004B1896804CBEBC205A0E1BCA6753C21C12
:1007A300749DC5AE7C7B600654076816232312072D
:1007B300CC7CB75438680A7F101207C91200267F11
:1007C30001227CB7543803241C6CAA2E5407777E6D
:1007D3004400FF0B2A0069120002227D02AD31ADF5
:1007E300102D21226D0074104D00780B4D227827B7
:1007F3008D317D126D22227D437D326D222F112D8D
:10080300445002A50FBF1040049F100B901478EDC5
:100813007F016D227D34227D417D138D247D022F46
:10082300004004BD0440049D040B141478F17D239F
:100833007D317D106D0022CA3B7F307A7300227AAE
:10084300B30021E4020A477E7300230A372D377D64
:10085300267E1BA0BEA0B050030208ECBEA0F72862
:10086300030208EC7EB300230A3B2D377D2629B112
:100873000001BEB0A140720A3A6D229E1800B07EFC
:1008830014005E1207DE7A1F00A00A1B6D002E08FB
:1008930002AD2F107A1F00A07E1400207E1F00A03F
:1008A3001207DE7A1F00A07E0F00A07CB17A13002E
:1008B300247C727A2300257C637A3300267E080029
:1008C300277E50201217567EB300217E7300227EAE
:1008D3000800271217B17EB3002124107AB3002138
:1008E3007EB300230BB1020A477E7300230A372D20
:1008F300377D267E1B70BE70A150030209AB7E7349
:1009030000230A372D377D267E1B70BE70A3280374
:100913000209AB7E7300230A372D377D2629B100E8
:1009230001BEB0A150030209AB7EA300230A3A2DF6
:10093300377D267E1BA00A3A6D229E1800A17E14E5
:10094300005E1207DE7A1F00A00A1B6D009E0800DE
:10095300A12F107A1F00A07E1400207E1F00A0127A
:1009630007DE7A1F00A07E0F00A07CB17A1300245B
:100973007C727A2300257C637A3300267E08002765
:100983007E50201217567EB300217E7300227E080C
:1009930000271217B17EB3002124107AB300217E01
:1009A300B300230BB1020A477E7300230A372D37A6
:1009B3007D267E1B70BE70205003020A427E7300A8
:1009C300230A372D377D267E1B70BE707E38707EDE
:1009D3007300230A372D377D267E1B700A376D225D
:1009E3009E1800207A1F00A074042F111478FB7A3C
:1009F3001F00A02E2400032E18CF807A1F00A07E94
:100A03000F00A07CB17A1300247C727A2300257C2A
:100A1300637A3300267E0800477E50101217567EF5
:100A2300B300217E7300227E0800471218077EB3AD
:100A3300002124087AB300217EB300230480057EBD
:100A4300B30023047AB300237E7300230A372D37C0
:100A53007D267E1B70BE7000280302084ADA3B2203
:100A6300CAF87EF3009DBEF0044003020B1F7E37DD
:100A730000ACBE3400016803020B1F7E3400017A10
:100A83003700AC7E341E227E2400FF7E1BB07E34F2
:100A93001E237E2400FF7E1B707EF41E247EE40052
:100AA300FF691700020B7A0012083A7E341E2B7E70
:100AB3002400FF7E1BB07E341E2C7E2400FF7E1B91
:100AC300707EF41E2D7EE400FF691700020B7A008E
:100AD30012083A7E341E347E2400FF7E1BB07E341F
:100AE3001E357E2400FF7E1B707EF41E367EE400DE
:100AF300FF691700020B7A0012083A7E341E3D7E0E
:100B03002400FF7E1BB07E341E3E7E2400FF7E1B2E
:100B1300707EF41E3F7EE400FF020BE8BEF0047813
:100B2300197E3700ACBE340001780F121A34E47A10
:100B3300B3009A7E340002020C10BEF0045003028C
:100B43000BF47E3700ACBE3400026803020BF47E64
:100B5300341E467E2400FF7E1BB07E341E477E2457
:100B630000FF7E1B707EF41E487EE400FF691700C1
:100B7300020B7A0012083A7E341E4F7E2400FF7E59
:100B83001BB07E341E507E2400FF7E1B707EF41E3D
:100B9300517EE400FF691700020B7A0012083A7EC7
:100BA300341E587E2400FF7E1BB07E341E597E24E3
:100BB30000FF7E1B707EF41E5A7EE400FF6917005F
:100BC300020B7A0012083A7E341E617E2400FF7EF7
:100BD3001BB07E341E627E2400FF7E1B707EF41EDB
:100BE300637EE400FF691700020B7A0012083A8063
:100BF30020BEF005501B7E3700ACBE3400027811D6
:100C0300121A3474067AB3009A7E3400017A3700DC
:100C1300ACE47E73009A7E141DD67E0400FF120896
:100C23003A7EB3009A121DB5DAF8227E73009DA5B1
:100C3300BF00137EB3009F700DA202E43378077EDA
:100C4300B30094048016A5BF00177EB3009F7011F4
:100C5300A202E433B4010A7EB30094147AB300947D
:100C6300227EA3009FBEA00178067E1400018002AD
:100C73006D11A5BF00067E24000180026D225D2157
:100C83006809A202E4337803020D82A5BF000FBEF8
:100C9300A001780AA202E433B40103020D99A5BFAF
:100CA30001114CAA780DA202E43378077EB30095B4
:100CB300048014A5BF01154CAA7811A202E433B431
:100CC300010A7EB30095147AB3009522A5BF010EE5
:100CD300BEA0017809A202E4337803020D82A5BF06
:100CE300010FBEA001780AA202E433B40103020D8E
:100CF30099A5BF02114CAA780DA202E43378077EAE
:100D0300B30096048014A5BF02154CAA7811A20261
:100D1300E433B4010A7EB30096147AB3009622A595
:100D2300BF020DBEA0017808A202E4337802804F0F
:100D3300A5BF020EBEA0017809A202E433B40102EA
:100D43008054A5BF03114CAA780DA202E43378079F
:100D53007EB30097048014A5BF03154CAA7811A293
:100D630002E433B4010A7EB30097147AB3009722E6
:100D7300A5BF0312BEA001780DA202E43378077E5B
:100D8300B30098048015A5BF0315BEA0017810A277
:100D930002E433B401097EB30098147AB3009822B5
:100DA300CA3B7CD67F707CE77CFB9F117A1F0016C1
:100DB3007408ACBD0A3F2D352E3400087CF76D1145
:100DC3007E0442C87F171200261201037A1F001AFD
:100DD3000A5F9E5400187C7E7E141F017E0400FF70
:100DE30012083A6CCC020ED67ED4000A7E7F001A1B
:100DF3007F177D1D1207E77A0F00167F177D1D12DF
:100E030007E77A1F001A9EF008BEC00278039EF01F
:100E1300087E2F0016BE28000A4003020ED47EA0CF
:100E230003A4900E2973020E47020E55020E6302AD
:100E33000E71020E7F020E8D020E9B020EA9020E90
:100E4300B7020EC57CBF7C7E7E141EFF7E0400FFAE
:100E5300807C7CBF7C7E7E141EFD7E0400FF806E42
:100E63007CBF7C7E7E141EFB7E0400FF80607CBF03
:100E73007C7E7E141EF97E0400FF80527CBF7C7E44
:100E83007E141EF77E0400FF80447CBF7C7E7E14AC
:100E93001EF57E0400FF80367CBF7C7E7E141EF32D
:100EA3007E0400FF80287CBF7C7E7E141EF17E04BE
:100EB30000FF801A7CBF7C7E7E141EEF7E0400FF41
:100EC300800C7CBF7C7E7E141EED7E0400FF120826
:100ED3003A0BC0BCDC2803020DEBDA3B22D296D2DC
:100EE300937E3400C8121CAD74AE6C77121B54741D
:100EF300026C77121B5474106C77121B5474406C81
:100F030077121B5474B06C77121B5474816C771274
:100F13001B5474CF6C77121B5474A16C77121B543F
:100F230074A66C77121B5474A86C77121B54743F0D
:100F33006C77121B5474AD6C77121B54748B6C77E3
:100F4300121B5474336C77121B5474C86C77121BC6
:100F53005474D36C77121B54E46C77121B5474D5FE
:100F63006C77121B5474806C77121B5474D96C7792
:100F7300121B54741F6C77121B5474DA6C77121B98
:100F83005474126C77121B5474DB6C77121B5474F9
:100F9300406C77121B54121A3474AF6C77021B54D3
:100FA300CA69CAF87EB3009B14680C046803021074
:100FB30051120A630210517E341E217E2400FF7EEB
:100FC3001B700A277E64000A8D267EF3009D0A3F6C
:100FD300BD32780A7E341E287E2400FF805B7E3477
:100FE3001E2A7E2400FF7E1B700A278D260A3FBD22
:100FF30032780A7E341E317E2400FF803C7E341E0C
:10100300337E2400FF7E1B700A278D260A3FBD32E4
:10101300780A7E341E3A7E2400FF801D7E341E3CF7
:101023007E2400FF7E1B700A278D260A3FBD32787F
:101033000D7E341E437E2400FF0B1A309934E47E68
:1010430073009C7E141DD67E0400FF12083ADAF862
:10105300DA6922CA3B7F307A7300097AB30008E465
:10106300807E7E73000A0A372D377D267E1B70BE75
:1010730070204067BE707E38620A376D229E18006A
:10108300207A1F00A02F112F112F117A1F00A02EDD
:101093002400032E18BFC07A1F00A07E0F00A07C7F
:1010A300B17A13000B7C727A23000C7C637A3300D1
:1010B3000D7E08000E7E50081217567EB300087E80
:1010C3007300097E08000E121B287EB30008240655
:1010D3007AB300087EB3000A0480057EB3000A04D5
:1010E3007AB3000A7E73000A0A372D377D267E1BEA
:1010F30070BE70002803021065DA3B227E341EA006
:101103007E2400FF7E1BB07E341EA17E2400FF7E62
:101113001B707EF41EA27EE400FF691700020B7AA7
:101123000012083A7458CAB86C77CA787E4300979D
:10113300E41200D07E14D70A7E043C231200267FDB
:10114300017E6004DA78DAB8120DA37E341EA97E1C
:101153002400FF7E1BB07E341EAA7E2400FF7E1B6C
:10116300707EF41EAB7EE400FF691700020B7A0069
:1011730012083A7439CAB87E7002CA787E4300985E
:10118300E41200D07E14D70A7E043C231200267F8B
:10119300017E6004DA78DAB8020DA37E341E7C7E09
:1011A3002400FF7E1BB07E341E7D7E2400FF7E1B49
:1011B300707EF41E7E7EE400FF691700020B7A0046
:1011C30012083A744BCAB86C77CA787E430095E428
:1011D3001200D07E14D70A7E043C231200267F011E
:1011E3007E6004DA78DAB8120DA37E341E857E247D
:1011F30000FF7E1BB07E341E867E2400FF7E1B70A4
:101203007EF41E877EE400FF691700020B7A00124A
:10121300083A7439CAB87E7002CA787E430098E4EB
:101223001200D07E14D70A7E043C231200267F01CD
:101233007E6004DA78DAB8020DA37E341E6A7E2457
:1012430000FF7E1BB07E341E6B7E2400FF7E1B706E
:101253007EF41E6C7EE400FF691700020B7A001215
:10126300083A7439CAB86C77CA787E430094E4129A
:1012730000D07E14D70A7E043C231200267F017E11
:101283006004DA78DAB8120DA37E341E737E24006C
:10129300FF7E1BB07E341E747E2400FF7E1B707E97
:1012A300F41E757EE400FF691700020B7A00120832
:1012B3003A7439CAB87E7002CA787E430098E41241
:1012C30000D07E14D70A7E043C231200267F017EC1
:1012D3006004DA78DAB8020DA37E341E8E7E240011
:1012E300FF7E1BB07E341E8F7E2400FF7E1B707E2C
:1012F300F41E907EE400FF691700020B7A001208C7
:101303003A744BCAB86C77CA787E430096E41200ED
:10131300D07E14D70A7E043C231200267F017E6010
:1013230004DA78DAB8120DA37E341E977E2400FF08
:101333007E1BB07E341E987E2400FF7E1B707EF4DD
:101343001E997EE400FF691700020B7A0012083A27
:101353007439CAB87E7002CA787E430098E41200DA
:10136300D07E14D70A7E043C231200267F017E60C0
:1013730004DA78DAB8020DA3A203E433B4010280DD
:101383000302140CA2B4E433B401377E370092BED7
:101393003407D0502D6D337A370092121A34C203BA
:1013A3007EB3009EBEB002500304800274017AB380
:1013B300009EB40204D2018002C20174017AB30018
:1013C3009B22A2B4E433B401297E370092BE340FCA
:1013D300A0281F6D337A370092121A34C203C20158
:1013E300E47AB3009E7AB3009B7AB3009C7AB3008D
:1013F3009F22A2B4E433B401107E370092BE3407B7
:10140300D028066D337A37009222740A7E34FEB2F6
:101413007E24007E7A1BB0E47E34FED07A1BB07447
:10142300EF7E34FED17A1BB0E47E34FECC7A1BB05F
:1014330074607E14FEC87E04007E7A0BB07E14FEB8
:10144300C97A0BB074117A1BB074037E34FED57A5B
:101453001BB074E87E34FED67A1BB074037E34FE70
:10146300D77A1BB074E87E34FED87A1BB074037E3F
:1014730034FED27A1BB074E87E34FED37A1BB07488
:10148300057E34FEB17A1BB074807E34FEDD7A1B98
:10149300B074017E34FEC07A1BB0227E3700744DD7
:1014A3003378777E3400017A3700747E73008C1AA8
:1014B300377A3700477E08005D7E341F0F7E240095
:1014C300FF120140E46C777E08005D12083A7E3714
:1014D30000A67A3700477E3700A47A3700457E0896
:1014E300005D7E341F077E2400FF120140E47E70FE
:1014F300027E08005D12083A7E3700907A37004773
:101503007E08005D7E341F037E2400FF120140E449
:101513007E70047E08005D02083A22A201E433785B
:101523006E7EA3009B4CAA78187EB3009ABEB000CF
:10153300402ABEB00438250A3B0B357A73009A80E3
:101543001BBEA00178167EB3009CBEB000400DBE4A
:10155300B00250080A3B0B357A73009CBEA00168A9
:10156300137EB3009DBEB000400ABEB0063805042A
:101573007AB3009DBEA00178137EB3009FBEB00076
:10158300400ABEB0013805047AB3009F0219FDC2B8
:1015930002020C2EA201E433786E7EA3009B4CAAB8
:1015A30078187EB3009ABEB006382ABEB002402532
:1015B3000A3B1B357A73009A801BBEA00178167E06
:1015C300B3009CBEB004500DBEB00240080A3B1BE2
:1015D300357A73009CBEA00168137EB3009DBEB034
:1015E30000280ABEB0073805147AB3009DBEA001D7
:1015F30078137EB3009FBEB000400ABEB001380529
:10160300147AB3009F0219FDD202020C2E7E37001A
:10161300764D33786C7E3400017A3700761216F7F4
:101623007AB3008CBEB00118097E73008CBE70FFC4
:10163300581B7EB3008CB4FE03E480137EB3008C8E
:10164300B402107E7300737A73008C800674017A7F
:10165300B3005C7E73008C7A7300731A077E1402E6
:1016630058AD107D312E3700907A3700A67E2700C3
:10167300909D217A2700A4121C387EB3005C0219C6
:101683008622CAB8CA39C0D17E3700740B347A3780
:101693000074BE34006478066D337A3700747E3785
:1016A30000760B347A370076BE34000A78066D3341
:1016B3007A3700767E3700AEBE34000028061B342E
:1016C3007A3700AE7E3700710B347A370071BE343F
:1016D30027102808A2B4E4337802D203A203E43328
:1016E300B4010A7E3700920B347A370092D0D1DAF4
:1016F30039DAB8326CAAA2CAE433B401057E7004A5
:1017030080026C77A2CBE433B401054E70028003F0
:101713005E70FDA285E433B401054E700180035E63
:1017230070FE2E700068211B7068132E70FD681305
:101733002E70FD68182E700578166CAA80127EA094
:10174300FF800D7EA00180087EA00280037EA0FEA4
:101753007CBA22CA3B7A53005A7F307A6300597AA3
:101763007300587AB30057C2937403121C927EB36A
:101773000057121C927EB30058121C927EB300597C
:10178300121C92E480151200037EA3005B0A3A2D1B
:10179300377D267A1BB07EB3005B047AB3005B7E91
:1017A30073005ABE73005B38DDD293DA3B22CA3B27
:1017B3007F307A7300587AB30057E47AB3005A7EC5
:1017C300B300577E730058121B7FE47AB300597E2F
:1017D3003BB07E7001121B540B747EB30059047A24
:1017E300B30059B410E97EB30058047AB300587EAD
:1017F300B3005A047AB3005A7E73005ABE70024093
:10180300BEDA3B22CA3B7F307A7300587AB3005763
:10181300E47AB3005A7EB300577E730058121B7FDD
:10182300E47AB300597E3BB07E7001121B540B74F3
:101833007EB30059047AB30059B408E97EB3005863
:10184300047AB300587EB3005A047AB3005A7E7305
:10185300005ABE700240BEDA3B22CAF8A2B2E43399
:101863007808A2B3E4337802D200A200E433B401CF
:1018730035A2B330B201B35008A2B2E4337AB30055
:1018830099A2B2E433B4011EA2B3E433B40117C284
:10189300007EF30099BEF001780512151E80074CF7
:1018A300FF7803121597DAF822A2B2E433B40109E0
:1018B300A2B3E433B40102D204A204E433B4013189
:1018C300A2B330B201B35008A2B3E4337AB30099A0
:1018D300A2B2E433781BA2B3E4337815C2047EB317
:1018E3000099B4010312151E7EB3009970031215FB
:1018F3009702185D7584017E44041FE47A49B01B86
:101903004478F97EF800B1C200C201C202C203C228
:10191300047E0400FF7E141EB10B0A405D44681A66
:10192300692000020B0E0B44800A7E0BB07A29B0AB
:101933000B240B0C1B4478F280DF021A6BCA3B7F2B
:1019430030E47AB3001F7AB3001EE47E73001E12E4
:101953001B7FE47AB3001F7E3BB07E7001121B54E1
:101963000B747EB3001F047AB3001FB480E97EB307
:10197300001E047AB3001E7E73001EBE700840CAA8
:10198300DA3B227C7BA5BF000A6D337A3700A47A49
:101993003700A67E1700A41A027E34FED57E2400EB
:1019A3007E7A1B107E34FED67A1B307E1700A61A71
:1019B300027E34FED77A1B107E34FED87A1B302287
:1019C30075E900A9D7BA75EA007593007594007597
:1019D300910075920075950075960075B10075B20A
:1019E3000075B30075B40075C90075CA0075CB00E6
:1019F30075CC0075E10075E20022CA796CEE0A5ECF
:101A03002E5400B06C77121B5474106C77121B5455
:101A130074026C77121B546CFFE47E7001121B542A
:101A23000BF0BEF01078F20BE0BEE00840D0DA799C
:101A330022CA796CFF0A5F2E5400B06C77121B54D4
:101A430074106C77121B5474026C77121B546CEE77
:101A5300E47E7001121B540BE0BEE08078F20BF0C1
:101A6300BEF00840D0DA79221219C3120EE0E41254
:101A73001C587401121AFC121A34121D49121CC488
:101A8300A9C6A2A9C7A2A9D4FF121DD07E34019072
:101A93007A37009012161012149E80F8CAF87CFB55
:101AA300121D71746C121ACE121D5E7CBF121ACEF7
:101AB300121D5E121D71746D121ACE121D5E121B61
:101AC300AA7CFB121D917CBFDAF822CA797CFB7ECB
:101AD300E008C2A07405121D9F7CBF30E704D2A2A8
:101AE3008002C2A27405121D9FD2A03EF0121D9F58
:101AF3001BE078DEC2A0DA7922CAF87CFB4CFB78C3
:101B03000E74C86C77121B5474A16C77121B54BEED
:101B1300F001780E74C06C77121B5474A06C7712AA
:101B23001B54DAF822CA3B7F30121B7FE47AB300DE
:101B3300B07E3BB07E7001121B540B747EB300B0B9
:101B4300047AB300B07E7300B0BE700640E3DA3BA4
:101B5300227C6B4C776804D2958002C295C2967E34
:101B63007008C2C77CB630E704D2948002C294D214
:101B7300C73E601B7078EBD296D29522CAF87CFBE5
:101B83000BF10A572E5400B06C77121B547CBF54D0
:101B9300F0C4540F44106C77121B547CBF540F6C69
:101BA30077121B54DAF822CA796CFF7EE008D2A0C0
:101BB3007405121D9F3EF030A2034EF001C2A074C3
:101BC30005121D9F1BE078E67CBFDA79227F70A99E
:101BD300D6BC0000A935BCFCA9C5BCE5BD7C4B6CDB
:101BE30055E5BE0A3B2D32E5BC0A5B0B54F5BC1B25
:101BF3007A3022E5BC0A5B0B54F5BCA9D6BC0000C5
:101C0300A935BCFCA9C5BCE5BD7C4B6C55E5BE0A3A
:101C13003B2D3222E5BC54F04408F5BCA9D6BC00E8
:101C230000A935BCFCA9C5BCE5BD7C4B6C55E5BE24
:101C33000A3B2D3222BE3400004806C282D2818084
:101C430004D282C281BE2400004805C283D284220A
:101C5300D283C28422CAF87CFB4CFB780774A66C3F
:101C630077121B54BEF001780774A76C77121B54CC
:101C7300DAF82253BCF0A9D6BC0000A935BCFCA9F4
:101C8300C5BCE5BD7C4B6C55E5BE0A3B2D32227CC1
:101C93006B7E7008C2C77CB630E704D2948002C260
:101CA300943E60D2C71B7078EB227D13800E7E04B6
:101CB30007087D301B044D3378F81B144D1178EE63
:101CC30022759850438E01438E0475D78F75D6FDC8
:101CD300438E10D2ACD2AF22C2A0A20592A2740549
:101CE300121D9FD2A0121D9FC2A0D2A2021D9F74DB
:101CF3003F7E34FEA87E24007E7A1BB075DE2375FA
:101D0300BCF0A9D7BC22CA3B7F3080087E3BB00B16
:101D130074121DB57E3BB070F3DA3B22748D6C7781
:101D2300121B5474106C77121B5474AE6C77021B25
:101D330054748D6C77121B5474146C77121B547487
:101D4300AF6C77021B54538EBF53890F758B9C75F1
:101D53008DFFC28FD28ED2ABD2AF22D2A074051226
:101D63001D9FA2A29206C2A0121D9FA20622D2A26A
:101D7300D2A07405121D9FC2A2121D9FC2A0227A77
:101D83003700AE7E3700AEBE34000038F622C2A262
:101D9300D2A07405121D9FD2A2021D9F7C7B007CE2
:101DA300671B70A5BE00F722C0D1309802C298D03D
:101DB300D1327AB1993099FDC29922C282D281C2BD
:101DC30083D28422D282C281D283C2842212140D8E
:101DD300021DBE3E00B2E2CAD4B7A2C7F23A00B8AF
:101DE300A9D1F6BDC73A00B5F7D7F3D3D23A00B9B4
:101DF300A6C4DC3A00D7AACBD93A00C6E4CBFB0091
:101E0300BFD8D6C600B8A9D1F6BDC700BDC7B6C8EE
:101E1300B5F7BDDA00D7AACBD9B5F7BDDA000A10FA
:101E23000000FF1E18123D0B100200FF1E0F119E33
:101E33000C100400FF1E0812DC0D100600FF1E0329
:101E430010FF0E100000FF1DFE00000F100200FF28
:101E53001DFE000010100400FF1DFE0000111006FF
:101E630000FF1DFE0000140F0000FF1DF800001509
:101E73000F0200FF1DF20000160F0000FF1DEA0015
:101E830000170F0200FF1DF20000180F0000FF1DD6
:101E9300E20000190F0200FF1DF200001A0F0000FC
:101EA300FF1DD800001B0F0200FF1DF20000000100
:101EB300005C01000200710000000400A0000000AB
:101EC30000000200AC0001000200920000000100CB
:101ED3009D000001009E000001009F00000200A47D
:101EE3000000000200A6000000003900380037009F
:101EF30036003500340033003200310030002E004C
:101F0300253364002533642C253364002531642094
:031F13002020008B
:00000001FF
