:1000000002202B6CAA7E7008C2C73EA03097020B5C
:0A001000A0D2C71B7078F17CBA2261
:07001B00021B6C28302900D4
:1000230002296802039A6E00807CB1337CB0336886
:100033000D0468EF7CB5337CB43378037F1022045E
:1000430068E17D5092F77D457D51BF2140067C805C
:100053007F017F1212035D7EA1D05CB00478032080
:10006300D5C17CB00478075002B2D50203A292D561
:10007300BE80FF68F67CB89CB06C00602AB418059B
:100083007C4102037650FB80032F00047C9B5E902F
:100093000778F630E4067C437D106D0030E3087C7E
:1000A300437C327C210A0030F5199F10780E22021E
:1000B300039F1B8068F92F1150020B707CB530E74A
:1000C300F1801B2D317CB5A5397C5B50110B8078F9
:1000D300030203A21E341350034E60801A2B020343
:1000E300765D22680D5D0078122D220B4068099F12
:1000F30011222D000B0078F902039A12035D5C8034
:100103000B806808248150072CB0500A0203A22CEC
:10011300B0400302039F7C8B5D1178267CB17CA5E4
:10012300BE1080680A5D33780DA5BD80057F10027F
:10013300038C6D0080307F017C5B7CB17CA5AD12AC
:1001430080245D337806A5BD80F080E1CA887D41B7
:10015300AD437CB17CA5AD122D1450020B047C5B26
:10016300AD232F01DA88A42D05BE008040060B8045
:10017300780480982F007C437C507C617C7202035E
:1001830076BE24FFFF6806BE04FFFF780302039ACE
:1001930012035D5CB00468F57CB8A54868EF7CB8D1
:1001A30070039F1122A5B800030203A22E00815001
:1001B300079C80380702039F9C8050ED0A51C2E7D9
:1001C3004D51780302038C7E5400807E901A6C009C
:1001D30080061B9068142F11BF1040049F104CAB76
:1001E3000330E7EECAA86CAA80E8DA39DA587C4A09
:1001F300BE5080500A1B8068BC2F1150020B700246
:1002030003765D226809BE24FFFF68036E408022E7
:100213007EA020800C7EA01080057EA0086C556D0A
:10022300333392D5500A6E34FFFF6E24FFFF0B1C4D
:10023300A5EC3340062F11D5F0F6227CBA247EA21A
:10024300D5137C767C65A5CC92E77C5B227CB533A9
:100253007CB43392D54E5080248140039F11227C7D
:10026300457C567C676C7724E0500E7E1CFFFF2292
:100273001E341E2450034E60800478F430D50A6E79
:1002830034FFFF6E24FFFF0B1C227F707F517EC45F
:1002930000007ED400E87E9402A00204214005E41D
:1002A3007A7BB0227A7BB00B7C227CB5A2E7D2E7C3
:1002B3007C1B7CB4334009680DB4FF0BA5BDFF0361
:1002C30002039A0203A2227C0B2481C2E0F582F48A
:1002D300042CB07C2BC3137C4B7CB592E77C5B7FF7
:1002E300417CB6A2E77CB1A5BA7F02C31334009464
:1002F300007C2B7EA091A47CBA13F494FEACB233A1
:100303007CBA33248CD3137C5BE492E77C6B6C77ED
:100313007E403F7583027F517F017F141201847FEA
:100323000512002C9E240080D583EB7E01826C1184
:100333000E041E042D205E407F227F617F01120088
:10034300E46E40806D117E043F8012002C1202ADDA
:100353007F017F161201840208502D0092D50E10E2
:100363004E10807D422D445002B2D54E50806C44D5
:100373007CB8222C4450120B1C7E40005E507FBE82
:1003830018000078040B806816A2D57CB8137C4B48
:100393007CB592E77C5B227E1CFFFF229F11227EAD
:1003A30024FF8020D5026C456D332274F86CAA6E4D
:1003B30040806E0080BEB0FF68277C837C975C3BE7
:1003C3005C7BBF10682AF4400D7C382D15F45C3B30
:1003D300500F0B04800B7C792D35F45C7B50020BA2
:1003E30024BF10680B7CB020E7067CB420E701B380
:1003F30022540F2490D43440D430F30CBEB0414087
:1004030007BEB05B500224204CCC68021BC00B8497
:10041300D389944CCC680B742012040B80F5CA3B2F
:100423006D889F337CAE7E5BB00B5C7007C37D38F9
:10043300DA3B8994B42569C2F37E5BB00B5CA5F803
:1004430024D0BEB00A501B7E500A20F60DAC5CA52A
:100453002D7CCB70034EF00180DDAC5DA52D7CDBE4
:1004630080D524CFBEB01AA5E850055E00DFD2F3D5
:100473009007F6A3E4936011BCB078F77417934C1C
:10048300AB30F6B34EF08080AEA3E4936010BCB003
:1004930078F77416937C3B7423937C2B89147CB07C
:1004A3008013742012040B20F205BEC00250F31B0C
:1004B3006D29B6000112040B0204161B6E691600A7
:1004C300020B6A00BE08000078087E0400FF7E1459
:1004D300001E20F21E4CCC681A7F10E47E1B804C59
:1004E3008868070B1C04BCBD78F2C2F6CA0B120560
:1004F300F5DA0B7E0BB060C0CA0B12040BDA0B0BE0
:100503000C4CDD68EE1BD078EA80ADD2F07E101083
:1005130080037E10085EB05F800AD2F67E100A80E8
:10052300057E100AC2F66D119F117E00201B6C7EA2
:100533006B7030F6021A3720F1051B6C7E6B60304E
:10054300F6041A261A2430F0051B6D0B6A20A5EC5D
:100553003382F692F6500A7CEA9F229F217F127C17
:10056300AE4C44780F7C457C567C676C772E00F844
:1005730078EF80122F117CB3337C3B9CB140047C19
:100583003B0B70A5D8EE7CB230E005DAB8C44C3B27
:10059300CA380B207E00207E3000BE18000078C1D0
:1005A300BE1008780730F404C2F480B5CA287CB2C0
:1005B300BCBD38027CBD1205F5DA28BC2D500A1BE0
:1005C300D0E4CA281203F480F07CB213DAB84004F2
:1005D300C4CAB8C4CA28BEF08040095CDD7805A54A
:1005E300DA0260065EF07F1203F4DA28A5DADA0293
:1005F3000416BEF001680F30F402240220F5062031
:10060300F70330F6010420F229BCBC5025CAB87C9C
:10061300BF13B0E67420501174307C8A5E80F0689A
:10062300081206355EA00F800312040BDAB8BCBCB7
:1006330078DB30F40F743012040B745830F3027407
:100643007812040B30F605742D02040B742B20F57D
:10065300F8742020F7F3221B6C7E6BB010F1021BA1
:100663006C20F60B30E704F404D2F27CCB80052037
:10067300E7057CDB02043A5EF07F80F81B6E6916A7
:1006830000020B6A0030F0076D221B0A200B0D1BC2
:100693000A80020425E46C22BE3007500B7F1F2D15
:1006A300312E34FFF77E39B0227CBF20E7A8742EA9
:1006B3004EF08002040B1207DF403D7CBD70030443
:1006C3007CDB1209E87C3D4C3368101B307CBE2078
:1006D300E40912069870044C3378F07CBD7CD3BED9
:1006E300A0FD481CBCAB5818E49CBA2CB31801E419
:1006F3007CDB0207801207DF406E7CBD041209E831
:100703007AFBA07CAE7CBDA2F492F0C2F4400260FE
:10071300010424051205F57E30FF0B30120698CA3A
:10072300381203F420F0044CDD68031206ACDA3807
:10073300BC3D78E6740E1203F4742B7EFBA030F7F5
:1007430007742D6EA0FF0BA07AFBA012040B7EA0F2
:100753000A7EFBB0847AFBA01203F47EFBB0120383
:10076300F49EF80008020416D2F27ED0000204D5EB
:100773001207DF40F37CBA2CBD041209E87AFBA010
:100783007CBA7CAE30E701E40420F4044CDD680558
:10079300D2F0C2F4042CBD1205F56C337EFBB060BD
:1007A3001B20E712147AFBB0120698CA381203F41E
:1007B300DA380B3080E6047AFBB01B30120698CA95
:1007C300381203F44CDD68071206AC1BD080E19E9F
:1007D300F8000930F0031206AC0204167CEA7CAF81
:1007E30010F7037ED0067CFA1B6E693600020B6A93
:1007F300200209302D2B204C4248232E0053584F02
:1008030044494355502A4E4645470004208001027F
:10081300001040BE10151D1DAA240E5A7F73F8B98F
:1008230004050505050405050606070606BE124967
:10083300253E4CCCCDBEAAAAAB3F8000003E7ADB5E
:10084300B03EED63383F24BC7D3F490FDB7DC25E84
:10085300407FBE247F804010680302039A7E340FDA
:10086300DB7E243FC90209145EC480007D522D55EE
:10087300BEA07F401378049420400D7F017E243F67
:10088300806D331201840BC47CB5337CB433248470
:1008930030E7046DDD803E047CAB7CB5D2E754F0D9
:1008A300C333D5F0FC5407340023230ADB7F417F95
:1008B300017C4BE412021D1B417F711200E47E0494
:1008C3003F806D1112002C7F077F717F1412002966
:1008D3007F071201847F717E9408307E8400FF7449
:1008E30003120A2B7F071200E45DDD68147E5408AF
:1008F3003C7E4400FF2D5D0B2A00691200021200AA
:100903002C7D5C30E00B7E04BFC97E140FDB12002C
:100913002C5D2268095E407F5EC480004D2C224E10
:10092300614E002B494E46002D494E46007D522D07
:10093300557CBE92E67CEB7CBA601F0470287CB5C4
:10094300C2E77E0400FF60067E140922D3227E14D0
:10095300092B40047E140926D322DA099F22CA2BCD
:10096300CA2BC3CA09220A0A7E144D10AD109E0871
:100973003AF09E10267CB5C2E77EA0567C9BA46EFF
:1009830054FFFF2E54C511ACA92D15E4A539CAB8DF
:10099300CA1B20E70A120A88DA1B120184800AF4B0
:1009A30004120A88DA1B1200E4DAA87CB5337CB49B
:1009B300334E50806C4424822F111478FBDA49742F
:1009C30007BE400A40099E400ACA0201140BA0CA8E
:1009D300486C442F117F012F112F112F101478EF22
:1009E300CA48CA49227F0F20E73ABEB007400274C3
:1009F300070A0B2D109E1400097E19B02EB0FB5070
:100A03001F4C116817E47A19B01B147E19B0047ACD
:100A130019B0B40A0BE47A19B0A5D9ED0BA074018F
:100A23007A19B0225EE0BF22CAB87F011200E4DA6D
:100A3300B87F510B4A20693400020B4E7F05CAB8B8
:100A43001200E40B4A00691400020B4E12002CDA68
:100A5300B81478E8223F8000004120000042C8001B
:100A630000447A0000461C400047C35000497424E8
:100A7300004B1896804CBEBC205A0E1BCA6753C24B
:100A83001C749DC5AE7C7B60065407681623231235
:100A93000AAD7CB75438680A7F10120AAA1200E420
:100AA3007F01227CB7543803241C6CAA2E540A58A5
:100AB3007E4400FF0B2A0069120002227D02AD3141
:100AC300AD102D21226D0074104D00780B4D22784E
:100AD300278D317D126D22227D437D326D222F11B0
:100AE3002D445002A50FBF1040049F100B901478A3
:100AF300ED7F016D227D34227D417D138D247D02A6
:100B03002F004004BD0440049D040B141478F17DB0
:100B1300237D317D106D0022CA3B7F307A1F00C0D8
:100B23007E1F00CC7F011200E47F717E1F00C87F0F
:100B3300011200E47F0712002C7F717E1F00D07F1B
:100B4300011200E47F0712002C1202AD7F717E1F99
:100B530000C87F071201847A1F00C87E1F00CC7F64
:100B6300071201847A1F00CC7E1F00D07F07120179
:100B7300847A1F00D07E4F00507E6F00107F167F57
:100B8300041200E47F717E5F00547E1F004C7F05DA
:100B93001200E47F071200296D117E044000120049
:100BA300E47F017E340014591300021B38207F14A4
:100BB3007F051200E47F717E0F004C7F161200E464
:100BC3007F0712002C6D117E0440001200E47F6148
:100BD3007E0F004C7E1F004C1200E47F717E0F00DD
:100BE300107E1F00101200E47F071200297F717F1F
:100BF300147F041200E47F017F171200297F717FA5
:100C0300157F051200E47F0712002C7F717E1F0001
:100C1300D07F061200E47F517E1F00CC7F071200B5
:100C2300E47F051200297F417E1F00C87F07120061
:100C3300E47F717E340014491300020B38007E1FD9
:100C430000D01200E47F071200297F517E34001484
:100C5300491300020B38007E1F00CC1200E47F71A1
:100C63007E1F00C87F061200E47F071200297F6100
:100C73007EF4126F7EE43A837F147F071200E47ED2
:100C83000F000C12002C7A1F000C7F157F07120037
:100C9300E47E0F002212002C7A1F00227F167F07AA
:100CA3001200E47E0F002612002C7A1F00267EF429
:100CB300CCCD7EE43F4C7F177F041200E47E0F000F
:100CC300C012002C7E0F000C12002C7A1F00C07F74
:100CD300177F051200E47F0312002C7E0F002212FF
:100CE300002C7F317F177F061200E47E0F00C412B1
:100CF300002C7E0F002612002C7A1F00C47E1F00DA
:100D03004C1202057E4F00C07F041200E47F717E07
:100D13001F00507F031200E47F017F171200297F19
:100D2300717E5F00C47E1F00547F051200E47F01C3
:100D33007F171200297EF4126F7EE43B837F071234
:100D430000E47E0F001012002C7A1F00107E1F009B
:100D5300507F051200E47F617E1F00107F041200A4
:100D6300E47F0612002C7F617E1F00547F03120074
:100D7300E47F017F161200297F071200E47E0F0033
:100D83004C12002C7A1F004C7F051200E47F617E19
:100D93001F00107F031200E47F061200297F617E8B
:100DA3001F00547F041200E47F0612002C7F0712F9
:100DB30000E47E0F005012002C7A1F00507E1F00AB
:100DC3004C7F031200E47F617E1F00107F05120039
:100DD300E47F0612002C7F517E6F00507F167F0444
:100DE3001200E47F017F151200297F071200E47EC1
:100DF3000F005412002C7A1F00547E0F004C7E1FEC
:100E0300004C1200E47F717E0F00107E1F00101251
:100E130000E47F0712002C7F717F167F061200E427
:100E23007F0712002C7F717E1F00547F011200E4A4
:100E33007F0712002C1202AD7F717E1F00107F0707
:100E43001201847A1F00107E1F004C7F0712018459
:100E53007A1F004C7E1F00507F071201847A1F0007
:100E6300507E1F00547F071201847A1F00547E0FA7
:100E730000547E1F004C1200E47F717E0F00507EF1
:100E83001F00101200E47F071200296D117E044039
:100E9300001200E412033D7E142EE17E044265122B
:100EA30000E47A1D087E0F00547E1F00501200E4F8
:100EB3007F717E0F004C7E1F00101200E47F07122B
:100EC300002C6D117E0440001200E412033D7E14D9
:100ED3002EE17E0442651200E47A1F00977E5F00D4
:100EE3004C7F157F051200E47F717E4F00107F1445
:100EF3007F041200E47F0712002C7F717E6F005085
:100F03007F167F061200E47F017F171200297F31CD
:100F13007E7F00547F177F071200E47F017F131247
:100F23000029CA1B7F147F071200E47F717F157F9E
:100F3300061200E47F0712002C6D117E044000129C
:100F430000E4DA0B1223EC7E142EE17E04426512D8
:100F530000E47A1F009BDA3B22CA3B7F307A73009E
:100F6300C17AB300C0E40211697E7300C20A372D4F
:100F7300377D267E1BA0BEA0B0500302100EBEA07C
:100F8300F7280302100E7EB300C20A3B2D377D26DD
:100F930029B10001BEB0A140720A3A6D229E180029
:100FA300B07E14005E120ABF7A1F01090A1B6D008E
:100FB3002E0802AD2F107A1F01097E1400207E1F18
:100FC3000109120ABF7A1F01097E0F01097CB17A58
:100FD3001300C37C727A2300C47C637A3300C57E1A
:100FE3000800C67E50201222057EB300C07E730027
:100FF300C17E0800C61222607EB300C024107AB3FB
:1010030000C07EB300C20BB10211697E7300C20A35
:10101300372D377D267E1B70BE70A150030210CD85
:101023007E7300C20A372D377D267E1B70BE70A3E8
:1010330028030210CD7E7300C20A372D377D26297F
:10104300B10001BEB0A150030210CD7EA300C20ABD
:101053003A2D377D267E1BA00A3A6D229E1800A1E9
:101063007E14005E120ABF7A1F01090A1B6D009EDF
:101073000800A12F107A1F01097E1400207E1F0192
:1010830009120ABF7A1F01097E0F01097CB17A1385
:1010930000C37C727A2300C47C637A3300C57E0864
:1010A30000C67E50201222057EB300C07E7300C1AD
:1010B3007E0800C61222607EB300C024107AB300FB
:1010C300C07EB300C20BB10211697E7300C20A373E
:1010D3002D377D267E1B70BE702050030211647E67
:1010E3007300C20A372D377D267E1B70BE707E3893
:1010F300707E7300C20A372D377D267E1B700A3738
:101103006D229E1800207A1F010974042F11147890
:10111300FB7A1F01092E2400032E18CF807A1F01AA
:10112300097E0F01097CB17A1300C37C727A230014
:10113300C47C637A3300C57E0800E67E5010122219
:10114300057EB300C07E7300C17E0800E61222B69E
:101153007EB300C024087AB300C07EB300C204800B
:10116300057EB300C2047AB300C27E7300C20A379D
:101173002D377D267E1B70BE70002803020F6CDAAC
:101183003B22CAF87EF30106BEF00440030212417B
:101193007E370117BE34000168030212417E34001A
:1011A300017A3701177E342AC37E2400FF7E1BB0E9
:1011B3007E342AC47E2400FF7E1B707EF42AC57E03
:1011C300E400FF691700020B7A00120F5C7E342AD9
:1011D300CC7E2400FF7E1BB07E342ACD7E2400FF0C
:1011E3007E1B707EF42ACE7EE400FF691700020B9B
:1011F3007A00120F5C7E342AD57E2400FF7E1BB05A
:101203007E342AD67E2400FF7E1B707EF42AD77E8E
:10121300E400FF691700020B7A00120F5C7E342A88
:10122300DE7E2400FF7E1BB07E342ADF7E2400FF97
:101233007E1B707EF42AE07EE400FF02130ABEF0F8
:101243000478197E370117BE340001780F12255533
:10125300E47AB301037E340002021332BEF0045079
:10126300030213167E370117BE340002680302130C
:10127300167E342AE77E2400FF7E1BB07E342AE8E4
:101283007E2400FF7E1B707EF42AE97EE400FF6962
:101293001700020B7A00120F5C7E342AF07E2400C2
:1012A300FF7E1BB07E342AF17E2400FF7E1B707EFE
:1012B300F42AF27EE400FF691700020B7A00120F92
:1012C3005C7E342AF97E2400FF7E1BB07E342AFA2A
:1012D3007E2400FF7E1B707EF42AFB7EE400FF6900
:1012E3001700020B7A00120F5C7E342B027E24005F
:1012F300FF7E1BB07E342B037E2400FF7E1B707E9B
:10130300F42B047EE400FF691700020B7A00120F2E
:101313005C8020BEF005501B7E370117BE340002EF
:10132300781112255574067AB301037E3400017ACD
:10133300370117E47E7301037E142A777E0400FFCE
:10134300120F5C7EB30103122972DAF8227E370092
:10135300434D3368030215097E3400017A37004395
:101363007E0800851221977E7300857C477E73007B
:10137300867C647A3700AA7E7300877C477E73007D
:10138300887C647A3700AC7E7300897C477E730067
:101393008A7C647A3700AE7E73008B7C477E730051
:1013A3008C7C647A3700477E73008D7C477E7300A4
:1013B3008E7C647A3700BA7E53008F7C257E53007F
:1013C300907C427A2700BC7E5300917C257E53009B
:1013D300927C427A2700BEBE34FFFF68247E27003A
:1013E300BCBE24FFFF681A7E3700BEBE34FFFF6811
:1013F300107E1700BA4D1168084D2268044D3378EA
:101403001A7E1700A47A1700BA7E1700A67A17006F
:10141300BC7E1700A87A1700BE80107E1700BA7A28
:101423001700A47A2700A67A3700A87E2700AA7C93
:10143300B41202186DFF7EE446007F071201847F19
:1014430041900000793E00021BEA207E2700AC7C1D
:10145300B41202187F071201847F517A1F00587E4D
:101463002700AE7CB41202187F071201847F617AD1
:101473001F005E7E2700BA7CB41202187EE442830A
:101483007F07120184900004793E00021BEA207E4C
:101493002700BC7CB41202187F071201847A1F0054
:1014A300647E2700BE7CB41202187F071201847A7F
:1014B3001F007C7EF4FA397EE43C8E7F071200E441
:1014C3007A1F00C47A4F00C87A5F00CC7A6F00D0CD
:1014D300900004693E00020BEA207F071200E4CA71
:1014E3001B7E1F00647F071200E47F01DA1B120BCF
:1014F3001B7E1D081202507A3700497E1F00971287
:1015030002507A3700B0227E730106A5BF00137E16
:10151300B30108700DA202E43378077EB300FD0423
:101523008016A5BF00177EB301087011A202E43331
:10153300B4010A7EB300FD147AB300FD227EA30139
:1015430008BEA00178067E14000180026D11A5BFBC
:1015530000067E24000180026D225D216809A2023B
:10156300E433780302165EA5BF000FBEA001780A1C
:10157300A202E433B40103021675A5BF01114CAAFC
:10158300780DA202E43378077EB300FE048014A52D
:10159300BF01154CAA7811A202E433B4010A7EB349
:1015A30000FE147AB300FE22A5BF010EBEA001788F
:1015B30009A202E433780302165EA5BF010FBEA0A1
:1015C30001780AA202E433B40103021675A5BF022F
:1015D300114CAA780DA202E43378077EB300FF040E
:1015E3008014A5BF02154CAA7811A202E433B401FA
:1015F3000A7EB300FF147AB300FF22A5BF020DBE1B
:10160300A0017808A202E4337802804FA5BF020E3E
:10161300BEA0017809A202E433B401028054A5BF3D
:1016230003114CAA780DA202E43378077EB30100BC
:10163300048014A5BF03154CAA7811A202E433B4A5
:10164300010A7EB30100147AB3010022A5BF03127D
:10165300BEA001780DA202E43378077EB301010432
:101663008015A5BF0315BEA0017810A202E433B410
:1016730001097EB30101147AB3010122CA3B7CD66E
:101683007F707CE77CFB9F117A1F00187408ACBD48
:101693000A3F2D352E3400087CF76D117E0442C8B5
:1016A3007F171200E41202507A1F001C0A5F9E5437
:1016B30000187C7E7E142BB17E0400FF120F5C6C3D
:1016C300CC0217B27ED4000A7E7F001C7F177D1DDB
:1016D300120AC87A0F00187F177D1D120AC87A1FD5
:1016E300001C9EF008BEC00278039EF0087E2F0007
:1016F30018BE28000A40030217B07EA003A4901767
:10170300057302172302173102173F02174D021701
:101713005B0217690217770217850217930217A155
:101723007CBF7C7E7E142BAF7E0400FF807C7CBF5D
:101733007C7E7E142BAD7E0400FF806E7CBF7C7E9E
:101743007E142BAB7E0400FF80607CBF7C7E7E1406
:101753002BA97E0400FF80527CBF7C7E7E142BA7C6
:101763007E0400FF80447CBF7C7E7E142BA57E0418
:1017730000FF80367CBF7C7E7E142BA37E0400FF9B
:1017830080287CBF7C7E7E142BA17E0400FF801A00
:101793007CBF7C7E7E142B9F7E0400FF800C7CBF6D
:1017A3007C7E7E142B9D7E0400FF120F5C0BC0BC5D
:1017B300DC28030216C7DA3B226C77A286E433B433
:1017C30001057E601080026C66A285E433B40105D6
:1017D3004E600880035E60F7A287E433B401054ED0
:1017E300600480035E60FBA2CBE433B401054E606A
:1017F3000280035E60FDA2CAE433B401054E6001BA
:1018030080035E60FE7CB6BEB02040030218A27E59
:10181300A003A490181A7302189A02188E02188053
:1018230002189502187A0218A20218870218A20257
:10183300187E0218A20218A20218A2021882021825
:10184300A20218A20218A202188C0218A20218A25D
:101853000218A20218A20218A20218A20218A202D7
:1018630018900218A20218A20218A20218A20218C3
:10187300A20218A202189F6C778024800280057E42
:101883007001801B7E70FF8016800280057E7002CF
:10189300800D7E70FE80087E700380037E70FD7C69
:1018A300B722D296D2937E3400C812283A74AE6C13
:1018B3007712264174026C7712264174106C7712EA
:1018C300264174406C7712264174B06C771226411E
:1018D30074816C7712264174CF6C7712264174A100
:1018E3006C7712264174A66C7712264174A86C7724
:1018F300122641743F6C7712264174AD6C77122621
:1019030041748B6C7712264174336C7712264174C1
:10191300C86C7712264174D36C77122641E46C7736
:1019230012264174D56C7712264174806C77122687
:101933004174D96C77122641741F6C771226417457
:10194300DA6C7712264174126C7712264174DB6CC1
:101953007712264174406C7712264112255574AFD5
:101963006C77022641CA69CAF87EB3010414680C75
:10197300046803021A16121185021A167E342AC24B
:101983007E2400FF7E1B700A277E64000A8D267E5C
:10199300F301060A3FBD32780A7E342AC97E240049
:1019A300FF805B7E342ACB7E2400FF7E1B700A27D8
:1019B3008D260A3FBD32780A7E342AD27E2400FF68
:1019C300803C7E342AD47E2400FF7E1B700A278D40
:1019D300260A3FBD32780A7E342ADB7E2400FF804C
:1019E3001D7E342ADD7E2400FF7E1B700A278D2690
:1019F3000A3FBD32780D7E342AE47E2400FF0B1AA1
:101A0300309934E47E7301057E142A777E0400FF47
:101A1300120F5CDAF8DA6922CA3B7F307A7300C1AD
:101A23007AB300C0E4807E7E7300C20A372D377D0F
:101A3300267E1B70BE70204067BE707E38620A37F8
:101A43006D229E1800207A1F01092F112F112F11CB
:101A53007A1F01092E2400032E18BFC07A1F010923
:101A63007E0F01097CB17A1300C37C727A2300C410
:101A73007C637A3300C57E0800C67E5008122205B7
:101A83007EB300C07E7300C17E0800C61226157E99
:101A9300B300C024067AB300C07EB300C20480053D
:101AA3007EB300C2047AB300C27E7300C20A372D2C
:101AB300377D267E1B70BE70002803021A2ADA3B8C
:101AC300227E37005C4D336803021B6B7E340001BA
:101AD3007A37005C7E7300801A377A3700E67E0817
:101AE300002A7E342B737E2400FF12028DE46C7770
:101AF3007E08002A120F5C7E37010F7A3700E67EDC
:101B030037010D7A3700E47E08002A7E342B647E89
:101B13002400FF12028DE47E70027E08002A120F59
:101B23005C7E3700A27A3700E67E08002A7E342BDB
:101B3300607E2400FF12028DE47E70047E08002A7A
:101B4300120F5C7E1F009B1202507A3700E67E085C
:101B5300002A7E342B527E2400FF12028DE47E7015
:101B6300077E08002A021A1B22CAB8CA39C0D17ECE
:101B730037005C0B347A37005CBE34006478066D42
:101B8300337A37005C7E3700620B347A370062BEEB
:101B930034000A78066D337A3700627E3700430BD0
:101BA300347A370043BE34003278066D337A370017
:101BB300437E3700B80B347A3700B8BE34138840FD
:101BC3000BA2ECB392EC6D337A3700B87E37011970
:101BD300BE34000028061B347A3701197E370045CE
:101BE3000B347A370045BE3427102808A2B4E433F7
:101BF3007802D203A203E433B4010A7E3700FB0B5D
:101C0300347A3700FBD0D1DA39DAB8327E342B415B
:101C13007E2400FF7E1BB07E342B427E2400FF7E99
:101C23001B707EF42B437EE400FF691700020B7ADE
:101C330000120F5C7458CAB86C77CA787E430100EF
:101C4300E412021D7E14D70A7E043C231200E47FB3
:101C5300017E6004DA78DAB812167F7E342B4A7E6E
:101C63002400FF7E1BB07E342B4B7E2400FF7E1BA3
:101C7300707EF42B4C7EE400FF691700020B7A00A0
:101C8300120F5C7439CAB87E7002CA787E430101B0
:101C9300E412021D7E14D70A7E043C231200E47F63
:101CA300017E6004DA78DAB802167F7E342B1D7E5B
:101CB3002400FF7E1BB07E342B1E7E2400FF7E1B80
:101CC300707EF42B1F7EE400FF691700020B7A007D
:101CD300120F5C744BCAB86C77CA787E4300FEE47B
:101CE30012021D7E14D70A7E043C231200E47F01F6
:101CF3007E6004DA78DAB812167F7E342B267E24CF
:101D030000FF7E1BB07E342B277E2400FF7E1B70DA
:101D13007EF42B287EE400FF691700020B7A001281
:101D23000F5C7439CAB87E7002CA787E430101E43D
:101D330012021D7E14D70A7E043C231200E47F01A5
:101D43007E6004DA78DAB802167F7E342B0B7E24A9
:101D530000FF7E1BB07E342B0C7E2400FF7E1B70A5
:101D63007EF42B0D7EE400FF691700020B7A00124C
:101D73000F5C7439CAB86C77CA787E4300FDE412ED
:101D8300021D7E14D70A7E043C231200E47F017EE9
:101D93006004DA78DAB812167F7E342B147E2400BE
:101DA300FF7E1BB07E342B157E2400FF7E1B707ECE
:101DB300F42B167EE400FF691700020B7A00120F62
:101DC3005C7439CAB87E7002CA787E430101E4129A
:101DD300021D7E14D70A7E043C231200E47F017E99
:101DE3006004DA78DAB802167F7E342B2F7E240063
:101DF300FF7E1BB07E342B307E2400FF7E1B707E63
:101E0300F42B317EE400FF691700020B7A00120FF6
:101E13005C744BCAB86C77CA787E4300FFE4120245
:101E23001D7E14D70A7E043C231200E47F017E60EA
:101E330004DA78DAB812167F7E342B387E2400FF5A
:101E43007E1BB07E342B397E2400FF7E1B707EF414
:101E53002B3A7EE400FF691700020B7A00120F5C35
:101E63007439CAB87E7002CA787E430101E4120253
:101E73001D7E14D70A7E043C231200E47F017E609A
:101E830004DA78DAB802167FA203E433B4010280DD
:101E930003021F1CA2B4E433B401377E3700FBBE38
:101EA3003407D0502D6D337A3700FB122555C2030A
:101EB3007EB30107BEB002500304800274017AB3FB
:101EC3000107B40204D2018002C20174017AB30192
:101ED3000422A2B4E433B401297E3700FBBE340FDD
:101EE300A0281F6D337A3700FB122555C203C201A8
:101EF300E47AB301077AB301047AB301057AB30133
:101F03000822A2B4E433B401107E3700FBBE3407C9
:101F1300D028066D337A3700FB22740A7E34FEB272
:101F23007E24007E7A1BB0E47E34FED07A1BB0742C
:101F3300EF7E34FED17A1BB0E47E34FECC7A1BB044
:101F430074607E14FEC87E04007E7A0BB07E14FE9D
:101F5300C97A0BB074117A1BB074037E34FED57A40
:101F63001BB074E87E34FED67A1BB074037E34FE55
:101F7300D77A1BB074E87E34FED87A1BB074037E24
:101F830034FED27A1BB074E87E34FED37A1BB0746D
:101F9300057E34FEB17A1BB074807E34FEDD7A1B7D
:101FA300B074017E34FEC07A1BB0227E3700624DCE
:101FB3003378747E3400017A3700621217BC7AB327
:101FC3000080BEB00218097E730080BE70FE581FE9
:101FD3007EB30080B4FD07E47AB30021801F7EB393
:101FE3000080B403187E73004B7A730080800E74F4
:101FF300017AB300217E7300807A73004B7E7300F5
:10200300801A077E140190AD107D312E3700A27A1D
:1020130037010F7E2700A29D217A27010D12278FFA
:102023007EB30021022431227584017E44041FE41F
:102033007A49B01B4478F97EF8011BC200C201C281
:1020430002C203C2047E0400FF7E1429930B0A40DC
:102053005D44681A692000020B0E0B44800A7E0B54
:10206300B07A29B00B240B0C1B4478F280DF7E047A
:1020730000FF7E142B790B0A405D4468222950002F
:10208300020A25693000032E0800050B44800A7EEE
:102093000BB07A1BB00B1C0B0C1B4478F280D702DD
:1020A300246EA201E433786E7EA301044CAA78184F
:1020B3007EB30103BEB000402ABEB00438250A3BFC
:1020C3000B357A730103801BBEA00178167EB30122
:1020D30005BEB000400DBEB00250080A3B0B357A76
:1020E300730105BEA00168137EB30106BEB00040B4
:1020F3000ABEB0063805047AB30106BEA001781300
:102103007EB30108BEB000400ABEB0013805047AB0
:10211300B3010802251EC20202150AA201E43378A4
:102123006E7EA301044CAA78187EB30103BEB006E9
:10213300382ABEB00240250A3B1B357A730103805F
:102143001BBEA00178167EB30105BEB004500DBEC0
:10215300B00240080A3B1B357A730105BEA0016833
:10216300137EB30106BEB000280ABEB007380514BB
:102173007AB30106BEA00178137EB30108BEB00096
:10218300400ABEB0013805147AB3010802251ED2F5
:102193000202150ACA3B7F3012282074D012270985
:1021A300743B12270912282074D1122709E47AB349
:1021B30000C01226E37EA300C00A3A2D377D267A9B
:1021C3001BB0C2B7D2B612295DC2B612295D7EB367
:1021D30000C0047AB300C07E7300C0BE700D40D24D
:1021E3001226E37EA300C00A3A2D377D267A1BB060
:1021F300D2B7D2B612295DC2B612295D122934DADA
:102203003B22CA3B7A5300F97F307A6300F87A7332
:1022130000F77AB300F6C29374031228057EB30065
:10222300F61228057EB300F71228057EB300F812D4
:102233002805E480151200037EA300FA0A3A2D371D
:102243007D267A1BB07EB300FA047AB300FA7E735C
:1022530000F9BE7300FA38DDD293DA3B22CA3B7F22
:10226300307A7300F77AB300F6E47AB300F97EB3F9
:1022730000F67E7300F712266CE47AB300F87E3B17
:10228300B07E70011226410B747EB300F8047AB35A
:1022930000F8B410E97EB300F7047AB300F77EB315
:1022A30000F9047AB300F97E7300F9BE700240BEF0
:1022B300DA3B22CA3B7F307A7300F77AB300F6E445
:1022C3007AB300F97EB300F67E7300F712266CE44E
:1022D3007AB300F87E3BB07E70011226410B747E08
:1022E300B300F8047AB300F8B408E97EB300F70446
:1022F3007AB300F77EB300F9047AB300F97E730072
:10230300F9BE700240BEDA3B22CAF8A2B2E43378C7
:1023130008A2B3E4337802D200A200E433B4013557
:10232300A2B330B201B35008A2B2E4337AB30102CC
:10233300A2B2E433B4011EA2B3E433B40117C20062
:102343007EF30102BEF00178051220A580074CFF41
:10235300780312211EDAF822A2B2E433B40109A2EF
:10236300B3E433B40102D204A204E433B40131A2CE
:10237300B330B201B35008A2B3E4337AB30102A27B
:10238300B2E433781BA2B3E4337815C2047EB301FD
:1023930002B401031220A57EB30102700312211EB1
:1023A30002230CCA3B7F30E47AB301167AB30115DA
:1023B300E47E73011512266CE47AB301167E3BB0FA
:1023C3007E70011226410B747EB30116047AB301A9
:1023D30016B480E97EB30115047AB301157E730147
:1023E30015BE700840CADA3B22CA0B691FFFFF699A
:1023F3000FFFFD1201841208507F717F1F2E34FFDF
:10240300FD7E1BB030E7229F007F171203AE380A10
:102413007E140FDB7E04404980087E140FDB7E04AC
:10242300C0497F1712002C7F717F171BFE227C7B14
:10243300A5BF000A6D337A37010D7A37010F7E1776
:10244300010D1A027E34FED57E24007E7A1B107E97
:1024530034FED67A1B307E17010F1A027E34FED764
:102463007A1B107E34FED87A1B30221224E4121811
:10247300A5E41227AFE41225E91225551228EC1220
:102483002851A9C6A2A9C7A2A9D4FF1224A9122917
:102493008D7E3401F47A3700A2C2EC121FAE121AF9
:1024A300C412135080F512295D12295D12295D12A1
:1024B300295D746B7E70801227E912276E746B6C32
:1024C300771227E974197E70071227E9741A7E7050
:1024D300041227E9741B7E70081227E9741C022773
:1024E300E975E900A9D7BA75EA00759300759400F8
:1024F30075910075920075950075960075B100751C
:10250300B20075B30075B40075C90075CA0075CB08
:102513000075CC0075E10075E20022CA796CEE0A01
:102523005E2E5400B06C7712264174106C7712261D
:102533004174026C771226416CFFE47E700112260F
:10254300410BF0BEF01078F20BE0BEE00840D0DAA9
:102553007922CA796CFF0A5F2E5400B06C77122679
:102563004174106C7712264174026C771226416C09
:10257300EEE47E70011226410BE0BEE08078F20BA0
:10258300F0BEF00840D0DA7922CAF87CFB12291495
:10259300746C1225BB1229017CBF1225BB122901C1
:1025A300122914746D1225BB1229011226977CFB84
:1025B3001229437CBFDAF822CA797CFB7EE008C289
:1025C300A074051229517CBF30E704D2A28002C255
:1025D300A27405122951D2A03EF01229511BE078B2
:1025E300DEC2A0DA7922CAF87CFB4CFB780E74C8F1
:1025F3006C7712264174A16C77122641BEF00178E4
:102603000E74C06C7712264174A06C77122641DADF
:10261300F822CA3B7F3012266CE47AB300CE7E3BAD
:10262300B07E70011226410B747EB300CE047AB3E0
:1026330000CE7E7300CEBE700640E3DA3B227C6B95
:102643004C776804D2958002C295C2967E7008C208
:10265300C77CB630E704D2948002C294D2C73E60EE
:102663001B7078EBD296D29522CAF87CFB0BF10A49
:10267300572E5400B06C771226417CBF54F0C454DB
:102683000F44106C771226417CBF540F6C771226CF
:1026930041DAF822CA796CFF7EE008D2A0740512F1
:1026A30029513EF030A2034EF001C2A07405122955
:1026B300511BE078E67CBFDA79227F70A9D6BC0093
:1026C30000A935BCFCA9C5BCE5BD7C4B6C55E5BE7A
:1026D3000A3B2D32E5BC0A5B0B54F5BC1B7A302256
:1026E300CA796CFFD2B76CEE3EF0D2B612295DA266
:1026F300B7E4334CFBC2B612295D0BE0BEE00840E1
:10270300E77CBFDA7922CA797CFB6CEE3EF0A2D774
:1027130092B7D2B612295DC2B612295D0BE0BEE0B4
:102723000840E91228ACDA7922E5BC0A5B0B54F5C0
:10273300BCA9D6BC0000A935BCFCA9C5BCE5BD7CC1
:102743004B6C55E5BE0A3B2D3222E5BC54F04408E0
:10275300F5BCA9D6BC0000A935BCFCA9C5BCE5BD28
:102763007C4B6C55E5BE0A3B2D322200007EA00552
:102773007E70907E60477CB6147C6B78F97CB714CE
:102783007C7B78F27CBA147CAB78EB22BE340000FD
:102793004806C281D2828004D281C282BE24000054
:1027A3004805C283D28422D283C28422CAF87CFB26
:1027B3004CFB780774A66C77122641BEF0017807AC
:1027C30074A76C77122641DAF82253BCF0A9D6BC61
:1027D3000000A935BCFCA9C5BCE5BD7C4B6C55E527
:1027E300BE0A3B2D3222CA797CEB12282074D01208
:1027F30027097CBE1227097CB7122709122934DA6C
:1028030079227C6B7E7008C2C77CB630E704D29411
:102813008002C2943E60D2C71B7078EB2212295DFE
:1028230012295DD2B7D2B612295D12295DC2B71241
:10283300295DC2B602295D7D13800E7E0407087DE3
:10284300301B044D3378F81B144D1178EE22759824
:1028530050438E01438E0475D78F75D6FD438E107A
:10286300D2ACD2AF22C2A0A20592A2740512295102
:10287300D2A0122951C2A0D2A2022951743F7E34A0
:10288300FEA87E24007E7A1BB075DE2375BCF0A9FA
:10289300D7BC22CA3B7F3080087E3BB00B74122921
:1028A300727E3BB070F3DA3B22D2B712295DD2B607
:1028B30012295DA2B792D7C2B612295DA2D722749C
:1028C3008D6C7712264174106C7712264174AE6CAE
:1028D30077022641748D6C7712264174146C77123B
:1028E300264174AF6C77022641538EBF53890F750F
:1028F3008B38758DFFC28FD28ED2ABD2AF22D2A0CE
:102903007405122951A2A29206C2A0122951A2064D
:1029130022D2A2D2A07405122951C2A2122951C2F5
:10292300A0227A3701197E370119BE34000038F628
:102933002212295DC2B7D2B612295DD2B702295D30
:10294300C2A2D2A07405122951D2A20229517C7BC2
:10295300007C671B70A5BE00F7227EA0077CBA141B
:102963007CAB78F922C0D1309802C298D0D1327AA8
:10297300B1993099FDC29922C281D282C283D28495
:1029830022D281C282D283C28422121F1D02297BDA
:1029930000010021010004002200000000000400E7
:1029A300260000000000020045000000020049006C
:1029B300000004004C000000000004005000000070
:1029C3000000040054000000000004005800000050
:1029D300000004005E00000000000400640000002A
:1029E300000004007C0000000000040081000000DF
:1029F30000000200930000000200950000000400A4
:102A030097000000000004009B000000000002008B
:102A1300B00000000200B20000000200B400000099
:102A23000200B60000000200B800000004000C0021
:102A3300000000000400103F8000000004000800B4
:102A4300000000000401090000000000020117005B
:102A530001000200FB000000010106000001010764
:102A63000000010108000002010D00000002010F37
:102A7300000000003E00B2E2CAD4B7A2C7F23A0097
:102A8300B8A9D1F6BDC73A00B5F7D7F3D3D23A0008
:102A9300B9A6C4DC3A00D7AACBD93A00C6E4CBFB2B
:102AA30000BFD8D6C600B8A9D1F6BDC700BDC7B60A
:102AB300C8B5F7BDDA00D7AACBD9B5F7BDDA000A96
:102AC300100000FF2AB91D4D0B100200FF2AB01C95
:102AD300AE0C100400FF2AA91DEC0D100600FF2AFE
:102AE300A41C0F0E100000FF2A9F00000F1002000D
:102AF300FF2A9F000010100400FF2A9F00001110FE
:102B03000600FF2A9F0000140F0000FF2A9900000F
:102B1300150F0200FF2A930000160F0000FF2A8BF7
:102B23000000170F0200FF2A930000180F0000FF98
:102B33002A830000190F0200FF2A9300001A0F00D6
:102B430000FF2A7900001B0F0200FF2A9300005A9E
:102B53003A253032642020202020202000253364B1
:102B6300002533642C2533642020202020202000DE
:102B73002564202020000004010000000000000064
:102B8300040100040000000000040100080000002C
:102B930000000201000C000000003900380037007B
:102BA30036003500340033003200310030002E008F
:00000001FF
