:100000000217B06CAA7E7008C2C73EA03097020BE0
:0A001000A0D2C71B7078F17CBA2261
:07001B000218402830290003
:10002300021C055D22680D5D0078122D220B4068CD
:10003300099F11222D000B0078F902021E1201E123
:100043005C800B806808248150072CB0500A0202A0
:10005300262CB040030202237C8B5D1178267CB1F1
:100063007CA5BE1080680A5D33780DA5BD80057F31
:10007300100202106D0080307F017C5B7CB17CA597
:10008300AD1280245D337806A5BD80F080E1CA8877
:100093007D41AD437CB17CA5AD122D1450020B0400
:1000A3007C5BAD232F01DA88A42D05BE00804006BA
:1000B3000B80780480982F007C437C507C617C7299
:1000C3000201FABE24FFFF6806BE04FFFF780302A5
:1000D300021E1201E15CB00468F57CB8A54868EF24
:1000E3007CB870039F1122A5B800030202262E00DC
:1000F3008150079C8038070202239C8050ED0A51EF
:10010300C2E74D5178030202107E5400807E901A9C
:100113006C0080061B9068142F11BF1040049F10C1
:100123004CAB0330E7EECAA86CAA80E8DA39DA5898
:100133007C4ABE5080500A1B8068BC2F1150020BB2
:10014300700201FA7EA020800C7EA01080057EA0A4
:10015300086C556D333392D5500A6E34FFFF6E240D
:10016300FFFF0B1CA5EC3340062F11D5F0F6227CC4
:10017300BA247EA2D5137C767C65A5CC92E77C5B02
:10018300227CB5337CB43392D54E50802481400316
:100193009F11227C457C567C676C7724E0500E7E51
:1001A3001CFFFF221E341E2450034E60800478F48B
:1001B30030D50A6E34FFFF6E24FFFF0B1C227F70C5
:1001C3007F517EC400007ED4007F7E9401D402025E
:1001D3005F4005E47A7BB0227A7BB00B7C222D0052
:1001E30092D50E104E10807D422D445002B2D54E52
:1001F30050806C447CB8222C4450120B1C7E40006F
:100203005E507FBE18000078040B806816A2D57C70
:10021300B8137C4B7CB592E77C5B227E1CFFFF22EC
:100223009F11227E24FF8020D5026C456D3322541A
:100233000F2490D43440D430F30CBEB0414007BEF9
:10024300B05B500224204CCC68021BC00B84D389C2
:10025300944CCC680B742012024980F5CA3B6D881C
:100263009F337CAE7E5BB00B5C7007C37D38DA3B9B
:100273008994B42569C2F37E5BB00B5CA5F824D0E6
:10028300BEB00A501B7E500A20F60DAC5CA52D7C37
:10029300CB70034EF00180DDAC5DA52D7CDB80D5FA
:1002A30024CFBEB01AA5E850055E00DFD2F3900656
:1002B30034A3E4936011BCB078F77417934CAB305C
:1002C300F6B34EF08080AEA3E4936010BCB078F731
:1002D3007416937C3B7423937C2B89147CB080131A
:1002E300742012024920F205BEC00250F31B6D298F
:1002F300B600011202490202541B6E691600020B7A
:100303006A00BE08000078087E0400FF7E14001E09
:1003130020F21E4CCC681A7F10E47E1B804C886848
:10032300070B1C04BCBD78F2C2F6CA0B120433DA05
:100333000B7E0BB060C0CA0B120249DA0B0B0C4CDC
:10034300DD68EE1BD078EA80ADD2F07E101080031A
:100353007E10085EB05F800AD2F67E100A80057EAA
:10036300100AC2F66D119F117E00201B6C7E6B700C
:1003730030F6021A3720F1051B6C7E6B6030F604F1
:100383001A261A2430F0051B6D0B6A20A5EC338264
:10039300F692F6500A7CEA9F229F217F127CAE4C94
:1003A30044780F7C457C567C676C772E00F878EF99
:1003B30080122F117CB3337C3B9CB140047C3B0BFC
:1003C30070A5D8EE7CB230E005DAB8C44C3BCA382D
:1003D3000B207E00207E3000BE18000078C1BE10C6
:1003E30008780730F404C2F480B5CA287CB2BCBDD7
:1003F30038027CBD120433DA28BC2D500A1BD0E42A
:10040300CA2812023280F07CB213DAB84004C4CA9C
:10041300B8C4CA28BEF08040095CDD7805A5DA02BD
:1004230060065EF07F120232DA28A5DADA0202549D
:10043300BEF001680F30F402240220F50620F70312
:1004430030F6010420F229BCBC5025CAB87CBF1386
:10045300B0E67420501174307C8A5E80F068081214
:1004630004735EA00F8003120249DAB8BCBC78DBC8
:1004730030F40F7430120249745830F30274781256
:10048300024930F605742D020249742B20F5F874E5
:100493002020F7F3221B6C7E6BB010F1021B6C2043
:1004A300F60B30E704F404D2F27CCB800520E70599
:1004B3007CDB0202785EF07F80F81B6E6916000217
:1004C3000B6A0030F0076D221B0A200B0D1B0A80FC
:1004D300020263E46C22BE3007500B7F1F2D312EC6
:1004E30034FFF77E39B0227CBF20E7A8742E4EF08C
:1004F3008002024912061D403D7CBD7003047CDB73
:100503001207347C3D4C3368101B307CBE20E40959
:100513001204D670044C3378F07CBD7CD3BEA0FDAE
:10052300481CBCAB5818E49CBA2CB31801E47CDB20
:100533000205BE12061D406E7CBD041207347AFB11
:10054300A07CAE7CBDA2F492F0C2F4400260010430
:1005530024051204337E30FF0B301204D6CA38123E
:10056300023220F0044CDD68031204EADA38BC3DA1
:1005730078E6740E120232742B7EFBA030F70774F8
:100583002D6EA0FF0BA07AFBA01202497EA00A7E6B
:10059300FBB0847AFBA01202327EFBB01202329EC1
:1005A300F80008020254D2F27ED0000203131206AE
:1005B3001D40F37CBA2CBD041207347AFBA07CBA2D
:1005C3007CAE30E701E40420F4044CDD6805D2F08E
:1005D300C2F4042CBD1204336C337EFBB0601B20C9
:1005E300E712147AFBB01204D6CA38120232DA3890
:1005F3000B3080E6047AFBB01B301204D6CA3812E3
:1006030002324CDD68071204EA1BD080E19EF80039
:100613000930F0031204EA0202547CEA7CAF10F7BB
:10062300037ED0067CFA1B6E693600020B6A200239
:10063300067C2D2B204C4248232E0053584F44490F
:100643004355502A4E4645470004208001020010BE
:1006530040FC4E535B5BE8624C98BDB136F7020336
:1006630003030302030304040505044E614E002B38
:10067300494E46002D494E46007D522D557CBE9273
:10068300E67CEB7CBA601F0470287CB5C2E77E046D
:1006930000FF60067E14066ED3227E1406774004A4
:1006A3007E140672D322DA099F22CA2BCA2BC3CA2D
:1006B30009220A0A7E144D10AD109E083AF09E10CE
:1006C300267CB5C2E77EA0567C9BA46E54FFFF2E0A
:1006D30054C511ACA92D15E4A539CAB8CA1B20E726
:1006E3000A1207A7DA1B1200C6800AF4041207A72E
:1006F300DA1B120026DAA87CB5337CB4334E508063
:100703006C4424822F111478FBDA497407BE400A23
:1007130040099E400ACA0201140BA0CA486C442F28
:10072300117F012F112F112F101478EFCA48CA49D6
:10073300227F0F20E73ABEB007400274070A0B2D51
:10074300109E1400097E19B02EB0FB501F4C116887
:1007530017E47A19B01B147E19B0047A19B0B40ADD
:100763000BE47A19B0A5D9ED0BA074017A19B02264
:100773005EE0BF223F8000004120000042C800002D
:10078300447A0000461C400047C3500049742400CB
:100793004B1896804CBEBC205A0E1BCA6753C21C12
:1007A300749DC5AE7C7B600654076816232312072D
:1007B300CC7CB75438680A7F101207C91200267F11
:1007C30001227CB7543803241C6CAA2E5407777E6D
:1007D3004400FF0B2A0069120002227D02AD31ADF5
:1007E300102D21226D0074104D00780B4D227827B7
:1007F3008D317D126D22227D437D326D222F112D8D
:10080300445002A50FBF1040049F100B901478EDC5
:100813007F016D227D34227D417D138D247D022F46
:10082300004004BD0440049D040B141478F17D239F
:100833007D317D106D0022CA3B7F307A7300227AAE
:10084300B30021E4020A477E7300230A372D377D64
:10085300267E1BA0BEA0B050030208ECBEA0F72862
:10086300030208EC7EB300230A3B2D377D2629B112
:100873000001BEB0A140720A3A6D229E1800B07EFC
:1008830014005E1207DE7A1F00AE0A1B6D002E08ED
:1008930002AD2F107A1F00AE7E1400207E1F00AE23
:1008A3001207DE7A1F00AE7E0F00AE7CB17A130012
:1008B300247C727A2300257C637A3300267E080029
:1008C300277E502012160F7EB300217E7300227EF6
:1008D30008002712166A7EB3002124107AB3002180
:1008E3007EB300230BB1020A477E7300230A372D20
:1008F300377D267E1B70BE70A150030209AB7E7349
:1009030000230A372D377D267E1B70BE70A3280374
:100913000209AB7E7300230A372D377D2629B100E8
:1009230001BEB0A150030209AB7EA300230A3A2DF6
:10093300377D267E1BA00A3A6D229E1800A17E14E5
:10094300005E1207DE7A1F00AE0A1B6D009E0800D0
:10095300A12F107A1F00AE7E1400207E1F00AE125E
:1009630007DE7A1F00AE7E0F00AE7CB17A1300243F
:100973007C727A2300257C637A3300267E08002765
:100983007E502012160F7EB300217E7300227E0854
:10099300002712166A7EB3002124107AB300217E49
:1009A300B300230BB1020A477E7300230A372D37A6
:1009B3007D267E1B70BE70205003020A427E7300A8
:1009C300230A372D377D267E1B70BE707E38707EDE
:1009D3007300230A372D377D267E1B700A376D225D
:1009E3009E1800207A1F00AE74042F111478FB7A2E
:1009F3001F00AE2E2400032E18CF807A1F00AE7E78
:100A03000F00AE7CB17A1300247C727A2300257C1C
:100A1300637A3300267E0800477E501012160F7E3D
:100A2300B300217E7300227E0800471216C07EB3F6
:100A3300002124087AB300217EB300230480057EBD
:100A4300B30023047AB300237E7300230A372D37C0
:100A53007D267E1B70BE7000280302084ADA3B2203
:100A6300CAF87EF300A6BEF0044003020B1F7E37D4
:100A730000BEBE3400016803020B1F7E3400017AFE
:100A83003700BE7E341C647E2400FF7E1BB07E34A0
:100A93001C657E2400FF7E1B707EF41C667EE400D2
:100AA300FF691700020B7A0012083A7E341C6D7E30
:100AB3002400FF7E1BB07E341C6E7E2400FF7E1B51
:100AC300707EF41C6F7EE400FF691700020B7A004E
:100AD30012083A7E341C767E2400FF7E1BB07E34DF
:100AE3001C777E2400FF7E1B707EF41C787EE4005E
:100AF300FF691700020B7A0012083A7E341C7F7ECE
:100B03002400FF7E1BB07E341C807E2400FF7E1BEE
:100B1300707EF41C817EE400FF020BE8BEF00478D3
:100B2300197E3700BEBE340001780F12193DE47AF6
:100B3300B300A37E340002020C10BEF00450030283
:100B43000BF47E3700BEBE3400026803020BF47E52
:100B5300341C887E2400FF7E1BB07E341C897E24D7
:100B630000FF7E1B707EF41C8A7EE400FF69170081
:100B7300020B7A0012083A7E341C917E2400FF7E19
:100B83001BB07E341C927E2400FF7E1B707EF41CFF
:100B9300937EE400FF691700020B7A0012083A7E85
:100BA300341C9A7E2400FF7E1BB07E341C9B7E2463
:100BB30000FF7E1B707EF41C9C7EE400FF6917001F
:100BC300020B7A0012083A7E341CA37E2400FF7EB7
:100BD3001BB07E341CA47E2400FF7E1B707EF41C9D
:100BE300A57EE400FF691700020B7A0012083A8021
:100BF30020BEF005501B7E3700BEBE3400027811C4
:100C030012193D74067AB300A37E3400017A3700CB
:100C1300BEE47E7300A37E141C187E0400FF12083A
:100C23003A7EB300A3121C0FDAF8227E7300A6A546
:100C3300BF00137EB300A8700DA202E43378077ED1
:100C4300B3009D048016A5BF00177EB300A87011E2
:100C5300A202E433B4010A7EB3009D147AB3009D6B
:100C6300227EA300A8BEA00178067E1400018002A4
:100C73006D11A5BF00067E24000180026D225D2157
:100C83006809A202E4337803020D82A5BF000FBEF8
:100C9300A001780AA202E433B40103020D99A5BFAF
:100CA30001114CAA780DA202E43378077EB3009EAB
:100CB300048014A5BF01154CAA7811A202E433B431
:100CC300010A7EB3009E147AB3009E22A5BF010ED3
:100CD300BEA0017809A202E4337803020D82A5BF06
:100CE300010FBEA001780AA202E433B40103020D8E
:100CF30099A5BF02114CAA780DA202E43378077EAE
:100D0300B3009F048014A5BF02154CAA7811A20258
:100D1300E433B4010A7EB3009F147AB3009F22A583
:100D2300BF020DBEA0017808A202E4337802804F0F
:100D3300A5BF020EBEA0017809A202E433B40102EA
:100D43008054A5BF03114CAA780DA202E43378079F
:100D53007EB300A0048014A5BF03154CAA7811A28A
:100D630002E433B4010A7EB300A0147AB300A022D4
:100D7300A5BF0312BEA001780DA202E43378077E5B
:100D8300B300A1048015A5BF0315BEA0017810A26E
:100D930002E433B401097EB300A1147AB300A122A3
:100DA300CA3B7CD67F707CE77CFB9F117A1F0016C1
:100DB3007408ACBD0A3F2D352E3400087CF76D1145
:100DC3007E0442C87F171200261201847A1F001A7C
:100DD3000A5F9E5400187C7E7E141D437E0400FF30
:100DE30012083A6CCC020ED67ED4000A7E7F001A1B
:100DF3007F177D1D1207E77A0F00167F177D1D12DF
:100E030007E77A1F001A9EF008BEC00278039EF01F
:100E1300087E2F0016BE28000A4003020ED47EA0CF
:100E230003A4900E2973020E47020E55020E6302AD
:100E33000E71020E7F020E8D020E9B020EA9020E90
:100E4300B7020EC57CBF7C7E7E141D417E0400FF6D
:100E5300807C7CBF7C7E7E141D3F7E0400FF806E01
:100E63007CBF7C7E7E141D3D7E0400FF80607CBFC2
:100E73007C7E7E141D3B7E0400FF80527CBF7C7E03
:100E83007E141D397E0400FF80447CBF7C7E7E146B
:100E93001D377E0400FF80367CBF7C7E7E141D35AB
:100EA3007E0400FF80287CBF7C7E7E141D337E047D
:100EB30000FF801A7CBF7C7E7E141D317E0400FF00
:100EC300800C7CBF7C7E7E141D2F7E0400FF1208E5
:100ED3003A0BC0BCDC2803020DEBDA3B22D296D2DC
:100EE300937E3400C8121B0774AE6C77121A2974F0
:100EF300026C77121A2974106C77121A2974406CD9
:100F030077121A2974B06C77121A2974816C7712CC
:100F13001A2974CF6C77121A2974A16C77121A29C3
:100F230074A66C77121A2974A86C77121A29743F65
:100F33006C77121A2974AD6C77121A29748B6C773B
:100F4300121A2974336C77121A2974C86C77121A1F
:100F53002974D36C77121A29E46C77121A2974D581
:100F63006C77121A2974806C77121A2974D96C77EA
:100F7300121A29741F6C77121A2974DA6C77121AF1
:100F83002974126C77121A2974DB6C77121A29747C
:100F9300406C77121A2912193D74AF6C77021A2923
:100FA300CA69CAF87EB300A414680C04680302106B
:100FB30051120A630210517E341C637E2400FF7EAB
:100FC3001B700A277E64000A8D267EF300A60A3F63
:100FD300BD32780A7E341C6A7E2400FF805B7E3437
:100FE3001C6C7E2400FF7E1B700A278D260A3FBDE2
:100FF30032780A7E341C737E2400FF803C7E341CCE
:10100300757E2400FF7E1B700A278D260A3FBD32A2
:10101300780A7E341C7C7E2400FF801D7E341C7E77
:101023007E2400FF7E1B700A278D260A3FBD32787F
:101033000D7E341C857E2400FF0B1A309934E47E28
:101043007300A57E141C187E0400FF12083ADAF818
:10105300DA6922CA3B7F307A7300097AB30008E465
:10106300807E7E73000A0A372D377D267E1B70BE75
:1010730070204067BE707E38620A376D229E18006A
:10108300207A1F00AE2F112F112F117A1F00AE2EC1
:101093002400032E18BFC07A1F00AE7E0F00AE7C63
:1010A300B17A13000B7C727A23000C7C637A3300D1
:1010B3000D7E08000E7E500812160F7EB300087EC8
:1010C3007300097E08000E1219FD7EB30008240682
:1010D3007AB300087EB3000A0480057EB3000A04D5
:1010E3007AB3000A7E73000A0A372D377D267E1BEA
:1010F30070BE70002803021065DA3B227E341CE2C6
:101103007E2400FF7E1BB07E341CE37E2400FF7E22
:101113001B707EF41CE47EE400FF691700020B7A67
:101123000012083A7458CAB86C77CA787E4300A094
:10113300E41201517E14D70A7E043C231200267F59
:10114300017E6004DA78DAB8120DA37E341CEB7EDC
:101153002400FF7E1BB07E341CEC7E2400FF7E1B2C
:10116300707EF41CED7EE400FF691700020B7A0029
:1011730012083A7439CAB87E7002CA787E4300A155
:10118300E41201517E14D70A7E043C231200267F09
:10119300017E6004DA78DAB8020DA37E341CBE7EC9
:1011A3002400FF7E1BB07E341CBF7E2400FF7E1B09
:1011B300707EF41CC07EE400FF691700020B7A0006
:1011C30012083A744BCAB86C77CA787E43009EE41F
:1011D3001201517E14D70A7E043C231200267F019C
:1011E3007E6004DA78DAB8120DA37E341CC77E243D
:1011F30000FF7E1BB07E341CC87E2400FF7E1B7064
:101203007EF41CC97EE400FF691700020B7A00120A
:10121300083A7439CAB87E7002CA787E4300A1E4E2
:101223001201517E14D70A7E043C231200267F014B
:101233007E6004DA78DAB8020DA37E341CAC7E2417
:1012430000FF7E1BB07E341CAD7E2400FF7E1B702E
:101253007EF41CAE7EE400FF691700020B7A0012D5
:10126300083A7439CAB86C77CA787E43009DE41291
:1012730001517E14D70A7E043C231200267F017E8F
:101283006004DA78DAB8120DA37E341CB57E24002C
:10129300FF7E1BB07E341CB67E2400FF7E1B707E57
:1012A300F41CB77EE400FF691700020B7A001208F2
:1012B3003A7439CAB87E7002CA787E4300A1E41238
:1012C30001517E14D70A7E043C231200267F017E3F
:1012D3006004DA78DAB8020DA37E341CD07E2400D1
:1012E300FF7E1BB07E341CD17E2400FF7E1B707EEC
:1012F300F41CD27EE400FF691700020B7A00120887
:101303003A744BCAB86C77CA787E43009FE41201E3
:10131300517E14D70A7E043C231200267F017E608F
:1013230004DA78DAB8120DA37E341CD97E2400FFC8
:101333007E1BB07E341CDA7E2400FF7E1B707EF49D
:101343001CDB7EE400FF691700020B7A0012083AE7
:101353007439CAB87E7002CA787E4300A1E41201D0
:10136300517E14D70A7E043C231200267F017E603F
:1013730004DA78DAB8020DA3A203E433B4010280DD
:101383000302140CA2B4E433B401377E37009BBECE
:101393003407D0502D6D337A37009B12193DC203A9
:1013A3007EB300A7BEB002500304800274017AB377
:1013B30000A7B40204D2018002C20174017AB3000F
:1013C300A422A2B4E433B401297E37009BBE340FB8
:1013D300A0281F6D337A37009B12193DC203C20147
:1013E300E47AB300A77AB300A47AB300A57AB30072
:1013F300A822A2B4E433B401107E37009BBE3407A5
:10140300D028066D337A37009B22740A7E34FEB2ED
:101413007E24007E7A1BB0E47E34FED07A1BB07447
:10142300777E34FED17A1BB0E47E34FECC7A1BB0D7
:1014330074607E14FEC87E04007E7A0BB07E14FEB8
:10144300C97A0BB074117A1BB074037E34FED57A5B
:101453001BB074E87E34FED67A1BB074037E34FE70
:10146300D77A1BB074E87E34FED87A1BB074037E3F
:1014730034FED27A1BB074E87E34FED37A1BB07488
:10148300057E34FEB17A1BB074807E34FEDD7A1B98
:10149300B074017E34FEC07A1BB0221218CC120E37
:1014A300E0E4121ACEE41219D112193D121BA31251
:1014B3001B1EA9C6A2A9C7A2A9D4FF12140D121BF1
:1014C3004CD282C281D283C2847E3403E77A37004E
:1014D300BA7A3700BC1217F97D23E412014C7E144B
:1014E30033337E0440531200266D117E044580126F
:1014F30000C67F217E0800817E341D457E2400FFC7
:101503007A2F007B1201C17E080081121B637E3497
:101513002710121BDC121A7F80BBA201E433786E02
:101523007EA300A44CAA78187EB300A3BEB00040EB
:101533002ABEB00438250A3B0B357A7300A3801BFF
:10154300BEA00178167EB300A5BEB000400DBEB0AC
:101553000250080A3B0B357A7300A5BEA00168133D
:101563007EB300A6BEB000400ABEB0063805047ABA
:10157300B300A6BEA00178137EB300A8BEB000409E
:101583000ABEB0013805047AB300A8021906C202E4
:10159300020C2EA201E433786E7EA300A44CAA7839
:1015A300187EB300A3BEB006382ABEB00240250A97
:1015B3003B1B357A7300A3801BBEA00178167EB354
:1015C30000A5BEB004500DBEB00240080A3B1B3557
:1015D3007A7300A5BEA00168137EB300A6BEB00057
:1015E300280ABEB0073805147AB300A6BEA0017856
:1015F300137EB300A8BEB000400ABEB00138051484
:101603007AB300A8021906D202020C2ECA3B7A53FF
:1016130000AC7F307A6300AB7A7300AA7AB300A977
:10162300C2937403121AEC7EB300A9121AEC7EB3B0
:1016330000AA121AEC7EB300AB121AECE480151266
:1016430000037EA300AD0A3A2D377D267A1BB07EB8
:10165300B300AD047AB300AD7E7300ACBE7300ADCE
:1016630038DDD293DA3B22CA3B7F307A7300B37AF8
:10167300B300B2E47AB300B57EB300B27E7300B3B5
:10168300121A54E47AB300B47E3BB07E7001121A8E
:10169300290B747EB300B4047AB300B4B410E97EAA
:1016A300B300B3047AB300B37EB300B5047AB300D6
:1016B300B57E7300B5BE700240BEDA3B22CA3B7FE3
:1016C300307A7300B77AB300B6E47AB300B97EB365
:1016D30000B67E7300B7121A54E47AB300B87E3BA7
:1016E300B07E7001121A290B747EB300B8047AB36A
:1016F30000B8B408E97EB300B7047AB300B77EB389
:1017030000B9047AB300B97E7300B9BE700240BE5B
:10171300DA3B22CAF8A2B2E4337808A2B3E43378FE
:1017230002D200A200E433B40135A2B330B201B354
:101733005008A2B2E4337AB300A2A2B2E433B401F4
:101743001EA2B3E433B40117C2007EF300A2BEF0BD
:1017530001780512151D80074CFF7803121596DAE0
:10176300F822A2B2E433B40109A2B3E433B4010210
:10177300D204A204E433B40131A2B330B201B350B2
:1017830008A2B3E4337AB300A2A2B2E433781BA273
:10179300B3E4337815C2047EB300A2B40103121577
:1017A3001D7EB300A27003121596021716758401ED
:1017B3007E44041FE47A49B01B4478F97EF800C3E1
:1017C300C200C201C202C203C2047E0400FF7E142F
:1017D3001CF30B0A405D44681A692000020B0E0BD0
:1017E30044800A7E0BB07A29B00B240B0C1B44787F
:1017F300F280DF02149EA9D6BC0000A935BCFCA967
:10180300C5BCE5BD7C4B6C55E5BE0A3B2D327EB3B2
:1018130000C3047AB300C31BB168101468160BB17C
:10182300781AE5BC0A5B0B54F5BC22E5BC54F044C2
:1018330008F5BC2253BCF0E47AB300C322CAB8CA89
:1018430039C0D17E3700C0BE34000028061B347A6D
:101853003700C07E37007F0B347A37007FBE3427D2
:10186300102808A2B4E4337802D203A203E433B409
:10187300010A7E37009B0B347A37009BD0D1DA39CB
:10188300DAB832CA3B7F30E47AB3001F7AB3001E62
:10189300E47E73001E121A54E47AB3001F7E3BB039
:1018A3007E7001121A290B747EB3001F047AB300F1
:1018B3001FB480E97EB3001E047AB3001E7E73005A
:1018C3001EBE700840CADA3B2275E900A9D7BA7573
:1018D300EA007593007594007591007592007595F3
:1018E3000075960075B10075B20075B30075B4004C
:1018F30075C90075CA0075CB0075CC0075E100751C
:10190300E20022CA796CEE0A5E2E5400B06C7712A4
:101913001A2974106C77121A2974026C77121A2917
:101923006CFFE47E7001121A290BF0BEF01078F2FE
:101933000BE0BEE00840D0DA7922CA796CFF0A5F77
:101943002E5400B06C77121A2974106C77121A296E
:1019530074026C77121A296CEEE47E7001121A2954
:101963000BE0BEE08078F20BF0BEF00840D0DA79ED
:1019730022CAF87CFB121BCB746C1219A3121BB87E
:101983007CBF1219A3121BB8121BCB746D1219A3BF
:10199300121BB8121AA87CFB121BEB7CBFDAF822CD
:1019A300CA797CFB7EE008C2A07405121BF97CBFD8
:1019B30030E704D2A28002C2A27405121BF9D2A09E
:1019C3003EF0121BF91BE078DEC2A0DA7922CAF8D6
:1019D3007CFB4CFB780E74C86C77121A2974A16CCB
:1019E30077121A29BEF001780E74C06C77121A2987
:1019F30074A06C77121A29DAF822CA3B7F30121AC4
:101A030054E47AB300C27E3BB07E7001121A290BF4
:101A1300747EB300C2047AB300C27E7300C2BE7088
:101A23000640E3DA3B227C6B4C776804D295800254
:101A3300C295C2967E7008C2C77CB630E704D294C2
:101A43008002C294D2C73E601B7078EBD296D295C7
:101A530022CAF87CFB0BF10A572E5400B06C7712A4
:101A63001A297CBF54F0C4540F44106C77121A29FE
:101A73007CBF540F6C77121A29DAF8227E1700BA4A
:101A83007E34FED57E24007E7A1B207E34FED67AF9
:101A93001B307E1700BC7E34FED77A1B207E34FEBB
:101AA300D87A1B3022CA796CFF7EE008D2A0740575
:101AB300121BF93EF030A2034EF001C2A0740512CE
:101AC3001BF91BE078E67CBFDA7922CAF87CFB4C71
:101AD300FB780774A66C77121A29BEF00178077495
:101AE300A76C77121A29DAF8227C6B7E7008C2C7BA
:101AF3007CB630E704D2948002C2943E60D2C71B06
:101B03007078EB227D13800E7E0407087D301B0462
:101B13004D3378F81B144D1178EE22759850438E8F
:101B230001538EFB75D7E675D6FF438E10D2ACD228
:101B3300AF22C2A0A20592A27405121BF9D2A01271
:101B43001BF9C2A0D2A2021BF9743F7E34FEA87E09
:101B530024007E7A1BB075DE2F75BCF0A9D7BC229A
:101B6300CA3B7F3080087E3BB00B74121C0F7E3B58
:101B7300B070F3DA3B22748D6C77121A2974106CEF
:101B830077121A2974AE6C77021A29748D6C771246
:101B93001A2974146C77121A2974AF6C77021A29F4
:101BA300538EBF53890F758B9C758DFFC28FD28E59
:101BB300D2ABD2AF22D2A07405121BF9A2A2920615
:101BC300C2A0121BF9A20622D2A2D2A07405121B34
:101BD300F9C2A2121BF9C2A0227A3700C07E3700D5
:101BE300C0BE34000038F622C2A2D2A07405121B74
:101BF300F9D2A2021BF97C7B007C671B70A5BE0097
:101C0300F722C0D1309802C298D0D1327AB199303C
:101C130099FDC299223E00B2E2CAD4B7A2C7F23AF2
:101C230000B8A9D1F6BDC73A00B5F7D7F3D3D23A76
:101C330000B9A6C4DC3A00D7AACBD93A00C6E4CB94
:101C4300FB00BFD8D6C600B8A9D1F6BDC700BDC733
:101C5300B6C8B5F7BDDA00D7AACBD9B5F7BDDA0058
:101C63000A100000FF1C5A123D0B100200FF1C510A
:101C7300119E0C100400FF1C4A12DC0D100600FF1D
:101C83001C4510FF0E100000FF1C4000000F100247
:101C930000FF1C40000010100400FF1C4000001156
:101CA300100600FF1C400000140F0000FF1C3A0048
:101CB30000150F0200FF1C340000160F0000FF1C6C
:101CC3002C0000170F0200FF1C340000180F000047
:101CD300FF1C240000190F0200FF1C3400001A0F20
:101CE3000000FF1C1A00001B0F0200FF1C34000041
:101CF3000002007F0000000400AE000000000002AC
:101D030000BE00010002009B0000000100A60000CD
:101D13000100A700000100A800000200BA000000B3
:101D23000200BC0000000100C300000039003800BD
:101D33003700360035003400330032003100300004
:0E1D43002E005031313A25342E33660D0A0041
:00000001FF
