:10000000021CBD6CAA7E7008C2C73EA03097020BCE
:0A001000A0D2C71B7078F17CBA2261
:07001B00021E292830290014
:1000230002269802039A6E00807CB1337CB0336859
:100033000D0468EF7CB5337CB43378037F1022045E
:1000430068E17D5092F77D457D51BF2140067C805C
:100053007F017F1212035D7EA1D05CB00478032080
:10006300D5C17CB00478075002B2D50203A292D561
:10007300BE80FF68F67CB89CB06C00602AB418059B
:100083007C4102037650FB80032F00047C9B5E902F
:100093000778F630E4067C437D106D0030E3087C7E
:1000A300437C327C210A0030F5199F10780E22021E
:1000B300039F1B8068F92F1150020B707CB530E74A
:1000C300F1801B2D317CB5A5397C5B50110B8078F9
:1000D300030203A21E341350034E60801A2B020343
:1000E300765D22680D5D0078122D220B4068099F12
:1000F30011222D000B0078F902039A12035D5C8034
:100103000B806808248150072CB0500A0203A22CEC
:10011300B0400302039F7C8B5D1178267CB17CA5E4
:10012300BE1080680A5D33780DA5BD80057F10027F
:10013300038C6D0080307F017C5B7CB17CA5AD12AC
:1001430080245D337806A5BD80F080E1CA887D41B7
:10015300AD437CB17CA5AD122D1450020B047C5B26
:10016300AD232F01DA88A42D05BE008040060B8045
:10017300780480982F007C437C507C617C7202035E
:1001830076BE24FFFF6806BE04FFFF780302039ACE
:1001930012035D5CB00468F57CB8A54868EF7CB8D1
:1001A30070039F1122A5B800030203A22E00815001
:1001B300079C80380702039F9C8050ED0A51C2E7D9
:1001C3004D51780302038C7E5400807E901A6C009C
:1001D30080061B9068142F11BF1040049F104CAB76
:1001E3000330E7EECAA86CAA80E8DA39DA587C4A09
:1001F300BE5080500A1B8068BC2F1150020B700246
:1002030003765D226809BE24FFFF68036E408022E7
:100213007EA020800C7EA01080057EA0086C556D0A
:10022300333392D5500A6E34FFFF6E24FFFF0B1C4D
:10023300A5EC3340062F11D5F0F6227CBA247EA21A
:10024300D5137C767C65A5CC92E77C5B227CB533A9
:100253007CB43392D54E5080248140039F11227C7D
:10026300457C567C676C7724E0500E7E1CFFFF2292
:100273001E341E2450034E60800478F430D50A6E79
:1002830034FFFF6E24FFFF0B1C227F707F517EC45F
:1002930000007ED400CB7E9402A00204214005E43A
:1002A3007A7BB0227A7BB00B7C227CB5A2E7D2E7C3
:1002B3007C1B7CB4334009680DB4FF0BA5BDFF0361
:1002C30002039A0203A2227C0B2481C2E0F582F48A
:1002D300042CB07C2BC3137C4B7CB592E77C5B7FF7
:1002E300417CB6A2E77CB1A5BA7F02C31334009464
:1002F300007C2B7EA091A47CBA13F494FEACB233A1
:100303007CBA33248CD3137C5BE492E77C6B6C77ED
:100313007E403F7583027F517F017F141201847FEA
:100323000512002C9E240080D583EB7E01826C1184
:100333000E041E042D205E407F227F617F01120088
:10034300E46E40806D117E043F8012002C1202ADDA
:100353007F017F161201840208502D0092D50E10E2
:100363004E10807D422D445002B2D54E50806C44D5
:100373007CB8222C4450120B1C7E40005E507FBE82
:1003830018000078040B806816A2D57CB8137C4B48
:100393007CB592E77C5B227E1CFFFF229F11227EAD
:1003A30024FF8020D5026C456D332274F86CAA6E4D
:1003B30040806E0080BEB0FF68277C837C975C3BE7
:1003C3005C7BBF10682AF4400D7C382D15F45C3B30
:1003D300500F0B04800B7C792D35F45C7B50020BA2
:1003E30024BF10680B7CB020E7067CB420E701B380
:1003F30022540F2490D43440D430F30CBEB0414087
:1004030007BEB05B500224204CCC68021BC00B8497
:10041300D389944CCC680B742012040B80F5CA3B2F
:100423006D889F337CAE7E5BB00B5C7007C37D38F9
:10043300DA3B8994B42569C2F37E5BB00B5CA5F803
:1004430024D0BEB00A501B7E500A20F60DAC5CA52A
:100453002D7CCB70034EF00180DDAC5DA52D7CDBE4
:1004630080D524CFBEB01AA5E850055E00DFD2F3D5
:100473009007F6A3E4936011BCB078F77417934C1C
:10048300AB30F6B34EF08080AEA3E4936010BCB003
:1004930078F77416937C3B7423937C2B89147CB07C
:1004A3008013742012040B20F205BEC00250F31B0C
:1004B3006D29B6000112040B0204161B6E691600A7
:1004C300020B6A00BE08000078087E0400FF7E1459
:1004D300001E20F21E4CCC681A7F10E47E1B804C59
:1004E3008868070B1C04BCBD78F2C2F6CA0B120560
:1004F300F5DA0B7E0BB060C0CA0B12040BDA0B0BE0
:100503000C4CDD68EE1BD078EA80ADD2F07E101083
:1005130080037E10085EB05F800AD2F67E100A80E8
:10052300057E100AC2F66D119F117E00201B6C7EA2
:100533006B7030F6021A3720F1051B6C7E6B60304E
:10054300F6041A261A2430F0051B6D0B6A20A5EC5D
:100553003382F692F6500A7CEA9F229F217F127C17
:10056300AE4C44780F7C457C567C676C772E00F844
:1005730078EF80122F117CB3337C3B9CB140047C19
:100583003B0B70A5D8EE7CB230E005DAB8C44C3B27
:10059300CA380B207E00207E3000BE18000078C1D0
:1005A300BE1008780730F404C2F480B5CA287CB2C0
:1005B300BCBD38027CBD1205F5DA28BC2D500A1BE0
:1005C300D0E4CA281203F480F07CB213DAB84004F2
:1005D300C4CAB8C4CA28BEF08040095CDD7805A54A
:1005E300DA0260065EF07F1203F4DA28A5DADA0293
:1005F3000416BEF001680F30F402240220F5062031
:10060300F70330F6010420F229BCBC5025CAB87C9C
:10061300BF13B0E67420501174307C8A5E80F0689A
:10062300081206355EA00F800312040BDAB8BCBCB7
:1006330078DB30F40F743012040B745830F3027407
:100643007812040B30F605742D02040B742B20F57D
:10065300F8742020F7F3221B6C7E6BB010F1021BA1
:100663006C20F60B30E704F404D2F27CCB80052037
:10067300E7057CDB02043A5EF07F80F81B6E6916A7
:1006830000020B6A0030F0076D221B0A200B0D1BC2
:100693000A80020425E46C22BE3007500B7F1F2D15
:1006A300312E34FFF77E39B0227CBF20E7A8742EA9
:1006B3004EF08002040B1207DF403D7CBD70030443
:1006C3007CDB1209E87C3D4C3368101B307CBE2078
:1006D300E40912069870044C3378F07CBD7CD3BED9
:1006E300A0FD481CBCAB5818E49CBA2CB31801E419
:1006F3007CDB0207801207DF406E7CBD041209E831
:100703007AFBA07CAE7CBDA2F492F0C2F4400260FE
:10071300010424051205F57E30FF0B30120698CA3A
:10072300381203F420F0044CDD68031206ACDA3807
:10073300BC3D78E6740E1203F4742B7EFBA030F7F5
:1007430007742D6EA0FF0BA07AFBA012040B7EA0F2
:100753000A7EFBB0847AFBA01203F47EFBB0120383
:10076300F49EF80008020416D2F27ED0000204D5EB
:100773001207DF40F37CBA2CBD041209E87AFBA010
:100783007CBA7CAE30E701E40420F4044CDD680558
:10079300D2F0C2F4042CBD1205F56C337EFBB060BD
:1007A3001B20E712147AFBB0120698CA381203F41E
:1007B300DA380B3080E6047AFBB01B30120698CA95
:1007C300381203F44CDD68071206AC1BD080E19E9F
:1007D300F8000930F0031206AC0204167CEA7CAF81
:1007E30010F7037ED0067CFA1B6E693600020B6A93
:1007F300200209302D2B204C4248232E0053584F02
:1008030044494355502A4E4645470004208001027F
:10081300001040BE10151D1DAA240E5A7F73F8B98F
:1008230004050505050405050606070606BE124967
:10083300253E4CCCCDBEAAAAAB3F8000003E7ADB5E
:10084300B03EED63383F24BC7D3F490FDB7DC25E84
:10085300407FBE247F804010680302039A7E340FDA
:10086300DB7E243FC90209145EC480007D522D55EE
:10087300BEA07F401378049420400D7F017E243F67
:10088300806D331201840BC47CB5337CB433248470
:1008930030E7046DDD803E047CAB7CB5D2E754F0D9
:1008A300C333D5F0FC5407340023230ADB7F417F95
:1008B300017C4BE412021D1B417F711200E47E0494
:1008C3003F806D1112002C7F077F717F1412002966
:1008D3007F071201847F717E9408307E8400FF7449
:1008E30003120A2B7F071200E45DDD68147E5408AF
:1008F3003C7E4400FF2D5D0B2A00691200021200AA
:100903002C7D5C30E00B7E04BFC97E140FDB12002C
:100913002C5D2268095E407F5EC480004D2C224E10
:10092300614E002B494E46002D494E46007D522D07
:10093300557CBE92E67CEB7CBA601F0470287CB5C4
:10094300C2E77E0400FF60067E140922D3227E14D0
:10095300092B40047E140926D322DA099F22CA2BCD
:10096300CA2BC3CA09220A0A7E144D10AD109E0871
:100973003AF09E10267CB5C2E77EA0567C9BA46EFF
:1009830054FFFF2E54C511ACA92D15E4A539CAB8DF
:10099300CA1B20E70A120A88DA1B120184800AF4B0
:1009A30004120A88DA1B1200E4DAA87CB5337CB49B
:1009B300334E50806C4424822F111478FBDA49742F
:1009C30007BE400A40099E400ACA0201140BA0CA8E
:1009D300486C442F117F012F112F112F101478EF22
:1009E300CA48CA49227F0F20E73ABEB007400274C3
:1009F300070A0B2D109E1400097E19B02EB0FB5070
:100A03001F4C116817E47A19B01B147E19B0047ACD
:100A130019B0B40A0BE47A19B0A5D9ED0BA074018F
:100A23007A19B0225EE0BF22CAB87F011200E4DA6D
:100A3300B87F510B4A20693400020B4E7F05CAB8B8
:100A43001200E40B4A00691400020B4E12002CDA68
:100A5300B81478E8223F8000004120000042C8001B
:100A630000447A0000461C400047C35000497424E8
:100A7300004B1896804CBEBC205A0E1BCA6753C24B
:100A83001C749DC5AE7C7B60065407681623231235
:100A93000AAD7CB75438680A7F10120AAA1200E420
:100AA3007F01227CB7543803241C6CAA2E540A58A5
:100AB3007E4400FF0B2A0069120002227D02AD3141
:100AC300AD102D21226D0074104D00780B4D22784E
:100AD300278D317D126D22227D437D326D222F11B0
:100AE3002D445002A50FBF1040049F100B901478A3
:100AF300ED7F016D227D34227D417D138D247D02A6
:100B03002F004004BD0440049D040B141478F17DB0
:100B1300237D317D106D0022CA3B7F307A1F00DEBA
:100B23007E1F00EA7F011200E47F717E1F00E67FD3
:100B3300011200E47F0712002C7F717E1F00EE7FFD
:100B4300011200E47F0712002C1202AD7F717E1F99
:100B530000E67F071201847A1F00E67E1F00EA7F0A
:100B6300071201847A1F00EA7E1F00EE7F0712013D
:100B7300847A1F00EE7E4F00497E6F00107F167F40
:100B8300041200E47F717E5F004D7E1F00457F05E8
:100B93001200E47F071200296D117E044000120049
:100BA300E47F017E340014591300021B38207F14A4
:100BB3007F051200E47F717E0F00457F161200E46B
:100BC3007F0712002C6D117E0440001200E47F6148
:100BD3007E0F00457E1F00451200E47F717E0F00EB
:100BE300107E1F00101200E47F071200297F717F1F
:100BF300147F041200E47F017F171200297F717FA5
:100C0300157F051200E47F0712002C7F717E1F0001
:100C1300EE7F061200E47F517E1F00EA7F07120079
:100C2300E47F051200297F417E1F00E67F07120043
:100C3300E47F717E340014491300020B38007E1FD9
:100C430000EE1200E47F071200297F517E34001466
:100C5300491300020B38007E1F00EA1200E47F7183
:100C63007E1F00E67F061200E47F071200297F61E2
:100C73007EF4126F7EE43A837F147F071200E47ED2
:100C83000F000C12002C7A1F000C7F157F07120037
:100C9300E47E0F002212002C7A1F00227F167F07AA
:100CA3001200E47E0F002612002C7A1F00267EF429
:100CB300CCCD7EE43F4C7F177F041200E47E0F000F
:100CC300DE12002C7E0F000C12002C7A1F00DE7F38
:100CD300177F051200E47F0312002C7E0F002212FF
:100CE300002C7F317F177F061200E47E0F00E21293
:100CF300002C7E0F002612002C7A1F00E27E1F00BC
:100D0300451202057E4F00DE7F041200E47F717EF0
:100D13001F00497F031200E47F017F171200297F20
:100D2300717E5F00E27E1F004D7F051200E47F01AC
:100D33007F171200297EF4126F7EE43B837F071234
:100D430000E47E0F001012002C7A1F00107E1F009B
:100D5300497F051200E47F617E1F00107F041200AB
:100D6300E47F0612002C7F617E1F004D7F0312007B
:100D7300E47F017F161200297F071200E47E0F0033
:100D83004512002C7A1F00457F051200E47F617E27
:100D93001F00107F031200E47F061200297F617E8B
:100DA3001F004D7F041200E47F0612002C7F071200
:100DB30000E47E0F004912002C7A1F00497E1F00B9
:100DC300457F031200E47F617E1F00107F05120040
:100DD300E47F0612002C7F517E6F00497F167F044B
:100DE3001200E47F017F151200297F071200E47EC1
:100DF3000F004D12002C7A1F004D7E0F00457E1F01
:100E030000451200E47F717E0F00107E1F00101258
:100E130000E47F0712002C7F717F167F061200E427
:100E23007F0712002C7F717E1F004D7F011200E4AB
:100E33007F0712002C1202AD7F717E1F00107F0707
:100E43001201847A1F00107E1F00457F0712018460
:100E53007A1F00457E1F00497F071201847A1F0015
:100E6300497E1F004D7F071201847A1F004D7E0FBC
:100E7300004D7E1F00451200E47F717E0F00497E06
:100E83001F00101200E47F071200296D117E044039
:100E9300001200E412033D7E142EE17E044265122B
:100EA30000E47A1D087E0F004D7E1F00491200E406
:100EB3007F717E0F00457E1F00101200E47F071232
:100EC300002C6D117E0440001200E412033D7E14D9
:100ED3002EE17E0442651200E47A1F00827E5F00E9
:100EE300457F157F051200E47F717E4F00107F144C
:100EF3007F041200E47F0712002C7F717E6F00498C
:100F03007F167F061200E47F017F171200297F31CD
:100F13007E7F004D7F177F071200E47F017F13124E
:100F23000029CA1B7F147F071200E47F717F157F9E
:100F3300061200E47F0712002C6D117E044000129C
:100F430000E4DA0B12214F7E142EE17E0442651277
:100F530000E47A1F0086DA3B22CA3B7F307A7300B3
:100F6300A47AB300A3E40211697E7300A50A372DA6
:100F7300377D267E1BA0BEA0B0500302100EBEA07C
:100F8300F7280302100E7EB300A50A3B2D377D26FA
:100F930029B10001BEB0A140720A3A6D229E180029
:100FA300B07E14005E120ABF7A1F010E0A1B6D0089
:100FB3002E0802AD2F107A1F010E7E1400207E1F13
:100FC300010E120ABF7A1F010E7E0F010E7CB17A49
:100FD3001300A67C727A2300A77C637A3300A87E71
:100FE3000800A97E5020121F687EB300A37E730001
:100FF300A47E0800A9121FC37EB300A324107AB3F2
:1010030000A37EB300A50BB10211697E7300A50A8C
:10101300372D377D267E1B70BE70A150030210CD85
:101023007E7300A50A372D377D267E1B70BE70A305
:1010330028030210CD7E7300A50A372D377D26299C
:10104300B10001BEB0A150030210CD7EA300A50ADA
:101053003A2D377D267E1BA00A3A6D229E1800A1E9
:101063007E14005E120ABF7A1F010E0A1B6D009EDA
:101073000800A12F107A1F010E7E1400207E1F018D
:101083000E120ABF7A1F010E7E0F010E7CB17A1376
:1010930000A67C727A2300A77C637A3300A87E08BB
:1010A30000A97E5020121F687EB300A37E7300A4A4
:1010B3007E0800A9121FC37EB300A324107AB300D5
:1010C300A37EB300A50BB10211697E7300A50A3795
:1010D3002D377D267E1B70BE702050030211647E67
:1010E3007300A50A372D377D267E1B70BE707E38B0
:1010F300707E7300A50A372D377D267E1B700A3755
:101103006D229E1800207A1F010E74042F1114788B
:10111300FB7A1F010E2E2400032E18CF807A1F01A5
:101123000E7E0F010E7CB17A1300A67C727A230027
:10113300A77C637A3300A87E0800C97E5010121F73
:10114300687EB300A37E7300A47E0800C912201931
:101153007EB300A324087AB300A37EB300A5048062
:10116300057EB300A5047AB300A57E7300A50A37F4
:101173002D377D267E1B70BE70002803020F6CDAAC
:101183003B22CAF87EF3010BBEF004400302124176
:101193007E37011CBE34000168030212417E340015
:1011A300017A37011C7E3427ED7E2400FF7E1BB0BD
:1011B3007E3427EE7E2400FF7E1B707EF427EF7EB5
:1011C300E400FF691700020B7A00120F5C7E3427DC
:1011D300F67E2400FF7E1BB07E3427F77E2400FFBB
:1011E3007E1B707EF427F87EE400FF691700020B74
:1011F3007A00120F5C7E3427FF7E2400FF7E1BB033
:101203007E3428007E2400FF7E1B707EF428017E3E
:10121300E400FF691700020B7A00120F5C7E34288A
:10122300087E2400FF7E1BB07E3428097E2400FF45
:101233007E1B707EF4280A7EE400FF02130ABEF0D0
:101243000478197E37011CBE340001780F12224244
:10125300E47AB301087E340002021332BEF0045074
:10126300030213167E37011CBE3400026803021307
:10127300167E3428117E2400FF7E1BB07E34281294
:101283007E2400FF7E1B707EF428137EE400FF693A
:101293001700020B7A00120F5C7E34281A7E24009A
:1012A300FF7E1BB07E34281B7E2400FF7E1B707ED6
:1012B300F4281C7EE400FF691700020B7A00120F6A
:1012C3005C7E3428237E2400FF7E1BB07E342824DA
:1012D3007E2400FF7E1B707EF428257EE400FF69D8
:1012E3001700020B7A00120F5C7E34282C7E240038
:1012F300FF7E1BB07E34282D7E2400FF7E1B707E74
:10130300F4282E7EE400FF691700020B7A00120F07
:101313005C8020BEF005501B7E37011CBE340002EA
:10132300781112224274067AB301087E3400017ADE
:1013330037011CE47E7301087E1427A17E0400FF9D
:10134300120F5C7EB301081226A2DAF8227E730123
:101353000BA5BF00137EB3010D700DA202E4337819
:10136300077EB30102048016A5BF00177EB3010DEB
:101373007011A202E433B4010A7EB30102147AB3FA
:101383000102227EA3010DBEA00178067E14000196
:1013930080026D11A5BF00067E24000180026D222C
:1013A3005D216809A202E43378030214A4A5BF00F7
:1013B3000FBEA001780AA202E433B401030214BBF6
:1013C300A5BF01114CAA780DA202E43378077EB3BE
:1013D3000103048014A5BF01154CAA7811A202E4ED
:1013E30033B4010A7EB30103147AB3010322A5BF08
:1013F300010EBEA0017809A202E43378030214A40B
:10140300A5BF010FBEA001780AA202E433B4010311
:101413000214BBA5BF02114CAA780DA202E43378D3
:10142300077EB30104048014A5BF02154CAA7811EA
:10143300A202E433B4010A7EB30104147AB30104B3
:1014430022A5BF020DBEA0017808A202E4337802F0
:10145300804FA5BF020EBEA0017809A202E433B4F7
:1014630001028054A5BF03114CAA780DA202E433F4
:1014730078077EB30105048014A5BF03154CAA7831
:1014830011A202E433B4010A7EB30105147AB30155
:101493000522A5BF0312BEA001780DA202E4337892
:1014A300077EB30106048015A5BF0315BEA001780E
:1014B30010A202E433B401097EB30106147AB30126
:1014C3000622CA3B7CD67F707CE77CFB9F117A1F88
:1014D30000187408ACBD0A3F2D352E3400087CF784
:1014E3006D117E0442C87F171200E41202507A1F66
:1014F300001C0A5F9E5400187C7E7E1428B47E0470
:1015030000FF120F5C6CCC0215F87ED4000A7E7FBC
:10151300001C7F177D1D120AC87A0F00187F177DE4
:101523001D120AC87A1F001C9EF008BEC002780371
:101533009EF0087E2F0018BE28000A40030215F60D
:101543007EA003A490154B7302156902157702154B
:10155300850215930215A10215AF0215BD0215CB25
:101563000215D90215E77CBF7C7E7E1428B27E0467
:1015730000FF807C7CBF7C7E7E1428B07E0400FF4D
:10158300806E7CBF7C7E7E1428AE7E0400FF80606C
:101593007CBF7C7E7E1428AC7E0400FF80527CBF1F
:1015A3007C7E7E1428AA7E0400FF80447CBF7C7E60
:1015B3007E1428A87E0400FF80367CBF7C7E7E14C8
:1015C30028A67E0400FF80287CBF7C7E7E1428A48E
:1015D3007E0400FF801A7CBF7C7E7E1428A27E04DA
:1015E30000FF800C7CBF7C7E7E1428A07E0400FF5D
:1015F300120F5C0BC0BCDC280302150DDA3B22D2B0
:1016030096D2937E3400C812256A74AE6C77122387
:101613009274026C7712239274106C771223927473
:10162300406C7712239274B06C7712239274816C9E
:101633007712239274CF6C7712239274A16C771272
:10164300239274A66C7712239274A86C7712239258
:10165300743F6C7712239274AD6C77122392748B60
:101663006C7712239274336C7712239274C86C775D
:1016730012239274D36C77122392E46C7712239221
:1016830074D56C7712239274806C7712239274D979
:101693006C77122392741F6C7712239274DA6C772F
:1016A30012239274126C7712239274DB6C771223D9
:1016B3009274406C7712239212224274AF6C7702B9
:1016C3002392CA69CAF87EB3010914680C0468033B
:1016D3000217731211850217737E3427EC7E2400E0
:1016E300FF7E1B700A277E64000A8D267EF3010BA2
:1016F3000A3FBD32780A7E3427F37E2400FF805BE5
:101703007E3427F57E2400FF7E1B700A278D260A70
:101713003FBD32780A7E3427FC7E2400FF803C7E66
:101723003427FE7E2400FF7E1B700A278D260A3F86
:10173300BD32780A7E3428057E2400FF801D7E3466
:1017430028077E2400FF7E1B700A278D260A3FBDD3
:1017530032780D7E34280E7E2400FF0B1A30993424
:10176300E47E73010A7E1427A17E0400FF120F5C3E
:10177300DAF8DA6922CA3B7F307A7300F37AB3006E
:10178300F2E4807E7E7300F40A372D377D267E1BBC
:1017930070BE70204067BE707E38620A376D229E2D
:1017A3001800207A1F010E2F112F112F117A1F01FC
:1017B3000E2E2400032E18BFC07A1F010E7E0F01C8
:1017C3000E7CB17A1300F57C727A2300F67C637A7F
:1017D3003300F77E0800F87E5008121F687EB300BE
:1017E300F27E7300F37E0800F81223667EB300F2E4
:1017F30024067AB300F27EB300F40480057EB300BE
:10180300F4047AB300F47E7300F40A372D377D268F
:101813007E1B70BE70002803021787DA3B227E34DA
:10182300286B7E2400FF7E1BB07E34286C7E240050
:10183300FF7E1B707EF4286D7EE400FF69170002B3
:101843000B7A00120F5C7458CAB86C77CA787E435F
:101853000105E412021D7E14D70A7E043C23120004
:10186300E47F017E6004DA78DAB81214C57E342886
:10187300747E2400FF7E1BB07E3428757E2400FF17
:101883007E1B707EF428767EE400FF691700020B4E
:101893007A00120F5C7439CAB87E7002CA787E432C
:1018A3000106E412021D7E14D70A7E043C231200B3
:1018B300E47F017E6004DA78DAB80214C57E342846
:1018C300477E2400FF7E1BB07E3428487E2400FF21
:1018D3007E1B707EF428497EE400FF691700020B2B
:1018E3007A00120F5C744BCAB86C77CA787E4301D6
:1018F30003E412021D7E14D70A7E043C231200E483
:101903007F017E6004DA78DAB81214C57E34285079
:101913007E2400FF7E1BB07E3428517E2400FF7E90
:101923001B707EF428527EE400FF691700020B7AD5
:1019330000120F5C7439CAB87E7002CA787E430104
:1019430006E412021D7E14D70A7E043C231200E42F
:101953007F017E6004DA78DAB80214C57E34283554
:101963007E2400FF7E1BB07E3428367E2400FF7E5B
:101973001B707EF428377EE400FF691700020B7AA0
:1019830000120F5C7439CAB86C77CA787E430102BF
:10199300E412021D7E14D70A7E043C231200E47F66
:1019A300017E6004DA78DAB81214C57E34283E7EEC
:1019B3002400FF7E1BB07E34283F7E2400FF7E1B65
:1019C300707EF428407EE400FF691700020B7A0062
:1019D300120F5C7439CAB87E7002CA787E4301065E
:1019E300E412021D7E14D70A7E043C231200E47F16
:1019F300017E6004DA78DAB80214C57E3428597E91
:101A03002400FF7E1BB07E34285A7E2400FF7E1BF9
:101A1300707EF4285B7EE400FF691700020B7A00F6
:101A2300120F5C744BCAB86C77CA787E430104E426
:101A330012021D7E14D70A7E043C231200E47F01A8
:101A43007E6004DA78DAB81214C57E3428627E2404
:101A530000FF7E1BB07E3428637E2400FF7E1B7054
:101A63007EF428647EE400FF691700020B7A0012FB
:101A73000F5C7439CAB87E7002CA787E430106E4EB
:101A830012021D7E14D70A7E043C231200E47F0158
:101A93007E6004DA78DAB80214C5A203E433B40131
:101AA300028003021B2EA2B4E433B401377E370154
:101AB30000BE3407D0502D6D337A37010012224215
:101AC300C2037EB3010CBEB0025003048002740152
:101AD3007AB3010CB40204D2018002C20174017A08
:101AE300B3010922A2B4E433B401297E370100BE55
:101AF300340FA0281F6D337A370100122242C2032C
:101B0300C201E47AB3010C7AB301097AB3010A7A08
:101B1300B3010D22A2B4E433B401107E370100BE39
:101B23003407D028066D337A37010022740A7E34D5
:101B3300FEB27E24007E7A1BB0E47E34FED07A1B94
:101B4300B074EF7E34FED17A1BB0E47E34FECC7ADF
:101B53001BB074607E14FEC87E04007E7A0BB07ED8
:101B630014FEC97A0BB074117A1BB074037E34FE71
:101B7300D57A1BB074E87E34FED67A1BB074037E2C
:101B830034FED77A1BB074E87E34FED87A1BB07467
:101B9300037E34FED27A1BB074E87E34FED37A1B04
:101BA300B074057E34FEB17A1BB074807E34FEDDE2
:101BB3007A1BB074017E34FEC07A1BB0227E3700DC
:101BC300554D3378777E3400017A3700557E7300A4
:101BD300791A377A3700C97E08002A7E3428C27EF4
:101BE3002400FF12028DE46C777E08002A120F5C3A
:101BF3007E3701147A3700C97E3701127A3700C75E
:101C03007E08002A7E3428BA7E2400FF12028DE467
:101C13007E70027E08002A120F5C7E37008D7A37B1
:101C230000C97E08002A7E3428B67E2400FF1202F3
:101C33008DE47E70047E08002A020F5C227E37004A
:101C43005B4D3378747E3400017A37005B121F09D1
:101C53007AB30079BEB00118097E730079BE70FFB4
:101C6300581F7EB30079B4FE07E47AB30021801FC6
:101C73007EB30079B402187E7300447A73007980CE
:101C83000E74017AB300217E7300797A7300447E67
:101C93007300791A077E140258AD107D312E370078
:101CA3008D7A3701147E27008D9D217A2701121228
:101CB30024BF7EB30021022194227584017E440453
:101CC3001FE47A49B01B4478F97EF80122C200C2AE
:101CD30001C202C203C2047E0400FF7E1426C30BAA
:101CE3000A405D44681A692000020B0E0B44800A07
:101CF3007E0BB07A29B00B240B0C1B4478F280DFE7
:101D03007E0400FF7E14287C0B0A405D4468222970
:101D13005000020A25693000032E0800050B448099
:101D23000A7E0BB07A1BB00B1C0B0C1B4478F280A1
:101D3300D7022279A201E433786E7EA301094CAA6B
:101D430078187EB30108BEB000402ABEB00438251F
:101D53000A3B0B357A730108801BBEA00178167EFF
:101D6300B3010ABEB000400DBEB00250080A3B0BDF
:101D7300357A73010ABEA00168137EB3010BBEB0AE
:101D830000400ABEB0063805047AB3010BBEA001B9
:101D930078137EB3010DBEB000400ABEB001380512
:101DA300047AB3010D02220BC202021350A201E412
:101DB30033786E7EA301094CAA78187EB30108BE5E
:101DC300B006382ABEB00240250A3B1B357A7301A0
:101DD30008801BBEA00178167EB3010ABEB0045072
:101DE3000DBEB00240080A3B1B357A73010ABEA040
:101DF3000168137EB3010BBEB000280ABEB00738DA
:101E030005147AB3010BBEA00178137EB3010DBE96
:101E1300B000400ABEB0013805147AB3010D0222A6
:101E23000BD202021350CAB8CA39C0D17E3700554B
:101E33000B347A370055BE34006478066D337A3735
:101E430000557E37005B0B347A37005BBE34000AE3
:101E530078066D337A37005B7E37011EBE3400008F
:101E630028061B347A37011E7E37003E0B347A373F
:101E7300003EBE3427102808A2B4E4337802D2030C
:101E8300A203E433B4010A7E3701000B347A37012D
:101E930000D0D1DA39DAB832CA3B7F301225507418
:101EA300D012245A743B12245A12255074D112248E
:101EB3005AE47AB301221224347EA301220A3A2D72
:101EC300377D267A1BB0C2B7D2B612268DC2B612A0
:101ED300268D7EB30122047AB301227E730122BED2
:101EE300700D40D21224347EA301220A3A2D377D8D
:101EF300267A1BB0D2B7D2B612268DC2B612268D61
:101F0300122664DA3B226CAAA2CAE433B401057E2A
:101F1300700480026C77A2CBE433B401054E7002E7
:101F230080035E70FDA285E433B401054E70018029
:101F3300035E70FE2E700068211B7068132E70FD07
:101F430068132E70FD68182E700578166CAA80121F
:101F53007EA0FF800D7EA00180087EA00280037E0C
:101F6300A0FE7CBA22CA3B7A5300DC7F307A63003E
:101F7300DB7A7300DA7AB300D9C29374031225357E
:101F83007EB300D91225357EB300DA1225357EB330
:101F930000DB122535E480151200037EA300DD0A61
:101FA3003A2D377D267A1BB07EB300DD047AB30069
:101FB300DD7E7300DCBE7300DD38DDD293DA3B22B5
:101FC300CA3B7F307A7300DA7AB300D9E47AB3007C
:101FD300DC7EB300D97E7300DA1223BDE47AB3004A
:101FE300DB7E3BB07E70011223920B747EB300DB69
:101FF300047AB300DBB410E97EB300DA047AB300E9
:10200300DA7EB300DC047AB300DC7E7300DCBE70DE
:102013000240BEDA3B22CA3B7F307A7300DA7AB3DE
:1020230000D9E47AB300DC7EB300D97E7300DA1200
:1020330023BDE47AB300DB7E3BB07E7001122392B2
:102043000B747EB300DB047AB300DBB408E97EB320
:1020530000DA047AB300DA7EB300DC047AB300DC7E
:102063007E7300DCBE700240BEDA3B22CAF8A2B225
:10207300E4337808A2B3E4337802D200A200E43355
:10208300B40135A2B330B201B35008A2B2E4337A3B
:10209300B30107A2B2E433B4011EA2B3E433B40123
:1020A30017C2007EF30107BEF0017805121D3780C9
:1020B300074CFF7803121DB0DAF822A2B2E433B45E
:1020C3000109A2B3E433B40102D204A204E433B499
:1020D3000131A2B330B201B35008A2B3E4337AB3EF
:1020E3000107A2B2E433781BA2B3E4337815C20428
:1020F3007EB30107B40103121D377EB301077003DA
:10210300121DB002206FCA3B7F30E47AB3011B7A01
:10211300B3011AE47E73011A1223BDE47AB3011BDF
:102123007E3BB07E70011223920B747EB3011B04BD
:102133007AB3011BB480E97EB3011A047AB3011A9E
:102143007E73011ABE700840CADA3B22CA0B691FAC
:10215300FFFF690FFFFD1201841208507F717F1F7B
:102163002E34FFFD7E1BB030E7229F007F17120342
:10217300AE380A7E140FDB7E04404980087E140FBC
:10218300DB7E04C0497F1712002C7F717F171BFE73
:10219300227C7BA5BF000A6D337A3701127A37019F
:1021A300147E1701121A027E34FED57E24007E7A35
:1021B3001B107E34FED67A1B307E1701141A027E62
:1021C30034FED77A1B107E34FED87A1B302275E991
:1021D30000A9D7BA75EA007593007594007591004C
:1021E30075920075950075960075B10075B200750E
:1021F300B30075B40075C90075CA0075CB0075CC02
:102203000075E10075E20022CA796CEE0A5E2E5475
:1022130000B06C7712239274106C771223927402BD
:102223006C771223926CFFE47E70011223920BF001
:10223300BEF01078F20BE0BEE00840D0DA7922CA93
:10224300796CFF0A5F2E5400B06C771223927410DE
:102253006C7712239274026C771223926CEEE47EF5
:1022630070011223920BE0BEE08078F20BF0BEF017
:102273000840D0DA79221221D1121602E41224DFA7
:10228300740112233A12224212261C122581A9C676
:10229300A2A9C7A2A9D4FF1226BD7E3401907A3722
:1022A300008D121C40121BC080F812268D12268D41
:1022B30012268D12268D746B6C7712251974197E74
:1022C3007007122519741A7E7004122519741B7E67
:1022D3007008122519741C022519CAF87CFB1226F2
:1022E30044746C12230C1226317CBF12230C122669
:1022F30031122644746D12230C1226311223E87C0A
:10230300FB1226737CBFDAF822CA797CFB7EE008D5
:10231300C2A074051226817CBF30E704D2A28002DA
:10232300C2A27405122681D2A03EF01226811BE0C0
:1023330078DEC2A0DA7922CAF87CFB4CFB780E74F3
:10234300C86C7712239274A16C77122392BEF001AA
:10235300780E74C06C7712239274A06C7712239258
:10236300DAF822CA3B7F301223BDE47AB301207E20
:102373003BB07E70011223920B747EB30120047A6A
:10238300B301207E730120BE700640E3DA3B227C5A
:102393006B4C776804D2958002C295C2967E700812
:1023A300C2C77CB630E704D2948002C294D2C73E3F
:1023B300601B7078EBD296D29522CAF87CFB0BF1A6
:1023C3000A572E5400B06C771223927CBF54F0C48A
:1023D300540F44106C771223927CBF540F6C771206
:1023E3002392DAF822CA796CFF7EE008D2A0740542
:1023F3001226813EF030A2034EF001C2A0740512F2
:1024030026811BE078E67CBFDA79227F70A9D6BCEF
:102413000000A935BCFCA9C5BCE5BD7C4B6C55E5EA
:10242300BE0A3B2D32E5BC0A5B0B54F5BC1B7A306C
:1024330022CA796CFFD2B76CEE3EF0D2B612268D6B
:10244300A2B7E4334CFBC2B612268D0BE0BEE00804
:1024530040E77CBFDA7922CA797CFB6CEE3EF0A2BE
:10246300D792B7D2B612268DC2B612268D0BE0BE16
:10247300E00840E91225DCDA7922E5BC0A5B0B545B
:10248300F5BCA9D6BC0000A935BCFCA9C5BCE5BDFB
:102493007C4B6C55E5BE0A3B2D3222E5BC54F0441F
:1024A30008F5BCA9D6BC0000A935BCFCA9C5BCE590
:1024B300BD7C4B6C55E5BE0A3B2D3222BE34000079
:1024C3004806C282D2818004D282C281BE24000027
:1024D3004805C283D28422D283C28422CAF87CFBF9
:1024E3004CFB780774A66C77122392BEF001780731
:1024F30074A76C77122392DAF82253BCF0A9D6BCE6
:102503000000A935BCFCA9C5BCE5BD7C4B6C55E5F9
:10251300BE0A3B2D3222CA797CEB12255074D012AD
:10252300245A7CBE12245A7CB712245A122664DA27
:1025330079227C6B7E7008C2C77CB630E704D294E4
:102543008002C2943E60D2C71B7078EB2212268DA4
:1025530012268DD2B7D2B612268D12268DC2B7128D
:10256300268DC2B602268D7D13800E7E0407087D5C
:10257300301B044D3378F81B144D1178EE227598F7
:1025830050438E01438E0475D78F75D6FD438E104D
:10259300D2ACD2AF22C2A0A20592A27405122681A8
:1025A300D2A0122681C2A0D2A2022681743F7E3419
:1025B300FEA87E24007E7A1BB075DE2375BCF0A9CD
:1025C300D7BC22CA3B7F3080087E3BB00B741226F7
:1025D300A27E3BB070F3DA3B22D2B712268DD2B67D
:1025E30012268DA2B792D7C2B612268DA2D7227415
:1025F3008D6C7712239274106C7712239274AE6CE5
:1026030077022392748D6C7712239274146C771271
:10261300239274AF6C77022392538EBF53890F7545
:102623008B9C758DFFC28FD28ED2ABD2AF22D2A03C
:102633007405122681A2A29206C2A0122681A206C6
:1026430022D2A2D2A07405122681C2A2122681C26E
:10265300A0227A37011E7E37011EBE34000038F6F1
:102663002212268DC2B7D2B612268DD2B702268D7C
:10267300C2A2D2A07405122681D2A20226817C7B3B
:10268300007C671B70A5BE00F7227EA0077CBA14EE
:102693007CAB78F922C0D1309802C298D0D1327A7B
:1026A300B1993099FDC29922C282D281C283D28468
:1026B30022D282C281D283C28422121B2F0226AB72
:1026C30000010021010004002200000000000400BA
:1026D30026000000000002003E000000020042004D
:1026E3000000040045000000000004004900000051
:1026F300000004004D000000000004005100000031
:102703000000040057000000000004005D0000000A
:102713000000040075000000000004007A000000BF
:10272300000002007E0000000200800000000400A0
:102733008200000000000400860000000000020088
:1027430095000000020097000000020099000000BD
:1027530002009B00000004000C00000000000400C5
:10276300103F800000000400080000000000040186
:102773000E000000000002011C0001000201000025
:10278300000001010B000001010C000001010D001C
:1027930000020112000000020114000000003E00CC
:1027A300B2E2CAD4B7A2C7F23A00B8A9D1F6BDC7FC
:1027B3003A00B5F7D7F3D3D23A00B9A6C4DC3A004E
:1027C300D7AACBD93A00C6E4CBFB00BFD8D6C60004
:1027D300B8A9D1F6BDC700BDC7B6C8B5F7BDDA0005
:1027E300D7AACBD9B5F7BDDA000A100000FF27E35B
:1027F300195F0B100200FF27DA18C00C100400FF4A
:1028030027D319FE0D100600FF27CE18210E100046
:1028130000FF27C900000F100200FF27C9000010A6
:10282300100400FF27C9000011100600FF27C9008C
:1028330000140F0000FF27C30000150F0200FF273D
:10284300BD0000160F0000FF27B50000170F0200A0
:10285300FF27BD0000180F0000FF27AD0000190F70
:102863000200FF27BD00001A0F0000FF27A300008E
:102873001B0F0200FF27BD00000004010000000041
:10288300000000040100040000000000040100082F
:1028930000000000000201000C00000000390038B5
:1028A3000037003600350034003300320031003089
:1028B300002E00253364002533642C253364002562
:0628C3003164202020001A
:00000001FF
