:10000000021FA26CAA7E7008C2C73EA03097020BE6
:0A001000A0D2C71B7078F17CBA2261
:07001B00021E22283029001B
:100023000228DE02039A6E00807CB1337CB0336811
:100033000D0468EF7CB5337CB43378037F1022045E
:1000430068E17D5092F77D457D51BF2140067C805C
:100053007F017F1212035D7EA1D05CB00478032080
:10006300D5C17CB00478075002B2D50203A292D561
:10007300BE80FF68F67CB89CB06C00602AB418059B
:100083007C4102037650FB80032F00047C9B5E902F
:100093000778F630E4067C437D106D0030E3087C7E
:1000A300437C327C210A0030F5199F10780E22021E
:1000B300039F1B8068F92F1150020B707CB530E74A
:1000C300F1801B2D317CB5A5397C5B50110B8078F9
:1000D300030203A21E341350034E60801A2B020343
:1000E300765D22680D5D0078122D220B4068099F12
:1000F30011222D000B0078F902039A12035D5C8034
:100103000B806808248150072CB0500A0203A22CEC
:10011300B0400302039F7C8B5D1178267CB17CA5E4
:10012300BE1080680A5D33780DA5BD80057F10027F
:10013300038C6D0080307F017C5B7CB17CA5AD12AC
:1001430080245D337806A5BD80F080E1CA887D41B7
:10015300AD437CB17CA5AD122D1450020B047C5B26
:10016300AD232F01DA88A42D05BE008040060B8045
:10017300780480982F007C437C507C617C7202035E
:1001830076BE24FFFF6806BE04FFFF780302039ACE
:1001930012035D5CB00468F57CB8A54868EF7CB8D1
:1001A30070039F1122A5B800030203A22E00815001
:1001B300079C80380702039F9C8050ED0A51C2E7D9
:1001C3004D51780302038C7E5400807E901A6C009C
:1001D30080061B9068142F11BF1040049F104CAB76
:1001E3000330E7EECAA86CAA80E8DA39DA587C4A09
:1001F300BE5080500A1B8068BC2F1150020B700246
:1002030003765D226809BE24FFFF68036E408022E7
:100213007EA020800C7EA01080057EA0086C556D0A
:10022300333392D5500A6E34FFFF6E24FFFF0B1C4D
:10023300A5EC3340062F11D5F0F6227CBA247EA21A
:10024300D5137C767C65A5CC92E77C5B227CB533A9
:100253007CB43392D54E5080248140039F11227C7D
:10026300457C567C676C7724E0500E7E1CFFFF2292
:100273001E341E2450034E60800478F430D50A6E79
:1002830034FFFF6E24FFFF0B1C227F707F517EC45F
:1002930000007ED400E67E9402A00204214005E41F
:1002A3007A7BB0227A7BB00B7C227CB5A2E7D2E7C3
:1002B3007C1B7CB4334009680DB4FF0BA5BDFF0361
:1002C30002039A0203A2227C0B2481C2E0F582F48A
:1002D300042CB07C2BC3137C4B7CB592E77C5B7FF7
:1002E300417CB6A2E77CB1A5BA7F02C31334009464
:1002F300007C2B7EA091A47CBA13F494FEACB233A1
:100303007CBA33248CD3137C5BE492E77C6B6C77ED
:100313007E403F7583027F517F017F141201847FEA
:100323000512002C9E240080D583EB7E01826C1184
:100333000E041E042D205E407F227F617F01120088
:10034300E46E40806D117E043F8012002C1202ADDA
:100353007F017F161201840208502D0092D50E10E2
:100363004E10807D422D445002B2D54E50806C44D5
:100373007CB8222C4450120B1C7E40005E507FBE82
:1003830018000078040B806816A2D57CB8137C4B48
:100393007CB592E77C5B227E1CFFFF229F11227EAD
:1003A30024FF8020D5026C456D332274F86CAA6E4D
:1003B30040806E0080BEB0FF68277C837C975C3BE7
:1003C3005C7BBF10682AF4400D7C382D15F45C3B30
:1003D300500F0B04800B7C792D35F45C7B50020BA2
:1003E30024BF10680B7CB020E7067CB420E701B380
:1003F30022540F2490D43440D430F30CBEB0414087
:1004030007BEB05B500224204CCC68021BC00B8497
:10041300D389944CCC680B742012040B80F5CA3B2F
:100423006D889F337CAE7E5BB00B5C7007C37D38F9
:10043300DA3B8994B42569C2F37E5BB00B5CA5F803
:1004430024D0BEB00A501B7E500A20F60DAC5CA52A
:100453002D7CCB70034EF00180DDAC5DA52D7CDBE4
:1004630080D524CFBEB01AA5E850055E00DFD2F3D5
:100473009007F6A3E4936011BCB078F77417934C1C
:10048300AB30F6B34EF08080AEA3E4936010BCB003
:1004930078F77416937C3B7423937C2B89147CB07C
:1004A3008013742012040B20F205BEC00250F31B0C
:1004B3006D29B6000112040B0204161B6E691600A7
:1004C300020B6A00BE08000078087E0400FF7E1459
:1004D300001E20F21E4CCC681A7F10E47E1B804C59
:1004E3008868070B1C04BCBD78F2C2F6CA0B120560
:1004F300F5DA0B7E0BB060C0CA0B12040BDA0B0BE0
:100503000C4CDD68EE1BD078EA80ADD2F07E101083
:1005130080037E10085EB05F800AD2F67E100A80E8
:10052300057E100AC2F66D119F117E00201B6C7EA2
:100533006B7030F6021A3720F1051B6C7E6B60304E
:10054300F6041A261A2430F0051B6D0B6A20A5EC5D
:100553003382F692F6500A7CEA9F229F217F127C17
:10056300AE4C44780F7C457C567C676C772E00F844
:1005730078EF80122F117CB3337C3B9CB140047C19
:100583003B0B70A5D8EE7CB230E005DAB8C44C3B27
:10059300CA380B207E00207E3000BE18000078C1D0
:1005A300BE1008780730F404C2F480B5CA287CB2C0
:1005B300BCBD38027CBD1205F5DA28BC2D500A1BE0
:1005C300D0E4CA281203F480F07CB213DAB84004F2
:1005D300C4CAB8C4CA28BEF08040095CDD7805A54A
:1005E300DA0260065EF07F1203F4DA28A5DADA0293
:1005F3000416BEF001680F30F402240220F5062031
:10060300F70330F6010420F229BCBC5025CAB87C9C
:10061300BF13B0E67420501174307C8A5E80F0689A
:10062300081206355EA00F800312040BDAB8BCBCB7
:1006330078DB30F40F743012040B745830F3027407
:100643007812040B30F605742D02040B742B20F57D
:10065300F8742020F7F3221B6C7E6BB010F1021BA1
:100663006C20F60B30E704F404D2F27CCB80052037
:10067300E7057CDB02043A5EF07F80F81B6E6916A7
:1006830000020B6A0030F0076D221B0A200B0D1BC2
:100693000A80020425E46C22BE3007500B7F1F2D15
:1006A300312E34FFF77E39B0227CBF20E7A8742EA9
:1006B3004EF08002040B1207DF403D7CBD70030443
:1006C3007CDB1209E87C3D4C3368101B307CBE2078
:1006D300E40912069870044C3378F07CBD7CD3BED9
:1006E300A0FD481CBCAB5818E49CBA2CB31801E419
:1006F3007CDB0207801207DF406E7CBD041209E831
:100703007AFBA07CAE7CBDA2F492F0C2F4400260FE
:10071300010424051205F57E30FF0B30120698CA3A
:10072300381203F420F0044CDD68031206ACDA3807
:10073300BC3D78E6740E1203F4742B7EFBA030F7F5
:1007430007742D6EA0FF0BA07AFBA012040B7EA0F2
:100753000A7EFBB0847AFBA01203F47EFBB0120383
:10076300F49EF80008020416D2F27ED0000204D5EB
:100773001207DF40F37CBA2CBD041209E87AFBA010
:100783007CBA7CAE30E701E40420F4044CDD680558
:10079300D2F0C2F4042CBD1205F56C337EFBB060BD
:1007A3001B20E712147AFBB0120698CA381203F41E
:1007B300DA380B3080E6047AFBB01B30120698CA95
:1007C300381203F44CDD68071206AC1BD080E19E9F
:1007D300F8000930F0031206AC0204167CEA7CAF81
:1007E30010F7037ED0067CFA1B6E693600020B6A93
:1007F300200209302D2B204C4248232E0053584F02
:1008030044494355502A4E4645470004208001027F
:10081300001040BE10151D1DAA240E5A7F73F8B98F
:1008230004050505050405050606070606BE124967
:10083300253E4CCCCDBEAAAAAB3F8000003E7ADB5E
:10084300B03EED63383F24BC7D3F490FDB7DC25E84
:10085300407FBE247F804010680302039A7E340FDA
:10086300DB7E243FC90209145EC480007D522D55EE
:10087300BEA07F401378049420400D7F017E243F67
:10088300806D331201840BC47CB5337CB433248470
:1008930030E7046DDD803E047CAB7CB5D2E754F0D9
:1008A300C333D5F0FC5407340023230ADB7F417F95
:1008B300017C4BE412021D1B417F711200E47E0494
:1008C3003F806D1112002C7F077F717F1412002966
:1008D3007F071201847F717E9408307E8400FF7449
:1008E30003120A2B7F071200E45DDD68147E5408AF
:1008F3003C7E4400FF2D5D0B2A00691200021200AA
:100903002C7D5C30E00B7E04BFC97E140FDB12002C
:100913002C5D2268095E407F5EC480004D2C224E10
:10092300614E002B494E46002D494E46007D522D07
:10093300557CBE92E67CEB7CBA601F0470287CB5C4
:10094300C2E77E0400FF60067E140922D3227E14D0
:10095300092B40047E140926D322DA099F22CA2BCD
:10096300CA2BC3CA09220A0A7E144D10AD109E0871
:100973003AF09E10267CB5C2E77EA0567C9BA46EFF
:1009830054FFFF2E54C511ACA92D15E4A539CAB8DF
:10099300CA1B20E70A120A88DA1B120184800AF4B0
:1009A30004120A88DA1B1200E4DAA87CB5337CB49B
:1009B300334E50806C4424822F111478FBDA49742F
:1009C30007BE400A40099E400ACA0201140BA0CA8E
:1009D300486C442F117F012F112F112F101478EF22
:1009E300CA48CA49227F0F20E73ABEB007400274C3
:1009F300070A0B2D109E1400097E19B02EB0FB5070
:100A03001F4C116817E47A19B01B147E19B0047ACD
:100A130019B0B40A0BE47A19B0A5D9ED0BA074018F
:100A23007A19B0225EE0BF22CAB87F011200E4DA6D
:100A3300B87F510B4A20693400020B4E7F05CAB8B8
:100A43001200E40B4A00691400020B4E12002CDA68
:100A5300B81478E8223F8000004120000042C8001B
:100A630000447A0000461C400047C35000497424E8
:100A7300004B1896804CBEBC205A0E1BCA6753C24B
:100A83001C749DC5AE7C7B60065407681623231235
:100A93000AAD7CB75438680A7F10120AAA1200E420
:100AA3007F01227CB7543803241C6CAA2E540A58A5
:100AB3007E4400FF0B2A0069120002227D02AD3141
:100AC300AD102D21226D0074104D00780B4D22784E
:100AD300278D317D126D22227D437D326D222F11B0
:100AE3002D445002A50FBF1040049F100B901478A3
:100AF300ED7F016D227D34227D417D138D247D02A6
:100B03002F004004BD0440049D040B141478F17DB0
:100B1300237D317D106D0022CA3B7F307A1F00BEDA
:100B23007E1F00CA7F011200E47F717E1F00C67F13
:100B3300011200E47F0712002C7F717E1F00CE7F1D
:100B4300011200E47F0712002C1202AD7F717E1F99
:100B530000C67F071201847A1F00C67E1F00CA7F6A
:100B6300071201847A1F00CA7E1F00CE7F0712017D
:100B7300847A1F00CE7E4F00507E6F00107F167F59
:100B8300041200E47F717E5F00547E1F004C7F05DA
:100B93001200E47F071200296D117E044000120049
:100BA300E47F017E340014591300021B38207F14A4
:100BB3007F051200E47F717E0F004C7F161200E464
:100BC3007F0712002C6D117E0440001200E47F6148
:100BD3007E0F004C7E1F004C1200E47F717E0F00DD
:100BE300107E1F00101200E47F071200297F717F1F
:100BF300147F041200E47F017F171200297F717FA5
:100C0300157F051200E47F0712002C7F717E1F0001
:100C1300CE7F061200E47F517E1F00CA7F071200B9
:100C2300E47F051200297F417E1F00C67F07120063
:100C3300E47F717E340014491300020B38007E1FD9
:100C430000CE1200E47F071200297F517E34001486
:100C5300491300020B38007E1F00CA1200E47F71A3
:100C63007E1F00C67F061200E47F071200297F6102
:100C73007EF4126F7EE43A837F147F071200E47ED2
:100C83000F000C12002C7A1F000C7F157F07120037
:100C9300E47E0F002212002C7A1F00227F167F07AA
:100CA3001200E47E0F002612002C7A1F00267EF429
:100CB300CCCD7EE43F4C7F177F041200E47E0F000F
:100CC300BE12002C7E0F000C12002C7A1F00BE7F78
:100CD300177F051200E47F0312002C7E0F002212FF
:100CE300002C7F317F177F061200E47E0F00C212B3
:100CF300002C7E0F002612002C7A1F00C27E1F00DC
:100D03004C1202057E4F00BE7F041200E47F717E09
:100D13001F00507F031200E47F017F171200297F19
:100D2300717E5F00C27E1F00547F051200E47F01C5
:100D33007F171200297EF4126F7EE43B837F071234
:100D430000E47E0F001012002C7A1F00107E1F009B
:100D5300507F051200E47F617E1F00107F041200A4
:100D6300E47F0612002C7F617E1F00547F03120074
:100D7300E47F017F161200297F071200E47E0F0033
:100D83004C12002C7A1F004C7F051200E47F617E19
:100D93001F00107F031200E47F061200297F617E8B
:100DA3001F00547F041200E47F0612002C7F0712F9
:100DB30000E47E0F005012002C7A1F00507E1F00AB
:100DC3004C7F031200E47F617E1F00107F05120039
:100DD300E47F0612002C7F517E6F00507F167F0444
:100DE3001200E47F017F151200297F071200E47EC1
:100DF3000F005412002C7A1F00547E0F004C7E1FEC
:100E0300004C1200E47F717E0F00107E1F00101251
:100E130000E47F0712002C7F717F167F061200E427
:100E23007F0712002C7F717E1F00547F011200E4A4
:100E33007F0712002C1202AD7F717E1F00107F0707
:100E43001201847A1F00107E1F004C7F0712018459
:100E53007A1F004C7E1F00507F071201847A1F0007
:100E6300507E1F00547F071201847A1F00547E0FA7
:100E730000547E1F004C1200E47F717E0F00507EF1
:100E83001F00101200E47F071200296D117E044039
:100E9300001200E412033D7E142EE17E044265122B
:100EA30000E47A1D087E0F00547E1F00501200E4F8
:100EB3007F717E0F004C7E1F00101200E47F07122B
:100EC300002C6D117E0440001200E412033D7E14D9
:100ED3002EE17E0442651200E47A1F00977E5F00D4
:100EE3004C7F157F051200E47F717E4F00107F1445
:100EF3007F041200E47F0712002C7F717E6F005085
:100F03007F167F061200E47F017F171200297F31CD
:100F13007E7F00547F177F071200E47F017F131247
:100F23000029CA1B7F147F071200E47F717F157F9E
:100F3300061200E47F0712002C6D117E044000129C
:100F430000E4DA0B1223637E142EE17E0442651261
:100F530000E47A1F009BDA3B22CA3B7F307A73009E
:100F6300BF7AB300BEE40211697E7300C00A372D55
:100F7300377D267E1BA0BEA0B0500302100EBEA07C
:100F8300F7280302100E7EB300C00A3B2D377D26DF
:100F930029B10001BEB0A140720A3A6D229E180029
:100FA300B07E14005E120ABF7A1F01070A1B6D0090
:100FB3002E0802AD2F107A1F01077E1400207E1F1A
:100FC3000107120ABF7A1F01077E0F01077CB17A5E
:100FD3001300C17C727A2300C27C637A3300C37E20
:100FE3000800C47E502012217C7EB300BE7E7300B5
:100FF300BF7E0800C41221D77EB300BE24107AB38B
:1010030000BE7EB300C00BB10211697E7300C00A3B
:10101300372D377D267E1B70BE70A150030210CD85
:101023007E7300C00A372D377D267E1B70BE70A3EA
:1010330028030210CD7E7300C00A372D377D262981
:10104300B10001BEB0A150030210CD7EA300C00ABF
:101053003A2D377D267E1BA00A3A6D229E1800A1E9
:101063007E14005E120ABF7A1F01070A1B6D009EE1
:101073000800A12F107A1F01077E1400207E1F0194
:1010830007120ABF7A1F01077E0F01077CB17A138B
:1010930000C17C727A2300C27C637A3300C37E086A
:1010A30000C47E502012217C7EB300BE7E7300BF3D
:1010B3007E0800C41221D77EB300BE24107AB30089
:1010C300BE7EB300C00BB10211697E7300C00A3744
:1010D3002D377D267E1B70BE702050030211647E67
:1010E3007300C00A372D377D267E1B70BE707E3895
:1010F300707E7300C00A372D377D267E1B700A373A
:101103006D229E1800207A1F010774042F11147892
:10111300FB7A1F01072E2400032E18CF807A1F01AC
:10112300077E0F01077CB17A1300C17C727A23001A
:10113300C27C637A3300C37E0800E47E5010122120
:101143007C7EB300BE7E7300BF7E0800E412222DB6
:101153007EB300BE24087AB300BE7EB300C0048011
:10116300057EB300C0047AB300C07E7300C00A37A3
:101173002D377D267E1B70BE70002803020F6CDAAC
:101183003B22CAF87EF30104BEF00440030212417D
:101193007E370115BE34000168030212417E34001C
:1011A300017A3701157E342A337E2400FF7E1BB07B
:1011B3007E342A347E2400FF7E1B707EF42A357E23
:1011C300E400FF691700020B7A00120F5C7E342AD9
:1011D3003C7E2400FF7E1BB07E342A3D7E2400FF2C
:1011E3007E1B707EF42A3E7EE400FF691700020B2B
:1011F3007A00120F5C7E342A457E2400FF7E1BB0EA
:101203007E342A467E2400FF7E1B707EF42A477EAE
:10121300E400FF691700020B7A00120F5C7E342A88
:101223004E7E2400FF7E1BB07E342A4F7E2400FFB7
:101233007E1B707EF42A507EE400FF02130ABEF088
:101243000478197E370115BE340001780F1224CBC0
:10125300E47AB301017E340002021332BEF004507B
:10126300030213167E370115BE340002680302130E
:10127300167E342A577E2400FF7E1BB07E342A5804
:101283007E2400FF7E1B707EF42A597EE400FF69F2
:101293001700020B7A00120F5C7E342A607E240052
:1012A300FF7E1BB07E342A617E2400FF7E1B707E8E
:1012B300F42A627EE400FF691700020B7A00120F22
:1012C3005C7E342A697E2400FF7E1BB07E342A6A4A
:1012D3007E2400FF7E1B707EF42A6B7EE400FF6990
:1012E3001700020B7A00120F5C7E342A727E2400F0
:1012F300FF7E1BB07E342A737E2400FF7E1B707E2C
:10130300F42A747EE400FF691700020B7A00120FBF
:101313005C8020BEF005501B7E370115BE340002F1
:1013230078111224CB74067AB301017E3400017A5A
:10133300370115E47E7301017E1429E77E0400FF63
:10134300120F5C7EB301011228E8DAF8227E37001F
:10135300434D3368030215097E3400017A37004395
:101363007E08008512210E7E7300857C477E730004
:10137300867C647A3700AA7E7300877C477E73007D
:10138300887C647A3700AC7E7300897C477E730067
:101393008A7C647A3700AE7E73008B7C477E730051
:1013A3008C7C647A3700477E73008D7C477E7300A4
:1013B3008E7C647A3700B87E53008F7C257E530081
:1013C300907C427A2700BA7E5300917C257E53009D
:1013D300927C427A2700BCBE34FFFF68247E27003C
:1013E300BABE24FFFF681A7E3700BCBE34FFFF6815
:1013F300107E1700B84D1168084D2268044D3378EC
:101403001A7E1700A47A1700B87E1700A67A170071
:10141300BA7E1700A87A1700BC80107E1700B87A2E
:101423001700A47A2700A67A3700A87E2700AA7C93
:10143300B41202186DFF7EE446007F071201847F19
:1014430041900000793E00021BEA207E2700AC7C1D
:10145300B41202187F071201847F517A1F00587E4D
:101463002700AE7CB41202187F071201847F617AD1
:101473001F005E7E2700B87CB41202187EE442830C
:101483007F07120184900004793E00021BEA207E4C
:101493002700BA7CB41202187F071201847A1F0056
:1014A300647E2700BC7CB41202187F071201847A81
:1014B3001F007C7EF4FA397EE43C8E7F071200E441
:1014C3007A1F00C27A4F00C67A5F00CA7A6F00CED5
:1014D300900004693E00020BEA207F071200E4CA71
:1014E3001B7E1F00647F071200E47F01DA1B120BCF
:1014F3001B7E1D081202507A3700497E1F00971287
:1015030002507A3700B0227E730104A5BF00137E18
:10151300B30106700DA202E43378077EB300FB0427
:101523008016A5BF00177EB301067011A202E43333
:10153300B4010A7EB300FB147AB300FB227EA3013D
:1015430006BEA00178067E14000180026D11A5BFBE
:1015530000067E24000180026D225D216809A2023B
:10156300E433780302165EA5BF000FBEA001780A1C
:10157300A202E433B40103021675A5BF01114CAAFC
:10158300780DA202E43378077EB300FC048014A52F
:10159300BF01154CAA7811A202E433B4010A7EB349
:1015A30000FC147AB300FC22A5BF010EBEA0017893
:1015B30009A202E433780302165EA5BF010FBEA0A1
:1015C30001780AA202E433B40103021675A5BF022F
:1015D300114CAA780DA202E43378077EB300FD0410
:1015E3008014A5BF02154CAA7811A202E433B401FA
:1015F3000A7EB300FD147AB300FD22A5BF020DBE1F
:10160300A0017808A202E4337802804FA5BF020E3E
:10161300BEA0017809A202E433B401028054A5BF3D
:1016230003114CAA780DA202E43378077EB300FEBF
:10163300048014A5BF03154CAA7811A202E433B4A5
:10164300010A7EB300FE147AB300FE22A5BF031283
:10165300BEA001780DA202E43378077EB300FF0435
:101663008015A5BF0315BEA0017810A202E433B410
:1016730001097EB300FF147AB300FF22CA3B7CD674
:101683007F707CE77CFB9F117A1F00187408ACBD48
:101693000A3F2D352E3400087CF76D117E0442C8B5
:1016A3007F171200E41202507A1F001C0A5F9E5437
:1016B30000187C7E7E142B217E0400FF120F5C6CCD
:1016C300CC0217B27ED4000A7E7F001C7F177D1DDB
:1016D300120AC87A0F00187F177D1D120AC87A1FD5
:1016E300001C9EF008BEC00278039EF0087E2F0007
:1016F30018BE28000A40030217B07EA003A4901767
:10170300057302172302173102173F02174D021701
:101713005B0217690217770217850217930217A155
:101723007CBF7C7E7E142B1F7E0400FF807C7CBFED
:101733007C7E7E142B1D7E0400FF806E7CBF7C7E2E
:101743007E142B1B7E0400FF80607CBF7C7E7E1496
:101753002B197E0400FF80527CBF7C7E7E142B17E6
:101763007E0400FF80447CBF7C7E7E142B157E04A8
:1017730000FF80367CBF7C7E7E142B137E0400FF2B
:1017830080287CBF7C7E7E142B117E0400FF801A90
:101793007CBF7C7E7E142B0F7E0400FF800C7CBFFD
:1017A3007C7E7E142B0D7E0400FF120F5C0BC0BCED
:1017B300DC28030216C7DA3B22D296D2937E34008A
:1017C300C81227B074AE6C771225B774026C771207
:1017D30025B774106C771225B774406C771225B750
:1017E30074B06C771225B774816C771225B774CFF8
:1017F3006C771225B774A16C771225B774A66C7732
:101803001225B774A86C771225B7743F6C7712252D
:10181300B774AD6C771225B7748B6C771225B774D8
:10182300336C771225B774C86C771225B774D36CF1
:10183300771225B7E46C771225B774D56C77122528
:10184300B774806C771225B774D96C771225B77487
:101853001F6C771225B774DA6C771225B774126C84
:10186300771225B774DB6C771225B774406C771247
:1018730025B71224CB74AF6C770225B7CA69CAF8AF
:101883007EB3010214680C04680302192D1211853A
:1018930002192D7E342A327E2400FF7E1B700A2714
:1018A3007E64000A8D267EF301040A3FBD32780A66
:1018B3007E342A397E2400FF805B7E342A3B7E24DB
:1018C30000FF7E1B700A278D260A3FBD32780A7EF1
:1018D300342A427E2400FF803C7E342A447E240046
:1018E300FF7E1B700A278D260A3FBD32780A7E349D
:1018F3002A4B7E2400FF801D7E342A4D7E2400FF68
:101903007E1B700A278D260A3FBD32780D7E342A4E
:10191300547E2400FF0B1A309934E47E7301037E56
:101923001429E77E0400FF120F5CDAF8DA6922CA91
:101933003B7F307A7300BF7AB300BEE4807E7E7350
:1019430000C00A372D377D267E1B70BE702040678E
:10195300BE707E38620A376D229E1800207A1F01FE
:10196300072F112F112F117A1F01072E2400032E89
:1019730018BFC07A1F01077E0F01077CB17A1300DD
:10198300C17C727A2300C27C637A3300C37E080071
:10199300C47E500812217C7EB300BE7E7300BF7EDE
:1019A3000800C412258B7EB300BE24067AB300BEA2
:1019B3007EB300C00480057EB300C0047AB300C0C8
:1019C3007E7300C00A372D377D267E1B70BE7000E4
:1019D3002803021941DA3B227E37005C4D3368034A
:1019E300021A827E3400017A37005C7E7300801A0B
:1019F300377A3700E47E08002A7E342AE37E240007
:101A0300FF12028DE46C777E08002A120F5C7E378A
:101A1300010D7A3700E47E37010B7A3700E27E0846
:101A2300002A7E342AD47E2400FF12028DE47E70C5
:101A3300027E08002A120F5C7E3700A27A3700E488
:101A43007E08002A7E342AD07E2400FF12028DE411
:101A53007E70047E08002A120F5C7E1F009B120218
:101A6300507A3700E47E08002A7E342AC27E24009E
:101A7300FF12028DE47E70077E08002A02193222CB
:101A83007E342AB17E2400FF7E1BB07E342AB27ED0
:101A93002400FF7E1B707EF42AB37EE400FF6917E7
:101AA30000020B7A00120F5C7458CAB86C77CA78BC
:101AB3007E4300FEE412021D7E14D70A7E043C23FB
:101AC3001200E47F017E6004DA78DAB812167F7EB2
:101AD300342ABA7E2400FF7E1BB07E342ABB7E24C8
:101AE30000FF7E1B707EF42ABC7EE400FF691700B2
:101AF300020B7A00120F5C7439CAB87E7002CA787E
:101B03007E4300FFE412021D7E14D70A7E043C23A9
:101B13001200E47F017E6004DA78DAB802167F7E71
:101B2300342A8D7E2400FF7E1BB07E342A8E7E24D1
:101B330000FF7E1B707EF42A8F7EE400FF6917008E
:101B4300020B7A00120F5C744BCAB86C77CA787EAA
:101B53004300FCE412021D7E14D70A7E043C2312C8
:101B630000E47F017E6004DA78DAB812167F7E34EF
:101B73002A967E2400FF7E1BB07E342A977E2400A3
:101B8300FF7E1B707EF42A987EE400FF6917000233
:101B93000B7A00120F5C7439CAB87E7002CA787E61
:101BA3004300FFE412021D7E14D70A7E043C231275
:101BB30000E47F017E6004DA78DAB802167F7E34AF
:101BC3002A7B7E2400FF7E1BB07E342A7C7E240089
:101BD300FF7E1B707EF42A7D7EE400FF69170002FE
:101BE3000B7A00120F5C7439CAB86C77CA787E43DB
:101BF30000FBE412021D7E14D70A7E043C2312006C
:101C0300E47F017E6004DA78DAB812167F7E342A24
:101C1300847E2400FF7E1BB07E342A857E2400FF51
:101C23007E1B707EF42A867EE400FF691700020B98
:101C33007A00120F5C7439CAB87E7002CA787E4388
:101C430000FFE412021D7E14D70A7E043C23120017
:101C5300E47F017E6004DA78DAB802167F7E342AE4
:101C63009F7E2400FF7E1BB07E342AA07E2400FFCB
:101C73007E1B707EF42AA17EE400FF691700020B2D
:101C83007A00120F5C744BCAB86C77CA787E430033
:101C9300FDE412021D7E14D70A7E043C231200E4E5
:101CA3007F017E6004DA78DAB812167F7E342AA8C0
:101CB3007E2400FF7E1BB07E342AA97E2400FF7E93
:101CC3001B707EF42AAA7EE400FF691700020B7AD8
:101CD30000120F5C7439CAB87E7002CA787E430062
:101CE300FFE412021D7E14D70A7E043C231200E493
:101CF3007F017E6004DA78DAB802167FA203E43348
:101D0300B401028003021D90A2B4E433B401377E10
:101D13003700F9BE3407D0502D6D337A3700F912EE
:101D230024CBC2037EB30105BEB00250030480027C
:101D330074017AB30105B40204D2018002C20174B2
:101D4300017AB3010222A2B4E433B401297E37003D
:101D5300F9BE340FA0281F6D337A3700F91224CB54
:101D6300C203C201E47AB301057AB301027AB30173
:101D7300037AB3010622A2B4E433B401107E370020
:101D8300F9BE3407D028066D337A3700F922740A76
:101D93007E34FEB27E24007E7A1BB0E47E34FED015
:101DA3007A1BB074EF7E34FED17A1BB0E47E34FE2E
:101DB300CC7A1BB074607E14FEC87E04007E7A0B5E
:101DC300B07E14FEC97A0BB074117A1BB074037E13
:101DD30034FED57A1BB074E87E34FED67A1BB07419
:101DE300037E34FED77A1BB074E87E34FED87A1BA8
:101DF300B074037E34FED27A1BB074E87E34FED313
:101E03007A1BB074057E34FEB17A1BB074807E34C5
:101E1300FEDD7A1BB074017E34FEC07A1BB022CA89
:101E2300B8CA39C0D17E37005C0B347A37005CBE48
:101E330034006478066D337A37005C7E3700620BBA
:101E4300347A370062BE34000A78066D337A37007D
:101E5300627E3700430B347A370043BE3400327856
:101E6300066D337A3700437E370117BE34000028EE
:101E7300061B347A3701177E3700450B347A370057
:101E830045BE3427102808A2B4E4337802D203A253
:101E930003E433B4010A7E3700F90B347A3700F9CF
:101EA300D0D1DA39DAB8327E3700624D3378747EB6
:101EB3003400017A370062121F277AB30080BEB064
:101EC3000218097E730080BE70FE581F7EB3008027
:101ED300B40307E47AB30021801F7EB30080B4FD0E
:101EE300187E73004B7A730080800E74017AB300FE
:101EF300217E7300807A73004B7E7300801A077E05
:101F03001400C8AD107D312E3700A27A37010D7E43
:101F13002700A29D217A27010B1227057EB30021FA
:101F23000223A8226CAAA286E43378057E70088077
:101F3300026C77A285E43378054E700480035E70EB
:101F4300FBA2CBE43378054E700280035E70FDA2E2
:101F5300CAE43378054E700180035E70FE2E700074
:101F630068321B7068291B70681B1B7168121B7217
:101F730068182E70F968222E700978206CAA801CCC
:101F83007EA0FF80177EA00180127EA0FE800D7EC2
:101F9300A00280087EA0FD80037EA0037CBA227588
:101FA30084017E44041FE47A49B01B4478F97EF827
:101FB3000119C200C201C202C203C2047E0400FFAF
:101FC3007E1429090B0A405D44681A692000020B3C
:101FD3000E0B44800A7E0BB07A29B00B240B0C1B2A
:101FE3004478F280DF7E0400FF7E142AE90B0A4066
:101FF3005D446822295000020A25693000032E0837
:1020030000050B44800A7E0BB07A1BB00B1C0B0C33
:102013001B4478F280D7022420A201E433786E7E39
:10202300A301024CAA78187EB30101BEB000402A76
:10203300BEB00438250A3B0B357A730101801BBE01
:10204300A00178167EB30103BEB000400DBEB002FE
:1020530050080A3B0B357A730103BEA00168137E57
:10206300B30104BEB000400ABEB0063805047AB31B
:102073000104BEA00178137EB30106BEB000400A7E
:10208300BEB0013805047AB30106022494C20202E9
:10209300150AA201E433786E7EA301024CAA7818D4
:1020A3007EB30101BEB006382ABEB00240250A3B0A
:1020B3001B357A730101801BBEA00178167EB30124
:1020C30003BEB004500DBEB00240080A3B1B357A74
:1020D300730103BEA00168137EB30104BEB00028E0
:1020E3000ABEB0073805147AB30104BEA001781301
:1020F3007EB30106BEB000400ABEB0013805147AB3
:10210300B30106022494D20202150ACA3B7F30129D
:10211300279674D012267F743B12267F122796745B
:10212300D112267FE47AB300BE1226597EA300BEE5
:102133000A3A2D377D267A1BB0C2B7D2B61228D3FE
:10214300C2B61228D37EB300BE047AB300BE7E7338
:1021530000BEBE700D40D21226597EA300BE0A3ABD
:102163002D377D267A1BB0D2B7D2B61228D3C2B68A
:102173001228D31228AADA3B22CA3B7A5300F77FEC
:10218300307A6300F67A7300F57AB300F4C293747D
:102193000312277B7EB300F412277B7EB300F51274
:1021A300277B7EB300F612277BE480151200037EA3
:1021B300A300F80A3A2D377D267A1BB07EB300F8C8
:1021C300047AB300F87E7300F7BE7300F838DDD2EB
:1021D30093DA3B22CA3B7F307A7300F57AB300F47B
:1021E300E47AB300F77EB300F47E7300F51225E2C0
:1021F300E47AB300F67E3BB07E70011225B70B7410
:102203007EB300F6047AB300F6B410E97EB300F5AA
:10221300047AB300F57EB300F7047AB300F77E7354
:1022230000F7BE700240BEDA3B22CA3B7F307A73AE
:1022330000F57AB300F4E47AB300F77EB300F47EDA
:102243007300F51225E2E47AB300F67E3BB07E70AC
:10225300011225B70B747EB300F6047AB300F6B40B
:1022630008E97EB300F5047AB300F57EB300F70402
:102273007AB300F77E7300F7BE700240BEDA3B22EA
:10228300CAF8A2B2E4337808A2B3E4337802D200E6
:10229300A200E433B40135A2B330B201B35008A2B3
:1022A300B2E4337AB30100A2B2E433B4011EA2B3A1
:1022B300E433B40117C2007EF30100BEF0017805D8
:1022C30012201C80074CFF7803122095DAF822A213
:1022D300B2E433B40109A2B3E433B40102D204A2D9
:1022E30004E433B40131A2B330B201B35008A2B352
:1022F300E4337AB30100A2B2E433781BA2B3E4332C
:102303007815C2047EB30100B4010312201C7EB30E
:1023130001007003122095022283CA3B7F30E47AC6
:10232300B301147AB30113E47E7301131225E2E4BB
:102333007AB301147E3BB07E70011225B70B747E15
:10234300B30114047AB30114B480E97EB301130416
:102353007AB301137E730113BE700840CADA3B22BD
:10236300CA0B691FFFFF690FFFFD1201841208509A
:102373007F717F1F2E34FFFD7E1BB030E7229F004D
:102383007F171203AE380A7E140FDB7E04404980A8
:10239300087E140FDB7E04C0497F1712002C7F7167
:1023A3007F171BFE227C7BA5BF000A6D337A3701A2
:1023B3000B7A37010D7E17010B1A027E34FED57E90
:1023C30024007E7A1B107E34FED67A1B307E1701E2
:1023D3000D1A027E34FED77A1B107E34FED87A1B88
:1023E30030221228D31228D31228D31228D3746B85
:1023F3007E708012275F1226E4746B6C7712275F5E
:1024030074197E700712275F741A7E700412275F97
:10241300741B7E700812275F741C02275F12245AF4
:102423001217BCE4122725740112255F1224CB1264
:1024330028621227C7A9C6A2A9C7A2A9D4FF12233B
:10244300E51229037E3401F47A3700A2121EAA1280
:1024530019DB12135080F575E900A9D7BA75EA00A4
:1024630075930075940075910075920075950075CC
:10247300960075B10075B20075B30075B40075C9E7
:102483000075CA0075CB0075CC0075E10075E200DC
:1024930022CA796CEE0A5E2E5400B06C771225B70F
:1024A30074106C771225B774026C771225B76CFF22
:1024B300E47E70011225B70BF0BEF01078F20BE04A
:1024C300BEE00840D0DA7922CA796CFF0A5F2E5445
:1024D30000B06C771225B774106C771225B77402AD
:1024E3006C771225B76CEEE47E70011225B70BE012
:1024F300BEE08078F20BF0BEF00840D0DA7922CA51
:10250300F87CFB12288A746C1225311228777CBF61
:1025130012253112287712288A746D122531122858
:102523007712260D7CFB1228B97CBFDAF822CA7910
:102533007CFB7EE008C2A074051228C77CBF30E78D
:1025430004D2A28002C2A274051228C7D2A03EF010
:102553001228C71BE078DEC2A0DA7922CAF87CFB16
:102563004CFB780E74C86C771225B774A16C771284
:1025730025B7BEF001780E74C06C771225B774A02E
:102583006C771225B7DAF822CA3B7F301225E2E4D2
:102593007AB300CC7E3BB07E70011225B70B747EFC
:1025A300B300CC047AB300CC7E7300CCBE7006407B
:1025B300E3DA3B227C6B4C776804D2958002C295A8
:1025C300C2967E7008C2C77CB630E704D2948002FC
:1025D300C294D2C73E601B7078EBD296D29522CAC2
:1025E300F87CFB0BF10A572E5400B06C771225B719
:1025F3007CBF54F0C4540F44106C771225B77CBFD2
:10260300540F6C771225B7DAF822CA796CFF7EE093
:1026130008D2A074051228C73EF030A2034EF00181
:10262300C2A074051228C71BE078E67CBFDA7922C2
:102633007F70A9D6BC0000A935BCFCA9C5BCE5BD0B
:102643007C4B6C55E5BE0A3B2D32E5BC0A5B0B5453
:10265300F5BC1B7A3022CA796CFFD2B76CEE3EF020
:10266300D2B61228D3A2B7E4334CFBC2B61228D396
:102673000BE0BEE00840E77CBFDA7922CA797CFB35
:102683006CEE3EF0A2D792B7D2B61228D3C2B612DE
:1026930028D30BE0BEE00840E9122822DA7922E5CC
:1026A300BC0A5B0B54F5BCA9D6BC0000A935BCFC25
:1026B300A9C5BCE5BD7C4B6C55E5BE0A3B2D32225A
:1026C300E5BC54F04408F5BCA9D6BC0000A935BC50
:1026D300FCA9C5BCE5BD7C4B6C55E5BE0A3B2D3260
:1026E3002200007EA0057E70907E60477CB6147C3D
:1026F3006B78F97CB7147C7B78F27CBA147CAB786A
:10270300EB22BE3400004806C282D2818004D2820A
:10271300C281BE2400004805C283D28422D283C270
:102723008422CAF87CFB4CFB780774A66C771225CD
:10273300B7BEF001780774A76C771225B7DAF822D1
:1027430053BCF0A9D6BC0000A935BCFCA9C5BCE5A7
:10275300BD7C4B6C55E5BE0A3B2D3222CA797CEB1E
:1027630012279674D012267F7CBE12267F7CB71266
:10277300267F1228AADA79227C6B7E7008C2C77C76
:10278300B630E704D2948002C2943E60D2C71B7075
:1027930078EB221228D31228D3D2B7D2B61228D379
:1027A3001228D3C2B71228D3C2B60228D37D13800E
:1027B3000E7E0407087D301B044D3378F81B144D3F
:1027C3001178EE22759850438E01438E0475D78F8E
:1027D30075D6FD438E10D2ACD2AF22C2A0A2059211
:1027E300A274051228C7D2A01228C7C2A0D2A2027F
:1027F30028C7743F7E34FEA87E24007E7A1BB07502
:10280300DE2375BCF0A9D7BC22CA3B7F3080087E8B
:102813003BB00B741228E87E3BB070F3DA3B22D254
:10282300B71228D3D2B61228D3A2B792D7C2B61200
:1028330028D3A2D722748D6C771225B774106C77C6
:102843001225B774AE6C770225B7748D6C77122599
:10285300B774146C771225B774AF6C770225B7532E
:102863008EBF53890F758B9C758DFFC28FD28ED20D
:10287300ABD2AF22D2A074051228C7A2A29206C27D
:10288300A01228C7A20622D2A2D2A074051228C77A
:10289300C2A21228C7C2A0227A3701177E370117B6
:1028A300BE34000038F6221228D3C2B7D2B612289B
:1028B300D3D2B70228D3C2A2D2A074051228C7D29A
:1028C300A20228C77C7B007C671B70A5BE00F72291
:1028D3007EA0077CBA147CAB78F922C0D130980271
:1028E300C298D0D1327AB1993099FDC29922C2826D
:1028F300D281C283D28422D282C281D283C2842271
:10290300121D910228F100010021010004002200A0
:102913000000000004002600000000000200450043
:10292300000002004900000004004C000000000009
:1029330004005000000000000400540000000000E8
:10294300040058000000000004005E0000000000C6
:10295300040064000000000004007C00000000008C
:102963000400810000000000020093000000020048
:1029730095000000040097000000000004009B0085
:10298300000000000200B00000000200B2000000DE
:102993000200B40000000200B600000004000C00B6
:1029A300000000000400103F800000000400080045
:1029B30000000000040107000000000002011500F0
:1029C30001000200F90000000101040000010105FB
:1029D3000000010106000002010B00000002010DCE
:1029E300000000003E00B2E2CAD4B7A2C7F23A0028
:1029F300B8A9D1F6BDC73A00B5F7D7F3D3D23A0099
:102A0300B9A6C4DC3A00D7AACBD93A00C6E4CBFBBB
:102A130000BFD8D6C600B8A9D1F6BDC700BDC7B69A
:102A2300C8B5F7BDDA00D7AACBD9B5F7BDDA000A26
:102A3300100000FF2A291BC10B100200FF2A201BD4
:102A4300220C100400FF2A191C600D100600FF2A37
:102A5300141A830E100000FF2A0F00000F1002004B
:102A6300FF2A0F000010100400FF2A0F00001110AE
:102A73000600FF2A0F0000140F0000FF2A090000C0
:102A8300150F0200FF2A030000160F0000FF29FBA9
:102A93000000170F0200FF2A030000180F0000FFB9
:102AA30029F30000190F0200FF2A0300001A0F0088
:102AB30000FF29E900001B0F0200FF2A0300005A50
:102AC3003A25303264202020202020200025336442
:102AD300002533642C25336420202020202020006F
:102AE30025642020200000040100000000000000F5
:102AF30004010004000000000004010008000000BD
:102B030000000201000C000000003900380037000B
:102B130036003500340033003200310030002E001F
:00000001FF
