:100000000220C96CAA7E7008C2C73EA03097020BBE
:0A001000A0D2C71B7078F17CBA2261
:10001B00021FC0C283D28422022A7202039A6E008C
:10002B00807CB1337CB033680D0468EF7CB5337CD6
:10003B00B43378037F10220468E17D5092F77D453D
:10004B007D51BF2140067C807F017F1212035D7EB4
:10005B00A1D05CB004780320D5C17CB004780750E4
:10006B0002B2D50203A292D5BE80FF68F67CB89C83
:10007B00B06C00602AB418057C4102037650FB80FB
:10008B00032F00047C9B5E900778F630E4067C43DC
:10009B007D106D0030E3087C437C327C210A0030FC
:1000AB00F5199F10780E2202039F1B8068F92F1100
:1000BB0050020B707CB530E7F1801B2D317CB5A560
:1000CB00397C5B50110B8078030203A21E34135052
:1000DB00034E60801A2B0203765D22680D5D00785B
:1000EB00122D220B4068099F11222D000B0078F96D
:1000FB0002039A12035D5C800B8068082481500711
:10010B002CB0500A0203A22CB0400302039F7C8B3D
:10011B005D1178267CB17CA5BE1080680A5D3378B2
:10012B000DA5BD80057F1002038C6D0080307F0113
:10013B007C5B7CB17CA5AD1280245D337806A5BDBC
:10014B0080F080E1CA887D41AD437CB17CA5AD12C6
:10015B002D1450020B047C5BAD232F01DA88A42DE8
:10016B0005BE008040060B80780480982F007C43EE
:10017B007C507C617C72020376BE24FFFF6806BE56
:10018B0004FFFF780302039A12035D5CB00468F569
:10019B007CB8A54868EF7CB870039F1122A5B80006
:1001AB00030203A22E008150079C80380702039F95
:1001BB009C8050ED0A51C2E74D51780302038C7EAF
:1001CB005400807E901A6C0080061B9068142F11CF
:1001DB00BF1040049F104CAB0330E7EECAA86CAACB
:1001EB0080E8DA39DA587C4ABE5080500A1B8068A6
:1001FB00BC2F1150020B700203765D226809BE24DE
:10020B00FFFF68036E4080227EA020800C7EA01032
:10021B0080057EA0086C556D333392D5500A6E3431
:10022B00FFFF6E24FFFF0B1CA5EC3340062F11D5EF
:10023B00F0F6227CBA247EA2D5137C767C65A5CC05
:10024B0092E77C5B227CB5337CB43392D54E5080E5
:10025B00248140039F11227C457C567C676C77245C
:10026B00E0500E7E1CFFFF221E341E2450034E60F6
:10027B00800478F430D50A6E34FFFF6E24FFFF0B39
:10028B001C227F707F517EC400007ED400FB7E94C5
:10029B0002A00204214005E47A7BB0227A7BB00BEA
:1002AB007C227CB5A2E7D2E77C1B7CB43340096887
:1002BB000DB4FF0BA5BDFF0302039A0203A2227C20
:1002CB000B2481C2E0F582F4042CB07C2BC3137C8D
:1002DB004B7CB592E77C5B7F417CB6A2E77CB1A5FA
:1002EB00BA7F02C313340094007C2B7EA091A47CB4
:1002FB00BA13F494FEACB2337CBA33248CD3137C94
:10030B005BE492E77C6B6C777E403F7583027F5199
:10031B007F017F141201847F0512002C9E24008024
:10032B00D583EB7E01826C110E041E042D205E40E2
:10033B007F227F617F011200E46E40806D117E048D
:10034B003F8012002C1202AD7F017F161201840236
:10035B0008502D0092D50E104E10807D422D44502A
:10036B0002B2D54E50806C447CB8222C4450120BF8
:10037B001C7E40005E507FBE18000078040B806826
:10038B0016A2D57CB8137C4B7CB592E77C5B227EA6
:10039B001CFFFF229F11227E24FF8020D5026C457B
:1003AB006D332274F86CAA6E40806E0080BEB0FF75
:1003BB0068277C837C975C3B5C7BBF10682AF4408E
:1003CB000D7C382D15F45C3B500F0B04800B7C79A6
:1003DB002D35F45C7B50020B24BF10680B7CB020D6
:1003EB00E7067CB420E701B322540F2490D43440A9
:1003FB00D430F30CBEB0414007BEB05B500224209A
:10040B004CCC68021BC00B84D389944CCC680B7406
:10041B002012040B80F5CA3B6D889F337CAE7E5B4C
:10042B00B00B5C7007C37D38DA3B8994B42569C285
:10043B00F37E5BB00B5CA5F824D0BEB00A501B7EDC
:10044B00500A20F60DAC5CA52D7CCB70034EF00151
:10045B0080DDAC5DA52D7CDB80D524CFBEB01AA58D
:10046B00E850055E00DFD2F39007F6A3E49360112A
:10047B00BCB078F77417934CAB30F6B34EF080806A
:10048B00AEA3E4936010BCB078F77416937C3B7406
:10049B0023937C2B89147CB08013742012040B20C3
:1004AB00F205BEC00250F31B6D29B6000112040BFE
:1004BB000204161B6E691600020B6A00BE080000D0
:1004CB0078087E0400FF7E142AA620F21E4CCC680E
:1004DB001A7F10E47E1B804C8868070B1C04BCBD84
:1004EB0078F2C2F6CA0B1205F5DA0B7E0BB060C0C0
:1004FB00CA0B12040BDA0B0B0C4CDD68EE1BD0781D
:10050B00EA80ADD2F07E101080037E10085EB05FE3
:10051B00800AD2F67E100A80057E100AC2F66D1193
:10052B009F117E00201B6C7E6B7030F6021A3720F9
:10053B00F1051B6C7E6B6030F6041A261A2430F022
:10054B00051B6D0B6A20A5EC3382F692F6500A7CE4
:10055B00EA9F229F217F127CAE4C44780F7C457C16
:10056B00567C676C772E00F878EF80122F117CB3D6
:10057B00337C3B9CB140047C3B0B70A5D8EE7CB22A
:10058B0030E005DAB8C44C3BCA380B207E00207E25
:10059B003000BE18000078C1BE1008780730F40494
:1005AB00C2F480B5CA287CB2BCBD38027CBD120532
:1005BB00F5DA28BC2D500A1BD0E4CA281203F480AC
:1005CB00F07CB213DAB84004C4CAB8C4CA28BEF06F
:1005DB008040095CDD7805A5DA0260065EF07F12CB
:1005EB0003F4DA28A5DADA020416BEF001680F303C
:1005FB00F402240220F50620F70330F6010420F262
:10060B0029BCBC5025CAB87CBF13B0E6742050116E
:10061B0074307C8A5E80F068081206355EA00F800D
:10062B000312040BDAB8BCBC78DB30F40F74301255
:10063B00040B745830F302747812040B30F6057403
:10064B002D02040B742B20F5F8742020F7F3221BDA
:10065B006C7E6BB010F1021B6C20F60B30E704F4D0
:10066B0004D2F27CCB800520E7057CDB02043A5EEA
:10067B00F07F80F81B6E691600020B6A0030F007E2
:10068B006D221B0A200B0D1B0A80020425E46C2231
:10069B00BE3007500B7F1F2D312E34FFF77E39B044
:1006AB00227CBF20E7A8742E4EF08002040B1207A9
:1006BB00DF403D7CBD7003047CDB1209E87C3D4CC4
:1006CB003368101B307CBE20E40912069870044C72
:1006DB003378F07CBD7CD3BEA0FD481CBCAB581856
:1006EB00E49CBA2CB31801E47CDB0207801207DF11
:1006FB00406E7CBD041209E87AFBA07CAE7CBDA2E7
:10070B00F492F0C2F4400260010424051205F57E58
:10071B0030FF0B30120698CA381203F420F0044C49
:10072B00DD68031206ACDA38BC3D78E6740E1203B2
:10073B00F4742B7EFBA030F707742D6EA0FF0BA07B
:10074B007AFBA012040B7EA00A7EFBB0847AFBA07E
:10075B001203F47EFBB01203F49EF8000802041699
:10076B00D2F27ED0000204D51207DF40F37CBA2C04
:10077B00BD041209E87AFBA07CBA7CAE30E701E439
:10078B000420F4044CDD6805D2F0C2F4042CBD1235
:10079B0005F56C337EFBB0601B20E712147AFBB0BF
:1007AB00120698CA381203F4DA380B3080E6047A52
:1007BB00FBB01B30120698CA381203F44CDD6807E5
:1007CB001206AC1BD080E19EF8000930F003120634
:1007DB00AC0204167CEA7CAF10F7037ED0067CFAE1
:1007EB001B6E693600020B6A200209302D2B204C40
:1007FB004248232E0053584F44494355502A4E46E6
:10080B004547000420800102001040BE10151D1D3D
:10081B00AA240E5A7F73F8B90405050505040505CE
:10082B000606070606BE1249253E4CCCCDBEAAAA2B
:10083B00AB3F8000003E7ADBB03EED63383F24BC1B
:10084B007D3F490FDB7DC25E407FBE247F80401021
:10085B00680302039A7E340FDB7E243FC90209141E
:10086B005EC480007D522D55BEA07F40137804944A
:10087B0020400D7F017E243F806D331201840BC419
:10088B007CB5337CB433248430E7046DDD803E04C7
:10089B007CAB7CB5D2E754F0C333D5F0FC540734B2
:1008AB000023230ADB7F417F017C4BE412021D1BDB
:1008BB00417F711200E47E043F806D1112002C7F8A
:1008CB00077F717F141200297F071201847F717ECD
:1008DB009408307E8400FF7403120A2B7F071200EA
:1008EB00E45DDD68147E54083C7E4400FF2D5D0BF7
:1008FB002A006912000212002C7D5C30E00B7E0492
:10090B00BFC97E140FDB12002C5D2268095E407F8D
:10091B005EC480004D2C224E614E002B494E46008A
:10092B002D494E46007D522D557CBE92E67CEB7CCC
:10093B00BA601F0470287CB5C2E77E0400FF600616
:10094B007E140922D3227E14092B40047E1409261F
:10095B00D322DA099F22CA2BCA2BC3CA09220A0A3D
:10096B007E144D10AD109E083AF09E10267CB5C239
:10097B00E77EA0567C9BA46E54FFFF2E54C511AC92
:10098B00A92D15E4A539CAB8CA1B20E70A120A8893
:10099B00DA1B120184800AF404120A88DA1B120093
:1009AB00E4DAA87CB5337CB4334E50806C4424829B
:1009BB002F111478FBDA497407BE400A40099E4098
:1009CB000ACA0201140BA0CA486C442F117F012FD5
:1009DB00112F112F101478EFCA48CA49227F0F200C
:1009EB00E73ABEB007400274070A0B2D109E1400A5
:1009FB00097E19B02EB0FB501F4C116817E47A1901
:100A0B00B01B147E19B0047A19B0B40A0BE47A192E
:100A1B00B0A5D9ED0BA074017A19B0225EE0BF220C
:100A2B00CAB87F011200E4DAB87F510B4A2069344F
:100A3B0000020B4E7F05CAB81200E40B4A00691482
:100A4B0000020B4E12002CDAB81478E8223F80001B
:100A5B00004120000042C80000447A0000461C40C0
:100A6B000047C35000497424004B1896804CBEBC01
:100A7B00205A0E1BCA6753C21C749DC5AE7C7B608B
:100A8B0006540768162323120AAD7CB75438680A3C
:100A9B007F10120AAA1200E47F01227CB75438039C
:100AAB00241C6CAA2E540A587E4400FF0B2A0069A2
:100ABB00120002227D02AD31AD102D21226D00748A
:100ACB00104D00780B4D2278278D317D126D22222F
:100ADB007D437D326D222F112D445002A50FBF1087
:100AEB0040049F100B901478ED7F016D227D342212
:100AFB007D417D138D247D022F004004BD044004F5
:100B0B009D040B141478F17D237D317D106D002233
:100B1B00CA3B7F307A1F00D37E1F00DF7F0112009C
:100B2B00E47F717E1F00DB7F011200E47F07120060
:100B3B002C7F717E1F00E37F011200E47F07120000
:100B4B002C1202AD7F717E1F00DB7F071201847AAE
:100B5B001F00DB7E1F00DF7F071201847A1F00DF7F
:100B6B007E1F00E37F071201847A1F00E37E4F0094
:100B7B00527E6F00107F167F041200E47F717E5F40
:100B8B0000567E1F004E7F051200E47F07120029DE
:100B9B006D117E0440001200E47F017E3400145975
:100BAB001300021B38207F147F051200E47F717E37
:100BBB000F004E7F161200E47F0712002C6D117E82
:100BCB000440001200E47F617E0F004E7E1F004E3A
:100BDB001200E47F717E0F00107E1F00101200E4E4
:100BEB007F071200297F717F147F041200E47F01BD
:100BFB007F171200297F717F157F051200E47F0795
:100C0B0012002C7F717E1F00E37F061200E47F51E0
:100C1B007E1F00DF7F071200E47F051200297F4152
:100C2B007E1F00DB7F071200E47F717E34001449C6
:100C3B001300020B38007E1F00E31200E47F071243
:100C4B0000297F517E340014491300020B38007EBB
:100C5B001F00DF1200E47F717E1F00DB7F06120096
:100C6B00E47F071200297F617EF4126F7EE43A83E2
:100C7B007F147F071200E47E0F000C12002C7A1FEA
:100C8B00000C7F157F071200E47E0F002612002C4C
:100C9B007A1F00267F167F071200E47E0F002A12B0
:100CAB00002C7A1F002A7EF4CCCD7EE43F4C7F17BC
:100CBB007F041200E47E0F00D312002C7E0F000C79
:100CCB0012002C7A1F00D37F177F051200E47F03DD
:100CDB0012002C7E0F002612002C7F317F177F060F
:100CEB001200E47E0F00D712002C7E0F002A120098
:100CFB002C7A1F00D77E1F004E1202057E4F00D3A9
:100D0B007F041200E47F717E1F00527F031200E408
:100D1B007F017F171200297F717E5F00D77E1F0036
:100D2B00567F051200E47F017F171200297EF41213
:100D3B006F7EE43B837F071200E47E0F00101200EE
:100D4B002C7A1F00107E1F00527F051200E47F617A
:100D5B007E1F00107F041200E47F0612002C7F61BF
:100D6B007E1F00567F031200E47F017F16120029BD
:100D7B007F071200E47E0F004E12002C7A1F004EEC
:100D8B007F051200E47F617E1F00107F031200E4D9
:100D9B007F061200297F617E1F00567F041200E43C
:100DAB007F0612002C7F071200E47E0F0052120008
:100DBB002C7A1F00527E1F004E7F031200E47F61CE
:100DCB007E1F00107F051200E47F0612002C7F515E
:100DDB007E6F00527F167F041200E47F017F151295
:100DEB0000297F071200E47E0F005612002C7A1F99
:100DFB0000567E0F004E7E1F004E1200E47F717E68
:100E0B000F00107E1F00101200E47F0712002C7FD2
:100E1B00717F167F061200E47F0712002C7F717E14
:100E2B001F00567F011200E47F0712002C1202AD47
:100E3B007F717E1F00107F071201847A1F00107EC6
:100E4B001F004E7F071201847A1F004E7E1F005237
:100E5B007F071201847A1F00527E1F00567F0712F4
:100E6B0001847A1F00567E0F00567E1F004E120023
:100E7B00E47F717E0F00527E1F00101200E47F078B
:100E8B001200296D117E0440001200E412033D7E16
:100E9B00142EE17E0442651200E47A1D087E0F00D9
:100EAB00567E1F00521200E47F717E0F004E7E1F94
:100EBB0000101200E47F0712002C6D117E0440001D
:100ECB001200E412033D7E142EE17E0442651200F3
:100EDB00E47A1F009B7E5F004E7F157F051200E4B6
:100EEB007F717E4F00107F147F041200E47F071286
:100EFB00002C7F717E6F00527F167F061200E47FFD
:100F0B00017F171200297F317E7F00567F177F07E5
:100F1B001200E47F017F13120029CA1B7F147F0785
:100F2B001200E47F717F157F061200E47F07120029
:100F3B002C6D117E0440001200E4DA0B12253F7E6B
:100F4B00142EE17E0442651200E47A1F009FDA3B07
:100F5B0022CA3B7F307A7300D47AB300D3E40211F8
:100F6B00697E7300D50A372D377D267E1BA0BEA068
:100F7B00B0500302100EBEA0F7280302100E7EB372
:100F8B0000D50A3B2D377D2629B10001BEB0A1400B
:100F9B00720A3A6D229E1800B07E14005E120ABFD0
:100FAB007A1F011C0A1B6D002E0802AD2F107A1F31
:100FBB00011C7E1400207E1F011C120ABF7A1F0128
:100FCB001C7E0F011C7CB17A1300D67C727A230035
:100FDB00D77C637A3300D87E0800D97E5020122349
:100FEB00067EB300D37E7300D47E0800D912236132
:100FFB007EB300D324107AB300D37EB300D50BB1EC
:10100B000211697E7300D50A372D377D267E1B7042
:10101B00BE70A150030210CD7E7300D50A372D3759
:10102B007D267E1B70BE70A328030210CD7E73003D
:10103B00D50A372D377D2629B10001BEB0A150034B
:10104B000210CD7EA300D50A3A2D377D267E1BA03C
:10105B000A3A6D229E1800A17E14005E120ABF7A16
:10106B001F011C0A1B6D009E0800A12F107A1F0187
:10107B001C7E1400207E1F011C120ABF7A1F011C4C
:10108B007E0F011C7CB17A1300D67C727A2300D7B9
:10109B007C637A3300D87E0800D97E502012230659
:1010AB007EB300D37E7300D47E0800D91223617EF9
:1010BB00B300D324107AB300D37EB300D50BB102A7
:1010CB0011697E7300D50A372D377D267E1B70BEC6
:1010DB00702050030211647E7300D50A372D377DC3
:1010EB00267E1B70BE707E38707E7300D50A372D3E
:1010FB00377D267E1B700A376D229E1800207A1FC3
:10110B00011C74042F111478FB7A1F011C2E240070
:10111B00032E18CF807A1F011C7E0F011C7CB17A25
:10112B001300D67C727A2300D77C637A3300D87E87
:10113B000800F97E50101223067EB300D37E730095
:10114B00D47E0800F91223B77EB300D324087AB3F8
:10115B0000D37EB300D50480057EB300D5047AB3EB
:10116B0000D57E7300D50A372D377D267E1B70BECA
:10117B0070002803020F6CDA3B22CAF87EF30119C8
:10118B00BEF00440030212417E37012ABE34000137
:10119B0068030212417E3400017A37012A7E342B18
:1011AB00E37E2400FF7E1BB07E342BE47E2400FF05
:1011BB007E1B707EF42BE57EE400FF691700020BAB
:1011CB007A00120F5C7E342BEC7E2400FF7E1BB06A
:1011DB007E342BED7E2400FF7E1B707EF42BEE7E87
:1011EB00E400FF691700020B7A00120F5C7E342BB0
:1011FB00F57E2400FF7E1BB07E342BF67E2400FF91
:10120B007E1B707EF42BF77EE400FF691700020B48
:10121B007A00120F5C7E342BFE7E2400FF7E1BB007
:10122B007E342BFF7E2400FF7E1B707EF42C007E11
:10123B00E400FF02130ABEF00478197E37012ABEC0
:10124B00340001780F122630E47AB301167E340095
:10125B0002021332BEF00450030213167E37012A2A
:10126B00BE34000268030213167E342C077E240062
:10127B00FF7E1BB07E342C087E2400FF7E1B707E0D
:10128B00F42C097EE400FF691700020B7A00120FA1
:10129B005C7E342C107E2400FF7E1BB07E342C1120
:1012AB007E2400FF7E1B707EF42C127EE400FF690F
:1012BB001700020B7A00120F5C7E342C197E24006F
:1012CB00FF7E1BB07E342C1A7E2400FF7E1B707EAB
:1012DB00F42C1B7EE400FF691700020B7A00120F3F
:1012EB005C7E342C227E2400FF7E1BB07E342C23AC
:1012FB007E2400FF7E1B707EF42C247EE400FF69AD
:10130B001700020B7A00120F5C8020BEF005501BF9
:10131B007E37012ABE340002781112263074067A09
:10132B00B301167E3400017A37012AE47E7301166D
:10133B007E142B977E0400FF120F5C7EB3011612F6
:10134B002A85DAF8227E730119A5BF00137EB3013B
:10135B001B700DA202E43378077EB30110048016D4
:10136B00A5BF00177EB3011B7011A202E433B401B9
:10137B000A7EB30110147AB30110227EA3011BBEA7
:10138B00A00178067E14000180026D11A5BF000636
:10139B007E24000180026D225D216809A202E433E4
:1013AB0078030214A4A5BF000FBEA001780AA20205
:1013BB00E433B401030214BBA5BF01114CAA780D91
:1013CB00A202E43378077EB30111048014A5BF0198
:1013DB00154CAA7811A202E433B4010A7EB30111B1
:1013EB00147AB3011122A5BF010EBEA0017809A288
:1013FB0002E43378030214A4A5BF010FBEA0017849
:10140B000AA202E433B401030214BBA5BF02114CC0
:10141B00AA780DA202E43378077EB301120480147C
:10142B00A5BF02154CAA7811A202E433B4010A7EBF
:10143B00B30112147AB3011222A5BF020DBEA00193
:10144B007808A202E4337802804FA5BF020EBEA03B
:10145B00017809A202E433B401028054A5BF031141
:10146B004CAA780DA202E43378077EB301130480F3
:10147B0014A5BF03154CAA7811A202E433B4010AD8
:10148B007EB30113147AB3011322A5BF0312BEA0BE
:10149B0001780DA202E43378077EB30114048015A2
:1014AB00A5BF0315BEA0017810A202E433B4010955
:1014BB007EB30114147AB3011422CA797E37004724
:1014CB004D33680302162E7E3400017A3700477EB7
:1014DB000800871222357E6300876C777E53008865
:1014EB007C467A2700BA7E6300897E33008A0A73B2
:1014FB004D737A7700BC7E63008B7E33008C0AE3DE
:10150B004DE37AE700BE7E73008D0AF77D3F7C6763
:10151B006C777DF37E73008E0A374D3F7A37004927
:10152B007E63008F6C777E3300900AF34DF37AF76E
:10153B0000CD7E6300917E3300920A834D837A87C0
:10154B0000CF7E6300937E3300940A934D937A977A
:10155B0000D17CB41202186DDD7EC446007F0612EA
:10156B0001847F51900000793E00021BEA207D2709
:10157B007CBE1202187F061201847A1F005A7D2E40
:10158B007CB41202187F061201847A1F00607D2F33
:10159B007CB41202187EC442837F06120184900031
:1015AB0004793E00021BEA207D287CB41202187FCE
:1015BB00061201847F717A1F00667D297CB41202AA
:1015CB00187F061201847A1F007E7ED4FA397EC4FE
:1015DB003C8E7F061200E47A1F00D77A5F00DB7E19
:1015EB001F005A7A1F00DF7E1F00607A1F00E390F6
:1015FB000004693E00020BEA207F061200E4CA1BBE
:10160B007F177F061200E47F01DA1B120B1B7E1D76
:10161B00081202507A37004B7E1F009B1202507A41
:10162B003700C0DA7922CA3B7CD67F707CE77CFB23
:10163B009F117A1F00187408ACBD0A3F2D352E344C
:10164B0000087CF76D117E0442C87F171200E4126C
:10165B0002507A1F001C0A5F9E5400187C7E7E1479
:10166B002CE17E0400FF120F5C6CCC0217647ED45D
:10167B00000A7E7F001C7F177D1D120AC87A0F009F
:10168B00187F177D1D120AC87A1F001C9EF008BE1A
:10169B00C00278039EF0087E2F0018BE28000A4077
:1016AB00030217627EA003A49016B7730216D5022D
:1016BB0016E30216F10216FF02170D02171B021793
:1016CB00290217370217450217537CBF7C7E7E1405
:1016DB002CDF7E0400FF807C7CBF7C7E7E142CDDA7
:1016EB007E0400FF806E7CBF7C7E7E142CDB7E0430
:1016FB0000FF80607CBF7C7E7E142CD97E0400FFB3
:10170B0080527CBF7C7E7E142CD77E0400FF8044ED
:10171B007CBF7C7E7E142CD57E0400FF80367CBF84
:10172B007C7E7E142CD37E0400FF80287CBF7C7EC5
:10173B007E142CD17E0400FF801A7CBF7C7E7E142D
:10174B002CCF7E0400FF800C7CBF7C7E7E142CCDC6
:10175B007E0400FF120F5C0BC0BCDC280302167961
:10176B00DA3B227E3700644D33680302184E7E3419
:10177B0000017A37006412184F7AB30082BEB002B0
:10178B0018097E730082BE70FE581F7EB30082B4B0
:10179B00FD07E47AB30023801F7EB30082B40318E5
:1017AB007E73004D7A730082800E74017AB300232E
:1017BB007E7300827A73004D7E4300827CB41202EA
:1017CB001D7F717E0F00A61200E41202507A3700C3
:1017DB00247E0F00AA7F171200E41202507A370002
:1017EB00217E4300A57CB412021D7E0F00AE1200B9
:1017FB00E41202507A3700CB7EB3008260227E3730
:10180B0000242E3700B22E3700CB7A3701227E37D9
:10181B0000B29E3700249E3700CB7A370120800818
:10182B007E3700B27A3701227E2700B27A27012059
:10183B007EB300237E3701221222A37E7300827AAD
:10184B007300A522A286E433B401057EA0108002AA
:10185B006CAAA285E433B401054EA00880035EA0F8
:10186B00F7A287E433B401054EA00480035EA0FB0E
:10187B00A2CBE433B401054EA00280035EA0FDA20F
:10188B00CAE433B401054EA00180035EA0FE7CBA0E
:10189B0014BEB01F40030219267EA003A49018ACFF
:1018AB007302191A02190E021920021909021926BC
:1018BB0002191402192602190B0219260219260203
:1018CB0019260219110219260219260219260219C4
:1018DB0017021926021926021926021926021926A1
:1018EB0002192602192602191D02192602192602AF
:1018FB001926021926021926021926021923E42297
:10190B0074012274FF2274012274FF227402227468
:10191B00FE2274022274FE2274FD227403227E378F
:10192B00005E4D336803021A017E3400017A3700E2
:10193B005E7E7300821A377A3700F97E08002E7E9E
:10194B00342C9E7E2400FF12028DE46C777E0800FF
:10195B002E120F5C7E3701207A3700F97E37012279
:10196B007A3700F77E08002E7E342C927E2400FFFF
:10197B0012028DE47E70027E08002E120F5C7E3701
:10198B0000B27A3700F97E08002E7E342C877E2435
:10199B0000FF12028DE47E70047E08002E120F5C95
:1019AB007E1F009F1202507A3700F97E08002E7EB0
:1019BB00342C7E7E2400FF12028DE47E70077E089D
:1019CB00002E121B787E1F00A61202507A3700F9E8
:1019DB007E1F00AE1202507A3700F77E08002E7E73
:1019EB00342C727E2400FF12028D74327E70077EBF
:1019FB0008002E021B7822D296D2937E3400C81296
:101A0B00294474AE6C7712274B74026C7712274BF8
:101A1B0074106C7712274B74406C7712274B74B091
:101A2B006C7712274B74816C7712274B74CF6C77C2
:101A3B0012274B74A16C7712274B74A66C77122765
:101A4B004B74A86C7712274B743F6C7712274B742F
:101A5B00AD6C7712274B748B6C7712274B74336CEE
:101A6B007712274B74C86C7712274B74D36C771291
:101A7B00274BE46C7712274B74D56C7712274B747A
:101A8B00806C7712274B74D96C7712274B741F6CB1
:101A9B007712274B74DA6C7712274B74126C771210
:101AAB00274B74DB6C7712274B74406C7712274BE8
:101ABB0012263074AF6C7702274BCA69CAF87EB313
:101ACB00011714680C046803021B73121185021BA7
:101ADB00737E342BE27E2400FF7E1B700A277E640C
:101AEB00000A8D267EF301190A3FBD32780A7E3437
:101AFB002BE97E2400FF805B7E342BEB7E2400FFE2
:101B0B007E1B700A278D260A3FBD32780A7E342B46
:101B1B00F27E2400FF803C7E342BF47E2400FF7E7B
:101B2B001B700A278D260A3FBD32780A7E342BFBA9
:101B3B007E2400FF801D7E342BFD7E2400FF7E1B48
:101B4B00700A278D260A3FBD32780D7E342C047E19
:101B5B002400FF0B1A309934E47E7301187E142B8A
:101B6B00977E0400FF120F5CDAF8DA6922CA3B7F1A
:101B7B00307A7300D47AB300D3E4807E7E7300D5C1
:101B8B000A372D377D267E1B70BE70204067BE70D6
:101B9B007E38620A376D229E1800207A1F011C2F97
:101BAB00112F112F117A1F011C2E2400032E18BF89
:101BBB00C07A1F011C7E0F011C7CB17A1300D67CEE
:101BCB00727A2300D77C637A3300D87E0800D97EE3
:101BDB0050081223067EB300D37E7300D47E080018
:101BEB00D912271F7EB300D324067AB300D37EB35A
:101BFB0000D50480057EB300D5047AB300D57E737F
:101C0B0000D50A372D377D267E1B70BE700028034A
:101C1B00021B87DA3B227E342C617E2400FF7E1B65
:101C2B00B07E342C627E2400FF7E1B707EF42C630E
:101C3B007EE400FF691700020B7A00120F5C7458E8
:101C4B00CAB86C77CA787E430113E412021D7E1466
:101C5B00D70A7E043C231200E47F017E6004DA780D
:101C6B00DAB81216317E342C6A7E2400FF7E1BB04C
:101C7B007E342C6B7E2400FF7E1B707EF42C6C7EDE
:101C8B00E400FF691700020B7A00120F5C7439CA6B
:101C9B00B87E7002CA787E430114E412021D7E14D2
:101CAB00D70A7E043C231200E47F017E6004DA78BD
:101CBB00DAB80216317E342C3D7E2400FF7E1BB039
:101CCB007E342C3E7E2400FF7E1B707EF42C3F7EE8
:101CDB00E400FF691700020B7A00120F5C744BCA09
:101CEB00B86C77CA787E430111E412021D7E14D7BB
:101CFB000A7E043C231200E47F017E6004DA78DA6A
:101D0B00B81216317E342C467E2400FF7E1BB07E2B
:101D1B00342C477E2400FF7E1B707EF42C487EE41F
:101D2B0000FF691700020B7A00120F5C7439CAB8F6
:101D3B007E7002CA787E430114E412021D7E14D712
:101D4B000A7E043C231200E47F017E6004DA78DA19
:101D5B00B80216317E342C2B7E2400FF7E1BB07E06
:101D6B00342C2C7E2400FF7E1B707EF42C2D7EE405
:101D7B0000FF691700020B7A00120F5C7439CAB8A6
:101D8B006C77CA787E430110E412021D7E14D70AC9
:101D9B007E043C231200E47F017E6004DA78DAB81B
:101DAB001216317E342C347E2400FF7E1BB07E3421
:101DBB002C357E2400FF7E1B707EF42C367EE400D7
:101DCB00FF691700020B7A00120F5C7439CAB87ED8
:101DDB007002CA787E430114E412021D7E14D70AE6
:101DEB007E043C231200E47F017E6004DA78DAB8CB
:101DFB000216317E342C4F7E2400FF7E1BB07E34C6
:101E0B002C507E2400FF7E1B707EF42C517EE40050
:101E1B00FF691700020B7A00120F5C744BCAB86C87
:101E2B0077CA787E430112E412021D7E14D70A7E14
:101E3B00043C231200E47F017E6004DA78DAB812E6
:101E4B0016317E342C587E2400FF7E1BB07E342C42
:101E5B00597E2400FF7E1B707EF42C5A7EE400FF1B
:101E6B00691700020B7A00120F5C7439CAB87E70C6
:101E7B0002CA787E430114E412021D7E14D70A7E37
:101E8B00043C231200E47F017E6004DA78DAB802A6
:101E9B001631A203E433B401028003021F2EA2B455
:101EAB00E433B401377E37010EBE3407D0502D6DAD
:101EBB00337A37010E122630C2037EB3011ABEB03D
:101ECB0002500304800274017AB3011AB40204D2E3
:101EDB00018002C20174017AB3011722A2B4E43368
:101EEB00B401297E37010EBE340FA0281F6D337A43
:101EFB0037010E122630C203C201E47AB3011A7AFB
:101F0B00B301177AB301187AB3011B22A2B4E433DD
:101F1B00B401107E37010EBE3407D028066D337A1C
:101F2B0037010E22740A7E34FEB27E24007E7A1BA9
:101F3B00B0E47E34FED07A1BB074EF7E34FED17ADF
:101F4B001BB0E47E34FECC7A1BB074607E14FEC8EA
:101F5B007E04007E7A0BB07E14FEC97A0BB074112E
:101F6B007A1BB074037E34FED57A1BB074E87E34D2
:101F7B00FED67A1BB074037E34FED77A1BB074E89E
:101F8B007E34FED87A1BB074037E34FED27A1BB03B
:101F9B0074E87E34FED37A1BB074057E34FEB17ABE
:101FAB001BB074807E34FEDD7A1BB074017E34FE70
:101FBB00C07A1BB022CA39C0D17E37005E0B347A8F
:101FCB0037005EBE34006478066D337A37005E7E70
:101FDB003700640B347A370064BE34000A78066D20
:101FEB00337A3700647E3700470B347A370047BEAD
:101FFB0034003278066D337A3700477E3700950B05
:10200B00347A370095BE34006478066D337A370026
:10201B00957E3700C90B347A3700C9BE341388401C
:10202B000BA2ECB392EC6D337A3700C97E37012CDF
:10203B00BE34000028061B347A37012CD0D1DA3994
:10204B00327E3700954D3378747E3400017A370039
:10205B00951226677AB300A47CAB6EA300C85EA36F
:10206B0000A47AA300A37AB300C87EB300A31BB16C
:10207B006819146828146834240378417E1F00A65D
:10208B006D117E043F8012002C800D7E1F00A66D0B
:10209B00117E043F801200297A1F00A6227E1F00AA
:1020AB00AE6D117E043F8012002C800D7E1F00AEA2
:1020BB006D117E043F801200297A1F00AE227584B9
:1020CB00017E44041FE47A49B01B4478F97EF80181
:1020DB002EC200C201C202C203C2047E0400FF7EF4
:1020EB00142AAA0B0A405D44681A692000020B0EE1
:1020FB000B44800A7E0BB07A29B00B240B0C1B44CB
:10210B0078F280DF7E0400FF7E142CA90B0A405D61
:10211B00446822295000020A25693000032E08006A
:10212B00050B44800A7E0BB07A1BB00B1C0B0C1BEF
:10213B004478F280D702240DA201E433786E7EA39B
:10214B0001174CAA78187EB30116BEB000402ABE08
:10215B00B00438250A3B0B357A730116801BBEA0E1
:10216B000178167EB30118BEB000400DBEB0025010
:10217B00080A3B0B357A730118BEA00168137EB3B6
:10218B000119BEB000400ABEB0063805047AB3018F
:10219B0019BEA00178137EB3011BBEB000400ABE6E
:1021AB00B0013805047AB3011B0225F9C2020213F0
:1021BB0050A201E433786E7EA301174CAA78187EE7
:1021CB00B30116BEB006382ABEB00240250A3B1B2F
:1021DB00357A730116801BBEA00178167EB30118E9
:1021EB00BEB004500DBEB00240080A3B1B357A73DB
:1021FB000118BEA00168137EB30119BEB000280AF6
:10220B00BEB0073805147AB30119BEA00178137E4E
:10221B00B3011BBEB000400ABEB0013805147AB33F
:10222B00011B0225F9D202021350CA3B7F3012293F
:10223B002A74D0122813743B12281312292A74D132
:10224B00122813E47AB300D31227ED7EA300D30A2E
:10225B003A2D377D267A1BB0C2B7D2B6122A67C287
:10226B00B6122A677EB300D3047AB300D37E730011
:10227B00D3BE700D40D21227ED7EA300D30A3A2DA8
:10228B00377D267A1BB0D2B7D2B6122A67C2B612E6
:10229B002A67122A3EDA3B22CA3B7D727D637C7B26
:1022AB00A5BF00046D666D77BE640000580D7E34CB
:1022BB00FFFFAD367D63122AA18003122A97BE74ED
:1022CB000000580D7E34FFFFAD377D73122A9C80C2
:1022DB000312001E1A1E7E34FED57E24007E7A1B4E
:1022EB00307E34FED67A1BF01A1C7E34FED77A1B56
:1022FB00307E34FED87A1BD0DA3B22CA3B7A5301AC
:10230B000C7F307A63010B7A73010A7AB30109C22D
:10231B0093740312290F7EB3010912290F7EB301A7
:10232B000A12290F7EB3010B12290FE4801512003C
:10233B00037EA3010D0A3A2D377D267A1BB07EB39F
:10234B00010D047AB3010D7E73010CBE73010D38C0
:10235B00DDD293DA3B22CA3B7F307A73010A7AB320
:10236B000109E47AB3010C7EB301097E73010A12F1
:10237B002776E47AB3010B7E3BB07E700112274BBC
:10238B000B747EB3010B047AB3010BB410E97EB36B
:10239B00010A047AB3010A7EB3010C047AB3010C6F
:1023AB007E73010CBE700240BEDA3B22CA3B7F300B
:1023BB007A73010A7AB30109E47AB3010C7EB30193
:1023CB00097E73010A122776E47AB3010B7E3BB0C8
:1023DB007E700112274B0B747EB3010B047AB30191
:1023EB000BB408E97EB3010A047AB3010A7EB30188
:1023FB000C047AB3010C7E73010CBE700240BEDA82
:10240B003B221225BF121A02E41228B9E41226F35A
:10241B001226301229F612295BA9C6A2A9C7A2A9B6
:10242B00D4FF122584122A8E7E34012C7A3700B207
:10243B006D337E2443C87A1F00A69F117A1F00AA12
:10244B007A1F00AEC2EC12176E1219291214C512A4
:10245B00204C80F2CAF8A2B2E4337808A2B3E4337A
:10246B007802D200A200E433B40135A2B330B2013A
:10247B00B35008A2B2E4337AB30115A2B2E433B479
:10248B00011EA2B3E433B40117C2007EF30115BEE3
:10249B00F001780512214380074CFF78031221BC11
:1024AB00DAF822A2B2E433B40109A2B3E433B401E3
:1024BB0002D204A204E433B40131A2B330B201B3AB
:1024CB005008A2B3E4337AB30115A2B2E433781BFC
:1024DB00A2B3E4337815C2047EB30115B401031221
:1024EB0021437EB3011570031221BC02245FCA3B4A
:1024FB007F30E47AB301297AB30128E47E73012893
:10250B00122776E47AB301297E3BB07E7001122745
:10251B004B0B747EB30129047AB30129B480E97E95
:10252B00B30128047AB301287E730128BE700840DA
:10253B00CADA3B22CA0B691FFFFF690FFFFD1201AD
:10254B00841208507F717F1F2E34FFFD7E1BB0302D
:10255B00E7229F007F171203AE380A7E140FDB7E33
:10256B0004404980087E140FDB7E04C0497F17129C
:10257B00002C7F717F171BFE22122A67122A67120B
:10258B002A67122A67746B7E70801228F3122878E0
:10259B00746B6C771228F374197E70071228F3741E
:1025AB001A7E70041228F3741B7E70081228F374C1
:1025BB001C0228F375E900A9D7BA75EA00759300D8
:1025CB007594007591007592007595007596007560
:1025DB00B10075B20075B30075B40075C90075CA4A
:1025EB000075CB0075CC0075E10075E20022CA794D
:1025FB006CEE0A5E2E5400B06C7712274B74106C85
:10260B007712274B74026C7712274B6CFFE47E70AA
:10261B000112274B0BF0BEF01078F20BE0BEE00876
:10262B0040D0DA7922CA796CFF0A5F2E5400B06C65
:10263B007712274B74106C7712274B74026C77123E
:10264B00274B6CEEE47E700112274B0BE0BEE08053
:10265B0078F20BF0BEF00840D0DA79226CAAA2A473
:10266B00E43378057EA001801FA2C4E43378057E95
:10267B00A0028014A2C2E43378057EA0038009A2D5
:10268B00FBE43378037EA0047CBA22CAF87CFB12ED
:10269B002A1E746C1226C5122A0B7CBF1226C51279
:1026AB002A0B122A1E746D1226C5122A0B1227A191
:1026BB007CFB122A4D7CBFDAF822CA797CFB7EE0C8
:1026CB0008C2A07405122A5B7CBF30E704D2A2803B
:1026DB0002C2A27405122A5BD2A03EF0122A5B1B27
:1026EB00E078DEC2A0DA7922CAF87CFB4CFB780ECC
:1026FB0074C86C7712274B74A16C7712274BBEF002
:10270B0001780E74C06C7712274B74A06C7712276C
:10271B004BDAF822CA3B7F30122776E47AB300E11A
:10272B007E3BB07E700112274B0B747EB300E1042D
:10273B007AB300E17E7300E1BE700640E3DA3B2220
:10274B007C6B4C776804D2958002C295C2967E70E2
:10275B0008C2C77CB630E704D2948002C294D2C7B9
:10276B003E601B7078EBD296D29522CAF87CFB0B9D
:10277B00F10A572E5400B06C7712274B7CBF54F0E4
:10278B00C4540F44106C7712274B7CBF540F6C77DB
:10279B0012274BDAF822CA796CFF7EE008D2A074BC
:1027AB0005122A5B3EF030A2034EF001C2A0740565
:1027BB00122A5B1BE078E67CBFDA79227F70A9D600
:1027CB00BC0000A935BCFCA9C5BCE5BD7C4B6C5558
:1027DB00E5BE0A3B2D32E5BC0A5B0B54F5BC1B7AFC
:1027EB003022CA796CFFD2B76CEE3EF0D2B6122A09
:1027FB0067A2B7E4334CFBC2B6122A670BE0BEE00C
:10280B000840E77CBFDA7922CA797CFB6CEE3EF09C
:10281B00A2D792B7D2B6122A67C2B6122A670BE0BA
:10282B00BEE00840E91229B6DA7922E5BC0A5B0B57
:10283B0054F5BCA9D6BC0000A935BCFCA9C5BCE5A8
:10284B00BD7C4B6C55E5BE0A3B2D3222E5BC54F0EA
:10285B004408F5BCA9D6BC0000A935BCFCA9C5BC75
:10286B00E5BD7C4B6C55E5BE0A3B2D322200007E4C
:10287B00A0057E70907E60477CB6147C6B78F97CEB
:10288B00B7147C7B78F27CBA147CAB78EB22BE3429
:10289B0000004806C281D2828004D281C282BE244B
:1028AB0000004805C283D28422D283C28422CAF894
:1028BB007CFB4CFB780774A66C7712274BBEF001A0
:1028CB00780774A76C7712274BDAF82253BCF0A960
:1028DB00D6BC0000A935BCFCA9C5BCE5BD7C4B6CC6
:1028EB0055E5BE0A3B2D3222CA797CEB12292A749C
:1028FB00D01228137CBE1228137CB7122813122A6D
:10290B003EDA79227C6B7E7008C2C77CB630E70456
:10291B00D2948002C2943E60D2C71B7078EB221215
:10292B002A67122A67D2B7D2B6122A67122A67C24F
:10293B00B7122A67C2B6022A677D13800E7E040780
:10294B00087D301B044D3378F81B144D1178EE22A3
:10295B00759850438E01438E0475D78F75D6FD4302
:10296B008E10D2ACD2AF22C2A0A20592A2740512D5
:10297B002A5BD2A0122A5BC2A0D2A2022A5B743FAE
:10298B007E34FEA87E24007E7A1BB075DE2375BCD8
:10299B00F0A9D7BC22CA3B7F3080087E3BB00B74BA
:1029AB00122A857E3BB070F3DA3B22D2B7122A672C
:1029BB00D2B6122A67A2B792D7C2B6122A67A2D78B
:1029CB0022748D6C7712274B74106C7712274B7413
:1029DB00AE6C7702274B748D6C7712274B74146C8B
:1029EB007712274B74AF6C7702274B538EBF5389EB
:1029FB000F758B38758DFFC28FD28ED2ABD2AF22B3
:102A0B00D2A07405122A5BA2A29206C2A0122A5B64
:102A1B00A20622D2A2D2A07405122A5BC2A2122A4B
:102A2B005BC2A0227A37012C7E37012CBE3400000A
:102A3B0038F622122A67C2B7D2B6122A67D2B70269
:102A4B002A67C2A2D2A07405122A5BD2A2022A5B09
:102A5B007C7B007C671B70A5BE00F7227EA0077CE9
:102A6B00BA147CAB78F922C0D1309802C298D0D17D
:102A7B0032D2A4D2C4D2C2D2FB227AB1993099FD00
:102A8B00C29922121F2F12001E022A97C281D282D4
:102A9B0022D283C28422D281C28222283029000012
:102AAB000100230100040026000000000004002A9E
:102ABB00000000000002004B00000004004E00006C
:102ACB00000000040052000000000004005600004B
:102ADB0000000004005A0000000000040060000029
:102AEB00000000040066000000000004007E0000EF
:102AFB0000000004008300000000000200970000AB
:102B0B000002009900000004009B0000000000047C
:102B1B00009F00000000000100A300000100A400C2
:102B2B00000200C00000000200C20000000200C44E
:102B3B000000000200C60000000100C800000200F7
:102B4B00C900000004000C00000000000400103F4E
:102B5B0080000000040008000000000004011C00BD
:102B6B000000000002012A00010002010E0000001B
:102B7B00010119000001011A000001011B000002F4
:102B8B000120000000020122000000003E00B2E222
:102B9B00CAD4B7A2C7F23A00B8A9D1F6BDC73A005A
:102BAB00B5F7D7F3D3D23A00B9A6C4DC3A00D7AA0B
:102BBB00CBD93A00C6E4CBFB00BFD8D6C600B8A928
:102BCB00D1F6BDC700BDC7B6C8B5F7BDDA00D7AAE9
:102BDB00CBD9B5F7BDDA000A100000FF2BD91D5F6A
:102BEB000B100200FF2BD01CC00C100400FF2BC9D4
:102BFB001DFE0D100600FF2BC41C210E100000FF44
:102C0B002BBF00000F100200FF2BBF0000101004A1
:102C1B0000FF2BBF000011100600FF2BBF0000149C
:102C2B000F0000FF2BB90000150F0200FF2BB300A4
:102C3B0000160F0000FF2BAB0000170F0200FF2B3D
:102C4B00B30000180F0000FF2BA30000190F0200A8
:102C5B00FF2BB300001A0F0000FF2B9900001B0F76
:102C6B000200FF2BB30000703A2534642C643A2524
:102C7B003464005A3A253032642020006261736953
:102C8B00633A25336420004C3A2533642C522533A8
:102C9B006420006C696E653A2532642020000004C4
:102CAB00010000000000000004010004000000000F
:102CBB00000401000800000000000201000C0000ED
:102CCB00000039003800370036003500340033007F
:082CDB003200310030002E0030
:00000001FF
