:100000000221036CAA7E7008C2C73EA03097020B83
:0A001000A0D2C71B7078F17CBA2261
:07001B00021FFA2830290042
:10002300022A8E02039A6E00807CB1337CB033685F
:100033000D0468EF7CB5337CB43378037F1022045E
:1000430068E17D5092F77D457D51BF2140067C805C
:100053007F017F1212035D7EA1D05CB00478032080
:10006300D5C17CB00478075002B2D50203A292D561
:10007300BE80FF68F67CB89CB06C00602AB418059B
:100083007C4102037650FB80032F00047C9B5E902F
:100093000778F630E4067C437D106D0030E3087C7E
:1000A300437C327C210A0030F5199F10780E22021E
:1000B300039F1B8068F92F1150020B707CB530E74A
:1000C300F1801B2D317CB5A5397C5B50110B8078F9
:1000D300030203A21E341350034E60801A2B020343
:1000E300765D22680D5D0078122D220B4068099F12
:1000F30011222D000B0078F902039A12035D5C8034
:100103000B806808248150072CB0500A0203A22CEC
:10011300B0400302039F7C8B5D1178267CB17CA5E4
:10012300BE1080680A5D33780DA5BD80057F10027F
:10013300038C6D0080307F017C5B7CB17CA5AD12AC
:1001430080245D337806A5BD80F080E1CA887D41B7
:10015300AD437CB17CA5AD122D1450020B047C5B26
:10016300AD232F01DA88A42D05BE008040060B8045
:10017300780480982F007C437C507C617C7202035E
:1001830076BE24FFFF6806BE04FFFF780302039ACE
:1001930012035D5CB00468F57CB8A54868EF7CB8D1
:1001A30070039F1122A5B800030203A22E00815001
:1001B300079C80380702039F9C8050ED0A51C2E7D9
:1001C3004D51780302038C7E5400807E901A6C009C
:1001D30080061B9068142F11BF1040049F104CAB76
:1001E3000330E7EECAA86CAA80E8DA39DA587C4A09
:1001F300BE5080500A1B8068BC2F1150020B700246
:1002030003765D226809BE24FFFF68036E408022E7
:100213007EA020800C7EA01080057EA0086C556D0A
:10022300333392D5500A6E34FFFF6E24FFFF0B1C4D
:10023300A5EC3340062F11D5F0F6227CBA247EA21A
:10024300D5137C767C65A5CC92E77C5B227CB533A9
:100253007CB43392D54E5080248140039F11227C7D
:10026300457C567C676C7724E0500E7E1CFFFF2292
:100273001E341E2450034E60800478F430D50A6E79
:1002830034FFFF6E24FFFF0B1C227F707F517EC45F
:1002930000007ED400FB7E9402A00204214005E40A
:1002A3007A7BB0227A7BB00B7C227CB5A2E7D2E7C3
:1002B3007C1B7CB4334009680DB4FF0BA5BDFF0361
:1002C30002039A0203A2227C0B2481C2E0F582F48A
:1002D300042CB07C2BC3137C4B7CB592E77C5B7FF7
:1002E300417CB6A2E77CB1A5BA7F02C31334009464
:1002F300007C2B7EA091A47CBA13F494FEACB233A1
:100303007CBA33248CD3137C5BE492E77C6B6C77ED
:100313007E403F7583027F517F017F141201847FEA
:100323000512002C9E240080D583EB7E01826C1184
:100333000E041E042D205E407F227F617F01120088
:10034300E46E40806D117E043F8012002C1202ADDA
:100353007F017F161201840208502D0092D50E10E2
:100363004E10807D422D445002B2D54E50806C44D5
:100373007CB8222C4450120B1C7E40005E507FBE82
:1003830018000078040B806816A2D57CB8137C4B48
:100393007CB592E77C5B227E1CFFFF229F11227EAD
:1003A30024FF8020D5026C456D332274F86CAA6E4D
:1003B30040806E0080BEB0FF68277C837C975C3BE7
:1003C3005C7BBF10682AF4400D7C382D15F45C3B30
:1003D300500F0B04800B7C792D35F45C7B50020BA2
:1003E30024BF10680B7CB020E7067CB420E701B380
:1003F30022540F2490D43440D430F30CBEB0414087
:1004030007BEB05B500224204CCC68021BC00B8497
:10041300D389944CCC680B742012040B80F5CA3B2F
:100423006D889F337CAE7E5BB00B5C7007C37D38F9
:10043300DA3B8994B42569C2F37E5BB00B5CA5F803
:1004430024D0BEB00A501B7E500A20F60DAC5CA52A
:100453002D7CCB70034EF00180DDAC5DA52D7CDBE4
:1004630080D524CFBEB01AA5E850055E00DFD2F3D5
:100473009007F6A3E4936011BCB078F77417934C1C
:10048300AB30F6B34EF08080AEA3E4936010BCB003
:1004930078F77416937C3B7423937C2B89147CB07C
:1004A3008013742012040B20F205BEC00250F31B0C
:1004B3006D29B6000112040B0204161B6E691600A7
:1004C300020B6A00BE08000078087E0400FF7E1459
:1004D300001E20F21E4CCC681A7F10E47E1B804C59
:1004E3008868070B1C04BCBD78F2C2F6CA0B120560
:1004F300F5DA0B7E0BB060C0CA0B12040BDA0B0BE0
:100503000C4CDD68EE1BD078EA80ADD2F07E101083
:1005130080037E10085EB05F800AD2F67E100A80E8
:10052300057E100AC2F66D119F117E00201B6C7EA2
:100533006B7030F6021A3720F1051B6C7E6B60304E
:10054300F6041A261A2430F0051B6D0B6A20A5EC5D
:100553003382F692F6500A7CEA9F229F217F127C17
:10056300AE4C44780F7C457C567C676C772E00F844
:1005730078EF80122F117CB3337C3B9CB140047C19
:100583003B0B70A5D8EE7CB230E005DAB8C44C3B27
:10059300CA380B207E00207E3000BE18000078C1D0
:1005A300BE1008780730F404C2F480B5CA287CB2C0
:1005B300BCBD38027CBD1205F5DA28BC2D500A1BE0
:1005C300D0E4CA281203F480F07CB213DAB84004F2
:1005D300C4CAB8C4CA28BEF08040095CDD7805A54A
:1005E300DA0260065EF07F1203F4DA28A5DADA0293
:1005F3000416BEF001680F30F402240220F5062031
:10060300F70330F6010420F229BCBC5025CAB87C9C
:10061300BF13B0E67420501174307C8A5E80F0689A
:10062300081206355EA00F800312040BDAB8BCBCB7
:1006330078DB30F40F743012040B745830F3027407
:100643007812040B30F605742D02040B742B20F57D
:10065300F8742020F7F3221B6C7E6BB010F1021BA1
:100663006C20F60B30E704F404D2F27CCB80052037
:10067300E7057CDB02043A5EF07F80F81B6E6916A7
:1006830000020B6A0030F0076D221B0A200B0D1BC2
:100693000A80020425E46C22BE3007500B7F1F2D15
:1006A300312E34FFF77E39B0227CBF20E7A8742EA9
:1006B3004EF08002040B1207DF403D7CBD70030443
:1006C3007CDB1209E87C3D4C3368101B307CBE2078
:1006D300E40912069870044C3378F07CBD7CD3BED9
:1006E300A0FD481CBCAB5818E49CBA2CB31801E419
:1006F3007CDB0207801207DF406E7CBD041209E831
:100703007AFBA07CAE7CBDA2F492F0C2F4400260FE
:10071300010424051205F57E30FF0B30120698CA3A
:10072300381203F420F0044CDD68031206ACDA3807
:10073300BC3D78E6740E1203F4742B7EFBA030F7F5
:1007430007742D6EA0FF0BA07AFBA012040B7EA0F2
:100753000A7EFBB0847AFBA01203F47EFBB0120383
:10076300F49EF80008020416D2F27ED0000204D5EB
:100773001207DF40F37CBA2CBD041209E87AFBA010
:100783007CBA7CAE30E701E40420F4044CDD680558
:10079300D2F0C2F4042CBD1205F56C337EFBB060BD
:1007A3001B20E712147AFBB0120698CA381203F41E
:1007B300DA380B3080E6047AFBB01B30120698CA95
:1007C300381203F44CDD68071206AC1BD080E19E9F
:1007D300F8000930F0031206AC0204167CEA7CAF81
:1007E30010F7037ED0067CFA1B6E693600020B6A93
:1007F300200209302D2B204C4248232E0053584F02
:1008030044494355502A4E4645470004208001027F
:10081300001040BE10151D1DAA240E5A7F73F8B98F
:1008230004050505050405050606070606BE124967
:10083300253E4CCCCDBEAAAAAB3F8000003E7ADB5E
:10084300B03EED63383F24BC7D3F490FDB7DC25E84
:10085300407FBE247F804010680302039A7E340FDA
:10086300DB7E243FC90209145EC480007D522D55EE
:10087300BEA07F401378049420400D7F017E243F67
:10088300806D331201840BC47CB5337CB433248470
:1008930030E7046DDD803E047CAB7CB5D2E754F0D9
:1008A300C333D5F0FC5407340023230ADB7F417F95
:1008B300017C4BE412021D1B417F711200E47E0494
:1008C3003F806D1112002C7F077F717F1412002966
:1008D3007F071201847F717E9408307E8400FF7449
:1008E30003120A2B7F071200E45DDD68147E5408AF
:1008F3003C7E4400FF2D5D0B2A00691200021200AA
:100903002C7D5C30E00B7E04BFC97E140FDB12002C
:100913002C5D2268095E407F5EC480004D2C224E10
:10092300614E002B494E46002D494E46007D522D07
:10093300557CBE92E67CEB7CBA601F0470287CB5C4
:10094300C2E77E0400FF60067E140922D3227E14D0
:10095300092B40047E140926D322DA099F22CA2BCD
:10096300CA2BC3CA09220A0A7E144D10AD109E0871
:100973003AF09E10267CB5C2E77EA0567C9BA46EFF
:1009830054FFFF2E54C511ACA92D15E4A539CAB8DF
:10099300CA1B20E70A120A88DA1B120184800AF4B0
:1009A30004120A88DA1B1200E4DAA87CB5337CB49B
:1009B300334E50806C4424822F111478FBDA49742F
:1009C30007BE400A40099E400ACA0201140BA0CA8E
:1009D300486C442F117F012F112F112F101478EF22
:1009E300CA48CA49227F0F20E73ABEB007400274C3
:1009F300070A0B2D109E1400097E19B02EB0FB5070
:100A03001F4C116817E47A19B01B147E19B0047ACD
:100A130019B0B40A0BE47A19B0A5D9ED0BA074018F
:100A23007A19B0225EE0BF22CAB87F011200E4DA6D
:100A3300B87F510B4A20693400020B4E7F05CAB8B8
:100A43001200E40B4A00691400020B4E12002CDA68
:100A5300B81478E8223F8000004120000042C8001B
:100A630000447A0000461C400047C35000497424E8
:100A7300004B1896804CBEBC205A0E1BCA6753C24B
:100A83001C749DC5AE7C7B60065407681623231235
:100A93000AAD7CB75438680A7F10120AAA1200E420
:100AA3007F01227CB7543803241C6CAA2E540A58A5
:100AB3007E4400FF0B2A0069120002227D02AD3141
:100AC300AD102D21226D0074104D00780B4D22784E
:100AD300278D317D126D22227D437D326D222F11B0
:100AE3002D445002A50FBF1040049F100B901478A3
:100AF300ED7F016D227D34227D417D138D247D02A6
:100B03002F004004BD0440049D040B141478F17DB0
:100B1300237D317D106D0022CA3B7F307A1F00D3C5
:100B23007E1F00DF7F011200E47F717E1F00DB7FE9
:100B3300011200E47F0712002C7F717E1F00E37F08
:100B4300011200E47F0712002C1202AD7F717E1F99
:100B530000DB7F071201847A1F00DB7E1F00DF7F2B
:100B6300071201847A1F00DF7E1F00E37F07120153
:100B7300847A1F00E37E4F00527E6F00107F167F42
:100B8300041200E47F717E5F00567E1F004E7F05D6
:100B93001200E47F071200296D117E044000120049
:100BA300E47F017E340014591300021B38207F14A4
:100BB3007F051200E47F717E0F004E7F161200E462
:100BC3007F0712002C6D117E0440001200E47F6148
:100BD3007E0F004E7E1F004E1200E47F717E0F00D9
:100BE300107E1F00101200E47F071200297F717F1F
:100BF300147F041200E47F017F171200297F717FA5
:100C0300157F051200E47F0712002C7F717E1F0001
:100C1300E37F061200E47F517E1F00DF7F0712008F
:100C2300E47F051200297F417E1F00DB7F0712004E
:100C3300E47F717E340014491300020B38007E1FD9
:100C430000E31200E47F071200297F517E34001471
:100C5300491300020B38007E1F00DF1200E47F718E
:100C63007E1F00DB7F061200E47F071200297F61ED
:100C73007EF4126F7EE43A837F147F071200E47ED2
:100C83000F000C12002C7A1F000C7F157F07120037
:100C9300E47E0F002612002C7A1F00267F167F07A2
:100CA3001200E47E0F002A12002C7A1F002A7EF421
:100CB300CCCD7EE43F4C7F177F041200E47E0F000F
:100CC300D312002C7E0F000C12002C7A1F00D37F4E
:100CD300177F051200E47F0312002C7E0F002612FB
:100CE300002C7F317F177F061200E47E0F00D7129E
:100CF300002C7E0F002A12002C7A1F00D77E1F00C3
:100D03004E1202057E4F00D37F041200E47F717EF2
:100D13001F00527F031200E47F017F171200297F17
:100D2300717E5F00D77E1F00567F051200E47F01AE
:100D33007F171200297EF4126F7EE43B837F071234
:100D430000E47E0F001012002C7A1F00107E1F009B
:100D5300527F051200E47F617E1F00107F041200A2
:100D6300E47F0612002C7F617E1F00567F03120072
:100D7300E47F017F161200297F071200E47E0F0033
:100D83004E12002C7A1F004E7F051200E47F617E15
:100D93001F00107F031200E47F061200297F617E8B
:100DA3001F00567F041200E47F0612002C7F0712F7
:100DB30000E47E0F005212002C7A1F00527E1F00A7
:100DC3004E7F031200E47F617E1F00107F05120037
:100DD300E47F0612002C7F517E6F00527F167F0442
:100DE3001200E47F017F151200297F071200E47EC1
:100DF3000F005612002C7A1F00567E0F004E7E1FE6
:100E0300004E1200E47F717E0F00107E1F0010124F
:100E130000E47F0712002C7F717F167F061200E427
:100E23007F0712002C7F717E1F00567F011200E4A2
:100E33007F0712002C1202AD7F717E1F00107F0707
:100E43001201847A1F00107E1F004E7F0712018457
:100E53007A1F004E7E1F00527F071201847A1F0003
:100E6300527E1F00567F071201847A1F00567E0FA1
:100E730000567E1F004E1200E47F717E0F00527EEB
:100E83001F00101200E47F071200296D117E044039
:100E9300001200E412033D7E142EE17E044265122B
:100EA30000E47A1D087E0F00567E1F00521200E4F4
:100EB3007F717E0F004E7E1F00101200E47F071229
:100EC300002C6D117E0440001200E412033D7E14D9
:100ED3002EE17E0442651200E47A1F009B7E5F00D0
:100EE3004E7F157F051200E47F717E4F00107F1443
:100EF3007F041200E47F0712002C7F717E6F005283
:100F03007F167F061200E47F017F171200297F31CD
:100F13007E7F00567F177F071200E47F017F131245
:100F23000029CA1B7F147F071200E47F717F157F9E
:100F3300061200E47F0712002C6D117E044000129C
:100F430000E4DA0B12251E7E142EE17E04426512A4
:100F530000E47A1F009FDA3B22CA3B7F307A73009A
:100F6300D47AB300D3E40211697E7300D50A372D16
:100F7300377D267E1BA0BEA0B0500302100EBEA07C
:100F8300F7280302100E7EB300D50A3B2D377D26CA
:100F930029B10001BEB0A140720A3A6D229E180029
:100FA300B07E14005E120ABF7A1F011C0A1B6D007B
:100FB3002E0802AD2F107A1F011C7E1400207E1F05
:100FC300011C120ABF7A1F011C7E0F011C7CB17A1F
:100FD3001300D67C727A2300D77C637A3300D87EE1
:100FE3000800D97E50201222DD7EB300D37E730029
:100FF300D47E0800D91223927EB300D324107AB38F
:1010030000D37EB300D50BB10211697E7300D50AFC
:10101300372D377D267E1B70BE70A150030210CD85
:101023007E7300D50A372D377D267E1B70BE70A3D5
:1010330028030210CD7E7300D50A372D377D26296C
:10104300B10001BEB0A150030210CD7EA300D50AAA
:101053003A2D377D267E1BA00A3A6D229E1800A1E9
:101063007E14005E120ABF7A1F011C0A1B6D009ECC
:101073000800A12F107A1F011C7E1400207E1F017F
:101083001C120ABF7A1F011C7E0F011C7CB17A134C
:1010930000D67C727A2300D77C637A3300D87E082B
:1010A30000D97E50201222DD7EB300D37E7300D49C
:1010B3007E0800D91223927EB300D324107AB300A2
:1010C300D37EB300D50BB10211697E7300D50A3705
:1010D3002D377D267E1B70BE702050030211647E67
:1010E3007300D50A372D377D267E1B70BE707E3880
:1010F300707E7300D50A372D377D267E1B700A3725
:101103006D229E1800207A1F011C74042F1114787D
:10111300FB7A1F011C2E2400032E18CF807A1F0197
:101123001C7E0F011C7CB17A1300D67C727A2300DB
:10113300D77C637A3300D87E0800F97E50101222E0
:10114300DD7EB300D37E7300D47E0800F91223E85A
:101153007EB300D324087AB300D37EB300D50480D2
:10116300057EB300D5047AB300D57E7300D50A3764
:101173002D377D267E1B70BE70002803020F6CDAAC
:101183003B22CAF87EF30119BEF004400302124168
:101193007E37012ABE34000168030212417E340007
:1011A300017A37012A7E342BFB7E2400FF7E1BB09D
:1011B3007E342BFC7E2400FF7E1B707EF42BFD7E91
:1011C300E400FF691700020B7A00120F5C7E342CD7
:1011D300047E2400FF7E1BB07E342C057E2400FF9A
:1011E3007E1B707EF42C067EE400FF691700020B61
:1011F3007A00120F5C7E342C0D7E2400FF7E1BB020
:101203007E342C0E7E2400FF7E1B707EF42C0F7E1A
:10121300E400FF691700020B7A00120F5C7E342C86
:10122300167E2400FF7E1BB07E342C177E2400FF25
:101233007E1B707EF42C187EE400FF02130ABEF0BE
:101243000478197E37012ABE340001780F12264C28
:10125300E47AB301167E340002021332BEF0045066
:10126300030213167E37012ABE34000268030213F9
:10127300167E342C1F7E2400FF7E1BB07E342C2070
:101283007E2400FF7E1B707EF42C217EE400FF6928
:101293001700020B7A00120F5C7E342C287E240088
:1012A300FF7E1BB07E342C297E2400FF7E1B707EC4
:1012B300F42C2A7EE400FF691700020B7A00120F58
:1012C3005C7E342C317E2400FF7E1BB07E342C32B6
:1012D3007E2400FF7E1B707EF42C337EE400FF69C6
:1012E3001700020B7A00120F5C7E342C3A7E240026
:1012F300FF7E1BB07E342C3B7E2400FF7E1B707E62
:10130300F42C3C7EE400FF691700020B7A00120FF5
:101313005C8020BEF005501B7E37012ABE340002DC
:10132300781112264C74067AB301167E3400017AC2
:1013330037012AE47E7301167E142BAF7E0400FF6F
:10134300120F5C7EB30116122AA1DAF822CA797E43
:101353003700474D3368030214FD7E3400017A37AA
:1013630000477E08008712226F7E6300876C777EBA
:101373005300887C467A2700BA7E6300897E330057
:101383008A0A734D737A7700BC7E63008B7E3300C9
:101393008C0AE34DE37AE700BE7E73008D0AF77D86
:1013A3003F7C676C777DF37E73008E0A374D3F7AFF
:1013B3003700497E63008F6C777E3300900AF34DCC
:1013C300F37AF700CD7E6300917E3300920A834D5A
:1013D300837A8700CF7E6300937E3300940A934D14
:1013E300937A9700D17CB41202186DDD7EC4460057
:1013F3007F061201847F51900000793E00021BEAB0
:10140300207D277CBE1202187F061201847A1F00FA
:101413005A7D2E7CB41202187F061201847A1F00B3
:10142300607D2F7CB41202187EC442837F061201B2
:1014330084900004793E00021BEA207D287CB412CC
:1014430002187F061201847F717A1F00667D297C52
:10145300B41202187F061201847A1F007E7ED4FA2A
:10146300397EC43C8E7F061200E47A1F00D77A5F70
:1014730000DB7E1F005A7A1F00DF7E1F00607A1F89
:1014830000E3900004693E00020BEA207F0612008D
:10149300E4CA1B7F177F061200E47F01DA1B120BDD
:1014A3001B7E1D081202507A37004B7E1F009B12D1
:1014B30002507A3700C07403122AA174FC122AA1C5
:1014C3007E5700CD122AA17E3700CD1A56122AA1CB
:1014D3007E5700CF122AA17E3700CF1A56122AA1B7
:1014E3007E5700D1122AA17E3700D11A56122AA1A3
:1014F30074FC122AA17403122AA1DA79227E7301E1
:1015030019A5BF00137EB3011B700DA202E433784B
:10151300077EB30110048016A5BF00177EB3011B1D
:101523007011A202E433B4010A7EB30110147AB33A
:101533000110227EA3011BBEA00178067E140001C8
:1015430080026D11A5BF00067E24000180026D227A
:101553005D216809A202E4337803021654A5BF0093
:101563000FBEA001780AA202E433B4010302166B92
:10157300A5BF01114CAA780DA202E43378077EB30C
:101583000111048014A5BF01154CAA7811A202E42D
:1015930033B4010A7EB30111147AB3011122A5BF3A
:1015A300010EBEA0017809A202E4337803021654A7
:1015B300A5BF010FBEA001780AA202E433B4010360
:1015C30002166BA5BF02114CAA780DA202E4337870
:1015D300077EB30112048014A5BF02154CAA78112B
:1015E300A202E433B4010A7EB30112147AB30112E6
:1015F30022A5BF020DBEA0017808A202E43378023F
:10160300804FA5BF020EBEA0017809A202E433B445
:1016130001028054A5BF03114CAA780DA202E43342
:1016230078077EB30113048014A5BF03154CAA7871
:1016330011A202E433B4010A7EB30113147AB30195
:101643001322A5BF0312BEA001780DA202E43378D2
:10165300077EB30114048015A5BF0315BEA001784E
:1016630010A202E433B401097EB30114147AB30166
:101673001422CA3B7CD67F707CE77CFB9F117A1FC8
:1016830000187408ACBD0A3F2D352E3400087CF7D2
:101693006D117E0442C87F171200E41202507A1FB4
:1016A300001C0A5F9E5400187C7E7E142CF97E0475
:1016B30000FF120F5C6CCC0217A87ED4000A7E7F59
:1016C300001C7F177D1D120AC87A0F00187F177D33
:1016D3001D120AC87A1F001C9EF008BEC0027803C0
:1016E3009EF0087E2F0018BE28000A40030217A6AA
:1016F3007EA003A49016FB73021719021727021783
:101703003502174302175102175F02176D02177B49
:101713000217890217977CBF7C7E7E142CF77E0408
:1017230000FF807C7CBF7C7E7E142CF57E0400FF52
:10173300806E7CBF7C7E7E142CF37E0400FF806071
:101743007CBF7C7E7E142CF17E0400FF80527CBF24
:101753007C7E7E142CEF7E0400FF80447CBF7C7E65
:101763007E142CED7E0400FF80367CBF7C7E7E14CD
:101773002CEB7E0400FF80287CBF7C7E7E142CE94A
:101783007E0400FF801A7CBF7C7E7E142CE77E04DF
:1017930000FF800C7CBF7C7E7E142CE57E0400FF62
:1017A300120F5C0BC0BCDC28030216BDDA3B226CB3
:1017B30077A286E433B401057E601080026C66A2D2
:1017C30085E433B401054E600880035E60F7A287A9
:1017D300E433B401054E600480035E60FBA2CBE4F6
:1017E30033B401054E600280035E60FDA2CAE43398
:1017F300B401054E600180035E60FE7CB6BEB0207E
:1018030040030218987EA003A49018107302189046
:1018130002188402187602188B02187002189802B4
:10182300187D021898021874021898021898021862
:1018330098021878021898021898021898021882C9
:101843000218980218980218980218980218980219
:101853001898021898021886021898021898021805
:10186300980218980218980218980218956C7780B5
:1018730024800280057E7001801B7E70FF801680AD
:101883000280057E7002800D7E70FE80087E7003EC
:1018930080037E70FD7CB7227E37005E4D33680384
:1018A3000219737E3400017A37005E7E7300821A58
:1018B300377A3700F97E08002E7E342CB67E24005A
:1018C300FF12028DE46C777E08002E120F5C7E37C8
:1018D30001227A3700F97E3701207A3700F77E0834
:1018E300002E7E342CAA7E2400FF12028DE47E702B
:1018F300027E08002E120F5C7E3700B27A3700F9A1
:101903007E08002E7E342C9F7E2400FF12028DE47D
:101913007E70047E08002E120F5C7E1F009F120251
:10192300507A3700F97E08002E7E342C967E2400F0
:10193300FF12028DE47E70077E08002E121BB27E1A
:101943001F00A61202507A3700F97E1F00AE120262
:10195300507A3700F77E08002E7E342C8A7E2400CE
:10196300FF12028D74327E70077E08002E021BB2B6
:10197300227E3700644D336803021A3B7E34000134
:101983007A3700641217B27AB30082BEB002180924
:101993007E730082BE70FE581F7EB30082B4FD07C3
:1019A300E47AB30023801F7EB30082B403187E73EE
:1019B300004D7A730082800E74017AB300237E7324
:1019C30000827A73004D7E4300827CB412021D7F35
:1019D300617E0F00A61200E41202507DF37A3700F5
:1019E300247E0F00AA7F161200E41202507A3700F9
:1019F300217E4300A57CB412021D7E0F00AE1200AF
:101A0300E41202507A3700CB7D3F2E3700B29E3767
:101A130000CB7A3701227E2700B29E2700242E278F
:101A230000CB7A2701201228B57E7300827A7300D7
:101A3300A57EB3002302256322D296D2937E34007F
:101A4300C812296074AE6C7712276774026C771220
:101A5300276774106C7712276774406C77122767B7
:101A630074B06C7712276774816C7712276774CF11
:101A73006C7712276774A16C7712276774A66C774B
:101A830012276774A86C77122767743F6C77122745
:101A93006774AD6C77122767748B6C771227677442
:101AA300336C7712276774C86C7712276774D36C0B
:101AB30077122767E46C7712276774D56C77122740
:101AC3006774806C7712276774D96C7712276774F1
:101AD3001F6C7712276774DA6C7712276774126C9E
:101AE3007712276774DB6C7712276774406C771261
:101AF300276712264C74AF6C77022767CA69CAF846
:101B03007EB3011714680C046803021BAD12118520
:101B1300021BAD7E342BFA7E2400FF7E1B700A2746
:101B23007E64000A8D267EF301190A3FBD32780ACE
:101B33007E342C017E2400FF805B7E342C037E24C4
:101B430000FF7E1B700A278D260A3FBD32780A7E6E
:101B5300342C0A7E2400FF803C7E342C0C7E24002F
:101B6300FF7E1B700A278D260A3FBD32780A7E341A
:101B73002C137E2400FF801D7E342C157E2400FF51
:101B83007E1B700A278D260A3FBD32780D7E342CCA
:101B93001C7E2400FF0B1A309934E47E7301187EF7
:101BA300142BAF7E0400FF120F5CDAF8DA6922CA45
:101BB3003B7F307A7300D47AB300D3E4807E7E73A4
:101BC30000D50A372D377D267E1B70BE70204067F7
:101BD300BE707E38620A376D229E1800207A1F017C
:101BE3001C2F112F112F117A1F011C2E2400032EDD
:101BF30018BFC07A1F011C7E0F011C7CB17A130031
:101C0300D67C727A2300D77C637A3300D87E0800AF
:101C1300D97E50081222DD7EB300D37E7300D47EBA
:101C23000800D912273B7EB300D324067AB300D32E
:101C33007EB300D50480057EB300D5047AB300D506
:101C43007E7300D50A372D377D267E1B70BE70004C
:101C53002803021BC1DA3B227E342C797E2400FF49
:101C63007E1BB07E342C7A7E2400FF7E1B707EF4B4
:101C73002C7B7EE400FF691700020B7A00120F5CD5
:101C83007458CAB86C77CA787E430113E412021DF4
:101C93007E14D70A7E043C231200E47F017E600495
:101CA300DA78DAB81216757E342C827E2400FF7E31
:101CB3001BB07E342C837E2400FF7E1B707EF42CAD
:101CC300847EE400FF691700020B7A00120F5C7434
:101CD30039CAB87E7002CA787E430114E412021D29
:101CE3007E14D70A7E043C231200E47F017E600445
:101CF300DA78DAB80216757E342C557E2400FF7E1E
:101D03001BB07E342C567E2400FF7E1B707EF42C89
:101D1300577EE400FF691700020B7A00120F5C7410
:101D23004BCAB86C77CA787E430111E412021D7E58
:101D330014D70A7E043C231200E47F017E6004DA98
:101D430078DAB81216757E342C5E7E2400FF7E1B73
:101D5300B07E342C5F7E2400FF7E1B707EF42C60EB
:101D63007EE400FF691700020B7A00120F5C7439DE
:101D7300CAB87E7002CA787E430114E412021D7E43
:101D830014D70A7E043C231200E47F017E6004DA48
:101D930078DAB80216757E342C437E2400FF7E1B4E
:101DA300B07E342C447E2400FF7E1B707EF42C45D1
:101DB3007EE400FF691700020B7A00120F5C74398E
:101DC300CAB86C77CA787E430110E412021D7E14F0
:101DD300D70A7E043C231200E47F017E6004DA7894
:101DE300DAB81216757E342C4C7E2400FF7E1BB0AD
:101DF3007E342C4D7E2400FF7E1B707EF42C4E7EA1
:101E0300E400FF691700020B7A00120F5C7439CAF1
:101E1300B87E7002CA787E430114E412021D7E1458
:101E2300D70A7E043C231200E47F017E6004DA7843
:101E3300DAB80216757E342C677E2400FF7E1BB051
:101E43007E342C687E2400FF7E1B707EF42C697E1A
:101E5300E400FF691700020B7A00120F5C744BCA8F
:101E6300B86C77CA787E430112E412021D7E14D740
:101E73000A7E043C231200E47F017E6004DA78DAF0
:101E8300B81216757E342C707E2400FF7E1BB07E44
:101E9300342C717E2400FF7E1B707EF42C727EE452
:101EA30000FF691700020B7A00120F5C7439CAB87D
:101EB3007E7002CA787E430114E412021D7E14D799
:101EC3000A7E043C231200E47F017E6004DA78DAA0
:101ED300B8021675A203E433B401028003021F683B
:101EE300A2B4E433B401377E37010EBE3407D050B9
:101EF3002D6D337A37010E12264CC2037EB3011ABD
:101F0300BEB002500304800274017AB3011AB40212
:101F130004D2018002C20174017AB3011722A2B470
:101F2300E433B401297E37010EBE340FA0281F6DA0
:101F3300337A37010E12264CC203C201E47AB3018D
:101F43001A7AB301177AB301187AB3011B22A2B428
:101F5300E433B401107E37010EBE3407D028066D7A
:101F6300337A37010E22740A7E34FEB27E24007E59
:101F73007A1BB0E47E34FED07A1BB074EF7E34FE5D
:101F8300D17A1BB0E47E34FECC7A1BB074607E142D
:101F9300FEC87E04007E7A0BB07E14FEC97A0BB0B5
:101FA30074117A1BB074037E34FED57A1BB074E8C7
:101FB3007E34FED67A1BB074037E34FED77A1BB010
:101FC30074E87E34FED87A1BB074037E34FED27A72
:101FD3001BB074E87E34FED37A1BB074057E34FEE6
:101FE300B17A1BB074807E34FEDD7A1BB074017E3F
:101FF30034FEC07A1BB022CA39C0D17E37005E0BD3
:10200300347A37005EBE34006478066D337A370065
:102013005E7E3700640B347A370064BE34000A787E
:10202300066D337A3700647E3700470B347A370006
:1020330047BE34003278066D337A3700477E370067
:10204300950B347A370095BE34006478066D337A85
:102053003700957E3700C90B347A3700C9BE341375
:1020630088400BA2ECB392EC6D337A3700C97E370C
:10207300012CBE34000028061B347A37012CD0D142
:10208300DA39327E3700954D3378747E3400017A25
:102093003700951226837AB300A47CAB6EA300C8E5
:1020A3005EA300A47AA300A37AB300C87EB300A3FF
:1020B3001BB16819146828146834240378417E1FFF
:1020C30000A66D117E043F8012002C800D7E1F0040
:1020D300A66D117E043F801200297A1F00A6227E7E
:1020E3001F00AE6D117E043F8012002C800D7E1FF9
:1020F30000AE6D117E043F801200297A1F00AE22CC
:102103007584017E44041FE47A49B01B4478F97E48
:10211300F8012EC200C201C202C203C2047E04003F
:10212300FF7E142AC20B0A405D44681A692000022C
:102133000B0E0B44800A7E0BB07A29B00B240B0CD8
:102143001B4478F280DF7E0400FF7E142CC10B0A4F
:10215300405D446822295000020A25693000032E9D
:102163000800050B44800A7E0BB07A1BB00B1C0BD6
:102173000C1B4478F280D7022338A201E433786E33
:102183007EA301174CAA78187EB30116BEB0004097
:102193002ABEB00438250A3B0B357A730116801B1F
:1021A300BEA00178167EB30118BEB000400DBEB0CC
:1021B3000250080A3B0B357A730118BEA00168135D
:1021C3007EB30119BEB000400ABEB0063805047ADA
:1021D300B30119BEA00178137EB3011BBEB000404A
:1021E3000ABEB0013805047AB3011B022615C202E8
:1021F300021500A201E433786E7EA301174CAA787E
:10220300187EB30116BEB006382ABEB00240250AB6
:102213003B1B357A730116801BBEA00178167EB373
:102223000118BEB004500DBEB00240080A3B1B3576
:102233007A730118BEA00168137EB30119BEB00002
:10224300280ABEB0073805147AB30119BEA0017875
:10225300137EB3011BBEB000400ABEB001380514A3
:102263007AB3011B022615D202021500CA3B7F3046
:1022730012294674D012282F743B12282F12294694
:1022830074D112282FE47AB300D31228097EA30055
:10229300D30A3A2D377D267A1BB0C2B7D2B6122A9B
:1022A30083C2B6122A837EB300D3047AB300D37EEB
:1022B3007300D3BE700D40D21228097EA300D30A47
:1022C3003A2D377D267A1BB0D2B7D2B6122A83C2F3
:1022D300B6122A83122A5ADA3B22CA3B7A53010CDA
:1022E3007F307A63010B7A73010A7AB30109C293CF
:1022F300740312292B7EB3010912292B7EB3010A21
:1023030012292B7EB3010B12292BE4801512000333
:102313007EA3010D0A3A2D377D267A1BB07EB301C9
:102323000D047AB3010D7E73010CBE73010D38DD0C
:10233300D293DA3B221225DB121A3CE41228D5E4AD
:1023430012270F12264C122A12122977A9C6A2A904
:10235300C7A2A9D4FF1225A0122ABC7E3400C87AD2
:102363003700B26D337E2442C87A1F00A69F117ACC
:102373001F00AA7E34126F7E243A837A1F00AEC2F6
:10238300EC12197412189B12135012208680F2CA91
:102393003B7F307A73010A7AB30109E47AB3010C03
:1023A3007EB301097E73010A122792E47AB3010B0B
:1023B3007E3BB07E70011227670B747EB3010B0462
:1023C3007AB3010BB410E97EB3010A047AB3010AAC
:1023D3007EB3010C047AB3010C7E73010CBE700250
:1023E30040BEDA3B22CA3B7F307A73010A7AB301DB
:1023F30009E47AB3010C7EB301097E73010A122743
:1024030092E47AB3010B7E3BB07E70011227670B17
:10241300747EB3010B047AB3010BB408E97EB301F4
:102423000A047AB3010A7EB3010C047AB3010C7E69
:1024330073010CBE700240BEDA3B22CAF8A2B2E4BA
:10244300337808A2B3E4337802D200A200E433B4B1
:102453000135A2B330B201B35008A2B2E4337AB368
:102463000115A2B2E433B4011EA2B3E433B40117DD
:10247300C2007EF30115BEF001780512217D8007AD
:102483004CFF78031221F6DAF822A2B2E433B40146
:1024930009A2B3E433B40102D204A204E433B401C5
:1024A30031A2B330B201B35008A2B3E4337AB3011B
:1024B30015A2B2E433781BA2B3E4337815C2047EC9
:1024C300B30115B4010312217D7EB301157003120C
:1024D30021F602243ECA3B7F30E47AB301297AB362
:1024E3000128E47E730128122792E47AB301297E3E
:1024F3003BB07E70011227670B747EB30129047A07
:10250300B30129B480E97EB30128047AB301287E9C
:10251300730128BE700840CADA3B22CA0B691FFF49
:10252300FF690FFFFD1201841208507F717F1F2E78
:1025330034FFFD7E1BB030E7229F007F171203AEEE
:10254300380A7E140FDB7E04404980087E140FDBBB
:102553007E04C0497F1712002C7F717F171BFE2258
:102563007C7BA5BF000A6D337A3701207A370122BD
:102573007E1701201A027E34FED57E24007E7A1B4C
:10258300107E34FED67A1B307E1701221A027E3467
:10259300FED77A1B107E34FED87A1B3022122A8390
:1025A300122A83122A83122A83746B7E7080122963
:1025B3000F122894746B6C7712290F74197E7007AD
:1025C30012290F741A7E700412290F741B7E70086F
:1025D30012290F741C02290F75E900A9D7BA75EAED
:1025E30000759300759400759100759200759500C0
:1025F30075960075B10075B20075B30075B40075BA
:10260300C90075CA0075CB0075CC0075E10075E291
:102613000022CA796CEE0A5E2E5400B06C77122742
:102623006774106C7712276774026C771227676CD4
:10263300FFE47E70011227670BF0BEF01078F20BF7
:10264300E0BEE00840D0DA7922CA796CFF0A5F2E37
:102653005400B06C7712276774106C771227677475
:10266300026C771227676CEEE47E70011227670B0A
:10267300E0BEE08078F20BF0BEF00840D0DA7922B9
:102683006CAAA2A4E43378057EA001801FA2C4E44F
:102693003378057EA0028014A2C2E43378057EA0BD
:1026A300038009A2FBE43378037EA0047CBA22CA28
:1026B300F87CFB122A3A746C1226E1122A277CBF9B
:1026C3001226E1122A27122A3A746D1226E1122ADF
:1026D300271227BD7CFB122A697CBFDAF822CA794C
:1026E3007CFB7EE008C2A07405122A777CBF30E72A
:1026F30004D2A28002C2A27405122A77D2A03EF0AD
:10270300122A771BE078DEC2A0DA7922CAF87CFBB2
:102713004CFB780E74C86C7712276774A16C771220
:102723002767BEF001780E74C06C7712276774A018
:102733006C77122767DAF822CA3B7F30122792E4BC
:102743007AB300E17E3BB07E70011227670B747E83
:10275300B300E1047AB300E17E7300E1BE7006408A
:10276300E3DA3B227C6B4C776804D2958002C295F6
:10277300C2967E7008C2C77CB630E704D29480024A
:10278300C294D2C73E601B7078EBD296D29522CA10
:10279300F87CFB0BF10A572E5400B06C77122767B5
:1027A3007CBF54F0C4540F44106C771227677CBF6E
:1027B300540F6C77122767DAF822CA796CFF7EE030
:1027C30008D2A07405122A773EF030A2034EF0011E
:1027D300C2A07405122A771BE078E67CBFDA79225F
:1027E3007F70A9D6BC0000A935BCFCA9C5BCE5BD5A
:1027F3007C4B6C55E5BE0A3B2D32E5BC0A5B0B54A2
:10280300F5BC1B7A3022CA796CFFD2B76CEE3EF06E
:10281300D2B6122A83A2B7E4334CFBC2B6122A8380
:102823000BE0BEE00840E77CBFDA7922CA797CFB83
:102833006CEE3EF0A2D792B7D2B6122A83C2B6127A
:102843002A830BE0BEE00840E91229D2DA7922E5B7
:10285300BC0A5B0B54F5BCA9D6BC0000A935BCFC73
:10286300A9C5BCE5BD7C4B6C55E5BE0A3B2D3222A8
:10287300E5BC54F04408F5BCA9D6BC0000A935BC9E
:10288300FCA9C5BCE5BD7C4B6C55E5BE0A3B2D32AE
:102893002200007EA0057E70907E60477CB6147C8B
:1028A3006B78F97CB7147C7B78F27CBA147CAB78B8
:1028B300EB22BE3400004806C281D2828004D2815A
:1028C300C282BE2400004805C283D28422D283C2BE
:1028D3008422CAF87CFB4CFB780774A66C7712271A
:1028E30067BEF001780774A76C77122767DAF822BE
:1028F30053BCF0A9D6BC0000A935BCFCA9C5BCE5F6
:10290300BD7C4B6C55E5BE0A3B2D3222CA797CEB6C
:1029130012294674D012282F7CBE12282F7CB7129E
:10292300282F122A5ADA79227C6B7E7008C2C77C60
:10293300B630E704D2948002C2943E60D2C71B70C3
:1029430078EB22122A83122A83D2B7D2B6122A83B1
:10295300122A83C2B7122A83C2B6022A837D138046
:102963000E7E0407087D301B044D3378F81B144D8D
:102973001178EE22759850438E01438E0475D78FDC
:1029830075D6FD438E10D2ACD2AF22C2A0A205925F
:10299300A27405122A77D2A0122A77C2A0D2A20269
:1029A3002A77743F7E34FEA87E24007E7A1BB0759E
:1029B300DE2375BCF0A9D7BC22CA3B7F3080087EDA
:1029C3003BB00B74122AA17E3BB070F3DA3B22D2E8
:1029D300B7122A83D2B6122A83A2B792D7C2B612EB
:1029E3002A83A2D722748D6C7712276774106C77B1
:1029F30012276774AE6C77022767748D6C77122782
:102A03006774146C7712276774AF6C770227675368
:102A13008EBF53890F758B38758DFFC28FD28ED2BF
:102A2300ABD2AF22D2A07405122A77A2A29206C219
:102A3300A0122A77A20622D2A2D2A07405122A7764
:102A4300C2A2122A77C2A0227A37012C7E37012C28
:102A5300BE34000038F622122A83C2B7D2B6122A35
:102A630083D2B7022A83C2A2D2A07405122A77D2D4
:102A7300A2022A777C7B007C671B70A5BE00F7222D
:102A83007EA0077CBA147CAB78F922C0D1309802BF
:102A9300C298D0D132D2A4D2C4D2C2D2FB227AB14C
:102AA300993099FDC29922C281D282C283D28422F3
:102AB300D281C282D283C28422121F69022AAA004F
:102AC3000100230100040026000000000004002A86
:102AD300000000000002004B00000004004E000054
:102AE3000000000400520000000000040056000033
:102AF30000000004005A0000000000040060000011
:102B0300000000040066000000000004007E0000D6
:102B13000000000400830000000000020097000092
:102B23000002009900000004009B00000000000464
:102B3300009F00000000000100A300000100A400AA
:102B4300000200C00000000200C20000000200C436
:102B53000000000200C60000000100C800000200DF
:102B6300C900000004000C00000000000400103F36
:102B730080000000040008000000000004011C00A5
:102B83000000000002012A00010002010E00000003
:102B9300010119000001011A000001011B000002DC
:102BA3000120000000020122000000003E00B2E20A
:102BB300CAD4B7A2C7F23A00B8A9D1F6BDC73A0042
:102BC300B5F7D7F3D3D23A00B9A6C4DC3A00D7AAF3
:102BD300CBD93A00C6E4CBFB00BFD8D6C600B8A910
:102BE300D1F6BDC700BDC7B6C8B5F7BDDA00D7AAD1
:102BF300CBD9B5F7BDDA000A100000FF2BF11D9900
:102C03000B100200FF2BE81CFA0C100400FF2BE151
:102C13001E380D100600FF2BDC1C5B0E100000FF9E
:102C23002BD700000F100200FF2BD7000010100459
:102C330000FF2BD7000011100600FF2BD700001454
:102C43000F0000FF2BD10000150F0200FF2BCB005C
:102C530000160F0000FF2BC30000170F0200FF2B0D
:102C6300CB0000180F0000FF2BBB0000190F020060
:102C7300FF2BCB00001A0F0000FF2BB100001B0F2E
:102C83000200FF2BCB0000703A2534642C643A25F4
:102C93003464005A3A25303264202000626173693B
:102CA300633A2533642000523A2533642C4C253390
:102CB3006420006C696E653A2532642020000004AC
:102CC30001000000000000000401000400000000F7
:102CD300000401000800000000000201000C0000D5
:102CE3000000390038003700360035003400330067
:082CF3003200310030002E0018
:00000001FF
