:100000000220AC6CAA7E7008C2C73EA03097020BDB
:0A001000A0D2C71B7078F17CBA2261
:10001B00021FA3C283D28422022A7802039A6E00A3
:10002B00807CB1337CB033680D0468EF7CB5337CD6
:10003B00B43378037F10220468E17D5092F77D453D
:10004B007D51BF2140067C807F017F1212035D7EB4
:10005B00A1D05CB004780320D5C17CB004780750E4
:10006B0002B2D50203A292D5BE80FF68F67CB89C83
:10007B00B06C00602AB418057C4102037650FB80FB
:10008B00032F00047C9B5E900778F630E4067C43DC
:10009B007D106D0030E3087C437C327C210A0030FC
:1000AB00F5199F10780E2202039F1B8068F92F1100
:1000BB0050020B707CB530E7F1801B2D317CB5A560
:1000CB00397C5B50110B8078030203A21E34135052
:1000DB00034E60801A2B0203765D22680D5D00785B
:1000EB00122D220B4068099F11222D000B0078F96D
:1000FB0002039A12035D5C800B8068082481500711
:10010B002CB0500A0203A22CB0400302039F7C8B3D
:10011B005D1178267CB17CA5BE1080680A5D3378B2
:10012B000DA5BD80057F1002038C6D0080307F0113
:10013B007C5B7CB17CA5AD1280245D337806A5BDBC
:10014B0080F080E1CA887D41AD437CB17CA5AD12C6
:10015B002D1450020B047C5BAD232F01DA88A42DE8
:10016B0005BE008040060B80780480982F007C43EE
:10017B007C507C617C72020376BE24FFFF6806BE56
:10018B0004FFFF780302039A12035D5CB00468F569
:10019B007CB8A54868EF7CB870039F1122A5B80006
:1001AB00030203A22E008150079C80380702039F95
:1001BB009C8050ED0A51C2E74D51780302038C7EAF
:1001CB005400807E901A6C0080061B9068142F11CF
:1001DB00BF1040049F104CAB0330E7EECAA86CAACB
:1001EB0080E8DA39DA587C4ABE5080500A1B8068A6
:1001FB00BC2F1150020B700203765D226809BE24DE
:10020B00FFFF68036E4080227EA020800C7EA01032
:10021B0080057EA0086C556D333392D5500A6E3431
:10022B00FFFF6E24FFFF0B1CA5EC3340062F11D5EF
:10023B00F0F6227CBA247EA2D5137C767C65A5CC05
:10024B0092E77C5B227CB5337CB43392D54E5080E5
:10025B00248140039F11227C457C567C676C77245C
:10026B00E0500E7E1CFFFF221E341E2450034E60F6
:10027B00800478F430D50A6E34FFFF6E24FFFF0B39
:10028B001C227F707F517EC400007ED400FB7E94C5
:10029B0002A00204214005E47A7BB0227A7BB00BEA
:1002AB007C227CB5A2E7D2E77C1B7CB43340096887
:1002BB000DB4FF0BA5BDFF0302039A0203A2227C20
:1002CB000B2481C2E0F582F4042CB07C2BC3137C8D
:1002DB004B7CB592E77C5B7F417CB6A2E77CB1A5FA
:1002EB00BA7F02C313340094007C2B7EA091A47CB4
:1002FB00BA13F494FEACB2337CBA33248CD3137C94
:10030B005BE492E77C6B6C777E403F7583027F5199
:10031B007F017F141201847F0512002C9E24008024
:10032B00D583EB7E01826C110E041E042D205E40E2
:10033B007F227F617F011200E46E40806D117E048D
:10034B003F8012002C1202AD7F017F161201840236
:10035B0008502D0092D50E104E10807D422D44502A
:10036B0002B2D54E50806C447CB8222C4450120BF8
:10037B001C7E40005E507FBE18000078040B806826
:10038B0016A2D57CB8137C4B7CB592E77C5B227EA6
:10039B001CFFFF229F11227E24FF8020D5026C457B
:1003AB006D332274F86CAA6E40806E0080BEB0FF75
:1003BB0068277C837C975C3B5C7BBF10682AF4408E
:1003CB000D7C382D15F45C3B500F0B04800B7C79A6
:1003DB002D35F45C7B50020B24BF10680B7CB020D6
:1003EB00E7067CB420E701B322540F2490D43440A9
:1003FB00D430F30CBEB0414007BEB05B500224209A
:10040B004CCC68021BC00B84D389944CCC680B7406
:10041B002012040B80F5CA3B6D889F337CAE7E5B4C
:10042B00B00B5C7007C37D38DA3B8994B42569C285
:10043B00F37E5BB00B5CA5F824D0BEB00A501B7EDC
:10044B00500A20F60DAC5CA52D7CCB70034EF00151
:10045B0080DDAC5DA52D7CDB80D524CFBEB01AA58D
:10046B00E850055E00DFD2F39007F6A3E49360112A
:10047B00BCB078F77417934CAB30F6B34EF080806A
:10048B00AEA3E4936010BCB078F77416937C3B7406
:10049B0023937C2B89147CB08013742012040B20C3
:1004AB00F205BEC00250F31B6D29B6000112040BFE
:1004BB000204161B6E691600020B6A00BE080000D0
:1004CB0078087E0400FF7E142AAC20F21E4CCC6808
:1004DB001A7F10E47E1B804C8868070B1C04BCBD84
:1004EB0078F2C2F6CA0B1205F5DA0B7E0BB060C0C0
:1004FB00CA0B12040BDA0B0B0C4CDD68EE1BD0781D
:10050B00EA80ADD2F07E101080037E10085EB05FE3
:10051B00800AD2F67E100A80057E100AC2F66D1193
:10052B009F117E00201B6C7E6B7030F6021A3720F9
:10053B00F1051B6C7E6B6030F6041A261A2430F022
:10054B00051B6D0B6A20A5EC3382F692F6500A7CE4
:10055B00EA9F229F217F127CAE4C44780F7C457C16
:10056B00567C676C772E00F878EF80122F117CB3D6
:10057B00337C3B9CB140047C3B0B70A5D8EE7CB22A
:10058B0030E005DAB8C44C3BCA380B207E00207E25
:10059B003000BE18000078C1BE1008780730F40494
:1005AB00C2F480B5CA287CB2BCBD38027CBD120532
:1005BB00F5DA28BC2D500A1BD0E4CA281203F480AC
:1005CB00F07CB213DAB84004C4CAB8C4CA28BEF06F
:1005DB008040095CDD7805A5DA0260065EF07F12CB
:1005EB0003F4DA28A5DADA020416BEF001680F303C
:1005FB00F402240220F50620F70330F6010420F262
:10060B0029BCBC5025CAB87CBF13B0E6742050116E
:10061B0074307C8A5E80F068081206355EA00F800D
:10062B000312040BDAB8BCBC78DB30F40F74301255
:10063B00040B745830F302747812040B30F6057403
:10064B002D02040B742B20F5F8742020F7F3221BDA
:10065B006C7E6BB010F1021B6C20F60B30E704F4D0
:10066B0004D2F27CCB800520E7057CDB02043A5EEA
:10067B00F07F80F81B6E691600020B6A0030F007E2
:10068B006D221B0A200B0D1B0A80020425E46C2231
:10069B00BE3007500B7F1F2D312E34FFF77E39B044
:1006AB00227CBF20E7A8742E4EF08002040B1207A9
:1006BB00DF403D7CBD7003047CDB1209E87C3D4CC4
:1006CB003368101B307CBE20E40912069870044C72
:1006DB003378F07CBD7CD3BEA0FD481CBCAB581856
:1006EB00E49CBA2CB31801E47CDB0207801207DF11
:1006FB00406E7CBD041209E87AFBA07CAE7CBDA2E7
:10070B00F492F0C2F4400260010424051205F57E58
:10071B0030FF0B30120698CA381203F420F0044C49
:10072B00DD68031206ACDA38BC3D78E6740E1203B2
:10073B00F4742B7EFBA030F707742D6EA0FF0BA07B
:10074B007AFBA012040B7EA00A7EFBB0847AFBA07E
:10075B001203F47EFBB01203F49EF8000802041699
:10076B00D2F27ED0000204D51207DF40F37CBA2C04
:10077B00BD041209E87AFBA07CBA7CAE30E701E439
:10078B000420F4044CDD6805D2F0C2F4042CBD1235
:10079B0005F56C337EFBB0601B20E712147AFBB0BF
:1007AB00120698CA381203F4DA380B3080E6047A52
:1007BB00FBB01B30120698CA381203F44CDD6807E5
:1007CB001206AC1BD080E19EF8000930F003120634
:1007DB00AC0204167CEA7CAF10F7037ED0067CFAE1
:1007EB001B6E693600020B6A200209302D2B204C40
:1007FB004248232E0053584F44494355502A4E46E6
:10080B004547000420800102001040BE10151D1D3D
:10081B00AA240E5A7F73F8B90405050505040505CE
:10082B000606070606BE1249253E4CCCCDBEAAAA2B
:10083B00AB3F8000003E7ADBB03EED63383F24BC1B
:10084B007D3F490FDB7DC25E407FBE247F80401021
:10085B00680302039A7E340FDB7E243FC90209141E
:10086B005EC480007D522D55BEA07F40137804944A
:10087B0020400D7F017E243F806D331201840BC419
:10088B007CB5337CB433248430E7046DDD803E04C7
:10089B007CAB7CB5D2E754F0C333D5F0FC540734B2
:1008AB000023230ADB7F417F017C4BE412021D1BDB
:1008BB00417F711200E47E043F806D1112002C7F8A
:1008CB00077F717F141200297F071201847F717ECD
:1008DB009408307E8400FF7403120A2B7F071200EA
:1008EB00E45DDD68147E54083C7E4400FF2D5D0BF7
:1008FB002A006912000212002C7D5C30E00B7E0492
:10090B00BFC97E140FDB12002C5D2268095E407F8D
:10091B005EC480004D2C224E614E002B494E46008A
:10092B002D494E46007D522D557CBE92E67CEB7CCC
:10093B00BA601F0470287CB5C2E77E0400FF600616
:10094B007E140922D3227E14092B40047E1409261F
:10095B00D322DA099F22CA2BCA2BC3CA09220A0A3D
:10096B007E144D10AD109E083AF09E10267CB5C239
:10097B00E77EA0567C9BA46E54FFFF2E54C511AC92
:10098B00A92D15E4A539CAB8CA1B20E70A120A8893
:10099B00DA1B120184800AF404120A88DA1B120093
:1009AB00E4DAA87CB5337CB4334E50806C4424829B
:1009BB002F111478FBDA497407BE400A40099E4098
:1009CB000ACA0201140BA0CA486C442F117F012FD5
:1009DB00112F112F101478EFCA48CA49227F0F200C
:1009EB00E73ABEB007400274070A0B2D109E1400A5
:1009FB00097E19B02EB0FB501F4C116817E47A1901
:100A0B00B01B147E19B0047A19B0B40A0BE47A192E
:100A1B00B0A5D9ED0BA074017A19B0225EE0BF220C
:100A2B00CAB87F011200E4DAB87F510B4A2069344F
:100A3B0000020B4E7F05CAB81200E40B4A00691482
:100A4B0000020B4E12002CDAB81478E8223F80001B
:100A5B00004120000042C80000447A0000461C40C0
:100A6B000047C35000497424004B1896804CBEBC01
:100A7B00205A0E1BCA6753C21C749DC5AE7C7B608B
:100A8B0006540768162323120AAD7CB75438680A3C
:100A9B007F10120AAA1200E47F01227CB75438039C
:100AAB00241C6CAA2E540A587E4400FF0B2A0069A2
:100ABB00120002227D02AD31AD102D21226D00748A
:100ACB00104D00780B4D2278278D317D126D22222F
:100ADB007D437D326D222F112D445002A50FBF1087
:100AEB0040049F100B901478ED7F016D227D342212
:100AFB007D417D138D247D022F004004BD044004F5
:100B0B009D040B141478F17D237D317D106D002233
:100B1B00CA3B7F307A1F00D37E1F00DF7F0112009C
:100B2B00E47F717E1F00DB7F011200E47F07120060
:100B3B002C7F717E1F00E37F011200E47F07120000
:100B4B002C1202AD7F717E1F00DB7F071201847AAE
:100B5B001F00DB7E1F00DF7F071201847A1F00DF7F
:100B6B007E1F00E37F071201847A1F00E37E4F0094
:100B7B00527E6F00107F167F041200E47F717E5F40
:100B8B0000567E1F004E7F051200E47F07120029DE
:100B9B006D117E0440001200E47F017E3400145975
:100BAB001300021B38207F147F051200E47F717E37
:100BBB000F004E7F161200E47F0712002C6D117E82
:100BCB000440001200E47F617E0F004E7E1F004E3A
:100BDB001200E47F717E0F00107E1F00101200E4E4
:100BEB007F071200297F717F147F041200E47F01BD
:100BFB007F171200297F717F157F051200E47F0795
:100C0B0012002C7F717E1F00E37F061200E47F51E0
:100C1B007E1F00DF7F071200E47F051200297F4152
:100C2B007E1F00DB7F071200E47F717E34001449C6
:100C3B001300020B38007E1F00E31200E47F071243
:100C4B0000297F517E340014491300020B38007EBB
:100C5B001F00DF1200E47F717E1F00DB7F06120096
:100C6B00E47F071200297F617EF4126F7EE43A83E2
:100C7B007F147F071200E47E0F000C12002C7A1FEA
:100C8B00000C7F157F071200E47E0F002612002C4C
:100C9B007A1F00267F167F071200E47E0F002A12B0
:100CAB00002C7A1F002A7EF4CCCD7EE43F4C7F17BC
:100CBB007F041200E47E0F00D312002C7E0F000C79
:100CCB0012002C7A1F00D37F177F051200E47F03DD
:100CDB0012002C7E0F002612002C7F317F177F060F
:100CEB001200E47E0F00D712002C7E0F002A120098
:100CFB002C7A1F00D77E1F004E1202057E4F00D3A9
:100D0B007F041200E47F717E1F00527F031200E408
:100D1B007F017F171200297F717E5F00D77E1F0036
:100D2B00567F051200E47F017F171200297EF41213
:100D3B006F7EE43B837F071200E47E0F00101200EE
:100D4B002C7A1F00107E1F00527F051200E47F617A
:100D5B007E1F00107F041200E47F0612002C7F61BF
:100D6B007E1F00567F031200E47F017F16120029BD
:100D7B007F071200E47E0F004E12002C7A1F004EEC
:100D8B007F051200E47F617E1F00107F031200E4D9
:100D9B007F061200297F617E1F00567F041200E43C
:100DAB007F0612002C7F071200E47E0F0052120008
:100DBB002C7A1F00527E1F004E7F031200E47F61CE
:100DCB007E1F00107F051200E47F0612002C7F515E
:100DDB007E6F00527F167F041200E47F017F151295
:100DEB0000297F071200E47E0F005612002C7A1F99
:100DFB0000567E0F004E7E1F004E1200E47F717E68
:100E0B000F00107E1F00101200E47F0712002C7FD2
:100E1B00717F167F061200E47F0712002C7F717E14
:100E2B001F00567F011200E47F0712002C1202AD47
:100E3B007F717E1F00107F071201847A1F00107EC6
:100E4B001F004E7F071201847A1F004E7E1F005237
:100E5B007F071201847A1F00527E1F00567F0712F4
:100E6B0001847A1F00567E0F00567E1F004E120023
:100E7B00E47F717E0F00527E1F00101200E47F078B
:100E8B001200296D117E0440001200E412033D7E16
:100E9B00142EE17E0442651200E47A1D087E0F00D9
:100EAB00567E1F00521200E47F717E0F004E7E1F94
:100EBB0000101200E47F0712002C6D117E0440001D
:100ECB001200E412033D7E142EE17E0442651200F3
:100EDB00E47A1F009B7E5F004E7F157F051200E4B6
:100EEB007F717E4F00107F147F041200E47F071286
:100EFB00002C7F717E6F00527F167F061200E47FFD
:100F0B00017F171200297F317E7F00567F177F07E5
:100F1B001200E47F017F13120029CA1B7F147F0785
:100F2B001200E47F717F157F061200E47F07120029
:100F3B002C6D117E0440001200E4DA0B1225187E92
:100F4B00142EE17E0442651200E47A1F009FDA3B07
:100F5B0022CA3B7F307A7300D47AB300D3E40211F8
:100F6B00697E7300D50A372D377D267E1BA0BEA068
:100F7B00B0500302100EBEA0F7280302100E7EB372
:100F8B0000D50A3B2D377D2629B10001BEB0A1400B
:100F9B00720A3A6D229E1800B07E14005E120ABFD0
:100FAB007A1F011C0A1B6D002E0802AD2F107A1F31
:100FBB00011C7E1400207E1F011C120ABF7A1F0128
:100FCB001C7E0F011C7CB17A1300D67C727A230035
:100FDB00D77C637A3300D87E0800D97E502012224A
:100FEB00867EB300D37E7300D47E0800D912233AD9
:100FFB007EB300D324107AB300D37EB300D50BB1EC
:10100B000211697E7300D50A372D377D267E1B7042
:10101B00BE70A150030210CD7E7300D50A372D3759
:10102B007D267E1B70BE70A328030210CD7E73003D
:10103B00D50A372D377D2629B10001BEB0A150034B
:10104B000210CD7EA300D50A3A2D377D267E1BA03C
:10105B000A3A6D229E1800A17E14005E120ABF7A16
:10106B001F011C0A1B6D009E0800A12F107A1F0187
:10107B001C7E1400207E1F011C120ABF7A1F011C4C
:10108B007E0F011C7CB17A1300D67C727A2300D7B9
:10109B007C637A3300D87E0800D97E5020122286DA
:1010AB007EB300D37E7300D47E0800D912233A7E20
:1010BB00B300D324107AB300D37EB300D50BB102A7
:1010CB0011697E7300D50A372D377D267E1B70BEC6
:1010DB00702050030211647E7300D50A372D377DC3
:1010EB00267E1B70BE707E38707E7300D50A372D3E
:1010FB00377D267E1B700A376D229E1800207A1FC3
:10110B00011C74042F111478FB7A1F011C2E240070
:10111B00032E18CF807A1F011C7E0F011C7CB17A25
:10112B001300D67C727A2300D77C637A3300D87E87
:10113B000800F97E50101222867EB300D37E730016
:10114B00D47E0800F91223907EB300D324087AB31F
:10115B0000D37EB300D50480057EB300D5047AB3EB
:10116B0000D57E7300D50A372D377D267E1B70BECA
:10117B0070002803020F6CDA3B22CAF87EF30119C8
:10118B00BEF00440030212417E37012ABE34000137
:10119B0068030212417E3400017A37012A7E342B18
:1011AB00E97E2400FF7E1BB07E342BEA7E2400FFF9
:1011BB007E1B707EF42BEB7EE400FF691700020BA5
:1011CB007A00120F5C7E342BF27E2400FF7E1BB064
:1011DB007E342BF37E2400FF7E1B707EF42BF47E7B
:1011EB00E400FF691700020B7A00120F5C7E342BB0
:1011FB00FB7E2400FF7E1BB07E342BFC7E2400FF85
:10120B007E1B707EF42BFD7EE400FF691700020B42
:10121B007A00120F5C7E342C047E2400FF7E1BB000
:10122B007E342C057E2400FF7E1B707EF42C067E04
:10123B00E400FF02130ABEF00478197E37012ABEC0
:10124B00340001780F122609E47AB301167E3400BC
:10125B0002021332BEF00450030213167E37012A2A
:10126B00BE34000268030213167E342C0D7E24005C
:10127B00FF7E1BB07E342C0E7E2400FF7E1B707E07
:10128B00F42C0F7EE400FF691700020B7A00120F9B
:10129B005C7E342C167E2400FF7E1BB07E342C1714
:1012AB007E2400FF7E1B707EF42C187EE400FF6909
:1012BB001700020B7A00120F5C7E342C1F7E240069
:1012CB00FF7E1BB07E342C207E2400FF7E1B707EA5
:1012DB00F42C217EE400FF691700020B7A00120F39
:1012EB005C7E342C287E2400FF7E1BB07E342C29A0
:1012FB007E2400FF7E1B707EF42C2A7EE400FF69A7
:10130B001700020B7A00120F5C8020BEF005501BF9
:10131B007E37012ABE340002781112260974067A30
:10132B00B301167E3400017A37012AE47E7301166D
:10133B007E142B9D7E0400FF120F5C7EB3011612F0
:10134B002A8BDAF8227E730119A5BF00137EB30135
:10135B001B700DA202E43378077EB30110048016D4
:10136B00A5BF00177EB3011B7011A202E433B401B9
:10137B000A7EB30110147AB30110227EA3011BBEA7
:10138B00A00178067E14000180026D11A5BF000636
:10139B007E24000180026D225D216809A202E433E4
:1013AB0078030214A4A5BF000FBEA001780AA20205
:1013BB00E433B401030214BBA5BF01114CAA780D91
:1013CB00A202E43378077EB30111048014A5BF0198
:1013DB00154CAA7811A202E433B4010A7EB30111B1
:1013EB00147AB3011122A5BF010EBEA0017809A288
:1013FB0002E43378030214A4A5BF010FBEA0017849
:10140B000AA202E433B401030214BBA5BF02114CC0
:10141B00AA780DA202E43378077EB301120480147C
:10142B00A5BF02154CAA7811A202E433B4010A7EBF
:10143B00B30112147AB3011222A5BF020DBEA00193
:10144B007808A202E4337802804FA5BF020EBEA03B
:10145B00017809A202E433B401028054A5BF031141
:10146B004CAA780DA202E43378077EB301130480F3
:10147B0014A5BF03154CAA7811A202E433B4010AD8
:10148B007EB30113147AB3011322A5BF0312BEA0BE
:10149B0001780DA202E43378077EB30114048015A2
:1014AB00A5BF0315BEA0017810A202E433B4010955
:1014BB007EB30114147AB3011422CA797E37004724
:1014CB004D33680302162E7E3400017A3700477EB7
:1014DB000800871222187E6300876C777E53008882
:1014EB007C467A2700BA7E6300897E33008A0A73B2
:1014FB004D737A7700BC7E63008B7E33008C0AE3DE
:10150B004DE37AE700BE7E73008D0AF77D3F7C6763
:10151B006C777DF37E73008E0A374D3F7A37004927
:10152B007E63008F6C777E3300900AF34DF37AF76E
:10153B0000CD7E6300917E3300920A834D837A87C0
:10154B0000CF7E6300937E3300940A934D937A977A
:10155B0000D17CB41202186DDD7EC446007F0612EA
:10156B0001847F51900000793E00021BEA207D2709
:10157B007CBE1202187F061201847A1F005A7D2E40
:10158B007CB41202187F061201847A1F00607D2F33
:10159B007CB41202187EC442837F06120184900031
:1015AB0004793E00021BEA207D287CB41202187FCE
:1015BB00061201847F717A1F00667D297CB41202AA
:1015CB00187F061201847A1F007E7ED4FA397EC4FE
:1015DB003C8E7F061200E47A1F00D77A5F00DB7E19
:1015EB001F005A7A1F00DF7E1F00607A1F00E390F6
:1015FB000004693E00020BEA207F061200E4CA1BBE
:10160B007F177F061200E47F01DA1B120B1B7E1D76
:10161B00081202507A37004B7E1F009B1202507A41
:10162B003700C0DA7922CA3B7CD67F707CE77CFB23
:10163B009F117A1F00187408ACBD0A3F2D352E344C
:10164B0000087CF76D117E0442C87F171200E4126C
:10165B0002507A1F001C0A5F9E5400187C7E7E1479
:10166B002CE77E0400FF120F5C6CCC0217647ED457
:10167B00000A7E7F001C7F177D1D120AC87A0F009F
:10168B00187F177D1D120AC87A1F001C9EF008BE1A
:10169B00C00278039EF0087E2F0018BE28000A4077
:1016AB00030217627EA003A49016B7730216D5022D
:1016BB0016E30216F10216FF02170D02171B021793
:1016CB00290217370217450217537CBF7C7E7E1405
:1016DB002CE57E0400FF807C7CBF7C7E7E142CE39B
:1016EB007E0400FF806E7CBF7C7E7E142CE17E042A
:1016FB0000FF80607CBF7C7E7E142CDF7E0400FFAD
:10170B0080527CBF7C7E7E142CDD7E0400FF8044E7
:10171B007CBF7C7E7E142CDB7E0400FF80367CBF7E
:10172B007C7E7E142CD97E0400FF80287CBF7C7EBF
:10173B007E142CD77E0400FF801A7CBF7C7E7E1427
:10174B002CD57E0400FF800C7CBF7C7E7E142CD3BA
:10175B007E0400FF120F5C0BC0BCDC280302167961
:10176B00DA3B226C77A286E433B401057E601080ED
:10177B00026C66A285E433B401054E600880035EFB
:10178B0060F7A287E433B401054E600480035E600A
:10179B00FBA2CBE433B401054E600280035E60FD17
:1017AB00A2CAE433B401054E600180035E60FE7C87
:1017BB00B6BEB02040030218547EA003A49017CCF1
:1017CB007302184C02184002183202184702182CE8
:1017DB000218540218390218540218300218540215
:1017EB0018540218540218340218540218540218D0
:1017FB005402183E0218540218540218540218547A
:10180B0002185402185402185402184202185402B7
:10181B00185402185402185402185402185402187F
:10182B00516C778024800280057E7001801B7E7056
:10183B00FF8016800280057E7002800D7E70FE8018
:10184B00087E700380037E70FD7CB7227E37005EBE
:10185B004D33680302192F7E3400017A37005E7E08
:10186B007300821A377A3700F97E08002E7E342CEB
:10187B00A47E2400FF12028DE46C777E08002E12EA
:10188B000F5C7E3701207A3700F97E3701227A37D9
:10189B0000F77E08002E7E342C987E2400FF120267
:1018AB008DE47E70027E08002E120F5C7E3700B234
:1018BB007A3700F97E08002E7E342C8D7E2400FFB3
:1018CB0012028DE47E70047E08002E120F5C7E1FC8
:1018DB00009F1202507A3700F97E08002E7E342CBE
:1018EB00847E2400FF12028DE47E70077E08002E9A
:1018FB00121B5B7E1F00A61202507A3700F97E1F67
:10190B0000AE1202507A3700F77E08002E7E342C80
:10191B00787E2400FF12028D74327E70077E0800E1
:10192B002E021B5B22D296D2937E3400C812294A18
:10193B0074AE6C7712275174026C771227517410A6
:10194B006C7712275174406C7712275174B06C77F7
:10195B0012275174816C7712275174CF6C77122731
:10196B005174A16C7712275174A66C77122751749E
:10197B00A86C77122751743F6C7712275174AD6C9A
:10198B0077122751748B6C7712275174336C771243
:10199B00275174C86C7712275174D36C7712275167
:1019AB00E46C7712275174D56C7712275174806CC5
:1019BB007712275174D96C77122751741F6C7712D9
:1019CB00275174DA6C7712275174126C77122751E6
:1019DB0074DB6C7712275174406C771227511226E7
:1019EB000974AF6C770227517E3700644D3368035F
:1019FB00021AA77E3400017A37006412176E7AB38D
:101A0B000082BEB00218097E730082BE70FE581FA2
:101A1B007EB30082B4FD07E47AB30023801F7EB34C
:101A2B000082B403187E73004D7A730082800E74AB
:101A3B00017AB300237E7300827A73004D7E4300DC
:101A4B00827CB412021D7F717E0F00A61200E4127D
:101A5B0002507A3700247E0F00AA7F171200E4127F
:101A6B0002507A3700217E4300A57CB412021D7E02
:101A7B000F00AE1200E41202507A3700CB7E340115
:101A8B00F47A3701227E24FE0C7A2701207EB300E4
:101A9B00231222E17E7300827A7300A522CA69CADF
:101AAB00F87EB3011714680C046803021B5612115D
:101ABB0085021B567E342BE87E2400FF7E1B700AAA
:101ACB00277E64000A8D267EF301190A3FBD32780A
:101ADB000A7E342BEF7E2400FF805B7E342BF17E5D
:101AEB002400FF7E1B700A278D260A3FBD32780A21
:101AFB007E342BF87E2400FF803C7E342BFA7E2430
:101B0B0000FF7E1B700A278D260A3FBD32780A7EA6
:101B1B00342C017E2400FF801D7E342C037E240098
:101B2B00FF7E1B700A278D260A3FBD32780D7E344F
:101B3B002C0A7E2400FF0B1A309934E47E730118B3
:101B4B007E142B9D7E0400FF120F5CDAF8DA6922FB
:101B5B00CA3B7F307A7300D47AB300D3E4807E7EA5
:101B6B007300D50A372D377D267E1B70BE70204043
:101B7B0067BE707E38620A376D229E1800207A1F6E
:101B8B00011C2F112F112F117A1F011C2E24000362
:101B9B002E18BFC07A1F011C7E0F011C7CB17A135B
:101BAB0000D67C727A2300D77C637A3300D87E0808
:101BBB0000D97E50081222867EB300D37E7300D4E8
:101BCB007E0800D91227257EB300D324067AB300F2
:101BDB00D37EB300D50480057EB300D5047AB30061
:101BEB00D57E7300D50A372D377D267E1B70BE70D0
:101BFB00002803021B6ADA3B227E342C677E24000A
:101C0B00FF7E1BB07E342C687E2400FF7E1B707E13
:101C1B00F42C697EE400FF691700020B7A00120FA7
:101C2B005C7458CAB86C77CA787E430113E412020D
:101C3B001D7E14D70A7E043C231200E47F017E60D4
:101C4B0004DA78DAB81216317E342C707E2400FF59
:101C5B007E1BB07E342C717E2400FF7E1B707EF4C5
:101C6B002C727EE400FF691700020B7A00120F5CE6
:101C7B007439CAB87E7002CA787E430114E412022A
:101C8B001D7E14D70A7E043C231200E47F017E6084
:101C9B0004DA78DAB80216317E342C437E2400FF46
:101CAB007E1BB07E342C447E2400FF7E1B707EF4A2
:101CBB002C457EE400FF691700020B7A00120F5CC3
:101CCB00744BCAB86C77CA787E430111E412021DBB
:101CDB007E14D70A7E043C231200E47F017E60044D
:101CEB00DA78DAB81216317E342C4C7E2400FF7E63
:101CFB001BB07E342C4D7E2400FF7E1B707EF42C9B
:101D0B004E7EE400FF691700020B7A00120F5C7421
:101D1B0039CAB87E7002CA787E430114E412021DE0
:101D2B007E14D70A7E043C231200E47F017E6004FC
:101D3B00DA78DAB80216317E342C317E2400FF7E3D
:101D4B001BB07E342C327E2400FF7E1B707EF42C65
:101D5B00337EE400FF691700020B7A00120F5C74EC
:101D6B0039CAB86C77CA787E430110E412021D7E23
:101D7B0014D70A7E043C231200E47F017E6004DA50
:101D8B0078DAB81216317E342C3A7E2400FF7E1B93
:101D9B00B07E342C3B7E2400FF7E1B707EF42C3CEB
:101DAB007EE400FF691700020B7A00120F5C743996
:101DBB00CAB87E7002CA787E430114E412021D7EFB
:101DCB0014D70A7E043C231200E47F017E6004DA00
:101DDB0078DAB80216317E342C557E2400FF7E1B38
:101DEB00B07E342C567E2400FF7E1B707EF42C5765
:101DFB007EE400FF691700020B7A00120F5C744B34
:101E0B00CAB86C77CA787E430112E412021D7E14A5
:101E1B00D70A7E043C231200E47F017E6004DA784B
:101E2B00DAB81216317E342C5E7E2400FF7E1BB096
:101E3B007E342C5F7E2400FF7E1B707EF42C607E34
:101E4B00E400FF691700020B7A00120F5C7439CAA9
:101E5B00B87E7002CA787E430114E412021D7E1410
:101E6B00D70A7E043C231200E47F017E6004DA78FB
:101E7B00DAB8021631A203E433B401028003021F65
:101E8B0011A2B4E433B401377E37010EBE3407D050
:101E9B00502D6D337A37010E122609C2037EB30122
:101EAB001ABEB002500304800274017AB3011AB453
:101EBB000204D2018002C20174017AB3011722A27B
:101ECB00B4E433B401297E37010EBE340FA0281FB2
:101EDB006D337A37010E122609C203C201E47AB3BD
:101EEB00011A7AB301177AB301187AB3011B22A234
:101EFB00B4E433B401107E37010EBE3407D028068C
:101F0B006D337A37010E22740A7E34FEB27E2400C2
:101F1B007E7A1BB0E47E34FED07A1BB074EF7E3435
:101F2B00FED17A1BB0E47E34FECC7A1BB074607E9B
:101F3B0014FEC87E04007E7A0BB07E14FEC97A0BA9
:101F4B00B074117A1BB074037E34FED57A1BB07457
:101F5B00E87E34FED67A1BB074037E34FED77A1B30
:101F6B00B074E87E34FED87A1BB074037E34FED294
:101F7B007A1BB074E87E34FED37A1BB074057E34C2
:101F8B00FEB17A1BB074807E34FEDD7A1BB0740117
:101F9B007E34FEC07A1BB022CA39C0D17E37005EB8
:101FAB000B347A37005EBE34006478066D337A37B3
:101FBB00005E7E3700640B347A370064BE34000A4F
:101FCB0078066D337A3700647E3700470B347A37E7
:101FDB000047BE34003278066D337A3700477E37C0
:101FEB0000950B347A370095BE34006478066D3358
:101FFB007A3700957E3700C90B347A3700C9BE3467
:10200B001388400BA2ECB392EC6D337A3700C97E88
:10201B0037012CBE34000028061B347A37012CD034
:10202B00D1DA39327E3700954D3378747E34000126
:10203B007A3700951226407AB300A47CAB6EA300CE
:10204B00C85EA300A47AA300A37AB300C87EB30032
:10205B00A31BB16819146828146834240378417ED3
:10206B001F00A66D117E043F8012002C800D7E1F79
:10207B0000A66D117E043F801200297A1F00A62254
:10208B007E1F00AE6D117E043F8012002C800D7EF2
:10209B001F00AE6D117E043F801200297A1F00AE27
:1020AB00227584017E44041FE47A49B01B4478F9FD
:1020BB007EF8012EC200C201C202C203C2047E041A
:1020CB0000FF7E142AB00B0A405D44681A69200099
:1020DB00020B0E0B44800A7E0BB07A29B00B240B3B
:1020EB000C1B4478F280DF7E0400FF7E142CAF0BB8
:1020FB000A405D446822295000020A25693000031A
:10210B002E0800050B44800A7E0BB07A1BB00B1C0B
:10211B000B0C1B4478F280D70223E6A201E4337840
:10212B006E7EA301174CAA78187EB30116BEB000C1
:10213B00402ABEB00438250A3B0B357A7301168052
:10214B001BBEA00178167EB30118BEB000400DBEB9
:10215B00B00250080A3B0B357A730118BEA0016818
:10216B00137EB30119BEB000400ABEB00638050499
:10217B007AB30119BEA00178137EB3011BBEB00068
:10218B00400ABEB0013805047AB3011B0225D2C246
:10219B0002021350A201E433786E7EA301174CAAFE
:1021AB0078187EB30116BEB006382ABEB0024025A1
:1021BB000A3B1B357A730116801BBEA00178167E75
:1021CB00B30118BEB004500DBEB00240080A3B1B51
:1021DB00357A730118BEA00168137EB30119BEB026
:1021EB0000280ABEB0073805147AB30119BEA00146
:1021FB0078137EB3011BBEB000400ABEB001380598
:10220B00147AB3011B0225D2D202021350CA3B7FB0
:10221B003012293074D0122819743B122819122944
:10222B003074D1122819E47AB300D31227F37EA3AA
:10223B0000D30A3A2D377D267A1BB0C2B7D2B6121D
:10224B002A6DC2B6122A6D7EB300D3047AB300D3C3
:10225B007E7300D3BE700D40D21227F37EA300D342
:10226B000A3A2D377D267A1BB0D2B7D2B6122A6D19
:10227B00C2B6122A6D122A44DA3B22CA3B7A5301A8
:10228B000C7F307A63010B7A73010A7AB30109C2AE
:10229B009374031229157EB301091229157EB3011C
:1022AB000A1229157EB3010B122915E480151200B1
:1022BB00037EA3010D0A3A2D377D267A1BB07EB320
:1022CB00010D047AB3010D7E73010CBE73010D3841
:1022DB00DDD293DA3B22CA3B7D727D63BE64000084
:1022EB00580D7E34FFFFAD367D63122AA780031293
:1022FB002A9DBE740000580D7E34FFFFAD377D73F1
:10230B00122AA2800312001E1A1E7E34FED57E24D2
:10231B00007E7A1B307E34FED67A1BF01A1C7E347C
:10232B00FED77A1B307E34FED87A1BD0DA3B22CA1A
:10233B003B7F307A73010A7AB30109E47AB3010C5B
:10234B007EB301097E73010A12277CE47AB3010B79
:10235B007E3BB07E70011227510B747EB3010B04D0
:10236B007AB3010BB410E97EB3010A047AB3010A04
:10237B007EB3010C047AB3010C7E73010CBE7002A8
:10238B0040BEDA3B22CA3B7F307A73010A7AB30133
:10239B0009E47AB3010C7EB301097E73010A12279B
:1023AB007CE47AB3010B7E3BB07E70011227510B9C
:1023BB00747EB3010B047AB3010BB408E97EB3014D
:1023CB000A047AB3010A7EB3010C047AB3010C7EC2
:1023DB0073010CBE700240BEDA3B22122598121913
:1023EB0030E41228BFE41226F91226091229FC1236
:1023FB002961A9C6A2A9C7A2A9D4FF12255D122AD9
:10240B00946D337A3700B27E2442DC7A1F00A69F8C
:10241B00117A1F00AA7E2441F07A1F00AEC2EC1283
:10242B0019F31218571214C512202F80F2CAF8A2F2
:10243B00B2E4337808A2B3E4337802D200A200E40A
:10244B0033B40135A2B330B201B35008A2B2E433B6
:10245B007AB30115A2B2E433B4011EA2B3E433B4D0
:10246B000117C2007EF30115BEF00178051221267B
:10247B0080074CFF780312219FDAF822A2B2E433D3
:10248B00B40109A2B3E433B40102D204A204E433CD
:10249B00B40131A2B330B201B35008A2B3E4337A22
:1024AB00B30115A2B2E433781BA2B3E4337815C29F
:1024BB00047EB30115B401031221267EB3011570FE
:1024CB000312219F022438CA3B7F30E47AB30129DF
:1024DB007AB30128E47E73012812277CE47AB301D6
:1024EB00297E3BB07E70011227510B747EB30129FC
:1024FB00047AB30129B480E97EB30128047AB301CD
:10250B00287E730128BE700840CADA3B22CA0B69C9
:10251B001FFFFF690FFFFD1201841208507F717FAF
:10252B001F2E34FFFD7E1BB030E7229F007F17125A
:10253B0003AE380A7E140FDB7E04404980087E14FC
:10254B000FDB7E04C0497F1712002C7F717F171B96
:10255B00FE22122A6D122A6D122A6D122A6D746BCD
:10256B007E70801228F912287E746B6C771228F912
:10257B0074197E70071228F9741A7E70041228F9E8
:10258B00741B7E70081228F9741C0228F975E90077
:10259B00A9D7BA75EA00759300759400759100750B
:1025AB00920075950075960075B10075B20075B304
:1025BB000075B40075C90075CA0075CB0075CC00E9
:1025CB0075E10075E20022CA796CEE0A5E2E5400AA
:1025DB00B06C7712275174106C7712275174026C00
:1025EB00771227516CFFE47E70011227510BF0BE5E
:1025FB00F01078F20BE0BEE00840D0DA7922CA790D
:10260B006CFF0A5F2E5400B06C7712275174106C5C
:10261B007712275174026C771227516CEEE47E709F
:10262B00011227510BE0BEE08078F20BF0BEF008F0
:10263B0040D0DA79226CAAA2A4E43378057EA001FB
:10264B00801FA2C4E43378057EA0028014A2C2E4EA
:10265B003378057EA0038009A2FBE43378037EA0C8
:10266B00047CBA22CAF87CFB122A24746C12269EB4
:10267B00122A117CBF12269E122A11122A24746D63
:10268B0012269E122A111227A77CFB122A537CBFFB
:10269B00DAF822CA797CFB7EE008C2A07405122A04
:1026AB00617CBF30E704D2A28002C2A27405122A59
:1026BB0061D2A03EF0122A611BE078DEC2A0DA796B
:1026CB00227E1701201A027E34FED57E24007E7AEC
:1026DB001B107E34FED67A1B307E1701221A027E27
:1026EB0034FED77A1B107E34FED87A1B3022CAF800
:1026FB007CFB4CFB780E74C86C7712275174A16C61
:10270B0077122751BEF001780E74C06C77122751E7
:10271B0074A06C77122751DAF822CA3B7F3012274C
:10272B007CE47AB300E17E3BB07E70011227510B43
:10273B00747EB300E1047AB300E17E7300E1BE70F6
:10274B000640E3DA3B227C6B4C776804D29580021F
:10275B00C295C2967E7008C2C77CB630E704D2948D
:10276B008002C294D2C73E601B7078EBD296D29592
:10277B0022CAF87CFB0BF10A572E5400B06C77126F
:10278B0027517CBF54F0C4540F44106C771227515F
:10279B007CBF540F6C77122751DAF822CA796CFF81
:1027AB007EE008D2A07405122A613EF030A2034EDF
:1027BB00F001C2A07405122A611BE078E67CBFDA37
:1027CB0079227F70A9D6BC0000A935BCFCA9C5BC79
:1027DB00E5BD7C4B6C55E5BE0A3B2D32E5BC0A5B77
:1027EB000B54F5BC1B7A3022CA796CFFD2B76CEE56
:1027FB003EF0D2B6122A6DA2B7E4334CFBC2B6122E
:10280B002A6D0BE0BEE00840E77CBFDA7922CA797B
:10281B007CFB6CEE3EF0A2D792B7D2B6122A6DC2F9
:10282B00B6122A6D0BE0BEE00840E91229BCDA793A
:10283B0022E5BC0A5B0B54F5BCA9D6BC0000A9353C
:10284B00BCFCA9C5BCE5BD7C4B6C55E5BE0A3B2D5C
:10285B003222E5BC54F04408F5BCA9D6BC0000A953
:10286B0035BCFCA9C5BCE5BD7C4B6C55E5BE0A3B34
:10287B002D322200007EA0057E70907E60477CB6D4
:10288B00147C6B78F97CB7147C7B78F27CBA147C63
:10289B00AB78EB22BE3400004806C281D2828004A2
:1028AB00D281C282BE2400004805C283D28422D2C8
:1028BB0083C28422CAF87CFB4CFB780774A66C7726
:1028CB00122751BEF001780774A76C77122751DAE3
:1028DB00F82253BCF0A9D6BC0000A935BCFCA9C595
:1028EB00BCE5BD7C4B6C55E5BE0A3B2D3222CA794B
:1028FB007CEB12293074D01228197CBE1228197C5B
:10290B00B7122819122A44DA79227C6B7E7008C21E
:10291B00C77CB630E704D2948002C2943E60D2C723
:10292B001B7078EB22122A6D122A6DD2B7D2B61217
:10293B002A6D122A6DC2B7122A6DC2B6022A6D7D9C
:10294B0013800E7E0407087D301B044D3378F81B73
:10295B00144D1178EE22759850438E01438E0475F9
:10296B00D78F75D6FD438E10D2ACD2AF22C2A0A2A8
:10297B000592A27405122A61D2A0122A61C2A0D2BA
:10298B00A2022A61743F7E34FEA87E24007E7A1B4D
:10299B00B075DE2375BCF0A9D7BC22CA3B7F308053
:1029AB00087E3BB00B74122A8B7E3BB070F3DA3B84
:1029BB0022D2B7122A6DD2B6122A6DA2B792D7C203
:1029CB00B6122A6DA2D722748D6C77122751741010
:1029DB006C7712275174AE6C77022751748D6C771C
:1029EB0012275174146C7712275174AF6C7702272E
:1029FB0051538EBF53890F758B38758DFFC28FD294
:102A0B008ED2ABD2AF22D2A07405122A61A2A292AF
:102A1B0006C2A0122A61A20622D2A2D2A07405126B
:102A2B002A61C2A2122A61C2A0227A37012C7E37F8
:102A3B00012CBE34000038F622122A6DC2B7D2B672
:102A4B00122A6DD2B7022A6DC2A2D2A07405122A25
:102A5B0061D2A2022A617C7B007C671B70A5BE0041
:102A6B00F7227EA0077CBA147CAB78F922C0D13058
:102A7B009802C298D0D132D2A4D2C4D2C2D2FB22F5
:102A8B007AB1993099FDC29922121F1212001E02BF
:102A9B002A9DC281D28222D283C28422D281C28257
:102AAB002228302900000100230100040026000029
:102ABB0000000004002A000000000002004B000090
:102ACB000004004E00000000000400520000000053
:102ADB0000040056000000000004005A0000000033
:102AEB00000400600000000000040066000000000D
:102AFB000004007E000000000004008300000000C2
:102B0B000002009700000002009900000004009BE7
:102B1B00000000000004009F00000000000100A363
:102B2B0000000100A400000200C00000000200C26F
:102B3B000000000200C40000000200C600000001FB
:102B4B0000C800000200C900000004000C000000D7
:102B5B0000000400103F800000000400080000008B
:102B6B00000004011C000000000002012A0001000B
:102B7B0002010E000000010119000001011A000002
:102B8B0001011B00000201200000000201220000D5
:102B9B0000003E00B2E2CAD4B7A2C7F23A00B8A90D
:102BAB00D1F6BDC73A00B5F7D7F3D3D23A00B9A6E1
:102BBB00C4DC3A00D7AACBD93A00C6E4CBFB00BFA2
:102BCB00D8D6C600B8A9D1F6BDC700BDC7B6C8B523
:102BDB00F7BDDA00D7AACBD9B5F7BDDA000A1000DA
:102BEB0000FF2BDF1D420B100200FF2BD61CA30C8A
:102BFB00100400FF2BCF1DE10D100600FF2BCA1C8C
:102C0B00040E100000FF2BC500000F100200FF2B5D
:102C1B00C5000010100400FF2BC5000011100600AA
:102C2B00FF2BC50000140F0000FF2BBF0000150F7A
:102C3B000200FF2BB90000160F0000FF2BB10000A4
:102C4B00170F0200FF2BB90000180F0000FF2BA974
:102C5B000000190F0200FF2BB900001A0F0000FF34
:102C6B002B9F00001B0F0200FF2BB90000703A25B1
:102C7B0034642C643A253464005A3A25303264208B
:102C8B00200062617369633A25336420004C3A2556
:102C9B0033642C5225336420006C696E653A2532FF
:102CAB00642020000004010000000000000004016B
:102CBB0000040000000000040100080000000000F8
:102CCB000201000C0000000039003800370036000C
:0E2CDB003500340033003200310030002E008E
:00000001FF
