:100000000219066CAA7E7008C2C73EA03097020B88
:0A001000A0D2C71B7078F17CBA2261
:07001B0002194F28302900F3
:10002300021D985D22680D5D0078122D220B406839
:10003300099F11222D000B0078F902019D12016026
:100043005C800B806808248150072CB0500A0201A1
:10005300A52CB040030201A27C8B5D1178267CB1F4
:100063007CA5BE1080680A5D33780DA5BD80057F31
:100073001002018F6D0080307F017C5B7CB17CA519
:10008300AD1280245D337806A5BD80F080E1CA8877
:100093007D41AD437CB17CA5AD122D1450020B0400
:1000A3007C5BAD232F01DA88A42D05BE00804006BA
:1000B3000B80780480982F007C437C507C617C7299
:1000C3000201797EA020800C7EA01080057EA0080E
:1000D3006C556D333392D5500A6E34FFFF6E24FF97
:1000E300FF0B1CA5EC3340062F11D5F0F6227CBA8A
:1000F300247EA2D5137C767C65A5CC92E77C5B221B
:100103007CB5337CB43392D54E5080248140039F19
:1001130011227C457C567C676C7724E0500E7E1C54
:10012300FFFF221E341E2450034E60800478F430F7
:10013300D50A6E34FFFF6E24FFFF0B1C227F707FF6
:10014300517EC400007ED400497E9401530201DE37
:100153004005E47A7BB0227A7BB00B7C222D00929F
:10016300D50E104E10807D422D445002B2D54E5014
:10017300806C447CB8222C4450120B1C7E40005EE1
:10018300507FBE18000078040B806816A2D57CB897
:10019300137C4B7CB592E77C5B227E1CFFFF229F86
:1001A30011227E24FF8020D5026C456D3322540F2B
:1001B3002490D43440D430F30CBEB0414007BEB0D9
:1001C3005B500224204CCC68021BC00B84D389945F
:1001D3004CCC680B74201201C880F5CA3B6D889F14
:1001E300337CAE7E5BB00B5C7007C37D38DA3B8932
:1001F30094B42569C2F37E5BB00B5CA5F824D0BE32
:10020300B00A501B7E500A20F60DAC5CA52D7CCBAA
:1002130070034EF00180DDAC5DA52D7CDB80D52421
:10022300CFBEB01AA5E850055E00DFD2F39005B348
:10023300A3E4936011BCB078F77417934CAB30F61A
:10024300B34EF08080AEA3E4936010BCB078F77433
:1002530016937C3B7423937C2B89147CB08013749A
:10026300201201C820F205BEC00250F31B6D29B64F
:1002730000011201C80201D31B6E691600020B6A4A
:1002830000BE08000078087E0400FF7E14001E20D4
:10029300F21E4CCC681A7F10E47E1B804C886807E2
:1002A3000B1C04BCBD78F2C2F6CA0B1203B2DA0B04
:1002B3007E0BB060C0CA0B1201C8DA0B0B0C4CDD0D
:1002C30068EE1BD078EA80ADD2F07E101080037EFA
:1002D30010085EB05F800AD2F67E100A80057E1099
:1002E3000AC2F66D119F117E00201B6C7E6B70306D
:1002F300F6021A3720F1051B6C7E6B6030F6041A88
:10030300261A2430F0051B6D0B6A20A5EC3382F608
:1003130092F6500A7CEA9F229F217F127CAE4C44C6
:10032300780F7C457C567C676C772E00F878EF80DD
:10033300122F117CB3337C3B9CB140047C3B0B708C
:10034300A5D8EE7CB230E005DAB8C44C3BCA380B12
:10035300207E00207E3000BE18000078C1BE100849
:10036300780730F404C2F480B5CA287CB2BCBD3827
:10037300027CBD1203B2DA28BC2D500A1BD0E4CA9A
:10038300281201B180F07CB213DAB84004C4CAB8B1
:10039300C4CA28BEF08040095CDD7805A5DA026096
:1003A300065EF07F1201B1DA28A5DADA0201D3BEC4
:1003B300F001680F30F402240220F50620F7033021
:1003C300F6010420F229BCBC5025CAB87CBF13B087
:1003D300E67420501174307C8A5E80F06808120342
:1003E300F25EA00F80031201C8DAB8BCBC78DB3020
:1003F300F40F74301201C8745830F3027478120188
:10040300C830F605742D0201C8742B20F5F874204A
:1004130020F7F3221B6C7E6BB010F1021B6C20F6ED
:100423000B30E704F404D2F27CCB800520E7057C93
:10043300DB0201F75EF07F80F81B6E691600020B8A
:100443006A0030F0076D221B0A200B0D1B0A800285
:1004530001E2E46C22BE3007500B7F1F2D312E3496
:10046300FFF77E39B0227CBF20E7A8742E4EF080C0
:100473000201C812059C403D7CBD7003047CDB1265
:1004830006B37C3D4C3368101B307CBE20E409125C
:10049300045570044C3378F07CBD7CD3BEA0FD487A
:1004A3001CBCAB5818E49CBA2CB31801E47CDB02E7
:1004B300053D12059C406E7CBD041206B37AFBA079
:1004C3007CAE7CBDA2F492F0C2F44002600104242D
:1004D300051203B27E30FF0B30120455CA381201E5
:1004E300B120F0044CDD6803120469DA38BC3D78AE
:1004F300E6740E1201B1742B7EFBA030F707742D46
:100503006EA0FF0BA07AFBA01201C87EA00A7EFB9F
:10051300B0847AFBA01201B17EFBB01201B19EF848
:1005230000080201D3D2F27ED00002029212059C8F
:1005330040F37CBA2CBD041206B37AFBA07CBA7CD0
:10054300AE30E701E40420F4044CDD6805D2F0C2C8
:10055300F4042CBD1203B26C337EFBB0601B20E7A6
:1005630012147AFBB0120455CA381201B1DA380BEF
:100573003080E6047AFBB01B30120455CA381201EE
:10058300B14CDD68071204691BD080E19EF80009B5
:1005930030F0031204690201D37CEA7CAF10F70345
:1005A3007ED0067CFA1B6E693600020B6A200205B8
:1005B300FB2D2B204C4248232E0053584F444943D4
:1005C30055502A4E46454700042080010200104042
:1005D3007BCDD2DADA67E1CB173C30B57602020283
:1005E300020202020204040504044E614E002B4978
:1005F3004E46002D494E46007D522D557CBE92E657
:100603007CEB7CBA601F0470287CB5C2E77E0400D3
:10061300FF60067E1405EDD3227E1405F640047EAA
:100623001405F1D322DA099F22CA2BCA2BC3CA09A4
:10063300220A0A7E144D10AD109E083AF09E102631
:100643007CB5C2E77EA0567C9BA46E54FFFF2E545C
:10065300C511ACA92D15E4A539CAB8CA1B20E70AF0
:100663001207A7DA1B1206F6800AF4041207A7DAA8
:100673001B120026DAA87CB5337CB4334E50806C51
:100683004424822F111478FBDA497407BE400A40D0
:10069300099E400ACA0201140BA0CA486C442F11D8
:1006A3007F012F112F112F101478EFCA48CA492246
:1006B3007F0F20E73ABEB007400274070A0B2D10E4
:1006C3009E1400097E19B02EB0FB501F4C11681701
:1006D300E47A19B01B147E19B0047A19B0B40A0B6A
:1006E300E47A19B0A5D9ED0BA074017A19B0225E92
:1006F300E0BF22BE24FFFF6806BE04FFFF780302AB
:10070300019D1201605CB00468F57CB8A54868EFF0
:100713007CB870039F1122A5B800030201A52E0027
:100723008150079C8038070201A29C8050ED0A513A
:10073300C2E74D51780302018F7E5400807E901AE8
:100743006C0080061B9068142F11BF1040049F108B
:100753004CAB0330E7EECAA86CAA80E8DA39DA5862
:100763007C4ABE5080500A1B8068BC2F1150020B7C
:10077300700201793F8000004120000042C8000060
:10078300447A0000461C400047C3500049742400CB
:100793004B1896804CBEBC205A0E1BCA6753C21C12
:1007A300749DC5AE7C7B600654076816232312072D
:1007B300CC7CB75438680A7F101207C91200267F11
:1007C30001227CB7543803241C6CAA2E5407777E6D
:1007D3004400FF0B2A0069120002227D02AD31ADF5
:1007E300102D21226D0074104D00780B4D227827B7
:1007F3008D317D126D22227D437D326D222F112D8D
:10080300445002A50FBF1040049F100B901478EDC5
:100813007F016D227D34227D417D138D247D022F46
:10082300004004BD0440049D040B141478F17D239F
:100833007D317D106D0022CA3B7F307A73002A7AA6
:10084300B30029E4020A477E73002B0A372D377D54
:10085300267E1BA0BEA0B050030208ECBEA0F72862
:10086300030208EC7EB3002B0A3B2D377D2629B10A
:100873000001BEB0A140720A3A6D229E1800B07EFC
:1008830014005E1207DE7A1F00160A1B6D002E0885
:1008930002AD2F107A1F00167E1400207E1F001653
:1008A3001207DE7A1F00167E0F00167CB17A130042
:1008B3002C7C727A23002D7C637A33002E7E080011
:1008C3002F7E50201217657EB300297E73002A7E87
:1008D30008002F1217C07EB3002924107AB3002911
:1008E3007EB3002B0BB1020A477E73002B0A372D10
:1008F300377D267E1B70BE70A150030209AB7E7349
:10090300002B0A372D377D267E1B70BE70A328036C
:100913000209AB7E73002B0A372D377D2629B100E0
:1009230001BEB0A150030209AB7EA3002B0A3A2DEE
:10093300377D267E1BA00A3A6D229E1800A17E14E5
:10094300005E1207DE7A1F00160A1B6D009E080068
:10095300A12F107A1F00167E1400207E1F0016128E
:1009630007DE7A1F00167E0F00167CB17A13002C67
:100973007C727A23002D7C637A33002E7E08002F4D
:100983007E50201217657EB300297E73002A7E08ED
:10099300002F1217C07EB3002924107AB300297EDA
:1009A300B3002B0BB1020A477E73002B0A372D3796
:1009B3007D267E1B70BE70205003020A427E7300A8
:1009C3002B0A372D377D267E1B70BE707E38707ED6
:1009D30073002B0A372D377D267E1B700A376D2255
:1009E3009E1800207A1F001674042F111478FB7AC6
:1009F3001F00162E2400032E18CF807A1F00167EA8
:100A03000F00167CB17A13002C7C727A23002D7CA4
:100A1300637A33002E7E08004F7E50101217657ED6
:100A2300B300297E73002A7E08004F1218167EB386
:100A3300002924087AB300297EB3002B0480057EA5
:100A4300B3002B047AB3002B7E73002B0A372D37A8
:100A53007D267E1B70BE7000280302084ADA3B2203
:100A6300CAF87EF300A1BEF0044003020B1F7E37D9
:100A730000A8BE3400016803020B1F7E3400017A14
:100A83003700A87E341DF77E2400FF7E1BB07E3422
:100A93001DF87E2400FF7E1B707EF41DF97EE400AA
:100AA300FF691700020B7A0012083A7E341E007E9B
:100AB3002400FF7E1BB07E341E017E2400FF7E1BBC
:100AC300707EF41E027EE400FF691700020B7A00B9
:100AD30012083A7E341E097E2400FF7E1BB07E344A
:100AE3001E0A7E2400FF7E1B707EF41E0B7EE40034
:100AF300FF691700020B7A0012083A7E341E127E39
:100B03002400FF7E1BB07E341E137E2400FF7E1B59
:100B1300707EF41E147EE400FF020BE8BEF004783E
:100B2300197E3700A8BE340001780F121A4CE47AFC
:100B3300B3009E7E340002020C10BEF00450030288
:100B43000BF47E3700A8BE3400026803020BF47E68
:100B5300341E1B7E2400FF7E1BB07E341E1C7E24AD
:100B630000FF7E1B707EF41E1D7EE400FF691700EC
:100B7300020B7A0012083A7E341E247E2400FF7E84
:100B83001BB07E341E257E2400FF7E1B707EF41E68
:100B9300267EE400FF691700020B7A0012083A7EF2
:100BA300341E2D7E2400FF7E1BB07E341E2E7E2439
:100BB30000FF7E1B707EF41E2F7EE400FF6917008A
:100BC300020B7A0012083A7E341E367E2400FF7E22
:100BD3001BB07E341E377E2400FF7E1B707EF41E06
:100BE300387EE400FF691700020B7A0012083A808E
:100BF30020BEF005501B7E3700A8BE3400027811DA
:100C0300121A4C74067AB3009E7E3400017A3700C0
:100C1300A8E47E73009E7E141DAB7E0400FF1208C1
:100C23003A7EB3009E121DA2DAF8227E7300A1A5BC
:100C3300BF00137EB300A3700DA202E43378077ED6
:100C4300B30098048016A5BF00177EB300A37011EC
:100C5300A202E433B4010A7EB30098147AB3009875
:100C6300227EA300A3BEA00178067E1400018002A9
:100C73006D11A5BF00067E24000180026D225D2157
:100C83006809A202E4337803020D82A5BF000FBEF8
:100C9300A001780AA202E433B40103020D99A5BFAF
:100CA30001114CAA780DA202E43378077EB30099B0
:100CB300048014A5BF01154CAA7811A202E433B431
:100CC300010A7EB30099147AB3009922A5BF010EDD
:100CD300BEA0017809A202E4337803020D82A5BF06
:100CE300010FBEA001780AA202E433B40103020D8E
:100CF30099A5BF02114CAA780DA202E43378077EAE
:100D0300B3009A048014A5BF02154CAA7811A2025D
:100D1300E433B4010A7EB3009A147AB3009A22A58D
:100D2300BF020DBEA0017808A202E4337802804F0F
:100D3300A5BF020EBEA0017809A202E433B40102EA
:100D43008054A5BF03114CAA780DA202E43378079F
:100D53007EB3009B048014A5BF03154CAA7811A28F
:100D630002E433B4010A7EB3009B147AB3009B22DE
:100D7300A5BF0312BEA001780DA202E43378077E5B
:100D8300B3009C048015A5BF0315BEA0017810A273
:100D930002E433B401097EB3009C147AB3009C22AD
:100DA300CA3B7CD67F707CE77CFB9F117A1F0021B6
:100DB3007408ACBD0A3F2D352E3400087CF76D1145
:100DC3007E0442C87F171200261201037A1F0025F2
:100DD3000A5F9E5400187C7E7E141ED77E0400FF9B
:100DE30012083A6CCC020ED67ED4000A7E7F002510
:100DF3007F177D1D1207E77A0F00217F177D1D12D4
:100E030007E77A1F00259EF008BEC00278039EF014
:100E1300087E2F0021BE28000A4003020ED47EA0C4
:100E230003A4900E2973020E47020E55020E6302AD
:100E33000E71020E7F020E8D020E9B020EA9020E90
:100E4300B7020EC57CBF7C7E7E141ED57E0400FFD8
:100E5300807C7CBF7C7E7E141ED37E0400FF806E6C
:100E63007CBF7C7E7E141ED17E0400FF80607CBF2D
:100E73007C7E7E141ECF7E0400FF80527CBF7C7E6E
:100E83007E141ECD7E0400FF80447CBF7C7E7E14D6
:100E93001ECB7E0400FF80367CBF7C7E7E141EC981
:100EA3007E0400FF80287CBF7C7E7E141EC77E04E8
:100EB30000FF801A7CBF7C7E7E141EC57E0400FF6B
:100EC300800C7CBF7C7E7E141EC37E0400FF120850
:100ED3003A0BC0BCDC2803020DEBDA3B22CA797E55
:100EE3000800647E341EE67E2400FF120140E46C99
:100EF300777E08006412083A7E0800647E341EE19F
:100F03007E2400FF120140E47E70027E080064121A
:100F1300083A7E0800647E341EDC7E2400FF120142
:100F230040E47E70047E08006412083A7423CAB851
:100F33006C77CA787E270090E41200CB7F017E6035
:100F430006DA78DAB8120DA37423CAB87E7002CA1F
:100F5300787E270092E41200CB7F017E6006DA7868
:100F6300DAB8120DA37423CAB87E7004CA787E2738
:100F73000094E41200CB7F017E6006DA78DAB812BF
:100F83000DA37E77008EBE74000058337E34FFFFBE
:100F9300AD377A37008E7E0800647E341ED97E24F6
:100FA30000FF120140E47E70067E08006412083AD6
:100FB300740FCAB87E7006CA787E27008E800AE452
:100FC300CAB87E7006CA787D277CB41200CB7F0135
:100FD3007E6006DA78DAB8120DA3DA7922D296D2D5
:100FE300937E3400C8121C9A74AE6C77121B38744B
:100FF300026C77121B3874106C77121B3874406CB8
:1010030077121B3874B06C77121B3874816C7712AB
:101013001B3874CF6C77121B3874A16C77121B3892
:1010230074A66C77121B3874A86C77121B38743F44
:101033006C77121B3874AD6C77121B38748B6C771A
:10104300121B3874336C77121B3874C86C77121BFD
:101053003874D36C77121B38E46C77121B3874D551
:101063006C77121B3874806C77121B3874D96C77C9
:10107300121B38741F6C77121B3874DA6C77121BCF
:101083003874126C77121B3874DB6C77121B38744C
:10109300406C77121B38121A4C74AF6C77021B38F2
:1010A300CA69CAF87EB3009F14680C04680302116E
:1010B30051120A630211517E341DF67E2400FF7E15
:1010C3001B700A277E64000A8D267EF300A10A3F67
:1010D300BD32780A7E341DFD7E2400FF805B7E34A2
:1010E3001DFF7E2400FF7E1B700A278D260A3FBD4D
:1010F30032780A7E341E067E2400FF803C7E341E36
:10110300087E2400FF7E1B700A278D260A3FBD320E
:10111300780A7E341E0F7E2400FF801D7E341E114C
:101123007E2400FF7E1B700A278D260A3FBD32787E
:101133000D7E341E187E2400FF0B1A309934E47E92
:101143007300A07E141DAB7E0400FF12083ADAF888
:10115300DA6922CA3B7F307A7300097AB30008E464
:10116300807E7E73000A0A372D377D267E1B70BE74
:1011730070204067BE707E38620A376D229E180069
:10118300207A1F00162F112F112F117A1F00162EF0
:101193002400032E18BFC07A1F00167E0F00167C92
:1011A300B17A13000B7C727A23000C7C637A3300D0
:1011B3000D7E08000E7E50081217657EB300087E70
:1011C3007300097E08000E121B0C7EB30008240670
:1011D3007AB300087EB3000A0480057EB3000A04D4
:1011E3007AB3000A7E73000A0A372D377D267E1BE9
:1011F30070BE70002803021165DA3B227E341E752F
:101203007E2400FF7E1BB07E341E767E2400FF7E8C
:101213001B707EF41E777EE400FF691700020B7AD1
:101223000012083A7458CAB86C77CA787E43009B98
:10123300E41200D07E14D70A7E043C231200267FDA
:10124300017E6004DA78DAB8120DA37E341E7E7E46
:101253002400FF7E1BB07E341E7F7E2400FF7E1B96
:10126300707EF41E807EE400FF691700020B7A0093
:1012730012083A7439CAB87E7002CA787E43009C59
:10128300E41200D07E14D70A7E043C231200267F8A
:10129300017E6004DA78DAB8020DA37E341E517E33
:1012A3002400FF7E1BB07E341E527E2400FF7E1B73
:1012B300707EF41E537EE400FF691700020B7A0070
:1012C30012083A744BCAB86C77CA787E430099E423
:1012D3001200D07E14D70A7E043C231200267F011D
:1012E3007E6004DA78DAB8120DA37E341E5A7E24A7
:1012F30000FF7E1BB07E341E5B7E2400FF7E1B70CE
:101303007EF41E5C7EE400FF691700020B7A001274
:10131300083A7439CAB87E7002CA787E43009CE4E6
:101323001200D07E14D70A7E043C231200267F01CC
:101333007E6004DA78DAB8020DA37E341E3F7E2481
:1013430000FF7E1BB07E341E407E2400FF7E1B7098
:101353007EF41E417EE400FF691700020B7A00123F
:10136300083A7439CAB86C77CA787E430098E41295
:1013730000D07E14D70A7E043C231200267F017E10
:101383006004DA78DAB8120DA37E341E487E240096
:10139300FF7E1BB07E341E497E2400FF7E1B707EC1
:1013A300F41E4A7EE400FF691700020B7A0012085C
:1013B3003A7439CAB87E7002CA787E43009CE4123C
:1013C30000D07E14D70A7E043C231200267F017EC0
:1013D3006004DA78DAB8020DA37E341E637E24003B
:1013E300FF7E1BB07E341E647E2400FF7E1B707E56
:1013F300F41E657EE400FF691700020B7A001208F1
:101403003A744BCAB86C77CA787E43009AE41200E8
:10141300D07E14D70A7E043C231200267F017E600F
:1014230004DA78DAB8120DA37E341E6C7E2400FF32
:101433007E1BB07E341E6D7E2400FF7E1B707EF407
:101443001E6E7EE400FF691700020B7A0012083A51
:101453007439CAB87E7002CA787E43009CE41200D5
:10146300D07E14D70A7E043C231200267F017E60BF
:1014730004DA78DAB8020DA3A203E433B4010280DC
:101483000302150CA2B4E433B401377E370096BED1
:101493003407D0502D6D337A370096121A4CC2039D
:1014A3007EB300A2BEB002500304800274017AB37B
:1014B30000A2B40204D2018002C20174017AB30013
:1014C3009F22A2B4E433B401297E370096BE340FC1
:1014D300A0281F6D337A370096121A4CC203C2013B
:1014E300E47AB300A27AB3009F7AB300A07AB30080
:1014F300A322A2B4E433B401107E370096BE3407AE
:10150300D028066D337A37009622740A7E34FEB2F1
:101513007E24007E7A1BB0E47E34FED07A1BB07446
:10152300EF7E34FED17A1BB0E47E34FECC7A1BB05E
:1015330074607E14FEC87E04007E7A0BB07E14FEB7
:10154300C97A0BB074117A1BB074037E34FED57A5A
:101553001BB074E87E34FED67A1BB074037E34FE6F
:10156300D77A1BB074E87E34FED87A1BB074037E3E
:1015730034FED27A1BB074E87E34FED37A1BB07487
:10158300057E34FEB17A1BB074807E34FEDD7A1B97
:10159300B074017E34FEC07A1BB022A201E433781A
:1015A3006E7EA3009F4CAA78187EB3009EBEB00047
:1015B300402ABEB00438250A3B0B357A73009E805F
:1015C3001BBEA00178167EB300A0BEB000400DBEC6
:1015D300B00250080A3B0B357A7300A0BEA0016825
:1015E300137EB300A1BEB000400ABEB006380504A6
:1015F3007AB300A1BEA00178137EB300A3BEB000EE
:10160300400ABEB0013805047AB300A3021A15C21A
:1016130002020C2EA201E433786E7EA3009F4CAA33
:1016230078187EB3009EBEB006382ABEB0024025AD
:101633000A3B1B357A73009E801BBEA00178167E81
:10164300B300A0BEB004500DBEB00240080A3B1B5D
:10165300357A7300A0BEA00168137EB300A1BEB0AB
:1016630000280ABEB0073805147AB300A1BEA00152
:1016730078137EB300A3BEB000400ABEB0013805A4
:10168300147AB300A3021A15D202020C2ECA3B121B
:101693001C037D63121C247A370021121C637D1303
:1016A300BE640FFF78167E370021BE340FFF780C1F
:1016B300BE140FFF78066D336D778042BE640FFF53
:1016C30050187E370021BE340FFF500EBE140FFF9B
:1016D30050087E3400017D738024BE640FFF5010D8
:1016E3007E240FFF9D267E34FFFFAD327D73800E77
:1016F300BE14100050087E3410009D317D737D3779
:10170300DA3B221219DB120FE0E4121C45740112BA
:101713001AE0121A4C121D36121CB1A9C6A2A9C78F
:10172300A2A9D4FF12150D121CDFC282D281C2837B
:10173300D2847E3402587A37001A7A37001C121C7E
:10174300037A370090121C247A370092121C637AB2
:101753003700941216907A37008E120EE0121B8E09
:1017630080DCCA3B7A5300627F307A6300617A730C
:1017730000607AB3005FC2937403121C7F7EB300D0
:101783005F121C7F7EB30060121C7F7EB300611268
:101793001C7FE480151200037EA300630A3A2D37F1
:1017A3007D267A1BB07EB30063047AB300637E7335
:1017B3000062BE73006338DDD293DA3B22CA3B7FFB
:1017C300307A7300607AB3005FE47AB300627EB369
:1017D300005F7E730060121B63E47AB300617E3B9B
:1017E300B07E7001121B380B747EB30061047AB3B0
:1017F3000061B410E97EB30060047AB300607EB385
:101803000062047AB300627E730062BE700240BE5F
:10181300DA3B22CA3B7F307A7300607AB3005FE41D
:101823007AB300627EB3005F7E730060121B63E4D1
:101833007AB300617E3BB07E7001121B380B747E5D
:10184300B30061047AB30061B408E97EB3006004B5
:101853007AB300607EB30062047AB300627E7300E1
:1018630062BE700240BEDA3B22CAF8A2B2E4337809
:1018730008A2B3E4337802D200A200E433B4013502
:10188300A2B330B201B35008A2B2E4337AB3009DDD
:10189300A2B2E433B4011EA2B3E433B40117C2000D
:1018A3007EF3009DBEF001780512159E80074CFF64
:1018B3007803121617DAF822A2B2E433B40109A2AC
:1018C300B3E433B40102D204A204E433B40131A279
:1018D300B330B201B35008A2B3E4337AB3009DA28C
:1018E300B2E433781BA2B3E4337815C2047EB300A9
:1018F3009DB4010312159E7EB3009D70031216174B
:1019030002186C7584017E44041FE47A49B01B44B9
:1019130078F97EF800ACC200C201C202C203C2045D
:101923007E0400FF7E141E860B0A405D44681A691C
:101933002000020B0E0B44800A7E0BB07A29B00BF9
:10194300240B0C1B4478F280DF021706CAB8CA398D
:10195300C0D17E3700AABE34000028061B347A3774
:1019630000AA7E3700780B347A370078BE3427100C
:101973002808A2B4E4337802D203A203E433B40107
:101983000A7E3700960B347A370096D0D1DA39DAEB
:10199300B832CA3B7F30E47AB3001F7AB3001EE447
:1019A3007E73001E121B63E47AB3001F7E3BB07E7E
:1019B3007001121B380B747EB3001F047AB3001F2F
:1019C300B480E97EB3001E047AB3001E7E73001E4A
:1019D300BE700840CADA3B2275E900A9D7BA75EA96
:1019E30000759300759400759100759200759500CC
:1019F30075960075B10075B20075B30075B40075C6
:101A0300C90075CA0075CB0075CC0075E10075E29D
:101A13000022CA796CEE0A5E2E5400B06C77121B5A
:101A23003874106C77121B3874026C77121B386C85
:101A3300FFE47E7001121B380BF0BEF01078F20B3E
:101A4300E0BEE00840D0DA7922CA796CFF0A5F2E43
:101A53005400B06C77121B3874106C77121B3874F7
:101A6300026C77121B386CEEE47E7001121B380B8C
:101A7300E0BEE08078F20BF0BEF00840D0DA7922C5
:101A8300CAF87CFB121D5E746C121AB2121D4B7CD9
:101A9300BF121AB2121D4B121D5E746D121AB212CE
:101AA3001D4B121BB77CFB121D7E7CBFDAF822CACA
:101AB300797CFB7EE008C2A07405121D8C7CBF30CC
:101AC300E704D2A28002C2A27405121D8CD2A03EEA
:101AD300F0121D8C1BE078DEC2A0DA7922CAF87CF2
:101AE300FB4CFB780E74C86C77121B3874A16C77AF
:101AF300121B38BEF001780E74C06C77121B387459
:101B0300A06C77121B38DAF822CA3B7F30121B63B2
:101B1300E47AB300AC7E3BB07E7001121B380B74C9
:101B23007EB300AC047AB300AC7E7300ACBE700627
:101B330040E3DA3B227C6B4C776804D2958002C287
:101B430095C2967E7008C2C77CB630E704D29480F3
:101B530002C294D2C73E601B7078EBD296D2952214
:101B6300CAF87CFB0BF10A572E5400B06C77121B9A
:101B7300387CBF54F0C4540F44106C77121B387C6C
:101B8300BF540F6C77121B38DAF8227E17001A7EC7
:101B930034FED57E24007E7A1B207E34FED67A1B4B
:101BA300307E17001C7E34FED77A1B207E34FED88D
:101BB3007A1B3022CA796CFF7EE008D2A07405122A
:101BC3001D8C3EF030A2034EF001C2A07405121D1D
:101BD3008C1BE078E67CBFDA79227F70A9D6BC0043
:101BE30000A935BCFCA9C5BCE5BD7C4B6C55E5BE65
:101BF3000A3B2D32E5BC0A5B0B54F5BC1B7A302241
:101C0300E5BC0A5B0B54F5BCA9D6BC0000A935BCE6
:101C1300FCA9C5BCE5BD7C4B6C55E5BE0A3B2D322A
:101C230022E5BC54F04408F5BCA9D6BC0000A93594
:101C3300BCFCA9C5BCE5BD7C4B6C55E5BE0A3B2D80
:101C43003222CAF87CFB4CFB780774A66C77121B14
:101C530038BEF001780774A76C77121B38DAF822C4
:101C630053BCF0A9D6BC0000A935BCFCA9C5BCE592
:101C7300BD7C4B6C55E5BE0A3B2D32227C6B7E70DE
:101C830008C2C77CB630E704D2948002C2943E6097
:101C9300D2C71B7078EB227D13800E7E0407087D6C
:101CA300301B044D3378F81B144D1178EE227598D0
:101CB30050438E01438E0475D78F75D6FD438E1026
:101CC300D2ACD2AF22C2A0A20592A27405121D8C7F
:101CD300D2A0121D8CC2A0D2A2021D8C743F7E34EE
:101CE300FEA87E24007E7A1BB075DE2375BCF0A9A6
:101CF300D7BC22CA3B7F3080087E3BB00B74121DD9
:101D0300A27E3BB070F3DA3B22748D6C77121B38E2
:101D130074106C77121B3874AE6C77021B38748D99
:101D23006C77121B3874146C77121B3874AF6C7792
:101D3300021B38538EBF53890F758B9C758DFFC261
:101D43008FD28ED2ABD2AF22D2A07405121D8CA239
:101D5300A29206C2A0121D8CA20622D2A2D2A07405
:101D630005121D8CC2A2121D8CC2A0227A3700AAB2
:101D73007E3700AABE34000038F622C2A2D2A07475
:101D830005121D8CD2A2021D8C7C7B007C671B700C
:101D9300A5BE00F722C0D1309802C298D0D1327AC2
:101DA300B1993099FDC299223E00B2E2CAD4B7A2DA
:101DB300C7F23A00B8A9D1F6BDC73A00B5F7D7F3D1
:101DC300D3D23A00B9A6C4DC3A00D7AACBD93A0099
:101DD300C6E4CBFB00BFD8D6C600B8A9D1F6BDC7B1
:101DE30000BDC7B6C8B5F7BDDA00D7AACBD9B5F7DA
:101DF300BDDA000A100000FF1DED133D0B100200B9
:101E0300FF1DE4129E0C100400FF1DDD13DC0D10FA
:101E13000600FF1DD811FF0E100000FF1DD30000A8
:101E23000F100200FF1DD3000010100400FF1DD38C
:101E3300000011100600FF1DD30000140F0000FF67
:101E43001DCD0000150F0200FF1DC70000160F0077
:101E530000FF1DBF0000170F0200FF1DC700001881
:101E63000F0000FF1DB70000190F0200FF1DC70080
:101E7300001A0F0000FF1DAD00001B0F0200FF1D25
:101E8300C700000002007800000002008E0000007E
:101E930004001600000000000200A8000100020078
:101EA300960000000100A100000100A20000010053
:101EB300A3000002001A00000002001C0000000042
:101EC3003900380037003600350034003300320063
:101ED300310030002E002D20005031303A005030B8
:081EE300303A005031313A00A1
:00000001FF
