:10000000021F926CAA7E7008C2C73EA03097020BF6
:0A001000A0D2C71B7078F17CBA2261
:07001B00021E8D28302900B0
:1000230002290102039A6E00807CB1337CB03368ED
:100033000D0468EF7CB5337CB43378037F1022045E
:1000430068E17D5092F77D457D51BF2140067C805C
:100053007F017F1212035D7EA1D05CB00478032080
:10006300D5C17CB00478075002B2D50203A292D561
:10007300BE80FF68F67CB89CB06C00602AB418059B
:100083007C4102037650FB80032F00047C9B5E902F
:100093000778F630E4067C437D106D0030E3087C7E
:1000A300437C327C210A0030F5199F10780E22021E
:1000B300039F1B8068F92F1150020B707CB530E74A
:1000C300F1801B2D317CB5A5397C5B50110B8078F9
:1000D300030203A21E341350034E60801A2B020343
:1000E300765D22680D5D0078122D220B4068099F12
:1000F30011222D000B0078F902039A12035D5C8034
:100103000B806808248150072CB0500A0203A22CEC
:10011300B0400302039F7C8B5D1178267CB17CA5E4
:10012300BE1080680A5D33780DA5BD80057F10027F
:10013300038C6D0080307F017C5B7CB17CA5AD12AC
:1001430080245D337806A5BD80F080E1CA887D41B7
:10015300AD437CB17CA5AD122D1450020B047C5B26
:10016300AD232F01DA88A42D05BE008040060B8045
:10017300780480982F007C437C507C617C7202035E
:1001830076BE24FFFF6806BE04FFFF780302039ACE
:1001930012035D5CB00468F57CB8A54868EF7CB8D1
:1001A30070039F1122A5B800030203A22E00815001
:1001B300079C80380702039F9C8050ED0A51C2E7D9
:1001C3004D51780302038C7E5400807E901A6C009C
:1001D30080061B9068142F11BF1040049F104CAB76
:1001E3000330E7EECAA86CAA80E8DA39DA587C4A09
:1001F300BE5080500A1B8068BC2F1150020B700246
:1002030003765D226809BE24FFFF68036E408022E7
:100213007EA020800C7EA01080057EA0086C556D0A
:10022300333392D5500A6E34FFFF6E24FFFF0B1C4D
:10023300A5EC3340062F11D5F0F6227CBA247EA21A
:10024300D5137C767C65A5CC92E77C5B227CB533A9
:100253007CB43392D54E5080248140039F11227C7D
:10026300457C567C676C7724E0500E7E1CFFFF2292
:100273001E341E2450034E60800478F430D50A6E79
:1002830034FFFF6E24FFFF0B1C227F707F517EC45F
:1002930000007ED400E67E9402A00204214005E41F
:1002A3007A7BB0227A7BB00B7C227CB5A2E7D2E7C3
:1002B3007C1B7CB4334009680DB4FF0BA5BDFF0361
:1002C30002039A0203A2227C0B2481C2E0F582F48A
:1002D300042CB07C2BC3137C4B7CB592E77C5B7FF7
:1002E300417CB6A2E77CB1A5BA7F02C31334009464
:1002F300007C2B7EA091A47CBA13F494FEACB233A1
:100303007CBA33248CD3137C5BE492E77C6B6C77ED
:100313007E403F7583027F517F017F141201847FEA
:100323000512002C9E240080D583EB7E01826C1184
:100333000E041E042D205E407F227F617F01120088
:10034300E46E40806D117E043F8012002C1202ADDA
:100353007F017F161201840208502D0092D50E10E2
:100363004E10807D422D445002B2D54E50806C44D5
:100373007CB8222C4450120B1C7E40005E507FBE82
:1003830018000078040B806816A2D57CB8137C4B48
:100393007CB592E77C5B227E1CFFFF229F11227EAD
:1003A30024FF8020D5026C456D332274F86CAA6E4D
:1003B30040806E0080BEB0FF68277C837C975C3BE7
:1003C3005C7BBF10682AF4400D7C382D15F45C3B30
:1003D300500F0B04800B7C792D35F45C7B50020BA2
:1003E30024BF10680B7CB020E7067CB420E701B380
:1003F30022540F2490D43440D430F30CBEB0414087
:1004030007BEB05B500224204CCC68021BC00B8497
:10041300D389944CCC680B742012040B80F5CA3B2F
:100423006D889F337CAE7E5BB00B5C7007C37D38F9
:10043300DA3B8994B42569C2F37E5BB00B5CA5F803
:1004430024D0BEB00A501B7E500A20F60DAC5CA52A
:100453002D7CCB70034EF00180DDAC5DA52D7CDBE4
:1004630080D524CFBEB01AA5E850055E00DFD2F3D5
:100473009007F6A3E4936011BCB078F77417934C1C
:10048300AB30F6B34EF08080AEA3E4936010BCB003
:1004930078F77416937C3B7423937C2B89147CB07C
:1004A3008013742012040B20F205BEC00250F31B0C
:1004B3006D29B6000112040B0204161B6E691600A7
:1004C300020B6A00BE08000078087E0400FF7E1459
:1004D300001E20F21E4CCC681A7F10E47E1B804C59
:1004E3008868070B1C04BCBD78F2C2F6CA0B120560
:1004F300F5DA0B7E0BB060C0CA0B12040BDA0B0BE0
:100503000C4CDD68EE1BD078EA80ADD2F07E101083
:1005130080037E10085EB05F800AD2F67E100A80E8
:10052300057E100AC2F66D119F117E00201B6C7EA2
:100533006B7030F6021A3720F1051B6C7E6B60304E
:10054300F6041A261A2430F0051B6D0B6A20A5EC5D
:100553003382F692F6500A7CEA9F229F217F127C17
:10056300AE4C44780F7C457C567C676C772E00F844
:1005730078EF80122F117CB3337C3B9CB140047C19
:100583003B0B70A5D8EE7CB230E005DAB8C44C3B27
:10059300CA380B207E00207E3000BE18000078C1D0
:1005A300BE1008780730F404C2F480B5CA287CB2C0
:1005B300BCBD38027CBD1205F5DA28BC2D500A1BE0
:1005C300D0E4CA281203F480F07CB213DAB84004F2
:1005D300C4CAB8C4CA28BEF08040095CDD7805A54A
:1005E300DA0260065EF07F1203F4DA28A5DADA0293
:1005F3000416BEF001680F30F402240220F5062031
:10060300F70330F6010420F229BCBC5025CAB87C9C
:10061300BF13B0E67420501174307C8A5E80F0689A
:10062300081206355EA00F800312040BDAB8BCBCB7
:1006330078DB30F40F743012040B745830F3027407
:100643007812040B30F605742D02040B742B20F57D
:10065300F8742020F7F3221B6C7E6BB010F1021BA1
:100663006C20F60B30E704F404D2F27CCB80052037
:10067300E7057CDB02043A5EF07F80F81B6E6916A7
:1006830000020B6A0030F0076D221B0A200B0D1BC2
:100693000A80020425E46C22BE3007500B7F1F2D15
:1006A300312E34FFF77E39B0227CBF20E7A8742EA9
:1006B3004EF08002040B1207DF403D7CBD70030443
:1006C3007CDB1209E87C3D4C3368101B307CBE2078
:1006D300E40912069870044C3378F07CBD7CD3BED9
:1006E300A0FD481CBCAB5818E49CBA2CB31801E419
:1006F3007CDB0207801207DF406E7CBD041209E831
:100703007AFBA07CAE7CBDA2F492F0C2F4400260FE
:10071300010424051205F57E30FF0B30120698CA3A
:10072300381203F420F0044CDD68031206ACDA3807
:10073300BC3D78E6740E1203F4742B7EFBA030F7F5
:1007430007742D6EA0FF0BA07AFBA012040B7EA0F2
:100753000A7EFBB0847AFBA01203F47EFBB0120383
:10076300F49EF80008020416D2F27ED0000204D5EB
:100773001207DF40F37CBA2CBD041209E87AFBA010
:100783007CBA7CAE30E701E40420F4044CDD680558
:10079300D2F0C2F4042CBD1205F56C337EFBB060BD
:1007A3001B20E712147AFBB0120698CA381203F41E
:1007B300DA380B3080E6047AFBB01B30120698CA95
:1007C300381203F44CDD68071206AC1BD080E19E9F
:1007D300F8000930F0031206AC0204167CEA7CAF81
:1007E30010F7037ED0067CFA1B6E693600020B6A93
:1007F300200209302D2B204C4248232E0053584F02
:1008030044494355502A4E4645470004208001027F
:10081300001040BE10151D1DAA240E5A7F73F8B98F
:1008230004050505050405050606070606BE124967
:10083300253E4CCCCDBEAAAAAB3F8000003E7ADB5E
:10084300B03EED63383F24BC7D3F490FDB7DC25E84
:10085300407FBE247F804010680302039A7E340FDA
:10086300DB7E243FC90209145EC480007D522D55EE
:10087300BEA07F401378049420400D7F017E243F67
:10088300806D331201840BC47CB5337CB433248470
:1008930030E7046DDD803E047CAB7CB5D2E754F0D9
:1008A300C333D5F0FC5407340023230ADB7F417F95
:1008B300017C4BE412021D1B417F711200E47E0494
:1008C3003F806D1112002C7F077F717F1412002966
:1008D3007F071201847F717E9408307E8400FF7449
:1008E30003120A2B7F071200E45DDD68147E5408AF
:1008F3003C7E4400FF2D5D0B2A00691200021200AA
:100903002C7D5C30E00B7E04BFC97E140FDB12002C
:100913002C5D2268095E407F5EC480004D2C224E10
:10092300614E002B494E46002D494E46007D522D07
:10093300557CBE92E67CEB7CBA601F0470287CB5C4
:10094300C2E77E0400FF60067E140922D3227E14D0
:10095300092B40047E140926D322DA099F22CA2BCD
:10096300CA2BC3CA09220A0A7E144D10AD109E0871
:100973003AF09E10267CB5C2E77EA0567C9BA46EFF
:1009830054FFFF2E54C511ACA92D15E4A539CAB8DF
:10099300CA1B20E70A120A88DA1B120184800AF4B0
:1009A30004120A88DA1B1200E4DAA87CB5337CB49B
:1009B300334E50806C4424822F111478FBDA49742F
:1009C30007BE400A40099E400ACA0201140BA0CA8E
:1009D300486C442F117F012F112F112F101478EF22
:1009E300CA48CA49227F0F20E73ABEB007400274C3
:1009F300070A0B2D109E1400097E19B02EB0FB5070
:100A03001F4C116817E47A19B01B147E19B0047ACD
:100A130019B0B40A0BE47A19B0A5D9ED0BA074018F
:100A23007A19B0225EE0BF22CAB87F011200E4DA6D
:100A3300B87F510B4A20693400020B4E7F05CAB8B8
:100A43001200E40B4A00691400020B4E12002CDA68
:100A5300B81478E8223F8000004120000042C8001B
:100A630000447A0000461C400047C35000497424E8
:100A7300004B1896804CBEBC205A0E1BCA6753C24B
:100A83001C749DC5AE7C7B60065407681623231235
:100A93000AAD7CB75438680A7F10120AAA1200E420
:100AA3007F01227CB7543803241C6CAA2E540A58A5
:100AB3007E4400FF0B2A0069120002227D02AD3141
:100AC300AD102D21226D0074104D00780B4D22784E
:100AD300278D317D126D22227D437D326D222F11B0
:100AE3002D445002A50FBF1040049F100B901478A3
:100AF300ED7F016D227D34227D417D138D247D02A6
:100B03002F004004BD0440049D040B141478F17DB0
:100B1300237D317D106D0022CA3B7F307A1F00BEDA
:100B23007E1F00CA7F011200E47F717E1F00C67F13
:100B3300011200E47F0712002C7F717E1F00CE7F1D
:100B4300011200E47F0712002C1202AD7F717E1F99
:100B530000C67F071201847A1F00C67E1F00CA7F6A
:100B6300071201847A1F00CA7E1F00CE7F0712017D
:100B7300847A1F00CE7E4F00507E6F00107F167F59
:100B8300041200E47F717E5F00547E1F004C7F05DA
:100B93001200E47F071200296D117E044000120049
:100BA300E47F017E340014591300021B38207F14A4
:100BB3007F051200E47F717E0F004C7F161200E464
:100BC3007F0712002C6D117E0440001200E47F6148
:100BD3007E0F004C7E1F004C1200E47F717E0F00DD
:100BE300107E1F00101200E47F071200297F717F1F
:100BF300147F041200E47F017F171200297F717FA5
:100C0300157F051200E47F0712002C7F717E1F0001
:100C1300CE7F061200E47F517E1F00CA7F071200B9
:100C2300E47F051200297F417E1F00C67F07120063
:100C3300E47F717E340014491300020B38007E1FD9
:100C430000CE1200E47F071200297F517E34001486
:100C5300491300020B38007E1F00CA1200E47F71A3
:100C63007E1F00C67F061200E47F071200297F6102
:100C73007EF4126F7EE43A837F147F071200E47ED2
:100C83000F000C12002C7A1F000C7F157F07120037
:100C9300E47E0F002212002C7A1F00227F167F07AA
:100CA3001200E47E0F002612002C7A1F00267EF429
:100CB300CCCD7EE43F4C7F177F041200E47E0F000F
:100CC300BE12002C7E0F000C12002C7A1F00BE7F78
:100CD300177F051200E47F0312002C7E0F002212FF
:100CE300002C7F317F177F061200E47E0F00C212B3
:100CF300002C7E0F002612002C7A1F00C27E1F00DC
:100D03004C1202057E4F00BE7F041200E47F717E09
:100D13001F00507F031200E47F017F171200297F19
:100D2300717E5F00C27E1F00547F051200E47F01C5
:100D33007F171200297EF4126F7EE43B837F071234
:100D430000E47E0F001012002C7A1F00107E1F009B
:100D5300507F051200E47F617E1F00107F041200A4
:100D6300E47F0612002C7F617E1F00547F03120074
:100D7300E47F017F161200297F071200E47E0F0033
:100D83004C12002C7A1F004C7F051200E47F617E19
:100D93001F00107F031200E47F061200297F617E8B
:100DA3001F00547F041200E47F0612002C7F0712F9
:100DB30000E47E0F005012002C7A1F00507E1F00AB
:100DC3004C7F031200E47F617E1F00107F05120039
:100DD300E47F0612002C7F517E6F00507F167F0444
:100DE3001200E47F017F151200297F071200E47EC1
:100DF3000F005412002C7A1F00547E0F004C7E1FEC
:100E0300004C1200E47F717E0F00107E1F00101251
:100E130000E47F0712002C7F717F167F061200E427
:100E23007F0712002C7F717E1F00547F011200E4A4
:100E33007F0712002C1202AD7F717E1F00107F0707
:100E43001201847A1F00107E1F004C7F0712018459
:100E53007A1F004C7E1F00507F071201847A1F0007
:100E6300507E1F00547F071201847A1F00547E0FA7
:100E730000547E1F004C1200E47F717E0F00507EF1
:100E83001F00101200E47F071200296D117E044039
:100E9300001200E412033D7E142EE17E044265122B
:100EA30000E47A1D087E0F00547E1F00501200E4F8
:100EB3007F717E0F004C7E1F00101200E47F07122B
:100EC300002C6D117E0440001200E412033D7E14D9
:100ED3002EE17E0442651200E47A1F00977E5F00D4
:100EE3004C7F157F051200E47F717E4F00107F1445
:100EF3007F041200E47F0712002C7F717E6F005085
:100F03007F167F061200E47F017F171200297F31CD
:100F13007E7F00547F177F071200E47F017F131247
:100F23000029CA1B7F147F071200E47F717F157F9E
:100F3300061200E47F0712002C6D117E044000129C
:100F430000E4DA0B1223B27E142EE17E0442651212
:100F530000E47A1F009BDA3B22CA3B7F307A73009E
:100F6300BF7AB300BEE40211697E7300C00A372D55
:100F7300377D267E1BA0BEA0B0500302100EBEA07C
:100F8300F7280302100E7EB300C00A3B2D377D26DF
:100F930029B10001BEB0A140720A3A6D229E180029
:100FA300B07E14005E120ABF7A1F01070A1B6D0090
:100FB3002E0802AD2F107A1F01077E1400207E1F1A
:100FC3000107120ABF7A1F01077E0F01077CB17A5E
:100FD3001300C17C727A2300C27C637A3300C37E20
:100FE3000800C47E50201221CB7EB300BE7E730066
:100FF300BF7E0800C41222267EB300BE24107AB33B
:1010030000BE7EB300C00BB10211697E7300C00A3B
:10101300372D377D267E1B70BE70A150030210CD85
:101023007E7300C00A372D377D267E1B70BE70A3EA
:1010330028030210CD7E7300C00A372D377D262981
:10104300B10001BEB0A150030210CD7EA300C00ABF
:101053003A2D377D267E1BA00A3A6D229E1800A1E9
:101063007E14005E120ABF7A1F01070A1B6D009EE1
:101073000800A12F107A1F01077E1400207E1F0194
:1010830007120ABF7A1F01077E0F01077CB17A138B
:1010930000C17C727A2300C27C637A3300C37E086A
:1010A30000C47E50201221CB7EB300BE7E7300BFEE
:1010B3007E0800C41222267EB300BE24107AB30039
:1010C300BE7EB300C00BB10211697E7300C00A3744
:1010D3002D377D267E1B70BE702050030211647E67
:1010E3007300C00A372D377D267E1B70BE707E3895
:1010F300707E7300C00A372D377D267E1B700A373A
:101103006D229E1800207A1F010774042F11147892
:10111300FB7A1F01072E2400032E18CF807A1F01AC
:10112300077E0F01077CB17A1300C17C727A23001A
:10113300C27C637A3300C37E0800E47E5010122120
:10114300CB7EB300BE7E7300BF7E0800E412227C18
:101153007EB300BE24087AB300BE7EB300C0048011
:10116300057EB300C0047AB300C07E7300C00A37A3
:101173002D377D267E1B70BE70002803020F6CDAAC
:101183003B227E3700434D3368030213827E3400D3
:10119300017A3700437E0800851220FE7E730085A6
:1011A3007C477E7300867C647A3700AA7E7300874F
:1011B3007C477E7300887C647A3700AC7E73008939
:1011C3007C477E73008A7C647A3700AE7E73008B23
:1011D3007C477E73008C7C647A3700477E73008D76
:1011E3007C477E73008E7C647A3700B87E53008F11
:1011F3007C257E5300907C427A2700BA7E5300916F
:101203007C257E5300927C427A2700BCBE34FFFFCC
:1012130068247E2700BABE24FFFF681A7E3700BC0D
:10122300BE34FFFF68107E1700B84D1168084D22C9
:1012330068044D33781A7E1700A47A1700B87E1716
:1012430000A67A1700BA7E1700A87A1700BC801090
:101253007E1700B87A1700A47A2700A67A3700A869
:10126300740312290B74FC12290B7E5700B8122940
:101273000B7E3700B81A5612290B7E5700BA122973
:101283000B7E3700BA1A5612290B7E5700BC12295F
:101293000B7E3700BC1A5612290B74FC12290B74EF
:1012A3000312290B7E2700AA7CB41202186DFF7E5D
:1012B300E446007F071201847F41900000793E00DD
:1012C300021BEA207E2700AC7CB41202187F0712AF
:1012D30001847F517A1F00587E2700AE7CB412022E
:1012E300187F071201847F617A1F005E7E2700B892
:1012F3007CB41202187EE442837F071201849000BB
:1013030004793E00021BEA207E2700BA7CB4120255
:10131300187F071201847A1F00647E2700BC7CB407
:101323001202187F071201847A1F007C7EF4FA39B7
:101333007EE43C8E7F071200E47A1F00C27A4F00DE
:10134300C67A5F00CA7A6F00CE900004693E00023D
:101353000BEA207F071200E4CA1B7E1F00647F078D
:101363001200E47F01DA1B120B1B7E1D08120250D0
:101373007A3700497E1F00971202507A3700B02255
:10138300CAF87EF30104BEF004400302143F7E3723
:101393000115BE340001680302143F7E3400017A54
:1013A3003701157E342A567E2400FF7E1BB07E341F
:1013B3002A577E2400FF7E1B707EF42A587EE400A9
:1013C300FF691700020B7A00120F5C7E342A5F7EDE
:1013D3002400FF7E1BB07E342A607E2400FF7E1B28
:1013E300707EF42A617EE400FF691700020B7A0025
:1013F300120F5C7E342A687E2400FF7E1BB07E348D
:101403002A697E2400FF7E1B707EF42A6A7EE40034
:10141300FF691700020B7A00120F5C7E342A717E7B
:101423002400FF7E1BB07E342A727E2400FF7E1BC5
:10143300707EF42A737EE400FF021508BEF0047880
:10144300197E370115BE340001780F1224DFE47AC8
:10145300B301017E340002021530BEF004500302D2
:1014630015147E370115BE34000268030215147E7D
:10147300342A7A7E2400FF7E1BB07E342A7B7E24AE
:1014830000FF7E1B707EF42A7C7EE400FF69170058
:10149300020B7A00120F5C7E342A837E2400FF7EC7
:1014A3001BB07E342A847E2400FF7E1B707EF42AC8
:1014B300857EE400FF691700020B7A00120F5C7E41
:1014C300342A8C7E2400FF7E1BB07E342A8D7E243A
:1014D30000FF7E1B707EF42A8E7EE400FF691700F6
:1014E300020B7A00120F5C7E342A957E2400FF7E65
:1014F3001BB07E342A967E2400FF7E1B707EF42A66
:10150300977EE400FF691700020B7A00120F5C80DC
:1015130020BEF005501B7E370115BE340002781142
:101523001224DF74067AB301017E3400017A370195
:1015330015E47E7301017E142A0A7E0400FF120F54
:101543005C7EB3010112290BDAF8227E730104A534
:10155300BF00137EB30106700DA202E43378077E49
:10156300B300FB048016A5BF00177EB301067011FC
:10157300A202E433B4010A7EB300FB147AB300FB86
:10158300227EA30106BEA00178067E14000180021C
:101593006D11A5BF00067E24000180026D225D212E
:1015A3006809A202E43378030216A2A5BF000FBEA6
:1015B300A001780AA202E433B401030216B9A5BF5D
:1015C30001114CAA780DA202E43378077EB300FC24
:1015D300048014A5BF01154CAA7811A202E433B408
:1015E300010A7EB300FC147AB300FC22A5BF010EEE
:1015F300BEA0017809A202E43378030216A2A5BFB4
:10160300010FBEA001780AA202E433B4010302165B
:10161300B9A5BF02114CAA780DA202E43378077E64
:10162300B300FD048014A5BF02154CAA7811A202D1
:10163300E433B4010A7EB300FD147AB300FD22A59E
:10164300BF020DBEA0017808A202E4337802804FE6
:10165300A5BF020EBEA0017809A202E433B40102C1
:101663008054A5BF03114CAA780DA202E433780776
:101673007EB300FE048014A5BF03154CAA7811A203
:1016830002E433B4010A7EB300FE147AB300FE22EF
:10169300A5BF0312BEA001780DA202E43378077E32
:1016A300B300FF048015A5BF0315BEA0017810A2E7
:1016B30002E433B401097EB300FF147AB300FF22BE
:1016C300CA3B7CD67F707CE77CFB9F117A1F001896
:1016D3007408ACBD0A3F2D352E3400087CF76D111C
:1016E3007E0442C87F171200E41202507A1F001CC6
:1016F3000A5F9E5400187C7E7E142B427E0400FFFA
:10170300120F5C6CCC0217F67ED4000A7E7F001C9D
:101713007F177D1D120AC87A0F00187F177D1D12CF
:101723000AC87A1F001C9EF008BEC00278039EF010
:10173300087E2F0018BE28000A40030217F47EA07B
:1017430003A49017497302176702177502178302E0
:10175300179102179F0217AD0217BB0217C9021791
:10176300D70217E57CBF7C7E7E142B407E0400FFEE
:10177300807C7CBF7C7E7E142B3E7E0400FF806ECB
:101783007CBF7C7E7E142B3C7E0400FF80607CBF8C
:101793007C7E7E142B3A7E0400FF80527CBF7C7ECD
:1017A3007E142B387E0400FF80447CBF7C7E7E1435
:1017B3002B367E0400FF80367CBF7C7E7E142B3468
:1017C3007E0400FF80287CBF7C7E7E142B327E0447
:1017D30000FF801A7CBF7C7E7E142B307E0400FFCA
:1017E300800C7CBF7C7E7E142B2E7E0400FF120FA8
:1017F3005C0BC0BCDC280302170BDA3B227E3700EC
:101803005C4D3368030218CE7E3400017A37005CE6
:101813007E7300801A377A3700E47E08002A7E340C
:101823002B037E2400FF12028DE46C777E08002ACE
:10183300120F5C7E37010D7A3700E47E37010B7A95
:101843003700E27E08002A7E342AFB7E2400FF1242
:10185300028DE47E70027E08002A120F5C7E370040
:10186300A27A3700E47E08002A7E342AF77E240019
:10187300FF12028DE47E70047E08002A120F5C7E44
:101883003700B87A3700E47E3700BA7A3700E27E51
:1018930008002A7E342AEB7E2400FF12028DE47EA8
:1018A30070067E08002A121A457E3700BC7A37007C
:1018B300E47E08002A7E342AE57E2400FF12028D8E
:1018C300E47E70077E08002A021A4522D296D2933C
:1018D3007E3400C81227D374AE6C771225FB7402D2
:1018E3006C771225FB74106C771225FB74406C77B0
:1018F3001225FB74B06C771225FB74816C7712256B
:10190300FB74CF6C771225FB74A16C771225FB74E3
:10191300A66C771225FB74A86C771225FB743F6CB9
:10192300771225FB74AD6C771225FB748B6C7712E1
:1019330025FB74336C771225FB74C86C771225FB77
:1019430074D36C771225FBE46C771225FB74D56C8A
:10195300771225FB74806C771225FB74D96C771290
:1019630025FB741F6C771225FB74DA6C771225FB49
:1019730074126C771225FB74DB6C771225FB7440B1
:101983006C771225FB1224DF74AF6C770225FBCA38
:1019930069CAF87EB3010214680C046803021A4092
:1019A300121383021A407E342A557E2400FF7E1BC5
:1019B300700A277E64000A8D267EF301040A3FBD68
:1019C30032780A7E342A5C7E2400FF805B7E342AD0
:1019D3005E7E2400FF7E1B700A278D260A3FBD32E0
:1019E300780A7E342A657E2400FF803C7E342A6791
:1019F3007E2400FF7E1B700A278D260A3FBD3278A6
:101A03000A7E342A6E7E2400FF801D7E342A707E77
:101A13002400FF7E1B700A278D260A3FBD32780DF6
:101A23007E342A777E2400FF0B1A309934E47E73C8
:101A330001037E142A0A7E0400FF120F5CDAF8DA2F
:101A43006922CA3B7F307A7300BF7AB300BEE48059
:101A53007E7E7300C00A372D377D267E1B70BE70D5
:101A6300204067BE707E38620A376D229E180020C0
:101A73007A1F01072F112F112F117A1F01072E240F
:101A830000032E18BFC07A1F01077E0F01077CB128
:101A93007A1300C17C727A2300C27C637A3300C359
:101AA3007E0800C47E50081221CB7EB300BE7E7335
:101AB30000BF7E0800C41225CF7EB300BE24067A81
:101AC300B300BE7EB300C00480057EB300C0047AB9
:101AD300B300C07E7300C00A372D377D267E1B708E
:101AE300BE70002803021A54DA3B227E342AD47EC5
:101AF3002400FF7E1BB07E342AD57E2400FF7E1B8C
:101B0300707EF42AD67EE400FF691700020B7A0088
:101B1300120F5C7458CAB86C77CA787E4300FEE42F
:101B230012021D7E14D70A7E043C231200E47F01B7
:101B33007E6004DA78DAB81216C37E342ADD7E2496
:101B430000FF7E1BB07E342ADE7E2400FF7E1B70E6
:101B53007EF42ADF7EE400FF691700020B7A00128D
:101B63000F5C7439CAB87E7002CA787E4300FFE402
:101B730012021D7E14D70A7E043C231200E47F0167
:101B83007E6004DA78DAB80216C37E342AB07E2483
:101B930000FF7E1BB07E342AB17E2400FF7E1B70C3
:101BA3007EF42AB27EE400FF691700020B7A00126A
:101BB3000F5C744BCAB86C77CA787E4300FCE4129E
:101BC300021D7E14D70A7E043C231200E47F017EAB
:101BD3006004DA78DAB81216C37E342AB97E240098
:101BE300FF7E1BB07E342ABA7E2400FF7E1B707EEC
:101BF300F42ABB7EE400FF691700020B7A00120F80
:101C03005C7439CAB87E7002CA787E4300FFE4125E
:101C1300021D7E14D70A7E043C231200E47F017E5A
:101C23006004DA78DAB80216C37E342A9E7E240072
:101C3300FF7E1BB07E342A9F7E2400FF7E1B707EB6
:101C4300F42AA07EE400FF691700020B7A00120F4A
:101C53005C7439CAB86C77CA787E4300FBE412021D
:101C63001D7E14D70A7E043C231200E47F017E60AC
:101C730004DA78DAB81216C37E342AA77E2400FF6A
:101C83007E1BB07E342AA87E2400FF7E1B707EF468
:101C93002AA97EE400FF691700020B7A00120F5C89
:101CA3007439CAB87E7002CA787E4300FFE4120218
:101CB3001D7E14D70A7E043C231200E47F017E605C
:101CC30004DA78DAB80216C37E342AC27E2400FF0F
:101CD3007E1BB07E342AC37E2400FF7E1B707EF4FD
:101CE3002AC47EE400FF691700020B7A00120F5C1E
:101CF300744BCAB86C77CA787E4300FDE412021DA8
:101D03007E14D70A7E043C231200E47F017E600424
:101D1300DA78DAB81216C37E342ACB7E2400FF7E2B
:101D23001BB07E342ACC7E2400FF7E1B707EF42AF7
:101D3300CD7EE400FF691700020B7A00120F5C747A
:101D430039CAB87E7002CA787E4300FFE412021DCE
:101D53007E14D70A7E043C231200E47F017E6004D4
:101D6300DA78DAB80216C3A203E433B401028003BB
:101D7300021DFBA2B4E433B401377E3700F9BE344D
:101D830007D0502D6D337A3700F91224DFC2037E5A
:101D9300B30105BEB002500304800274017AB3019B
:101DA30005B40204D2018002C20174017AB30102B4
:101DB30022A2B4E433B401297E3700F9BE340FA064
:101DC300281F6D337A3700F91224DFC203C201E4FE
:101DD3007AB301057AB301027AB301037AB3010638
:101DE30022A2B4E433B401107E3700F9BE3407D025
:101DF30028066D337A3700F922740A7E34FEB27EE8
:101E030024007E7A1BB0E47E34FED07A1BB074EFDC
:101E13007E34FED17A1BB0E47E34FECC7A1BB074E0
:101E2300607E14FEC87E04007E7A0BB07E14FEC969
:101E33007A0BB074117A1BB074037E34FED57A1B0F
:101E4300B074E87E34FED67A1BB074037E34FED7BA
:101E53007A1BB074E87E34FED87A1BB074037E34E8
:101E6300FED27A1BB074E87E34FED37A1BB07405BD
:101E73007E34FEB17A1BB074807E34FEDD7A1BB0F3
:101E830074017E34FEC07A1BB022CAB8CA39C0D1ED
:101E93007E37005C0B347A37005CBE34006478060E
:101EA3006D337A37005C7E3700620B347A37006219
:101EB300BE34000A78066D337A3700627E370043FA
:101EC3000B347A370043BE34003278066D337A37E9
:101ED30000437E370117BE34000028061B347A37CF
:101EE30001177E3700450B347A370045BE3427107F
:101EF3002808A2B4E4337802D203A203E433B40182
:101F03000A7E3700F90B347A3700F9D0D1DA39DA9F
:101F1300B8327E3700624D3378747E3400017A37ED
:101F2300006212216C7AB30080BEB00118097E737F
:101F33000080BE70FF581F7EB30080B4FE07E47AB2
:101F4300B30021801F7EB30080B402187E73004B60
:101F53007A730080800E74017AB300217E7300804F
:101F63007A73004B7E7300801A077E140258AD10FB
:101F73007D312E3700A27A37010D7E2700A29D21E5
:101F83007A27010B1227287EB300210223F722753B
:101F930084017E44041FE47A49B01B4478F97EF837
:101FA3000119C200C201C202C203C2047E0400FFBF
:101FB3007E14292C0B0A405D44681A692000020B29
:101FC3000E0B44800A7E0BB07A29B00B240B0C1B3A
:101FD3004478F280DF7E0400FF7E142B0A0B0A4054
:101FE3005D446822295000020A25693000032E0847
:101FF30000050B44800A7E0BB07A1BB00B1C0B0C44
:102003001B4478F280D7022434A201E433786E7E35
:10201300A301024CAA78187EB30101BEB000402A86
:10202300BEB00438250A3B0B357A730101801BBE11
:10203300A00178167EB30103BEB000400DBEB0020E
:1020430050080A3B0B357A730103BEA00168137E67
:10205300B30104BEB000400ABEB0063805047AB32B
:102063000104BEA00178137EB30106BEB000400A8E
:10207300BEB0013805047AB301060224A8C20202E5
:10208300154EA201E433786E7EA301024CAA7818A0
:102093007EB30101BEB006382ABEB00240250A3B1A
:1020A3001B357A730101801BBEA00178167EB30134
:1020B30003BEB004500DBEB00240080A3B1B357A84
:1020C300730103BEA00168137EB30104BEB00028F0
:1020D3000ABEB0073805147AB30104BEA001781311
:1020E3007EB30106BEB000400ABEB0013805147AC3
:1020F300B301060224A8D20202154ECA3B7F301256
:1021030027B974D01226C3743B1226C31227B9749D
:10211300D11226C3E47AB300BE12269D7EA300BE6D
:102123000A3A2D377D267A1BB0C2B7D2B61228F6EB
:10213300C2B61228F67EB300BE047AB300BE7E7325
:1021430000BEBE700D40D212269D7EA300BE0A3A89
:102153002D377D267A1BB0D2B7D2B61228F6C2B677
:102163001228F61228CDDA3B226CAAA2CAE433B4B1
:1021730001057E700480026C77A2CBE433B40105C1
:102183004E700280035E70FDA285E433B401054EF8
:10219300700180035E70FE2E700068211B7068134F
:1021A3002E70FD68132E70FD68182E700578166C5E
:1021B300AA80127EA0FF800D7EA00180087EA0026F
:1021C30080037EA0FE7CBA22CA3B7A5300F77F309D
:1021D3007A6300F67A7300F57AB300F4C29374035A
:1021E30012279E7EB300F412279E7EB300F51227BA
:1021F3009E7EB300F612279EE480151200037EA391
:1022030000F80A3A2D377D267A1BB07EB300F80416
:102213007AB300F87E7300F7BE7300F838DDD2930B
:10222300DA3B22CA3B7F307A7300F57AB300F4E4D9
:102233007AB300F77EB300F47E7300F5122626E42A
:102243007AB300F67E3BB07E70011225FB0B747EE1
:10225300B300F6047AB300F6B410E97EB300F504D4
:102263007AB300F57EB300F7047AB300F77E730008
:10227300F7BE700240BEDA3B22CA3B7F307A73005E
:10228300F57AB300F4E47AB300F77EB300F47E7317
:1022930000F5122626E47AB300F67E3BB07E700189
:1022A3001225FB0B747EB300F6047AB300F6B40870
:1022B300E97EB300F5047AB300F57EB300F7047A40
:1022C300B300F77E7300F7BE700240BEDA3B22CA4A
:1022D300F8A2B2E4337808A2B3E4337802D200A2BE
:1022E30000E433B40135A2B330B201B35008A2B253
:1022F300E4337AB30100A2B2E433B4011EA2B3E41F
:1023030033B40117C2007EF30100BEF00178051259
:10231300200C80074CFF7803122085DAF822A2B242
:10232300E433B40109A2B3E433B40102D204A20436
:10233300E433B40131A2B330B201B35008A2B3E421
:10234300337AB30100A2B2E433781BA2B3E4337847
:1023530015C2047EB30100B4010312200C7EB30145
:102363000070031220850222D2CA3B7F30E47AB385
:1023730001147AB30113E47E730113122626E47A5F
:10238300B301147E3BB07E70011225FB0B747EB348
:102393000114047AB30114B480E97EB30113047AFF
:1023A300B301137E730113BE700840CADA3B22CA1D
:1023B3000B691FFFFF690FFFFD1201841208507F95
:1023C300717F1F2E34FFFD7E1BB030E7229F007FFD
:1023D300171203AE380A7E140FDB7E0440498008CF
:1023E3007E140FDB7E04C0497F1712002C7F717FA0
:1023F300171BFE227C7BA5BF000A6D337A37010BC6
:102403007A37010D7E17010B1A027E34FED57E2426
:10241300007E7A1B107E34FED67A1B307E17010DA8
:102423001A027E34FED77A1B107E34FED87A1B3014
:102433002212246E1218CFE412274874011225A326
:102443001224DF1228851227EAA9C6A2A9C7A2A9C6
:10245300D4FF1229267E3401907A3700A212251662
:10246300121F1512180012118580F575E900A9D7FE
:10247300BA75EA0075930075940075910075920022
:1024830075950075960075B10075B20075B300754A
:10249300B40075C90075CA0075CB0075CC0075E131
:1024A3000075E20022CA796CEE0A5E2E5400B06C0D
:1024B300771225FB74106C771225FB74026C77126C
:1024C30025FB6CFFE47E70011225FB0BF0BEF010C0
:1024D30078F20BE0BEE00840D0DA7922CA796CFFCB
:1024E3000A5F2E5400B06C771225FB74106C7712C0
:1024F30025FB74026C771225FB6CEEE47E700112EF
:1025030025FB0BE0BEE08078F20BF0BEF00840D074
:10251300DA79221228F61228F61228F61228F6740F
:102523006B6C7712278274197E7007122782741AD4
:102533007E7004122782741B7E7008122782741C1B
:10254300022782CAF87CFB1228AD746C122575121F
:10255300289A7CBF12257512289A1228AD746D1221
:10256300257512289A1226517CFB1228DC7CBFDACF
:10257300F822CA797CFB7EE008C2A074051228EA1F
:102583007CBF30E704D2A28002C2A274051228EAFB
:10259300D2A03EF01228EA1BE078DEC2A0DA79224C
:1025A300CAF87CFB4CFB780E74C86C771225FB745D
:1025B300A16C771225FBBEF001780E74C06C771204
:1025C30025FB74A06C771225FBDAF822CA3B7F3017
:1025D300122626E47AB300CC7E3BB07E700112252E
:1025E300FB0B747EB300CC047AB300CC7E7300CCB7
:1025F300BE700640E3DA3B227C6B4C776804D295CD
:102603008002C295C2967E7008C2C77CB630E704CA
:10261300D2948002C294D2C73E601B7078EBD296EC
:10262300D29522CAF87CFB0BF10A572E5400B06CEA
:10263300771225FB7CBF54F0C4540F44106C7712FF
:1026430025FB7CBF540F6C771225FBDAF822CA797D
:102653006CFF7EE008D2A074051228EA3EF030A297
:10266300034EF001C2A074051228EA1BE078E67C51
:10267300BFDA79227F70A9D6BC0000A935BCFCA9BA
:10268300C5BCE5BD7C4B6C55E5BE0A3B2D32E5BCB4
:102693000A5B0B54F5BC1B7A3022CA796CFFD2B7A4
:1026A3006CEE3EF0D2B61228F6A2B7E4334CFBC26E
:1026B300B61228F60BE0BEE00840E77CBFDA7922C9
:1026C300CA797CFB6CEE3EF0A2D792B7D2B6122841
:1026D300F6C2B61228F60BE0BEE00840E912284520
:1026E300DA7922E5BC0A5B0B54F5BCA9D6BC000021
:1026F300A935BCFCA9C5BCE5BD7C4B6C55E5BE0A40
:102703003B2D3222E5BC54F04408F5BCA9D6BC00ED
:1027130000A935BCFCA9C5BCE5BD7C4B6C55E5BE29
:102723000A3B2D3222BE3400004806C282D2818089
:1027330004D282C281BE2400004805C283D284220F
:10274300D283C28422CAF87CFB4CFB780774A66C44
:10275300771225FBBEF001780774A76C771225FB6F
:10276300DAF82253BCF0A9D6BC0000A935BCFCA9F9
:10277300C5BCE5BD7C4B6C55E5BE0A3B2D3222CA78
:10278300797CEB1227B974D01226C37CBE1226C300
:102793007CB71226C31228CDDA79227C6B7E7008AF
:1027A300C2C77CB630E704D2948002C2943E60D2A2
:1027B300C71B7078EB221228F61228F6D2B7D2B6CE
:1027C3001228F61228F6C2B71228F6C2B60228F665
:1027D3007D13800E7E0407087D301B044D3378F88B
:1027E3001B144D1178EE22759850438E01438E04CD
:1027F30075D78F75D6FD438E10D2ACD2AF22C2A04F
:10280300A20592A274051228EAD2A01228EAC2A055
:10281300D2A20228EA743F7E34FEA87E24007E7A88
:102823001BB075DE2375BCF0A9D7BC22CA3B7F3031
:1028330080087E3BB00B7412290B7E3BB070F3DA39
:102843003B22D2B71228F6D2B61228F6A2B792D7F5
:10285300C2B61228F6A2D722748D6C771225FB74A8
:10286300106C771225FB74AE6C770225FB748D6CAC
:10287300771225FB74146C771225FB74AF6C770207
:1028830025FB538EBF53890F758B9C758DFFC28FAC
:10289300D28ED2ABD2AF22D2A074051228EAA2A262
:1028A3009206C2A01228EAA20622D2A2D2A07405DE
:1028B3001228EAC2A21228EAC2A0227A3701177E9E
:1028C300370117BE34000038F6221228F6C2B7D2F9
:1028D300B61228F6D2B70228F6C2A2D2A074051205
:1028E30028EAD2A20228EA7C7B007C671B70A5BE83
:1028F30000F7227EA0077CBA147CAB78F922C0D102
:10290300309802C298D0D1327AB1993099FDC299E8
:1029130022C282D281C283D28422D282C281D28352
:10292300C28422121DFC02291400010021010004AB
:102933000022000000000004002600000000000246
:10294300004500000002004900000004004C0000A4
:1029530000000004005000000000000400540000C8
:10296300000000040058000000000004005E0000A6
:10297300000000040064000000000004007C00006C
:10298300000000040081000000000002009300002A
:1029930000020095000000040097000000000004FE
:1029A300009B00000000000200B00000000200B223
:1029B3000000000200B40000000200B600000004A2
:1029C300000C00000000000400103F800000000421
:1029D30000080000000000040107000000000002DE
:1029E30001150001000200F90000000101040000CC
:1029F3000101050000010106000002010B000000B7
:102A030002010D000000003E00B2E2CAD4B7A2C723
:102A1300F23A00B8A9D1F6BDC73A00B5F7D7F3D358
:102A2300D23A00B9A6C4DC3A00D7AACBD93A00C639
:102A3300E4CBFB00BFD8D6C600B8A9D1F6BDC7000A
:102A4300BDC7B6C8B5F7BDDA00D7AACBD9B5F7BDB0
:102A5300DA000A100000FF2A4C1C2C0B100200FFA6
:102A63002A431B8D0C100400FF2A3C1CCB0D1006BF
:102A730000FF2A371AEE0E100000FF2A3200000F63
:102A8300100200FF2A32000010100400FF2A320057
:102A93000011100600FF2A320000140F0000FF2A65
:102AA3002C0000150F0200FF2A260000160F00005D
:102AB300FF2A1E0000170F0200FF2A260000180F2E
:102AC3000000FF2A160000190F0200FF2A2600004B
:102AD3001A0F0000FF2A0C00001B0F0200FF2A261A
:102AE30000005A3A25336400583A25336420593A92
:102AF30025336400253364002533642C25336400B7
:102B030025316420202000000401000000000000A3
:102B1300000401000400000000000401000800009C
:102B23000000000201000C000000003900380037EB
:102B33000036003500340033003200310030002EFF
:012B43000091
:00000001FF
