:100000000210B86CAA7E7008C2C73EA03097020BDF
:0A001000A0D2C71B7078F17CBA2261
:03001B0002106F61
:10002300021486CA3B7F307A7300227AB30021E43C
:100033000202337E7300230A372D377D267E1BA0F1
:10004300BEA0B050030200D8BEA0F728030200D818
:100053007EB300230A3B2D377D2629B10001BEB0B4
:10006300A140720A3A6D229E1800B07E14005E12FF
:1000730005857A1F006A0A1B6D002E0802AD2F103A
:100083007A1F006A7E1400207E1F006A1205857A9B
:100093001F006A7E0F006A7CB17A1300247C727A97
:1000A3002300257C637A3300267E0800277E5020B8
:1000B300120ECE7EB300217E7300227E080027122B
:1000C3000F297EB3002124107AB300217EB30023CD
:1000D3000BB10202337E7300230A372D377D267E50
:1000E3001B70BE70A150030201977E7300230A3771
:1000F3002D377D267E1B70BE70A328030201977ED9
:100103007300230A372D377D2629B10001BEB0A124
:1001130050030201977EA300230A3A2D377D267EE2
:100123001BA00A3A6D229E1800A17E14005E1205E0
:10013300857A1F006A0A1B6D009E0800A12F107AA2
:100143001F006A7E1400207E1F006A1205857A1F35
:10015300006A7E0F006A7CB17A1300247C727A23D2
:1001630000257C637A3300267E0800277E50201208
:100173000ECE7EB300217E7300227E080027120F6D
:10018300297EB3002124107AB300217EB300230B10
:10019300B10202337E7300230A372D377D267E1B7F
:1001A30070BE7020500302022E7E7300230A372D87
:1001B300377D267E1B70BE707E38707E7300230AE7
:1001C300372D377D267E1B700A376D229E1800203F
:1001D3007A1F006A74042F111478FB7A1F006A2EA9
:1001E3002400032E18CF807A1F006A7E0F006A7CDA
:1001F300B17A1300247C727A2300257C637A33005E
:10020300267E0800477E5010120ECE7EB300217E5C
:100213007300227E080047120F7F7EB3002124085B
:100223007AB300217EB300230480057EB300230448
:100233007AB300237E7300230A372D377D267E1B76
:1002430070BE70002803020036DA3B22CAF87EF340
:100253000062BEF004400302030B7E370076BE3417
:100263000001680302030B7E3400017A3700767EB7
:100273003414E57E2400FF7E1BB07E3414E67E2416
:1002830000FF7E1B707EF414E77EE400FF69170015
:10029300020B7A001200267E3414EE7E2400FF7EC9
:1002A3001BB07E3414EF7E2400FF7E1B707EF4149B
:1002B300F07EE400FF691700020B7A001200267E2D
:1002C3003414F77E2400FF7E1BB07E3414F87E24A2
:1002D30000FF7E1B707EF414F97EE400FF691700B3
:1002E300020B7A001200267E3415007E2400FF7E66
:1002F3001BB07E3415017E2400FF7E1B707EF41537
:10030300027EE400FF0203D4BEF00478197E3700B6
:1003130076BE340001780F1211B8E47AB3005F7E21
:100323003400020203FCBEF00450030203E07E37F4
:100333000076BE34000268030203E07E3415097EB2
:100343002400FF7E1BB07E34150A7E2400FF7E1B33
:10035300707EF4150B7EE400FF691700020B7A0030
:100363001200267E3415127E2400FF7E1BB07E34DD
:1003730015137E2400FF7E1B707EF415147EE400AB
:10038300FF691700020B7A001200267E34151B7ECC
:100393002400FF7E1BB07E34151C7E2400FF7E1BD1
:1003A300707EF4151D7EE400FF691700020B7A00CE
:1003B3001200267E3415247E2400FF7E1BB07E347B
:1003C30015257E2400FF7E1B707EF415267EE40037
:1003D300FF691700020B7A001200268020BEF00589
:1003E300501B7E370076BE34000278111211B874A8
:1003F300067AB3005F7E3400017A370076E47E73B9
:10040300005F7E1414997E0400FF1200267EB30061
:100413005F121490DAF8225D22680D5D0078122DC8
:10042300220B4068099F11222D000B0078F9020569
:10043300711205345C800B806808248150072CB04E
:10044300500A0205792CB040030205767C8B5D11BE
:1004530078267CB17CA5BE1080680A5D33780DA533
:10046300BD80057F100205636D0080307F017C5BDA
:100473007CB17CA5AD1280245D337806A5BD80F0E8
:1004830080E1CA887D41AD437CB17CA5AD122D14BA
:1004930050020B047C5BAD232F01DA88A42D05BE2B
:1004A300008040060B80780480982F007C437C50AA
:1004B3007C617C7202054D7EA020800C7EA01080A2
:1004C300057EA0086C556D333392D5500A6E34FF08
:1004D300FF6E24FFFF0B1CA5EC3340062F11D5F054
:1004E300F6227CBA247EA2D5137C767C65A5CC92B9
:1004F300E77C5B227CB5337CB43392D54E508024A9
:100503008140039F11227C457C567C676C7724E0F5
:10051300500E7E1CFFFF221E341E2450034E6080AB
:100523000478F430D50A6E34FFFF6E24FFFF0B1CF2
:10053300222D0092D50E104E10807D422D44500284
:10054300B2D54E50806C447CB8222C4450120B1C04
:100553007E40005E507FBE18000078040B80681652
:10056300A2D57CB8137C4B7CB592E77C5B227E1CC6
:10057300FFFF229F11227E24FF8020D5026C456D50
:1005830033227D02AD31AD102D21226D0074104D4B
:1005930000780B4D2278278D317D126D22227D4309
:1005A3007D326D222F112D445002A50FBF10400440
:1005B3009F100B901478ED7F016D227D34227D41D5
:1005C3007D138D247D022F004004BD0440049D044F
:1005D3000B141478F17D237D317D106D00227E7321
:1005E3000062A5BF001C7EB300647016A202E43350
:1005F30078107EB30059047AB300597EB3007804AF
:10060300801FA5BF00207EB30064701AA202E433EA
:10061300B401137EB30059147AB300597EB3007842
:10062300147AB30078227EA30064BEA00178067E0C
:1006330014000180026D11A5BF00067E2400018015
:10064300026D225D216809A202E4337803020747A1
:10065300A5BF000FBEA001780AA202E433B40103D0
:1006630002075EA5BF01114CAA780DA202E43378FC
:10067300077EB3005A048014A5BF01154CAA781154
:10068300A202E433B4010A7EB3005A147AB3005AC7
:1006930022A5BF010EBEA0017809A202E4337803AC
:1006A300020747A5BF010FBEA001780AA202E433E7
:1006B300B4010302075EA5BF02114CAA780DA20282
:1006C300E43378077EB3005B048014A5BF02154CA6
:1006D300AA7811A202E433B4010A7EB3005B147A50
:1006E300B3005B22A5BF020DBEA0017808A202E4FD
:1006F300337802804FA5BF020EBEA0017809A20283
:10070300E433B401028054A5BF03114CAA780DA2AF
:1007130002E43378077EB3005C048014A5BF03159D
:100723004CAA7811A202E433B4010A7EB3005C142C
:100733007AB3005C22A5BF0312BEA001780DA2020A
:10074300E43378077EB3005D048015A5BF0315BEAF
:10075300A0017810A202E433B401097EB3005D1452
:100763007AB3005D22CA3B7CD67F707CE77CFB9F1B
:10077300117A1F00167408ACBD0A3F2D352E3400C4
:10078300087CF76D117E0442C87F1712041A120405
:10079300F77A1F001A0A5F9E5400187C7E7E141598
:1007A300B77E0400FF1200266CCC02089B7ED400A7
:1007B3000A7E7F001A7F177D1D12058E7A0F0016A1
:1007C3007F177D1D12058E7A1F001A9EF008BEC08A
:1007D3000278039EF0087E2F0016BE28000A40030D
:1007E3000208997EA003A49007EE7302080C020886
:1007F3001A02082802083602084402085202086056
:1008030002086E02087C02088A7CBF7C7E7E141577
:10081300B57E0400FF807C7CBF7C7E7E1415B37E96
:100823000400FF806E7CBF7C7E7E1415B17E0400C5
:10083300FF80607CBF7C7E7E1415AF7E0400FF804A
:10084300527CBF7C7E7E1415AD7E0400FF80447C09
:10085300BF7C7E7E1415AB7E0400FF80367CBF7C9C
:100863007E7E1415A97E0400FF80287CBF7C7E7EDB
:100873001415A77E0400FF801A7CBF7C7E7E1415AE
:10088300A57E0400FF800C7CBF7C7E7E1415A37EB6
:100893000400FF1200260BC0BCDC28030207B0DAF9
:1008A3003B22D296D2937E3400C81213AE74AE6C40
:1008B300771212A474026C771212A474106C77125C
:1008C30012A474406C771212A474B06C771212A441
:1008D30074816C771212A474CF6C771212A474A172
:1008E3006C771212A474A66C771212A474A86C7796
:1008F3001212A4743F6C771212A474AD6C771212A7
:10090300A4748B6C771212A474336C771212A474D0
:10091300C86C771212A474D36C771212A4E46C77A8
:100923001212A474D56C771212A474806C7712120D
:10093300A474D96C771212A4741F6C771212A47466
:10094300DA6C771212A474126C771212A474DB6C33
:10095300771212A474406C771212A474AF6C7712DE
:1009630012A474816C771212A4E46C770212A4CAE5
:1009730069CAF87EB3006014680C046803020A2095
:1009830012024F020A207E3414E47E2400FF7E1BF1
:10099300700A277E64000A8D267EF300620A3FBD3B
:1009A30032780A7E3414EB7E2400FF805B7E34149D
:1009B300ED7E2400FF7E1B700A278D260A3FBD3281
:1009C300780A7E3414F47E2400FF803C7E3414F6CF
:1009D3007E2400FF7E1B700A278D260A3FBD3278D6
:1009E3000A7E3414FD7E2400FF801D7E3414FF7EB6
:1009F3002400FF7E1B700A278D260A3FBD32780D27
:100A03007E3415067E2400FF0B1A309934E47E737E
:100A130000617E1414997E0400FF120026DAF8DACE
:100A23006922CA3B7F307A7300097AB30008E480F5
:100A33007E7E73000A0A372D377D267E1B70BE70BB
:100A4300204067BE707E38620A376D229E180020F0
:100A53007A1F006A2F112F112F117A1F006A2E247B
:100A630000032E18BFC07A1F006A7E0F006A7CB194
:100A73007A13000B7C727A23000C7C637A33000DAB
:100A83007E08000E7E5008120ECE7EB300087E73E1
:100A930000097E08000E1212787EB3000824067A3D
:100AA300B300087EB3000A0480057EB3000A047A0B
:100AB300B3000A7E73000A0A372D377D267E1B702A
:100AC300BE70002803020A34DA3B227E3415637EAB
:100AD3002400FF7E1BB07E3415647E2400FF7E1B42
:100AE300707EF415657EE400FF691700020B7A003F
:100AF3001200267458CAB86C77CA787E43005CE447
:100B03001204C47E14D70A7E043C2312041A7F0104
:100B13007E6004DA78DAB81207687E34156C7E24B6
:100B230000FF7E1BB07E34156D7E2400FF7E1B709C
:100B33007EF4156E7EE400FF691700020B7A001243
:100B430000267439CAB87E7002CA787E43005DE419
:100B53001204C47E14D70A7E043C2312041A7F01B4
:100B63007E6004DA78DAB80207687E34153F7E24A3
:100B730000FF7E1BB07E3415407E2400FF7E1B7079
:100B83007EF415417EE400FF691700020B7A001220
:100B93000026744BCAB86C77CA787E43005AE412B5
:100BA30004C47E14D70A7E043C2312041A7F017EF8
:100BB3006004DA78DAB81207687E3415487E2400B8
:100BC300FF7E1BB07E3415497E2400FF7E1B707EA2
:100BD300F4154A7EE400FF691700020B7A00120045
:100BE300267439CAB87E7002CA787E43005DE41267
:100BF30004C47E14D70A7E043C2312041A7F017EA8
:100C03006004DA78DAB80207687E34152D7E240092
:100C1300FF7E1BB07E34152E7E2400FF7E1B707E6C
:100C2300F4152F7EE400FF691700020B7A0012000F
:100C3300267439CAB86C77CA787E430059E4120423
:100C4300C47E14D70A7E043C2312041A7F017E60FB
:100C530004DA78DAB81207687E3415367E2400FF8A
:100C63007E1BB07E3415377E2400FF7E1B707EF41E
:100C730015387EE400FF691700020B7A0012002684
:100C83007439CAB87E7002CA787E43005DE41204E8
:100C9300C47E14D70A7E043C2312041A7F017E60AB
:100CA30004DA78DAB80207687E3415517E2400FF2F
:100CB3007E1BB07E3415527E2400FF7E1B707EF4B3
:100CC30015537EE400FF691700020B7A0012002619
:100CD300744BCAB86C77CA787E43005BE41204C4D1
:100CE3007E14D70A7E043C2312041A7F017E60041B
:100CF300DA78DAB81207687E34155A7E2400FF7E4C
:100D03001BB07E34155B7E2400FF7E1B707EF415C2
:100D13005C7EE400FF691700020B7A001200267460
:100D230039CAB87E7002CA787E43005DE41204C4F7
:100D33007E14D70A7E043C2312041A7F017E6004CA
:100D4300DA78DAB8020768A203E433B40102800355
:100D5300020DDBA2B4E433B401377E370057BE344F
:100D630007D0502D6D337A3700571211B8C2037E66
:100D7300B30063BEB002500304800274017AB3006F
:100D830063B40204D2018002C20174017AB3006029
:100D930022A2B4E433B401297E370057BE340FA036
:100DA300281F6D337A3700571211B8C203C201E40A
:100DB3007AB300637AB300607AB300617AB30064F4
:100DC30022A2B4E433B401107E370057BE3407D0F7
:100DD30028066D337A37005722A201E433786E7EFA
:100DE300A300604CAA78187EB3005FBEB000402A0F
:100DF300BEB00438250A3B0B357A73005F801BBEF7
:100E0300A00178167EB30061BEB000400DBEB002F3
:100E130050080A3B0B357A730061BEA00168137E4C
:100E2300B30062BEB000400ABEB0063805047AB310
:100E33000062BEA00178137EB30064BEB000400A16
:100E4300BEB0013805047AB30064021181C2020204
:100E530005E1A201E433786E7EA300604CAA781802
:100E63007EB3005FBEB006382ABEB00240250A3BFF
:100E73001B357A73005F801BBEA00178167EB3001A
:100E830061BEB004500DBEB00240080A3B1B357A68
:100E9300730061BEA00168137EB30062BEB0002878
:100EA3000ABEB0073805147AB30062BEA0017813F6
:100EB3007EB30064BEB000400ABEB0013805147AA8
:100EC300B30064021181D2020205E1CA3B7A5300E6
:100ED300687F307A6300677A7300667AB30065C20D
:100EE3009374031213937EB300651213937EB300BE
:100EF300661213937EB30067121393E480151200F6
:100F0300037EA300690A3A2D377D267A1BB07EB390
:100F13000069047AB300697E730068BE73006938A0
:100F2300DDD293DA3B22CA3B7F307A73006F7AB308
:100F3300006EE47AB300717EB3006E7E73006F12AD
:100F430012CFE47AB300707E3BB07E70011212A41C
:100F53000B747EB30070047AB30070B410E97EB3EF
:100F6300006F047AB3006F7EB30071047AB300712B
:100F73007E730071BE700240BEDA3B22CA3B7F30F3
:100F83007A7300737AB30072E47AB300757EB300A8
:100F9300727E7300731212CFE47AB300747E3BB097
:100FA3007E70011212A40B747EB30074047AB30032
:100FB30074B408E97EB30073047AB300737EB3009C
:100FC30075047AB300757E730075BE700240BEDA95
:100FD3003B22CAF8A2B2E4337808A2B3E43378021E
:100FE300D200A200E433B40135A2B330B201B3504E
:100FF30008A2B2E4337AB3005EA2B2E433B4011EB2
:10100300A2B3E433B40117C2007EF3005EBEF00165
:101013007805120DDC80074CFF7803120E55DAF8C1
:1010230022A2B2E433B40109A2B3E433B40102D27D
:1010330004A204E433B40131A2B330B201B35008C3
:10104300A2B3E4337AB3005EA2B2E433781BA2B353
:10105300E4337815C2047EB3005EB40103120DDCE1
:101063007EB3005E7003120E55020FD5CA7BCA6BA6
:10107300CA5BCA4BCA2BCA1BCA0BC0D1C0D0C08320
:10108300C0821212FAA2B4E4337802D203A203E4B8
:1010930033B4010A7E3700570B347A370057D082B6
:1010A300D083D0D0D0D1DA0BDA1BDA2BDA4BDA5B70
:1010B300DA6BDA7B327584017E44041FE47A49B02B
:1010C3001B4478F97EF8007AC200C201C202C2034F
:1010D300C2047E0400FF7E1415740B0A405D44684D
:1010E3001A692000020B0E0B44800A7E0BB07A298A
:1010F300B00B240B0C1B4478F280DF021325CA3B90
:101103007F30E47AB3001F7AB3001EE47E73001EBF
:101113001212CFE47AB3001F7E3BB07E700112122D
:10112300A40B747EB3001F047AB3001FB480E97E5E
:10113300B3001E047AB3001E7E73001EBE70084007
:10114300CADA3B2275E900A9D7BA75EA007593009C
:1011530075940075910075920075950075960075EC
:10116300B10075B20075B30075B40075C90075CAD6
:101173000075CB0075CC0075E10075E20022CA79D9
:101183006CEE0A5E2E5400B06C771212A474106CCD
:10119300771212A474026C771212A46CFFE47E70AF
:1011A300011212A40BF0BEF01078F20BE0BEE008BF
:1011B30040D0DA7922CA796CFF0A5F2E5400B06CF2
:1011C300771212A474106C771212A474026C771243
:1011D30012A46CEEE47E70011212A40BE0BEE08058
:1011E30078F20BF0BEF00840D0DA7922CAF87CFB23
:1011F30012145B746C12121E1214487CBF12121E5E
:1012030012144812145B746D12121E121448121336
:101213004F7CFB12146C7CBFDAF822CA797CFB7E0C
:10122300E008C2A0740512147A7CBF30E704D2A28E
:101233008002C2A2740512147AD2A03EF012147A6C
:101243001BE078DEC2A0DA7922CAF87CFB4CFB787B
:101253000E74C86C771212A474A16C771212A4BE18
:10126300F001780E74C06C771212A474A06C77121C
:1012730012A4DAF822CA3B7F301212CFE47AB30009
:101283007A7E3BB07E70011212A40B747EB3007A97
:10129300047AB3007A7E73007ABE700640E3DA3BC9
:1012A300227C6B4C776804D2958002C295C2967EED
:1012B3007008C2C77CB630E704D2948002C294D2CD
:1012C300C73E601B7078EBD296D29522CAF87CFB9E
:1012D3000BF10A572E5400B06C771212A47CBF5442
:1012E300F0C4540F44106C771212A47CBF540F6CDB
:1012F300771212A4DAF8227EB30079047AB3007964
:101303007E730079BE70C84005E47AB300797E73BA
:101313000079BE7300784005C2EBC2EA22D2EBD259
:10132300EA221211471208A5E4121375E412124CB3
:101333001211B81214331213C5A9C6A2A9C7A2A9C0
:10134300D4FFD282C281D283C28480FECA796CFF69
:101353007EE008D2A0740512147A3EF030A2034E48
:10136300F001C2A0740512147A1BE078E67CBFDAA0
:101373007922CAF87CFB4CFB780774A66C771212AF
:10138300A4BEF001780774A76C771212A4DAF822CE
:101393007C6B7E7008C2C77CB630E704D2948002AF
:1013A300C2943E60D2C71B7078EB227D13800E7E01
:1013B3000407087D301B044D3378F81B144D117856
:1013C300EE22759850438E01538EFB75D7E675D682
:1013D300FF438E10D2ACD2AF22C2A0A20592A27458
:1013E3000512147AD2A012147AC2A0D2A202147ADD
:1013F300CA3B7F3080087E3BB00B741214907E3B57
:10140300B070F3DA3B22748D6C771212A474106CF3
:10141300771212A474AE6C770212A4748D6C7712D7
:1014230012A474146C771212A474AF6C770212A412
:10143300538EBF53890F758B9C758DFFC28FD28ED0
:10144300D2ABD2AF22D2A0740512147AA2A2920612
:10145300C2A012147AA20622D2A2D2A07405121438
:101463007AC2A212147AC2A022C2A2D2A074051216
:10147300147AD2A202147A7C7B007C671B70A5BE0F
:1014830000F722C0D1309802C298D0D1327AB199F4
:101493003099FDC299223E00B2E2CAD4B7A2C7F284
:1014A3003A00B8A9D1F6BDC73A00B5F7D7F3D3D2FE
:1014B3003A00B9A6C4DC3A00D7AACBD93A00C6E4AD
:1014C300CBFB00BFD8D6C600B8A9D1F6BDC700BDB7
:1014D300C7B6C8B5F7BDDA00D7AACBD9B5F7BDDA19
:1014E300000A100000FF14DB0C0C0B100200FF14A9
:1014F300D20B6D0C100400FF14CB0CAB0D100600C7
:10150300FF14C60ACE0E100000FF14C100000F1016
:101513000200FF14C1000010100400FF14C10000FA
:1015230011100600FF14C10000140F0000FF14BBCC
:101533000000150F0200FF14B50000160F0000FF96
:1015430014AD0000170F0200FF14B50000180F00C0
:1015530000FF14A50000190F0200FF14B500001AC4
:101563000F0000FF149B00001B0F0200FF14B500C7
:10157300000004006A000000000002007600010081
:101583000200570000000100620000010063000038
:10159300010064000001007864000100790000008C
:1015A300390038003700360035003400330032008C
:0615B300310030002E00A3
:00000001FF
