:10000000021FC96CAA7E7008C2C73EA03097020BBF
:0A001000A0D2C71B7078F17CBA2261
:07001B000221352830290005
:1000230002299402039A6E00807CB1337CB033685A
:100033000D0468EF7CB5337CB43378037F1022045E
:1000430068E17D5092F77D457D51BF2140067C805C
:100053007F017F1212035D7EA1D05CB00478032080
:10006300D5C17CB00478075002B2D50203A292D561
:10007300BE80FF68F67CB89CB06C00602AB418059B
:100083007C4102037650FB80032F00047C9B5E902F
:100093000778F630E4067C437D106D0030E3087C7E
:1000A300437C327C210A0030F5199F10780E22021E
:1000B300039F1B8068F92F1150020B707CB530E74A
:1000C300F1801B2D317CB5A5397C5B50110B8078F9
:1000D300030203A21E341350034E60801A2B020343
:1000E300765D22680D5D0078122D220B4068099F12
:1000F30011222D000B0078F902039A12035D5C8034
:100103000B806808248150072CB0500A0203A22CEC
:10011300B0400302039F7C8B5D1178267CB17CA5E4
:10012300BE1080680A5D33780DA5BD80057F10027F
:10013300038C6D0080307F017C5B7CB17CA5AD12AC
:1001430080245D337806A5BD80F080E1CA887D41B7
:10015300AD437CB17CA5AD122D1450020B047C5B26
:10016300AD232F01DA88A42D05BE008040060B8045
:10017300780480982F007C437C507C617C7202035E
:1001830076BE24FFFF6806BE04FFFF780302039ACE
:1001930012035D5CB00468F57CB8A54868EF7CB8D1
:1001A30070039F1122A5B800030203A22E00815001
:1001B300079C80380702039F9C8050ED0A51C2E7D9
:1001C3004D51780302038C7E5400807E901A6C009C
:1001D30080061B9068142F11BF1040049F104CAB76
:1001E3000330E7EECAA86CAA80E8DA39DA587C4A09
:1001F300BE5080500A1B8068BC2F1150020B700246
:1002030003765D226809BE24FFFF68036E408022E7
:100213007EA020800C7EA01080057EA0086C556D0A
:10022300333392D5500A6E34FFFF6E24FFFF0B1C4D
:10023300A5EC3340062F11D5F0F6227CBA247EA21A
:10024300D5137C767C65A5CC92E77C5B227CB533A9
:100253007CB43392D54E5080248140039F11227C7D
:10026300457C567C676C7724E0500E7E1CFFFF2292
:100273001E341E2450034E60800478F430D50A6E79
:1002830034FFFF6E24FFFF0B1C227F707F517EC45F
:1002930000007ED400F67E9402A00204214005E40F
:1002A3007A7BB0227A7BB00B7C227CB5A2E7D2E7C3
:1002B3007C1B7CB4334009680DB4FF0BA5BDFF0361
:1002C30002039A0203A2227C0B2481C2E0F582F48A
:1002D300042CB07C2BC3137C4B7CB592E77C5B7FF7
:1002E300417CB6A2E77CB1A5BA7F02C31334009464
:1002F300007C2B7EA091A47CBA13F494FEACB233A1
:100303007CBA33248CD3137C5BE492E77C6B6C77ED
:100313007E403F7583027F517F017F141201847FEA
:100323000512002C9E240080D583EB7E01826C1184
:100333000E041E042D205E407F227F617F01120088
:10034300E46E40806D117E043F8012002C1202ADDA
:100353007F017F161201840208502D0092D50E10E2
:100363004E10807D422D445002B2D54E50806C44D5
:100373007CB8222C4450120B1C7E40005E507FBE82
:1003830018000078040B806816A2D57CB8137C4B48
:100393007CB592E77C5B227E1CFFFF229F11227EAD
:1003A30024FF8020D5026C456D332274F86CAA6E4D
:1003B30040806E0080BEB0FF68277C837C975C3BE7
:1003C3005C7BBF10682AF4400D7C382D15F45C3B30
:1003D300500F0B04800B7C792D35F45C7B50020BA2
:1003E30024BF10680B7CB020E7067CB420E701B380
:1003F30022540F2490D43440D430F30CBEB0414087
:1004030007BEB05B500224204CCC68021BC00B8497
:10041300D389944CCC680B742012040B80F5CA3B2F
:100423006D889F337CAE7E5BB00B5C7007C37D38F9
:10043300DA3B8994B42569C2F37E5BB00B5CA5F803
:1004430024D0BEB00A501B7E500A20F60DAC5CA52A
:100453002D7CCB70034EF00180DDAC5DA52D7CDBE4
:1004630080D524CFBEB01AA5E850055E00DFD2F3D5
:100473009007F6A3E4936011BCB078F77417934C1C
:10048300AB30F6B34EF08080AEA3E4936010BCB003
:1004930078F77416937C3B7423937C2B89147CB07C
:1004A3008013742012040B20F205BEC00250F31B0C
:1004B3006D29B6000112040B0204161B6E691600A7
:1004C300020B6A00BE08000078087E0400FF7E1459
:1004D300001E20F21E4CCC681A7F10E47E1B804C59
:1004E3008868070B1C04BCBD78F2C2F6CA0B120560
:1004F300F5DA0B7E0BB060C0CA0B12040BDA0B0BE0
:100503000C4CDD68EE1BD078EA80ADD2F07E101083
:1005130080037E10085EB05F800AD2F67E100A80E8
:10052300057E100AC2F66D119F117E00201B6C7EA2
:100533006B7030F6021A3720F1051B6C7E6B60304E
:10054300F6041A261A2430F0051B6D0B6A20A5EC5D
:100553003382F692F6500A7CEA9F229F217F127C17
:10056300AE4C44780F7C457C567C676C772E00F844
:1005730078EF80122F117CB3337C3B9CB140047C19
:100583003B0B70A5D8EE7CB230E005DAB8C44C3B27
:10059300CA380B207E00207E3000BE18000078C1D0
:1005A300BE1008780730F404C2F480B5CA287CB2C0
:1005B300BCBD38027CBD1205F5DA28BC2D500A1BE0
:1005C300D0E4CA281203F480F07CB213DAB84004F2
:1005D300C4CAB8C4CA28BEF08040095CDD7805A54A
:1005E300DA0260065EF07F1203F4DA28A5DADA0293
:1005F3000416BEF001680F30F402240220F5062031
:10060300F70330F6010420F229BCBC5025CAB87C9C
:10061300BF13B0E67420501174307C8A5E80F0689A
:10062300081206355EA00F800312040BDAB8BCBCB7
:1006330078DB30F40F743012040B745830F3027407
:100643007812040B30F605742D02040B742B20F57D
:10065300F8742020F7F3221B6C7E6BB010F1021BA1
:100663006C20F60B30E704F404D2F27CCB80052037
:10067300E7057CDB02043A5EF07F80F81B6E6916A7
:1006830000020B6A0030F0076D221B0A200B0D1BC2
:100693000A80020425E46C22BE3007500B7F1F2D15
:1006A300312E34FFF77E39B0227CBF20E7A8742EA9
:1006B3004EF08002040B1207DF403D7CBD70030443
:1006C3007CDB1209E87C3D4C3368101B307CBE2078
:1006D300E40912069870044C3378F07CBD7CD3BED9
:1006E300A0FD481CBCAB5818E49CBA2CB31801E419
:1006F3007CDB0207801207DF406E7CBD041209E831
:100703007AFBA07CAE7CBDA2F492F0C2F4400260FE
:10071300010424051205F57E30FF0B30120698CA3A
:10072300381203F420F0044CDD68031206ACDA3807
:10073300BC3D78E6740E1203F4742B7EFBA030F7F5
:1007430007742D6EA0FF0BA07AFBA012040B7EA0F2
:100753000A7EFBB0847AFBA01203F47EFBB0120383
:10076300F49EF80008020416D2F27ED0000204D5EB
:100773001207DF40F37CBA2CBD041209E87AFBA010
:100783007CBA7CAE30E701E40420F4044CDD680558
:10079300D2F0C2F4042CBD1205F56C337EFBB060BD
:1007A3001B20E712147AFBB0120698CA381203F41E
:1007B300DA380B3080E6047AFBB01B30120698CA95
:1007C300381203F44CDD68071206AC1BD080E19E9F
:1007D300F8000930F0031206AC0204167CEA7CAF81
:1007E30010F7037ED0067CFA1B6E693600020B6A93
:1007F300200209302D2B204C4248232E0053584F02
:1008030044494355502A4E4645470004208001027F
:10081300001040BE10151D1DAA240E5A7F73F8B98F
:1008230004050505050405050606070606BE124967
:10083300253E4CCCCDBEAAAAAB3F8000003E7ADB5E
:10084300B03EED63383F24BC7D3F490FDB7DC25E84
:10085300407FBE247F804010680302039A7E340FDA
:10086300DB7E243FC90209145EC480007D522D55EE
:10087300BEA07F401378049420400D7F017E243F67
:10088300806D331201840BC47CB5337CB433248470
:1008930030E7046DDD803E047CAB7CB5D2E754F0D9
:1008A300C333D5F0FC5407340023230ADB7F417F95
:1008B300017C4BE412021D1B417F711200E47E0494
:1008C3003F806D1112002C7F077F717F1412002966
:1008D3007F071201847F717E9408307E8400FF7449
:1008E30003120A2B7F071200E45DDD68147E5408AF
:1008F3003C7E4400FF2D5D0B2A00691200021200AA
:100903002C7D5C30E00B7E04BFC97E140FDB12002C
:100913002C5D2268095E407F5EC480004D2C224E10
:10092300614E002B494E46002D494E46007D522D07
:10093300557CBE92E67CEB7CBA601F0470287CB5C4
:10094300C2E77E0400FF60067E140922D3227E14D0
:10095300092B40047E140926D322DA099F22CA2BCD
:10096300CA2BC3CA09220A0A7E144D10AD109E0871
:100973003AF09E10267CB5C2E77EA0567C9BA46EFF
:1009830054FFFF2E54C511ACA92D15E4A539CAB8DF
:10099300CA1B20E70A120A88DA1B120184800AF4B0
:1009A30004120A88DA1B1200E4DAA87CB5337CB49B
:1009B300334E50806C4424822F111478FBDA49742F
:1009C30007BE400A40099E400ACA0201140BA0CA8E
:1009D300486C442F117F012F112F112F101478EF22
:1009E300CA48CA49227F0F20E73ABEB007400274C3
:1009F300070A0B2D109E1400097E19B02EB0FB5070
:100A03001F4C116817E47A19B01B147E19B0047ACD
:100A130019B0B40A0BE47A19B0A5D9ED0BA074018F
:100A23007A19B0225EE0BF22CAB87F011200E4DA6D
:100A3300B87F510B4A20693400020B4E7F05CAB8B8
:100A43001200E40B4A00691400020B4E12002CDA68
:100A5300B81478E8223F8000004120000042C8001B
:100A630000447A0000461C400047C35000497424E8
:100A7300004B1896804CBEBC205A0E1BCA6753C24B
:100A83001C749DC5AE7C7B60065407681623231235
:100A93000AAD7CB75438680A7F10120AAA1200E420
:100AA3007F01227CB7543803241C6CAA2E540A58A5
:100AB3007E4400FF0B2A0069120002227D02AD3141
:100AC300AD102D21226D0074104D00780B4D22784E
:100AD300278D317D126D22227D437D326D222F11B0
:100AE3002D445002A50FBF1040049F100B901478A3
:100AF300ED7F016D227D34227D417D138D247D02A6
:100B03002F004004BD0440049D040B141478F17DB0
:100B1300237D317D106D0022CA3B7F307A1F00CECA
:100B23007E1F00DA7F011200E47F717E1F00D67FF3
:100B3300011200E47F0712002C7F717E1F00DE7F0D
:100B4300011200E47F0712002C1202AD7F717E1F99
:100B530000D67F071201847A1F00D67E1F00DA7F3A
:100B6300071201847A1F00DA7E1F00DE7F0712015D
:100B7300847A1F00DE7E4F00527E6F00107F167F47
:100B8300041200E47F717E5F00567E1F004E7F05D6
:100B93001200E47F071200296D117E044000120049
:100BA300E47F017E340014591300021B38207F14A4
:100BB3007F051200E47F717E0F004E7F161200E462
:100BC3007F0712002C6D117E0440001200E47F6148
:100BD3007E0F004E7E1F004E1200E47F717E0F00D9
:100BE300107E1F00101200E47F071200297F717F1F
:100BF300147F041200E47F017F171200297F717FA5
:100C0300157F051200E47F0712002C7F717E1F0001
:100C1300DE7F061200E47F517E1F00DA7F07120099
:100C2300E47F051200297F417E1F00D67F07120053
:100C3300E47F717E340014491300020B38007E1FD9
:100C430000DE1200E47F071200297F517E34001476
:100C5300491300020B38007E1F00DA1200E47F7193
:100C63007E1F00D67F061200E47F071200297F61F2
:100C73007EF4126F7EE43A837F147F071200E47ED2
:100C83000F000C12002C7A1F000C7F157F07120037
:100C9300E47E0F002612002C7A1F00267F167F07A2
:100CA3001200E47E0F002A12002C7A1F002A7EF421
:100CB300CCCD7EE43F4C7F177F041200E47E0F000F
:100CC300CE12002C7E0F000C12002C7A1F00CE7F58
:100CD300177F051200E47F0312002C7E0F002612FB
:100CE300002C7F317F177F061200E47E0F00D212A3
:100CF300002C7E0F002A12002C7A1F00D27E1F00C8
:100D03004E1202057E4F00CE7F041200E47F717EF7
:100D13001F00527F031200E47F017F171200297F17
:100D2300717E5F00D27E1F00567F051200E47F01B3
:100D33007F171200297EF4126F7EE43B837F071234
:100D430000E47E0F001012002C7A1F00107E1F009B
:100D5300527F051200E47F617E1F00107F041200A2
:100D6300E47F0612002C7F617E1F00567F03120072
:100D7300E47F017F161200297F071200E47E0F0033
:100D83004E12002C7A1F004E7F051200E47F617E15
:100D93001F00107F031200E47F061200297F617E8B
:100DA3001F00567F041200E47F0612002C7F0712F7
:100DB30000E47E0F005212002C7A1F00527E1F00A7
:100DC3004E7F031200E47F617E1F00107F05120037
:100DD300E47F0612002C7F517E6F00527F167F0442
:100DE3001200E47F017F151200297F071200E47EC1
:100DF3000F005612002C7A1F00567E0F004E7E1FE6
:100E0300004E1200E47F717E0F00107E1F0010124F
:100E130000E47F0712002C7F717F167F061200E427
:100E23007F0712002C7F717E1F00567F011200E4A2
:100E33007F0712002C1202AD7F717E1F00107F0707
:100E43001201847A1F00107E1F004E7F0712018457
:100E53007A1F004E7E1F00527F071201847A1F0003
:100E6300527E1F00567F071201847A1F00567E0FA1
:100E730000567E1F004E1200E47F717E0F00527EEB
:100E83001F00101200E47F071200296D117E044039
:100E9300001200E412033D7E142EE17E044265122B
:100EA30000E47A1D087E0F00567E1F00521200E4F4
:100EB3007F717E0F004E7E1F00101200E47F071229
:100EC300002C6D117E0440001200E412033D7E14D9
:100ED3002EE17E0442651200E47A1F00997E5F00D2
:100EE3004E7F157F051200E47F717E4F00107F1443
:100EF3007F041200E47F0712002C7F717E6F005283
:100F03007F167F061200E47F017F171200297F31CD
:100F13007E7F00567F177F071200E47F017F131245
:100F23000029CA1B7F147F071200E47F717F157F9E
:100F3300061200E47F0712002C6D117E044000129C
:100F430000E4DA0B1224537E142EE17E0442651270
:100F530000E47A1F009DDA3B22CA3B7F307A73009C
:100F6300CF7AB300CEE40211697E7300D00A372D25
:100F7300377D267E1BA0BEA0B0500302100EBEA07C
:100F8300F7280302100E7EB300D00A3B2D377D26CF
:100F930029B10001BEB0A140720A3A6D229E180029
:100FA300B07E14005E120ABF7A1F01170A1B6D0080
:100FB3002E0802AD2F107A1F01177E1400207E1F0A
:100FC3000117120ABF7A1F01177E0F01177CB17A2E
:100FD3001300D17C727A2300D27C637A3300D37EF0
:100FE3000800D47E50201222197EB300CE7E7300F7
:100FF300CF7E0800D41222747EB300CE24107AB3BD
:1010030000CE7EB300D00BB10211697E7300D00A0B
:10101300372D377D267E1B70BE70A150030210CD85
:101023007E7300D00A372D377D267E1B70BE70A3DA
:1010330028030210CD7E7300D00A372D377D262971
:10104300B10001BEB0A150030210CD7EA300D00AAF
:101053003A2D377D267E1BA00A3A6D229E1800A1E9
:101063007E14005E120ABF7A1F01170A1B6D009ED1
:101073000800A12F107A1F01177E1400207E1F0184
:1010830017120ABF7A1F01177E0F01177CB17A135B
:1010930000D17C727A2300D27C637A3300D37E083A
:1010A30000D47E50201222197EB300CE7E7300CF6F
:1010B3007E0800D41222747EB300CE24107AB300CB
:1010C300CE7EB300D00BB10211697E7300D00A3714
:1010D3002D377D267E1B70BE702050030211647E67
:1010E3007300D00A372D377D267E1B70BE707E3885
:1010F300707E7300D00A372D377D267E1B700A372A
:101103006D229E1800207A1F011774042F11147882
:10111300FB7A1F01172E2400032E18CF807A1F019C
:10112300177E0F01177CB17A1300D17C727A2300EA
:10113300D27C637A3300D37E0800F47E50101222EF
:10114300197EB300CE7E7300CF7E0800F41222CA4C
:101153007EB300CE24087AB300CE7EB300D00480E1
:10116300057EB300D0047AB300D07E7300D00A3773
:101173002D377D267E1B70BE70002803020F6CDAAC
:101183003B22CAF87EF30114BEF00440030212416D
:101193007E370125BE34000168030212417E34000C
:1011A300017A3701257E342AE97E2400FF7E1BB0B5
:1011B3007E342AEA7E2400FF7E1B707EF42AEB7EB7
:1011C300E400FF691700020B7A00120F5C7E342AD9
:1011D300F27E2400FF7E1BB07E342AF37E2400FFC0
:1011E3007E1B707EF42AF47EE400FF691700020B75
:1011F3007A00120F5C7E342AFB7E2400FF7E1BB034
:101203007E342AFC7E2400FF7E1B707EF42AFD7E42
:10121300E400FF691700020B7A00120F5C7E342B87
:10122300047E2400FF7E1BB07E342B057E2400FF4A
:101233007E1B707EF42B067EE400FF02130ABEF0D1
:101243000478197E370125BE340001780F122581F9
:10125300E47AB301117E340002021332BEF004506B
:10126300030213167E370125BE34000268030213FE
:10127300167E342B0D7E2400FF7E1BB07E342B0E96
:101283007E2400FF7E1B707EF42B0F7EE400FF693B
:101293001700020B7A00120F5C7E342B167E24009B
:1012A300FF7E1BB07E342B177E2400FF7E1B707ED7
:1012B300F42B187EE400FF691700020B7A00120F6B
:1012C3005C7E342B1F7E2400FF7E1BB07E342B20DC
:1012D3007E2400FF7E1B707EF42B217EE400FF69D9
:1012E3001700020B7A00120F5C7E342B287E240039
:1012F300FF7E1BB07E342B297E2400FF7E1B707E75
:10130300F42B2A7EE400FF691700020B7A00120F08
:101313005C8020BEF005501B7E370125BE340002E1
:10132300781112258174067AB301117E3400017A93
:10133300370125E47E7301117E142A9D7E0400FF8C
:10134300120F5C7EB3011112299EDAF822CA797E4C
:101353003700474D3368030214FD7E3400017A37AA
:1013630000477E0800871221AB7E6300876C777E7F
:101373005300887C467A2700B67E6300897E33005B
:101383008A0A734D737A7700B87E63008B7E3300CD
:101393008C0AE34DE37AE700BA7E73008D0AF77D8A
:1013A3003F7C676C777DF37E73008E0A374D3F7AFF
:1013B3003700497E63008F6C777E3300900AF34DCC
:1013C300F37AF700C87E6300917E3300920A834D5F
:1013D300837A8700CA7E6300937E3300940A934D19
:1013E300937A9700CC7CB41202186DDD7EC446005C
:1013F3007F061201847F51900000793E00021BEAB0
:10140300207D277CBE1202187F061201847A1F00FA
:101413005A7D2E7CB41202187F061201847A1F00B3
:10142300607D2F7CB41202187EC442837F061201B2
:1014330084900004793E00021BEA207D287CB412CC
:1014430002187F061201847F717A1F00667D297C52
:10145300B41202187F061201847A1F007E7ED4FA2A
:10146300397EC43C8E7F061200E47A1F00D27A5F75
:1014730000D67E1F005A7A1F00DA7E1F00607A1F93
:1014830000DE900004693E00020BEA207F06120092
:10149300E4CA1B7F177F061200E47F01DA1B120BDD
:1014A3001B7E1D081202507A37004B7E1F009912D3
:1014B30002507A3700BC740312299E74FC12299ED1
:1014C3007E5700C812299E7E3700C81A5612299EDD
:1014D3007E5700CA12299E7E3700CA1A5612299EC9
:1014E3007E5700CC12299E7E3700CC1A5612299EB5
:1014F30074FC12299E740312299EDA79227E7301E9
:1015030014A5BF00137EB30116700DA202E4337855
:10151300077EB3010B048016A5BF00177EB3011627
:101523007011A202E433B4010A7EB3010B147AB33F
:10153300010B227EA30116BEA00178067E140001D2
:1015430080026D11A5BF00067E24000180026D227A
:101553005D216809A202E4337803021654A5BF0093
:101563000FBEA001780AA202E433B4010302166B92
:10157300A5BF01114CAA780DA202E43378077EB30C
:10158300010C048014A5BF01154CAA7811A202E432
:1015930033B4010A7EB3010C147AB3010C22A5BF44
:1015A300010EBEA0017809A202E4337803021654A7
:1015B300A5BF010FBEA001780AA202E433B4010360
:1015C30002166BA5BF02114CAA780DA202E4337870
:1015D300077EB3010D048014A5BF02154CAA781130
:1015E300A202E433B4010A7EB3010D147AB3010DF0
:1015F30022A5BF020DBEA0017808A202E43378023F
:10160300804FA5BF020EBEA0017809A202E433B445
:1016130001028054A5BF03114CAA780DA202E43342
:1016230078077EB3010E048014A5BF03154CAA7876
:1016330011A202E433B4010A7EB3010E147AB3019A
:101643000E22A5BF0312BEA001780DA202E43378D7
:10165300077EB3010F048015A5BF0315BEA0017853
:1016630010A202E433B401097EB3010F147AB3016B
:101673000F22CA3B7CD67F707CE77CFB9F117A1FCD
:1016830000187408ACBD0A3F2D352E3400087CF7D2
:101693006D117E0442C87F171200E41202507A1FB4
:1016A300001C0A5F9E5400187C7E7E142BD77E0498
:1016B30000FF120F5C6CCC0217A87ED4000A7E7F59
:1016C300001C7F177D1D120AC87A0F00187F177D33
:1016D3001D120AC87A1F001C9EF008BEC0027803C0
:1016E3009EF0087E2F0018BE28000A40030217A6AA
:1016F3007EA003A49016FB73021719021727021783
:101703003502174302175102175F02176D02177B49
:101713000217890217977CBF7C7E7E142BD57E042B
:1017230000FF807C7CBF7C7E7E142BD37E0400FF75
:10173300806E7CBF7C7E7E142BD17E0400FF806094
:101743007CBF7C7E7E142BCF7E0400FF80527CBF47
:101753007C7E7E142BCD7E0400FF80447CBF7C7E88
:101763007E142BCB7E0400FF80367CBF7C7E7E14F0
:101773002BC97E0400FF80287CBF7C7E7E142BC790
:101783007E0400FF801A7CBF7C7E7E142BC57E0402
:1017930000FF800C7CBF7C7E7E142BC37E0400FF85
:1017A300120F5C0BC0BCDC28030216BDDA3B226CB3
:1017B30077A286E433B401057E601080026C66A2D2
:1017C30085E433B401054E600880035E60F7A287A9
:1017D300E433B401054E600480035E60FBA2CBE4F6
:1017E30033B401054E600280035E60FDA2CAE43398
:1017F300B401054E600180035E60FE7CB6BEB0207E
:1018030040030218987EA003A49018107302189046
:1018130002188402187602188B02187002189802B4
:10182300187D021898021874021898021898021862
:1018330098021878021898021898021898021882C9
:101843000218980218980218980218980218980219
:101853001898021898021886021898021898021805
:10186300980218980218980218980218956C7780B5
:1018730024800280057E7001801B7E70FF801680AD
:101883000280057E7002800D7E70FE80087E7003EC
:1018930080037E70FD7CB7227E3700644D3368037E
:1018A3000219627E3400017A3700641217B27AB3E8
:1018B3000082BEB00218097E730082BE70FE581FFC
:1018C3007EB30082B4FD07E47AB30023801F7EB3A6
:1018D3000082B403187E73004D7A730082800E7405
:1018E300017AB300237E7300827A73004D7E430036
:1018F300827CB412021D7F617E0F00A21200E412EB
:1019030002507DF37A3700247E0F00A67F16120063
:10191300E41202507A3700217E4300A17CB4120204
:101923001D7E0F00AA1200E41202507A3700C67D12
:101933003F2E3700AE9E3700C67A37011D7E270043
:10194300AE9E2700242E2700C67A27011B1227BB31
:101953007E7300827A7300A17EB30023022498224F
:10196300D296D2937E3400C812286674AE6C771276
:10197300266D74026C7712266D74106C7712266DC7
:1019830074406C7712266D74B06C7712266D748177
:101993006C7712266D74CF6C7712266D74A16C77F9
:1019A30012266D74A66C7712266D74A86C771226B6
:1019B3006D743F6C7712266D74AD6C7712266D745F
:1019C3008B6C7712266D74336C7712266D74C86C2A
:1019D3007712266D74D36C7712266DE46C7712261A
:1019E3006D74D56C7712266D74806C7712266D74C6
:1019F300D96C7712266D741F6C7712266D74DA6CAE
:101A03007712266D74126C7712266D74DB6C771265
:101A1300266D74406C7712266D12258174AF6C7736
:101A230002266DCA69CAF87EB3011214680C0468F1
:101A330003021AD4121185021AD47E342AE87E24B2
:101A430000FF7E1B700A277E64000A8D267EF30149
:101A5300140A3FBD32780A7E342AEF7E2400FF80C9
:101A63005B7E342AF17E2400FF7E1B700A278D26BD
:101A73000A3FBD32780A7E342AF87E2400FF803C78
:101A83007E342AFA7E2400FF7E1B700A278D260AE5
:101A93003FBD32780A7E342B017E2400FF801D7EF9
:101AA300342B037E2400FF7E1B700A278D260A3FFA
:101AB300BD32780D7E342B0A7E2400FF0B1A309939
:101AC30034E47E7301137E142A9D7E0400FF120FFB
:101AD3005CDAF8DA6922CA3B7F307A7300CF7AB3D3
:101AE30000CEE4807E7E7300D00A372D377D267EBC
:101AF3001B70BE70204067BE707E38620A376D224D
:101B03009E1800207A1F01172F112F112F117A1FF2
:101B130001172E2400032E18BFC07A1F01177E0F52
:101B230001177CB17A1300D17C727A2300D27C63D3
:101B33007A3300D37E0800D47E50081222197EB374
:101B430000CE7E7300CF7E0800D41226417EB30000
:101B5300CE24067AB300CE7EB300D00480057EB3D4
:101B630000D0047AB300D07E7300D00A372D377DBE
:101B7300267E1B70BE70002803021AE8DA3B227E21
:101B830037005E4D336803021C297E3400017A3727
:101B9300005E7E7300821A377A3700F47E08002EC7
:101BA3007E342B997E2400FF12028DE46C777E082D
:101BB300002E120F5C7E37011D7A3700F47E370149
:101BC3001B7A3700F27E08002E7E342B8A7E240097
:101BD300FF12028DE47E70027E08002E120F5C7EDF
:101BE3003700AE7A3700F47E08002E7E342B867ED3
:101BF3002400FF12028DE47E70047E08002E120F73
:101C03005C7E1F009D1202507A3700F47E08002E7E
:101C13007E342B787E2400FF12028DE47E70077ED3
:101C230008002E021AD9227E342B677E2400FF7E01
:101C33001BB07E342B687E2400FF7E1B707EF42B4A
:101C4300697EE400FF691700020B7A00120F5C74CF
:101C530058CAB86C77CA787E43010EE412021D7E1F
:101C630014D70A7E043C231200E47F017E6004DA69
:101C730078DAB81216757E342B707E2400FF7E1B33
:101C8300B07E342B717E2400FF7E1B707EF42B729A
:101C93007EE400FF691700020B7A00120F5C7439AF
:101CA300CAB87E7002CA787E43010FE412021D7E19
:101CB30014D70A7E043C231200E47F017E6004DA19
:101CC30078DAB80216757E342B437E2400FF7E1B20
:101CD300B07E342B447E2400FF7E1B707EF42B45A4
:101CE3007EE400FF691700020B7A00120F5C744B4D
:101CF300CAB86C77CA787E43010CE412021D7E14C5
:101D0300D70A7E043C231200E47F017E6004DA7864
:101D1300DAB81216757E342B4C7E2400FF7E1BB07E
:101D23007E342B4D7E2400FF7E1B707EF42B4E7E73
:101D3300E400FF691700020B7A00120F5C7439CAC2
:101D4300B87E7002CA787E43010FE412021D7E142E
:101D5300D70A7E043C231200E47F017E6004DA7814
:101D6300DAB80216757E342B317E2400FF7E1BB059
:101D73007E342B327E2400FF7E1B707EF42B337E59
:101D8300E400FF691700020B7A00120F5C7439CA72
:101D9300B86C77CA787E43010BE412021D7E14D718
:101DA3000A7E043C231200E47F017E6004DA78DAC1
:101DB300B81216757E342B3A7E2400FF7E1BB07E4C
:101DC300342B3B7E2400FF7E1B707EF42B3C7EE491
:101DD30000FF691700020B7A00120F5C7439CAB84E
:101DE3007E7002CA787E43010FE412021D7E14D76F
:101DF3000A7E043C231200E47F017E6004DA78DA71
:101E0300B80216757E342B557E2400FF7E1BB07EF0
:101E1300342B567E2400FF7E1B707EF42B577EE40A
:101E230000FF691700020B7A00120F5C744BCAB8EB
:101E33006C77CA787E43010DE412021D7E14D70A23
:101E43007E043C231200E47F017E6004DA78DAB872
:101E53001216757E342B5E7E2400FF7E1BB07E340B
:101E63002B5F7E2400FF7E1B707EF42B607EE400DC
:101E7300FF691700020B7A00120F5C7439CAB87E2F
:101E83007002CA787E43010FE412021D7E14D70A42
:101E93007E043C231200E47F017E6004DA78DAB822
:101EA300021675A203E433B401028003021F37A2B2
:101EB300B4E433B401377E370109BE3407D0502D63
:101EC3006D337A370109122581C2037EB30115BE32
:101ED300B002500304800274017AB30115B4020402
:101EE300D2018002C20174017AB3011222A2B4E4C6
:101EF30033B401297E370109BE340FA0281F6D3387
:101F03007A370109122581C203C201E47AB30115AC
:101F13007AB301127AB301137AB3011622A2B4E49D
:101F230033B401107E370109BE3407D028066D3360
:101F33007A37010922740A7E34FEB27E24007E7A47
:101F43001BB0E47E34FED07A1BB074EF7E34FED136
:101F53007A1BB0E47E34FECC7A1BB074607E14FE30
:101F6300C87E04007E7A0BB07E14FEC97A0BB0746F
:101F7300117A1BB074037E34FED57A1BB074E87EED
:101F830034FED67A1BB074037E34FED77A1BB0744A
:101F9300E87E34FED87A1BB074037E34FED27A1BFB
:101FA300B074E87E34FED37A1BB074057E34FEB180
:101FB3007A1BB074807E34FEDD7A1BB074017E34EC
:101FC300FEC07A1BB0227584017E44041FE47A4963
:101FD300B01B4478F97EF80129C200C201C202C2D3
:101FE30003C2047E0400FF7E1429BF0B0A405D4434
:101FF300681A692000020B0E0B44800A7E0BB07A2C
:1020030029B00B240B0C1B4478F280DF7E0400FF05
:102013007E142B9F0B0A405D446822295000020A5C
:1020230025693000032E0800050B44800A7E0BB09F
:102033007A1BB00B1C0B0C1B4478F280D7022320B5
:10204300A201E433786E7EA301124CAA78187EB302
:102053000111BEB000402ABEB00438250A3B0B353F
:102063007A730111801BBEA00178167EB30113BEE3
:10207300B000400DBEB00250080A3B0B357A730125
:1020830013BEA00168137EB30114BEB000400ABEA4
:10209300B0063805047AB30114BEA00178137EB3E9
:1020A3000116BEB000400ABEB0013805047AB30180
:1020B3001602254AC202021500A201E433786E7E9D
:1020C300A301124CAA78187EB30111BEB006382AB8
:1020D300BEB00240250A3B1B357A730111801BBE3B
:1020E300A00178167EB30113BEB004500DBEB0023A
:1020F30040080A3B1B357A730113BEA00168137EA7
:10210300B30114BEB000280ABEB0073805147AB371
:102113000114BEA00178137EB30116BEB000400ABD
:10212300BEB0013805147AB3011602254AD2020261
:102133001500CA39C0D17E37005E0B347A37005E92
:10214300BE34006478066D337A37005E7E370064F0
:102153000B347A370064BE34000A78066D337A375D
:1021630000647E3700470B347A370047BE340032B1
:1021730078066D337A3700477E3700C40B347A37DD
:1021830000C4BE341388400BA2ECB392EC6D337AD7
:102193003700C47E370127BE34000028061B347A7B
:1021A300370127D0D1DA3932CA3B7F3012284C7439
:1021B300D0122735743B12273512284C74D11227BD
:1021C30035E47AB300CE12270F7EA300CE0A3A2D50
:1021D300377D267A1BB0C2B7D2B6122989C2B6128E
:1021E30029897EB300CE047AB300CE7E7300CEBEBF
:1021F300700D40D212270F7EA300CE0A3A2D377DF1
:10220300267A1BB0D2B7D2B6122989C2B61229894F
:10221300122960DA3B22CA3B7A5301077F307A6383
:1022230001067A7301057AB30104C2937403122879
:10223300317EB301041228317EB301051228317EA9
:10224300B30106122831E480151200037EA30108AE
:102253000A3A2D377D267A1BB07EB30108047AB380
:1022630001087E730107BE73010838DDD293DA3BA0
:1022730022CA3B7F307A7301057AB30104E47AB34F
:1022830001077EB301047E730105122698E47AB335
:1022930001067E3BB07E700112266D0B747EB30186
:1022A30006047AB30106B410E97EB30105047AB3D8
:1022B30001057EB30107047AB301077E730107BEEC
:1022C300700240BEDA3B22CA3B7F307A7301057A43
:1022D300B30104E47AB301077EB301047E730105FD
:1022E300122698E47AB301067E3BB07E7001122673
:1022F3006D0B747EB30106047AB30106B408E97E5C
:10230300B30105047AB301057EB30107047AB3016F
:10231300077E730107BE700240BEDA3B221225100E
:10232300121963E41227DBE4122615122581122900
:102333001812287DA9C6A2A9C7A2A9D4FF1224D521
:102343001229B96D337A3700AE7E2442C87A1F0052
:10235300A29F117A1F00A67E34126F7E243A837ADD
:102363001F00AAC2EC12189B121B8212135080F595
:10237300CAF8A2B2E4337808A2B3E4337802D200F5
:10238300A200E433B40135A2B330B201B35008A2C2
:10239300B2E4337AB30110A2B2E433B4011EA2B3A0
:1023A300E433B40117C2007EF30110BEF0017805D7
:1023B30012204380074CFF78031220BCDAF822A2D4
:1023C300B2E433B40109A2B3E433B40102D204A2E8
:1023D30004E433B40131A2B330B201B35008A2B361
:1023E300E4337AB30110A2B2E433781BA2B3E4332B
:1023F3007815C2047EB30110B401031220437EB3E7
:10240300011070031220BC022373CA3B7F30E47AAD
:10241300B301247AB30123E47E730123122698E4E3
:102423007AB301247E3BB07E700112266D0B747E5D
:10243300B30124047AB30124B480E97EB3012304F5
:102443007AB301237E730123BE700840CADA3B22AC
:10245300CA0B691FFFFF690FFFFD120184120850A9
:102463007F717F1F2E34FFFD7E1BB030E7229F005C
:102473007F171203AE380A7E140FDB7E04404980B7
:10248300087E140FDB7E04C0497F1712002C7F7176
:102493007F171BFE227C7BA5BF000A6D337A3701B1
:1024A3001B7A37011D7E17011B1A027E34FED57E6F
:1024B30024007E7A1B107E34FED67A1B307E1701F1
:1024C3001D1A027E34FED77A1B107E34FED87A1B87
:1024D3003022122989122989122989122989746BB8
:1024E3007E708012281512279A746B6C7712281548
:1024F30074197E7007122815741A7E700412281539
:10250300741B7E7008122815741C02281575E900C7
:10251300A9D7BA75EA007593007594007591007593
:10252300920075950075960075B10075B20075B38C
:102533000075B40075C90075CA0075CB0075CC0071
:1025430075E10075E20022CA796CEE0A5E2E540032
:10255300B06C7712266D74106C7712266D74026C52
:102563007712266D6CFFE47E700112266D0BF0BEB0
:10257300F01078F20BE0BEE00840D0DA7922CA7995
:102583006CFF0A5F2E5400B06C7712266D74106CCA
:102593007712266D74026C7712266D6CEEE47E70F2
:1025A3000112266D0BE0BEE08078F20BF0BEF0085E
:1025B30040D0DA7922CAF87CFB122940746C1225C8
:1025C300E712292D7CBF1225E712292D1229407409
:1025D3006D1225E712292D1226C37CFB12296F7C6D
:1025E300BFDAF822CA797CFB7EE008C2A074051228
:1025F300297D7CBF30E704D2A28002C2A2740512F7
:10260300297DD2A03EF012297D1BE078DEC2A0DA3C
:102613007922CAF87CFB4CFB780E74C86C771226BF
:102623006D74A16C7712266DBEF001780E74C06CC8
:102633007712266D74A06C7712266DDAF822CA3BE6
:102643007F30122698E47AB300DC7E3BB07E7001C3
:1026530012266D0B747EB300DC047AB300DC7E7348
:1026630000DCBE700640E3DA3B227C6B4C776804E7
:10267300D2958002C295C2967E7008C2C77CB630DE
:10268300E704D2948002C294D2C73E601B7078EBF9
:10269300D296D29522CAF87CFB0BF10A572E54002E
:1026A300B06C7712266D7CBF54F0C4540F44106C89
:1026B3007712266D7CBF540F6C7712266DDAF822E1
:1026C300CA796CFF7EE008D2A0740512297D3EF022
:1026D30030A2034EF001C2A0740512297D1BE078DD
:1026E300E67CBFDA79227F70A9D6BC0000A935BC8D
:1026F300FCA9C5BCE5BD7C4B6C55E5BE0A3B2D3240
:10270300E5BC0A5B0B54F5BC1B7A3022CA796CFF1B
:10271300D2B76CEE3EF0D2B6122989A2B7E4334C9D
:10272300FBC2B61229890BE0BEE00840E77CBFDAA2
:102733007922CA797CFB6CEE3EF0A2D792B7D2B66F
:10274300122989C2B61229890BE0BEE00840E912BA
:1027530028D8DA7922E5BC0A5B0B54F5BCA9D6BCB0
:102763000000A935BCFCA9C5BCE5BD7C4B6C55E597
:10277300BE0A3B2D3222E5BC54F04408F5BCA9D671
:10278300BC0000A935BCFCA9C5BCE5BD7C4B6C55A0
:10279300E5BE0A3B2D322200007EA0057E70907EAE
:1027A30060477CB6147C6B78F97CB7147C7B78F239
:1027B3007CBA147CAB78EB22BE3400004806C2819D
:1027C300D2828004D281C282BE2400004805C28323
:1027D300D28422D283C28422CAF87CFB4CFB7807C2
:1027E30074A66C7712266DBEF001780774A76C7718
:1027F30012266DDAF82253BCF0A9D6BC0000A93525
:10280300BCFCA9C5BCE5BD7C4B6C55E5BE0A3B2DA4
:102813003222CA797CEB12284C74D01227357CBE45
:102823001227357CB7122735122960DA79227C6B9F
:102833007E7008C2C77CB630E704D2948002C2948B
:102843003E60D2C71B7078EB22122989122989D2E4
:10285300B7D2B6122989122989C2B7122989C2B6F9
:102863000229897D13800E7E0407087D301B044DE9
:102873003378F81B144D1178EE22759850438E016E
:10288300438E0475D78F75D6FD438E10D2ACD2AF6D
:1028930022C2A0A20592A2740512297DD2A01229F8
:1028A3007DC2A0D2A202297D743F7E34FEA87E247D
:1028B300007E7A1BB075DE2375BCF0A9D7BC22CA93
:1028C3003B7F3080087E3BB00B7412299E7E3BB069
:1028D30070F3DA3B22D2B7122989D2B6122989A220
:1028E300B792D7C2B6122989A2D722748D6C7712F8
:1028F300266D74106C7712266D74AE6C7702266D9C
:10290300748D6C7712266D74146C7712266D74AF08
:102913006C7702266D538EBF53890F758B38758D77
:10292300FFC28FD28ED2ABD2AF22D2A074051229AE
:102933007DA2A29206C2A012297DA20622D2A2D211
:10294300A0740512297DC2A212297DC2A0227A3762
:1029530001277E370127BE34000038F62212298969
:10296300C2B7D2B6122989D2B7022989C2A2D2A08C
:10297300740512297DD2A202297D7C7B007C671B12
:1029830070A5BE00F7227EA0077CBA147CAB78F951
:1029930022C0D1309802C298D0D1327AB1993099FD
:1029A300FDC29922C281D282C283D28422D281C241
:1029B30082D283C28422121F380229A70001002376
:1029C3000100040026000000000004002A000000AB
:1029D300000002004B00000004004E000000000055
:1029E3000400520000000000040056000000000034
:1029F30004005A0000000000040060000000000012
:102A0300040066000000000004007E0000000000D7
:102A13000400830000000000020095000000020093
:102A230097000000040099000000000004009D00CE
:102A3300000000000200BC0000000200BE00000015
:102A43000200C00000000200C20000000200C40037
:102A5300000004000C00000000000400103F800090
:102A6300000004000800000000000401170000003B
:102A7300000002012500010002010900000001011C
:102A83001400000101150000010116000002011BE2
:102A930000000002011D000000003E00B2E2CAD4A3
:102AA300B7A2C7F23A00B8A9D1F6BDC73A00B5F745
:102AB300D7F3D3D23A00B9A6C4DC3A00D7AACBD90C
:102AC3003A00C6E4CBFB00BFD8D6C600B8A9D1F6FE
:102AD300BDC700BDC7B6C8B5F7BDDA00D7AACBD905
:102AE300B5F7BDDA000A100000FF2ADF1D680B10DE
:102AF3000200FF2AD61CC90C100400FF2ACF1E07B0
:102B03000D100600FF2ACA1C2A0E100000FF2AC55A
:102B130000000F100200FF2AC5000010100400FF80
:102B23002AC5000011100600FF2AC50000140F007B
:102B330000FF2ABF0000150F0200FF2AB90000168C
:102B43000F0000FF2AB10000170F0200FF2AB9008F
:102B530000180F0000FF2AA90000190F0200FF2A26
:102B6300B900001A0F0000FF2A9F00001B0F02008C
:102B7300FF2AB900005A3A25303264202020202051
:102B8300202000253364002533642C253364202062
:102B930020202020200025642020200000040100A4
:102BA3000000000000000401000400000000000415
:102BB30001000800000000000201000C00000000FA
:102BC3003900380037003600350034003300320056
:062BD300310030002E006D
:00000001FF
