:10000000021ED16CAA7E7008C2C73EA03097020BB8
:0A001000A0D2C71B7078F17CBA2261
:07001B00021E4928302900F4
:1000230002287702039A6E00807CB1337CB0336878
:100033000D0468EF7CB5337CB43378037F1022045E
:1000430068E17D5092F77D457D51BF2140067C805C
:100053007F017F1212035D7EA1D05CB00478032080
:10006300D5C17CB00478075002B2D50203A292D561
:10007300BE80FF68F67CB89CB06C00602AB418059B
:100083007C4102037650FB80032F00047C9B5E902F
:100093000778F630E4067C437D106D0030E3087C7E
:1000A300437C327C210A0030F5199F10780E22021E
:1000B300039F1B8068F92F1150020B707CB530E74A
:1000C300F1801B2D317CB5A5397C5B50110B8078F9
:1000D300030203A21E341350034E60801A2B020343
:1000E300765D22680D5D0078122D220B4068099F12
:1000F30011222D000B0078F902039A12035D5C8034
:100103000B806808248150072CB0500A0203A22CEC
:10011300B0400302039F7C8B5D1178267CB17CA5E4
:10012300BE1080680A5D33780DA5BD80057F10027F
:10013300038C6D0080307F017C5B7CB17CA5AD12AC
:1001430080245D337806A5BD80F080E1CA887D41B7
:10015300AD437CB17CA5AD122D1450020B047C5B26
:10016300AD232F01DA88A42D05BE008040060B8045
:10017300780480982F007C437C507C617C7202035E
:1001830076BE24FFFF6806BE04FFFF780302039ACE
:1001930012035D5CB00468F57CB8A54868EF7CB8D1
:1001A30070039F1122A5B800030203A22E00815001
:1001B300079C80380702039F9C8050ED0A51C2E7D9
:1001C3004D51780302038C7E5400807E901A6C009C
:1001D30080061B9068142F11BF1040049F104CAB76
:1001E3000330E7EECAA86CAA80E8DA39DA587C4A09
:1001F300BE5080500A1B8068BC2F1150020B700246
:1002030003765D226809BE24FFFF68036E408022E7
:100213007EA020800C7EA01080057EA0086C556D0A
:10022300333392D5500A6E34FFFF6E24FFFF0B1C4D
:10023300A5EC3340062F11D5F0F6227CBA247EA21A
:10024300D5137C767C65A5CC92E77C5B227CB533A9
:100253007CB43392D54E5080248140039F11227C7D
:10026300457C567C676C7724E0500E7E1CFFFF2292
:100273001E341E2450034E60800478F430D50A6E79
:1002830034FFFF6E24FFFF0B1C227F707F517EC45F
:1002930000007ED400E67E9402A00204214005E41F
:1002A3007A7BB0227A7BB00B7C227CB5A2E7D2E7C3
:1002B3007C1B7CB4334009680DB4FF0BA5BDFF0361
:1002C30002039A0203A2227C0B2481C2E0F582F48A
:1002D300042CB07C2BC3137C4B7CB592E77C5B7FF7
:1002E300417CB6A2E77CB1A5BA7F02C31334009464
:1002F300007C2B7EA091A47CBA13F494FEACB233A1
:100303007CBA33248CD3137C5BE492E77C6B6C77ED
:100313007E403F7583027F517F017F141201847FEA
:100323000512002C9E240080D583EB7E01826C1184
:100333000E041E042D205E407F227F617F01120088
:10034300E46E40806D117E043F8012002C1202ADDA
:100353007F017F161201840208502D0092D50E10E2
:100363004E10807D422D445002B2D54E50806C44D5
:100373007CB8222C4450120B1C7E40005E507FBE82
:1003830018000078040B806816A2D57CB8137C4B48
:100393007CB592E77C5B227E1CFFFF229F11227EAD
:1003A30024FF8020D5026C456D332274F86CAA6E4D
:1003B30040806E0080BEB0FF68277C837C975C3BE7
:1003C3005C7BBF10682AF4400D7C382D15F45C3B30
:1003D300500F0B04800B7C792D35F45C7B50020BA2
:1003E30024BF10680B7CB020E7067CB420E701B380
:1003F30022540F2490D43440D430F30CBEB0414087
:1004030007BEB05B500224204CCC68021BC00B8497
:10041300D389944CCC680B742012040B80F5CA3B2F
:100423006D889F337CAE7E5BB00B5C7007C37D38F9
:10043300DA3B8994B42569C2F37E5BB00B5CA5F803
:1004430024D0BEB00A501B7E500A20F60DAC5CA52A
:100453002D7CCB70034EF00180DDAC5DA52D7CDBE4
:1004630080D524CFBEB01AA5E850055E00DFD2F3D5
:100473009007F6A3E4936011BCB078F77417934C1C
:10048300AB30F6B34EF08080AEA3E4936010BCB003
:1004930078F77416937C3B7423937C2B89147CB07C
:1004A3008013742012040B20F205BEC00250F31B0C
:1004B3006D29B6000112040B0204161B6E691600A7
:1004C300020B6A00BE08000078087E0400FF7E1459
:1004D300001E20F21E4CCC681A7F10E47E1B804C59
:1004E3008868070B1C04BCBD78F2C2F6CA0B120560
:1004F300F5DA0B7E0BB060C0CA0B12040BDA0B0BE0
:100503000C4CDD68EE1BD078EA80ADD2F07E101083
:1005130080037E10085EB05F800AD2F67E100A80E8
:10052300057E100AC2F66D119F117E00201B6C7EA2
:100533006B7030F6021A3720F1051B6C7E6B60304E
:10054300F6041A261A2430F0051B6D0B6A20A5EC5D
:100553003382F692F6500A7CEA9F229F217F127C17
:10056300AE4C44780F7C457C567C676C772E00F844
:1005730078EF80122F117CB3337C3B9CB140047C19
:100583003B0B70A5D8EE7CB230E005DAB8C44C3B27
:10059300CA380B207E00207E3000BE18000078C1D0
:1005A300BE1008780730F404C2F480B5CA287CB2C0
:1005B300BCBD38027CBD1205F5DA28BC2D500A1BE0
:1005C300D0E4CA281203F480F07CB213DAB84004F2
:1005D300C4CAB8C4CA28BEF08040095CDD7805A54A
:1005E300DA0260065EF07F1203F4DA28A5DADA0293
:1005F3000416BEF001680F30F402240220F5062031
:10060300F70330F6010420F229BCBC5025CAB87C9C
:10061300BF13B0E67420501174307C8A5E80F0689A
:10062300081206355EA00F800312040BDAB8BCBCB7
:1006330078DB30F40F743012040B745830F3027407
:100643007812040B30F605742D02040B742B20F57D
:10065300F8742020F7F3221B6C7E6BB010F1021BA1
:100663006C20F60B30E704F404D2F27CCB80052037
:10067300E7057CDB02043A5EF07F80F81B6E6916A7
:1006830000020B6A0030F0076D221B0A200B0D1BC2
:100693000A80020425E46C22BE3007500B7F1F2D15
:1006A300312E34FFF77E39B0227CBF20E7A8742EA9
:1006B3004EF08002040B1207DF403D7CBD70030443
:1006C3007CDB1209E87C3D4C3368101B307CBE2078
:1006D300E40912069870044C3378F07CBD7CD3BED9
:1006E300A0FD481CBCAB5818E49CBA2CB31801E419
:1006F3007CDB0207801207DF406E7CBD041209E831
:100703007AFBA07CAE7CBDA2F492F0C2F4400260FE
:10071300010424051205F57E30FF0B30120698CA3A
:10072300381203F420F0044CDD68031206ACDA3807
:10073300BC3D78E6740E1203F4742B7EFBA030F7F5
:1007430007742D6EA0FF0BA07AFBA012040B7EA0F2
:100753000A7EFBB0847AFBA01203F47EFBB0120383
:10076300F49EF80008020416D2F27ED0000204D5EB
:100773001207DF40F37CBA2CBD041209E87AFBA010
:100783007CBA7CAE30E701E40420F4044CDD680558
:10079300D2F0C2F4042CBD1205F56C337EFBB060BD
:1007A3001B20E712147AFBB0120698CA381203F41E
:1007B300DA380B3080E6047AFBB01B30120698CA95
:1007C300381203F44CDD68071206AC1BD080E19E9F
:1007D300F8000930F0031206AC0204167CEA7CAF81
:1007E30010F7037ED0067CFA1B6E693600020B6A93
:1007F300200209302D2B204C4248232E0053584F02
:1008030044494355502A4E4645470004208001027F
:10081300001040BE10151D1DAA240E5A7F73F8B98F
:1008230004050505050405050606070606BE124967
:10083300253E4CCCCDBEAAAAAB3F8000003E7ADB5E
:10084300B03EED63383F24BC7D3F490FDB7DC25E84
:10085300407FBE247F804010680302039A7E340FDA
:10086300DB7E243FC90209145EC480007D522D55EE
:10087300BEA07F401378049420400D7F017E243F67
:10088300806D331201840BC47CB5337CB433248470
:1008930030E7046DDD803E047CAB7CB5D2E754F0D9
:1008A300C333D5F0FC5407340023230ADB7F417F95
:1008B300017C4BE412021D1B417F711200E47E0494
:1008C3003F806D1112002C7F077F717F1412002966
:1008D3007F071201847F717E9408307E8400FF7449
:1008E30003120A2B7F071200E45DDD68147E5408AF
:1008F3003C7E4400FF2D5D0B2A00691200021200AA
:100903002C7D5C30E00B7E04BFC97E140FDB12002C
:100913002C5D2268095E407F5EC480004D2C224E10
:10092300614E002B494E46002D494E46007D522D07
:10093300557CBE92E67CEB7CBA601F0470287CB5C4
:10094300C2E77E0400FF60067E140922D3227E14D0
:10095300092B40047E140926D322DA099F22CA2BCD
:10096300CA2BC3CA09220A0A7E144D10AD109E0871
:100973003AF09E10267CB5C2E77EA0567C9BA46EFF
:1009830054FFFF2E54C511ACA92D15E4A539CAB8DF
:10099300CA1B20E70A120A88DA1B120184800AF4B0
:1009A30004120A88DA1B1200E4DAA87CB5337CB49B
:1009B300334E50806C4424822F111478FBDA49742F
:1009C30007BE400A40099E400ACA0201140BA0CA8E
:1009D300486C442F117F012F112F112F101478EF22
:1009E300CA48CA49227F0F20E73ABEB007400274C3
:1009F300070A0B2D109E1400097E19B02EB0FB5070
:100A03001F4C116817E47A19B01B147E19B0047ACD
:100A130019B0B40A0BE47A19B0A5D9ED0BA074018F
:100A23007A19B0225EE0BF22CAB87F011200E4DA6D
:100A3300B87F510B4A20693400020B4E7F05CAB8B8
:100A43001200E40B4A00691400020B4E12002CDA68
:100A5300B81478E8223F8000004120000042C8001B
:100A630000447A0000461C400047C35000497424E8
:100A7300004B1896804CBEBC205A0E1BCA6753C24B
:100A83001C749DC5AE7C7B60065407681623231235
:100A93000AAD7CB75438680A7F10120AAA1200E420
:100AA3007F01227CB7543803241C6CAA2E540A58A5
:100AB3007E4400FF0B2A0069120002227D02AD3141
:100AC300AD102D21226D0074104D00780B4D22784E
:100AD300278D317D126D22227D437D326D222F11B0
:100AE3002D445002A50FBF1040049F100B901478A3
:100AF300ED7F016D227D34227D417D138D247D02A6
:100B03002F004004BD0440049D040B141478F17DB0
:100B1300237D317D106D0022CA3B7F307A1F00BEDA
:100B23007E1F00CA7F011200E47F717E1F00C67F13
:100B3300011200E47F0712002C7F717E1F00CE7F1D
:100B4300011200E47F0712002C1202AD7F717E1F99
:100B530000C67F071201847A1F00C67E1F00CA7F6A
:100B6300071201847A1F00CA7E1F00CE7F0712017D
:100B7300847A1F00CE7E4F00507E6F00107F167F59
:100B8300041200E47F717E5F00547E1F004C7F05DA
:100B93001200E47F071200296D117E044000120049
:100BA300E47F017E340014591300021B38207F14A4
:100BB3007F051200E47F717E0F004C7F161200E464
:100BC3007F0712002C6D117E0440001200E47F6148
:100BD3007E0F004C7E1F004C1200E47F717E0F00DD
:100BE300107E1F00101200E47F071200297F717F1F
:100BF300147F041200E47F017F171200297F717FA5
:100C0300157F051200E47F0712002C7F717E1F0001
:100C1300CE7F061200E47F517E1F00CA7F071200B9
:100C2300E47F051200297F417E1F00C67F07120063
:100C3300E47F717E340014491300020B38007E1FD9
:100C430000CE1200E47F071200297F517E34001486
:100C5300491300020B38007E1F00CA1200E47F71A3
:100C63007E1F00C67F061200E47F071200297F6102
:100C73007EF4126F7EE43A837F147F071200E47ED2
:100C83000F000C12002C7A1F000C7F157F07120037
:100C9300E47E0F002212002C7A1F00227F167F07AA
:100CA3001200E47E0F002612002C7A1F00267EF429
:100CB300CCCD7EE43F4C7F177F041200E47E0F000F
:100CC300BE12002C7E0F000C12002C7A1F00BE7F78
:100CD300177F051200E47F0312002C7E0F002212FF
:100CE300002C7F317F177F061200E47E0F00C212B3
:100CF300002C7E0F002612002C7A1F00C27E1F00DC
:100D03004C1202057E4F00BE7F041200E47F717E09
:100D13001F00507F031200E47F017F171200297F19
:100D2300717E5F00C27E1F00547F051200E47F01C5
:100D33007F171200297EF4126F7EE43B837F071234
:100D430000E47E0F001012002C7A1F00107E1F009B
:100D5300507F051200E47F617E1F00107F041200A4
:100D6300E47F0612002C7F617E1F00547F03120074
:100D7300E47F017F161200297F071200E47E0F0033
:100D83004C12002C7A1F004C7F051200E47F617E19
:100D93001F00107F031200E47F061200297F617E8B
:100DA3001F00547F041200E47F0612002C7F0712F9
:100DB30000E47E0F005012002C7A1F00507E1F00AB
:100DC3004C7F031200E47F617E1F00107F05120039
:100DD300E47F0612002C7F517E6F00507F167F0444
:100DE3001200E47F017F151200297F071200E47EC1
:100DF3000F005412002C7A1F00547E0F004C7E1FEC
:100E0300004C1200E47F717E0F00107E1F00101251
:100E130000E47F0712002C7F717F167F061200E427
:100E23007F0712002C7F717E1F00547F011200E4A4
:100E33007F0712002C1202AD7F717E1F00107F0707
:100E43001201847A1F00107E1F004C7F0712018459
:100E53007A1F004C7E1F00507F071201847A1F0007
:100E6300507E1F00547F071201847A1F00547E0FA7
:100E730000547E1F004C1200E47F717E0F00507EF1
:100E83001F00101200E47F071200296D117E044039
:100E9300001200E412033D7E142EE17E044265122B
:100EA30000E47A1D087E0F00547E1F00501200E4F8
:100EB3007F717E0F004C7E1F00101200E47F07122B
:100EC300002C6D117E0440001200E412033D7E14D9
:100ED3002EE17E0442651200E47A1F00977E5F00D4
:100EE3004C7F157F051200E47F717E4F00107F1445
:100EF3007F041200E47F0712002C7F717E6F005085
:100F03007F167F061200E47F017F171200297F31CD
:100F13007E7F00547F177F071200E47F017F131247
:100F23000029CA1B7F147F071200E47F717F157F9E
:100F3300061200E47F0712002C6D117E044000129C
:100F430000E4DA0B1222E67E142EE17E04426512DF
:100F530000E47A1F009BDA3B22CA3B7F307A73009E
:100F6300BF7AB300BEE40211697E7300C00A372D55
:100F7300377D267E1BA0BEA0B0500302100EBEA07C
:100F8300F7280302100E7EB300C00A3B2D377D26DF
:100F930029B10001BEB0A140720A3A6D229E180029
:100FA300B07E14005E120ABF7A1F01070A1B6D0090
:100FB3002E0802AD2F107A1F01077E1400207E1F1A
:100FC3000107120ABF7A1F01077E0F01077CB17A5E
:100FD3001300C17C727A2300C27C637A3300C37E20
:100FE3000800C47E50201220AB7EB300BE7E730087
:100FF300BF7E0800C41221067EB300BE24107AB35C
:1010030000BE7EB300C00BB10211697E7300C00A3B
:10101300372D377D267E1B70BE70A150030210CD85
:101023007E7300C00A372D377D267E1B70BE70A3EA
:1010330028030210CD7E7300C00A372D377D262981
:10104300B10001BEB0A150030210CD7EA300C00ABF
:101053003A2D377D267E1BA00A3A6D229E1800A1E9
:101063007E14005E120ABF7A1F01070A1B6D009EE1
:101073000800A12F107A1F01077E1400207E1F0194
:1010830007120ABF7A1F01077E0F01077CB17A138B
:1010930000C17C727A2300C27C637A3300C37E086A
:1010A30000C47E50201220AB7EB300BE7E7300BF0F
:1010B3007E0800C41221067EB300BE24107AB3005A
:1010C300BE7EB300C00BB10211697E7300C00A3744
:1010D3002D377D267E1B70BE702050030211647E67
:1010E3007300C00A372D377D267E1B70BE707E3895
:1010F300707E7300C00A372D377D267E1B700A373A
:101103006D229E1800207A1F010774042F11147892
:10111300FB7A1F01072E2400032E18CF807A1F01AC
:10112300077E0F01077CB17A1300C17C727A23001A
:10113300C27C637A3300C37E0800E47E5010122021
:10114300AB7EB300BE7E7300BF7E0800E412215C59
:101153007EB300BE24087AB300BE7EB300C0048011
:10116300057EB300C0047AB300C07E7300C00A37A3
:101173002D377D267E1B70BE70002803020F6CDAAC
:101183003B22CAF87EF30104BEF00440030212417D
:101193007E370115BE34000168030212417E34001C
:1011A300017A3701157E3429CC7E2400FF7E1BB0E3
:1011B3007E3429CD7E2400FF7E1B707EF429CE7EF3
:1011C300E400FF691700020B7A00120F5C7E3429DA
:1011D300D57E2400FF7E1BB07E3429D67E2400FFFB
:1011E3007E1B707EF429D77EE400FF691700020B93
:1011F3007A00120F5C7E3429DE7E2400FF7E1BB052
:101203007E3429DF7E2400FF7E1B707EF429E07E7E
:10121300E400FF691700020B7A00120F5C7E342989
:10122300E77E2400FF7E1BB07E3429E87E2400FF86
:101233007E1B707EF429E97EE400FF02130ABEF0F0
:101243000478197E370115BE340001780F12245536
:10125300E47AB301017E340002021332BEF004507B
:10126300030213167E370115BE340002680302130E
:10127300167E3429F07E2400FF7E1BB07E3429F1D4
:101283007E2400FF7E1B707EF429F27EE400FF695A
:101293001700020B7A00120F5C7E3429F97E2400BA
:1012A300FF7E1BB07E3429FA7E2400FF7E1B707EF6
:1012B300F429FB7EE400FF691700020B7A00120F8A
:1012C3005C7E342A027E2400FF7E1BB07E342A0318
:1012D3007E2400FF7E1B707EF42A047EE400FF69F7
:1012E3001700020B7A00120F5C7E342A0B7E240057
:1012F300FF7E1BB07E342A0C7E2400FF7E1B707E93
:10130300F42A0D7EE400FF691700020B7A00120F26
:101313005C8020BEF005501B7E370115BE340002F1
:10132300781112245574067AB301017E3400017AD0
:10133300370115E47E7301017E1429807E0400FFCA
:10134300120F5C7EB30101122881DAF8227E370086
:10135300434D3368030215097E3400017A37004395
:101363007E08008512203D7E7300857C477E7300D6
:10137300867C647A3700AA7E7300877C477E73007D
:10138300887C647A3700AC7E7300897C477E730067
:101393008A7C647A3700AE7E73008B7C477E730051
:1013A3008C7C647A3700477E73008D7C477E7300A4
:1013B3008E7C647A3700B87E53008F7C257E530081
:1013C300907C427A2700BA7E5300917C257E53009D
:1013D300927C427A2700BCBE34FFFF68247E27003C
:1013E300BABE24FFFF681A7E3700BCBE34FFFF6815
:1013F300107E1700B84D1168084D2268044D3378EC
:101403001A7E1700A47A1700B87E1700A67A170071
:10141300BA7E1700A87A1700BC80107E1700B87A2E
:101423001700A47A2700A67A3700A87E2700AA7C93
:10143300B41202186DFF7EE446007F071201847F19
:1014430041900000793E00021BEA207E2700AC7C1D
:10145300B41202187F071201847F517A1F00587E4D
:101463002700AE7CB41202187F071201847F617AD1
:101473001F005E7E2700B87CB41202187EE442830C
:101483007F07120184900004793E00021BEA207E4C
:101493002700BA7CB41202187F071201847A1F0056
:1014A300647E2700BC7CB41202187F071201847A81
:1014B3001F007C7EF4FA397EE43C8E7F071200E441
:1014C3007A1F00C27A4F00C67A5F00CA7A6F00CED5
:1014D300900004693E00020BEA207F071200E4CA71
:1014E3001B7E1F00647F071200E47F01DA1B120BCF
:1014F3001B7E1D081202507A3700497E1F00971287
:1015030002507A3700B0227E730104A5BF00137E18
:10151300B30106700DA202E43378077EB300FB0427
:101523008016A5BF00177EB301067011A202E43333
:10153300B4010A7EB300FB147AB300FB227EA3013D
:1015430006BEA00178067E14000180026D11A5BFBE
:1015530000067E24000180026D225D216809A2023B
:10156300E433780302165EA5BF000FBEA001780A1C
:10157300A202E433B40103021675A5BF01114CAAFC
:10158300780DA202E43378077EB300FC048014A52F
:10159300BF01154CAA7811A202E433B4010A7EB349
:1015A30000FC147AB300FC22A5BF010EBEA0017893
:1015B30009A202E433780302165EA5BF010FBEA0A1
:1015C30001780AA202E433B40103021675A5BF022F
:1015D300114CAA780DA202E43378077EB300FD0410
:1015E3008014A5BF02154CAA7811A202E433B401FA
:1015F3000A7EB300FD147AB300FD22A5BF020DBE1F
:10160300A0017808A202E4337802804FA5BF020E3E
:10161300BEA0017809A202E433B401028054A5BF3D
:1016230003114CAA780DA202E43378077EB300FEBF
:10163300048014A5BF03154CAA7811A202E433B4A5
:10164300010A7EB300FE147AB300FE22A5BF031283
:10165300BEA001780DA202E43378077EB300FF0435
:101663008015A5BF0315BEA0017810A202E433B410
:1016730001097EB300FF147AB300FF22CA3B7CD674
:101683007F707CE77CFB9F117A1F00187408ACBD48
:101693000A3F2D352E3400087CF76D117E0442C8B5
:1016A3007F171200E41202507A1F001C0A5F9E5437
:1016B30000187C7E7E142ABE7E0400FF120F5C6C31
:1016C300CC0217B27ED4000A7E7F001C7F177D1DDB
:1016D300120AC87A0F00187F177D1D120AC87A1FD5
:1016E300001C9EF008BEC00278039EF0087E2F0007
:1016F30018BE28000A40030217B07EA003A4901767
:10170300057302172302173102173F02174D021701
:101713005B0217690217770217850217930217A155
:101723007CBF7C7E7E142ABC7E0400FF807C7CBF51
:101733007C7E7E142ABA7E0400FF806E7CBF7C7E92
:101743007E142AB87E0400FF80607CBF7C7E7E14FA
:101753002AB67E0400FF80527CBF7C7E7E142AB4AE
:101763007E0400FF80447CBF7C7E7E142AB27E040C
:1017730000FF80367CBF7C7E7E142AB07E0400FF8F
:1017830080287CBF7C7E7E142AAE7E0400FF801AF4
:101793007CBF7C7E7E142AAC7E0400FF800C7CBF61
:1017A3007C7E7E142AAA7E0400FF120F5C0BC0BC51
:1017B300DC28030216C7DA3B227E37005C4D336810
:1017C3000302188A7E3400017A37005C7E7300803E
:1017D3001A377A3700E47E08002A7E342A807E2472
:1017E30000FF12028DE46C777E08002A120F5C7EE4
:1017F30037010D7A3700E47E37010B7A3700E27E3A
:1018030008002A7E342A717E2400FF12028DE47EB2
:1018130070027E08002A120F5C7E3700A27A37001E
:10182300E47E08002A7E342A6D7E2400FF12028D96
:10183300E47E70047E08002A120F5C7E3700B87ABB
:101843003700E47E3700BA7A3700E27E08002A7E4A
:10185300342A617E2400FF12028DE47E70067E0826
:10186300002A121A017E3700BC7A3700E47E080092
:101873002A7E342A5B7E2400FF12028DE47E7007E9
:101883007E08002A021A0122D296D2937E3400C81F
:1018930012274974AE6C7712257174026C77122586
:1018A3007174106C7712257174406C771225717402
:1018B300B06C7712257174816C7712257174CF6CBB
:1018C3007712257174A16C7712257174A66C771247
:1018D300257174A86C77122571743F6C771225718A
:1018E30074AD6C77122571748B6C77122571743318
:1018F3006C7712257174C86C7712257174D36C7769
:10190300122571E46C7712257174D56C77122571E9
:1019130074806C7712257174D96C77122571741FDA
:101923006C7712257174DA6C7712257174126C77E7
:1019330012257174DB6C7712257174406C77122554
:101943007112245574AF6C77022571CA69CAF87E87
:10195300B3010214680C0468030219FC1211850216
:1019630019FC7E3429CB7E2400FF7E1B700A277E60
:1019730064000A8D267EF301040A3FBD32780A7E95
:101983003429D27E2400FF805B7E3429D47E240058
:10199300FF7E1B700A278D260A3FBD32780A7E34EC
:1019A30029DB7E2400FF803C7E3429DD7E2400FF7A
:1019B3007E1B700A278D260A3FBD32780A7E3429A2
:1019C300E47E2400FF801D7E3429E67E2400FF7E12
:1019D3001B700A278D260A3FBD32780D7E3429ED10
:1019E3007E2400FF0B1A309934E47E7301037E14C6
:1019F30029807E0400FF120F5CDAF8DA6922CA3B01
:101A03007F307A7300BF7AB300BEE4807E7E7300BA
:101A1300C00A372D377D267E1B70BE70204067BEFF
:101A2300707E38620A376D229E1800207A1F0107E4
:101A33002F112F112F117A1F01072E2400032E18A7
:101A4300BFC07A1F01077E0F01077CB17A1300C163
:101A53007C727A2300C27C637A3300C37E0800C49D
:101A63007E50081220AB7EB300BE7E7300BF7E089B
:101A730000C41225457EB300BE24067AB300BE7EA1
:101A8300B300C00480057EB300C0047AB300C07EF7
:101A93007300C00A372D377D267E1B70BE70002869
:101AA30003021A10DA3B227E342A4A7E2400FF7E88
:101AB3001BB07E342A4B7E2400FF7E1B707EF42AEB
:101AC3004C7EE400FF691700020B7A00120F5C746E
:101AD30058CAB86C77CA787E4300FEE412021D7EB2
:101AE30014D70A7E043C231200E47F017E6004DAEB
:101AF30078DAB812167F7E342A537E2400FF7E1BC9
:101B0300B07E342A547E2400FF7E1B707EF42A5557
:101B13007EE400FF691700020B7A00120F5C743930
:101B2300CAB87E7002CA787E4300FFE412021D7EAB
:101B330014D70A7E043C231200E47F017E6004DA9A
:101B430078DAB802167F7E342A267E2400FF7E1BB5
:101B5300B07E342A277E2400FF7E1B707EF42A2861
:101B63007EE400FF691700020B7A00120F5C744BCE
:101B7300CAB86C77CA787E4300FCE412021D7E1457
:101B8300D70A7E043C231200E47F017E6004DA78E6
:101B9300DAB812167F7E342A2F7E2400FF7E1BB014
:101BA3007E342A307E2400FF7E1B707EF42A317E31
:101BB300E400FF691700020B7A00120F5C7439CA44
:101BC300B87E7002CA787E4300FFE412021D7E14C1
:101BD300D70A7E043C231200E47F017E6004DA7896
:101BE300DAB802167F7E342A147E2400FF7E1BB0EF
:101BF3007E342A157E2400FF7E1B707EF42A167E17
:101C0300E400FF691700020B7A00120F5C7439CAF3
:101C1300B86C77CA787E4300FBE412021D7E14D7AA
:101C23000A7E043C231200E47F017E6004DA78DA42
:101C3300B812167F7E342A1D7E2400FF7E1BB07EE1
:101C4300342A1E7E2400FF7E1B707EF42A1F7EE44E
:101C530000FF691700020B7A00120F5C7439CAB8CF
:101C63007E7002CA787E4300FFE412021D7E14D701
:101C73000A7E043C231200E47F017E6004DA78DAF2
:101C8300B802167F7E342A387E2400FF7E1BB07E86
:101C9300342A397E2400FF7E1B707EF42A3A7EE4C8
:101CA30000FF691700020B7A00120F5C744BCAB86D
:101CB3006C77CA787E4300FDE412021D7E14D70AB6
:101CC3007E043C231200E47F017E6004DA78DAB8F4
:101CD30012167F7E342A417E2400FF7E1BB07E34A1
:101CE3002A427E2400FF7E1B707EF42A437EE4009A
:101CF300FF691700020B7A00120F5C7439CAB87EB1
:101D03007002CA787E4300FFE412021D7E14D70AD4
:101D13007E043C231200E47F017E6004DA78DAB8A3
:101D230002167FA203E433B401028003021DB7A2AB
:101D3300B4E433B401377E3700F9BE3407D0502DF5
:101D43006D337A3700F9122455C2037EB30105BE01
:101D5300B002500304800274017AB30105B4020493
:101D6300D2018002C20174017AB3010222A2B4E457
:101D730033B401297E3700F9BE340FA0281F6D3319
:101D83007A3700F9122455C203C201E47AB301057C
:101D93007AB301027AB301037AB3010622A2B4E44F
:101DA30033B401107E3700F9BE3407D028066D33F3
:101DB3007A3700F922740A7E34FEB27E24007E7ADA
:101DC3001BB0E47E34FED07A1BB074EF7E34FED1B8
:101DD3007A1BB0E47E34FECC7A1BB074607E14FEB2
:101DE300C87E04007E7A0BB07E14FEC97A0BB074F1
:101DF300117A1BB074037E34FED57A1BB074E87E6F
:101E030034FED67A1BB074037E34FED77A1BB074CB
:101E1300E87E34FED87A1BB074037E34FED27A1B7C
:101E2300B074E87E34FED37A1BB074057E34FEB101
:101E33007A1BB074807E34FEDD7A1BB074017E346D
:101E4300FEC07A1BB022CAB8CA39C0D17E37005C43
:101E53000B347A37005CBE34006478066D337A370E
:101E6300005C7E3700620B347A370062BE34000AAE
:101E730078066D337A3700627E3700430B347A3746
:101E83000043BE34003278066D337A3700437E3721
:101E93000117BE34000028061B347A3701177E373A
:101EA30000450B347A370045BE3427102808A2B406
:101EB300E4337802D203A203E433B4010A7E370089
:101EC300F90B347A3700F9D0D1DA39DAB8327584BC
:101ED300017E44041FE47A49B01B4478F97EF8017B
:101EE30019C200C201C202C203C2047E0400FF7E03
:101EF3001428A20B0A405D44681A692000020B0EE5
:101F03000B44800A7E0BB07A29B00B240B0C1B44C4
:101F130078F280DF7E0400FF7E142A860B0A405D80
:101F2300446822295000020A25693000032E080064
:101F3300050B44800A7E0BB07A1BB00B1C0B0C1BE9
:101F43004478F280D70223AAA201E433786E7EA3F9
:101F530001024CAA78187EB30101BEB000402ABE2C
:101F6300B00438250A3B0B357A730101801BBEA0F0
:101F73000178167EB30103BEB000400DBEB002501F
:101F8300080A3B0B357A730103BEA00168137EB3C5
:101F93000104BEB000400ABEB0063805047AB3019E
:101FA30004BEA00178137EB30106BEB000400ABE92
:101FB300B0013805047AB3010602241EC2020215D9
:101FC3000AA201E433786E7EA301024CAA78187E3C
:101FD300B30101BEB006382ABEB00240250A3B1B3E
:101FE300357A730101801BBEA00178167EB301030D
:101FF300BEB004500DBEB00240080A3B1B357A73D5
:102003000103BEA00168137EB30104BEB000280A19
:10201300BEB0073805147AB30104BEA00178137E5D
:10202300B30106BEB000400ABEB0013805147AB34E
:10203300010602241ED20202150ACA3B7F30122770
:102043002F74D0122639743B12263912272F74D1DC
:10205300122639E47AB300BE1226137EA300BE0A09
:102063003A2D377D267A1BB0C2B7D2B612286CC27E
:10207300B612286C7EB300BE047AB300BE7E730032
:10208300BEBE700D40D21226137EA300BE0A3A2DA7
:10209300377D267A1BB0D2B7D2B612286CC2B612DD
:1020A300286C122843DA3B22CA3B7A5300F77F306D
:1020B3007A6300F67A7300F57AB300F4C29374037B
:1020C3001227147EB300F41227147EB300F51227EF
:1020D300147EB300F6122714E480151200037EA3C6
:1020E30000F80A3A2D377D267A1BB07EB300F80438
:1020F3007AB300F87E7300F7BE7300F838DDD2932D
:10210300DA3B22CA3B7F307A7300F57AB300F4E4FA
:102113007AB300F77EB300F47E7300F512259CE4D6
:102123007AB300F67E3BB07E70011225710B747E8C
:10213300B300F6047AB300F6B410E97EB300F504F5
:102143007AB300F57EB300F7047AB300F77E730029
:10215300F7BE700240BEDA3B22CA3B7F307A73007F
:10216300F57AB300F4E47AB300F77EB300F47E7338
:1021730000F512259CE47AB300F67E3BB07E700135
:102183001225710B747EB300F6047AB300F6B4081B
:10219300E97EB300F5047AB300F57EB300F7047A61
:1021A300B300F77E7300F7BE700240BEDA3B226CC9
:1021B300AAA286E43378057E700880026C77A28534
:1021C300E43378054E700480035E70FBA2CBE433E6
:1021D30078054E700280035E70FDA2CAE433780571
:1021E3004E700180035E70FE1B7168111B716808DD
:1021F3001B71780C6CAA80087EA0FF80037EA0016F
:102203007CBA22CAF8A2B2E4337808A2B3E43378E2
:1022130002D200A200E433B40135A2B330B201B359
:102223005008A2B2E4337AB30100A2B2E433B4019A
:102233001EA2B3E433B40117C2007EF30100BEF063
:10224300017805121F4B80074CFF7803121FC4DA75
:10225300F822A2B2E433B40109A2B3E433B4010215
:10226300D204A204E433B40131A2B330B201B350B7
:1022730008A2B3E4337AB30100A2B2E433781BA219
:10228300B3E4337815C2047EB30100B40103121F13
:102293004B7EB301007003121FC4022206CA3B7FA8
:1022A30030E47AB301147AB30113E47E7301131299
:1022B300259CE47AB301147E3BB07E700112257134
:1022C3000B747EB30114047AB30114B480E97EB3B2
:1022D3000113047AB301137E730113BE700840CA5D
:1022E300DA3B22CA0B691FFFFF690FFFFD1201844E
:1022F3001208507F717F1F2E34FFFD7E1BB030E725
:10230300229F007F171203AE380A7E140FDB7E0470
:10231300404980087E140FDB7E04C0497F171200FA
:102323002C7F717F171BFE227E3700624D33783975
:102333007E3400017A3700621221B27AB300807EC4
:102343007300801A077E140258AD107D312E3700BA
:10235300A27A37010D7E2700A29D217A27010B1255
:10236300269E7EB3002102236D227C7BA5BF000A3B
:102373006D337A37010B7A37010D7E17010B1A0281
:102383007E34FED57E24007E7A1B107E34FED67A00
:102393001B307E17010D1A027E34FED77A1B107E86
:1023A30034FED87A1B30221223E412188BE412264F
:1023B300BE74011225191224551227FB122760A996
:1023C300C6A2A9C7A2A9D4FF12289C7E3401907A81
:1023D3003700A212248C12232B1217BC1213508025
:1023E300F575E900A9D7BA75EA00759300759400ED
:1023F30075910075920075950075960075B100751D
:10240300B20075B30075B40075C90075CA0075CB09
:102413000075CC0075E10075E20022CA796CEE0A02
:102423005E2E5400B06C7712257174106C771225F0
:102433007174026C771225716CFFE47E70011225B2
:10244300710BF0BEF01078F20BE0BEE00840D0DA7A
:102453007922CA796CFF0A5F2E5400B06C7712257B
:102463007174106C7712257174026C771225716C7C
:10247300EEE47E70011225710BE0BEE08078F20B72
:10248300F0BEF00840D0DA792212286C12286C12C0
:10249300286C12286C746B6C771226F874197E7092
:1024A300071226F8741A7E70041226F8741B7E70C5
:1024B300081226F8741C0226F8CAF87CFB1228239B
:1024C300746C1224EB1228107CBF1224EB12281018
:1024D300122823746D1224EB1228101225C77CFBDB
:1024E3001228527CBFDAF822CA797CFB7EE008C24C
:1024F300A074051228607CBF30E704D2A28002C218
:10250300A27405122860D2A03EF01228601BE07866
:10251300DEC2A0DA7922CAF87CFB4CFB780E74C8C1
:102523006C7712257174A16C77122571BEF0017856
:102533000E74C06C7712257174A06C77122571DA52
:10254300F822CA3B7F3012259CE47AB300CC7E3B51
:10255300B07E70011225710B747EB300CC047AB384
:1025630000CC7E7300CCBE700640E3DA3B227C6B6A
:102573004C776804D2958002C295C2967E7008C2D9
:10258300C77CB630E704D2948002C294D2C73E60BF
:102593001B7078EBD296D29522CAF87CFB0BF10A1A
:1025A300572E5400B06C771225717CBF54F0C4547D
:1025B3000F44106C771225717CBF540F6C77122572
:1025C30071DAF822CA796CFF7EE008D2A074051292
:1025D30028603EF030A2034EF001C2A07405122819
:1025E300601BE078E67CBFDA79227F70A9D6BC0055
:1025F30000A935BCFCA9C5BCE5BD7C4B6C55E5BE4B
:102603000A3B2D32E5BC0A5B0B54F5BC1B7A302226
:10261300CA796CFFD2B76CEE3EF0D2B612286CA228
:10262300B7E4334CFBC2B612286C0BE0BEE00840A3
:10263300E77CBFDA7922CA797CFB6CEE3EF0A2D745
:1026430092B7D2B612286CC2B612286C0BE0BEE069
:102653000840E91227BBDA7922E5BC0A5B0B54F583
:10266300BCA9D6BC0000A935BCFCA9C5BCE5BD7C92
:102673004B6C55E5BE0A3B2D3222E5BC54F04408B1
:10268300F5BCA9D6BC0000A935BCFCA9C5BCE5BDF9
:102693007C4B6C55E5BE0A3B2D3222BE340000480C
:1026A30006C282D2818004D282C281BE2400004845
:1026B30005C283D28422D283C28422CAF87CFB4C13
:1026C300FB780774A66C77122571BEF00178077446
:1026D300A76C77122571DAF82253BCF0A9D6BC0097
:1026E30000A935BCFCA9C5BCE5BD7C4B6C55E5BE5A
:1026F3000A3B2D3222CA797CEB12272F74D0122683
:10270300397CBE1226397CB7122639122843DA796E
:10271300227C6B7E7008C2C77CB630E704D29480FB
:1027230002C2943E60D2C71B7078EB2212286C124F
:10273300286CD2B7D2B612286C12286CC2B71228F2
:102743006CC2B602286C7D13800E7E0407087D30B0
:102753001B044D3378F81B144D1178EE22759850F5
:10276300438E01438E0475D78F75D6FD438E10D2E9
:10277300ACD2AF22C2A0A20592A27405122860D2E5
:10278300A0122860C2A0D2A2022860743F7E34FE49
:10279300A87E24007E7A1BB075DE2375BCF0A9D712
:1027A300BC22CA3B7F3080087E3BB00B7412288169
:1027B3007E3BB070F3DA3B22D2B712286CD2B6124A
:1027C300286CA2B792D7C2B612286CA2D722748DF6
:1027D3006C7712257174106C7712257174AE6C7757
:1027E300022571748D6C7712257174146C77122520
:1027F3007174AF6C77022571538EBF53890F758B3C
:102803009C758DFFC28FD28ED2ABD2AF22D2A07471
:1028130005122860A2A29206C2A0122860A2062274
:10282300D2A2D2A07405122860C2A2122860C2A04C
:10283300227A3701177E370117BE34000038F6229B
:1028430012286CC2B7D2B612286CD2B702286CC257
:10285300A2D2A07405122860D2A20228607C7B0059
:102863007C671B70A5BE00F7227EA0077CBA147C90
:10287300AB78F922C0D1309802C298D0D1327AB164
:10288300993099FDC29922C282D281C283D2842215
:10289300D282C281D283C28422121DB802288A0046
:1028A30001002101000400220000000000040026B2
:1028B3000000000000020045000000020049000083
:1028C3000004004C00000000000400500000000061
:1028D3000004005400000000000400580000000041
:1028E3000004005E0000000000040064000000001B
:1028F3000004007C000000000004008100000000D0
:1029030000020093000000020095000000040097FD
:10291300000000000004009B00000000000200B063
:102923000000000200B20000000200B40000000238
:1029330000B600000004000C0000000000040010BA
:102943003F800000000400080000000000040107AD
:1029530000000000000201150001000200F9000060
:10296300000101040000010105000001010600004F
:1029730002010B00000002010D000000003E00B246
:10298300E2CAD4B7A2C7F23A00B8A9D1F6BDC73A92
:1029930000B5F7D7F3D3D23A00B9A6C4DC3A00D7CF
:1029A300AACBD93A00C6E4CBFB00BFD8D6C600B841
:1029B300A9D1F6BDC700BDC7B6C8B5F7BDDA00D704
:1029C300AACBD9B5F7BDDA000A100000FF29C21B54
:1029D300E80B100200FF29B91B490C100400FF2962
:1029E300B21C870D100600FF29AD1AAA0E100000B5
:1029F300FF29A800000F100200FF29A800001010F3
:102A03000400FF29A8000011100600FF29A80000F8
:102A1300140F0000FF29A20000150F0200FF299CDC
:102A23000000160F0000FF29940000170F0200FF9B
:102A3300299C0000180F0000FF298C0000190F02C9
:102A430000FF299C00001A0F0000FF298200001BD1
:102A53000F0200FF299C00005A3A25336400583ABC
:102A630025336420593A2533640025336400253324
:102A7300642C25336420202020202020002564207E
:102A830020200000040100000000000000040100F9
:102A93000400000000000401000800000000000220
:102AA30001000C0000000039003800370036003503
:0D2AB30000340033003200310030002E00EE
:00000001FF
