:0800000002182BC283D28422F6
:10000B00021CE000007EA03F7CBA147CAB78F92286
:10001B000214EEC281D28222021D91CA797CEB12AC
:10002B001B6B74D0121ACE7CBE121ACE7CB7121A6E
:07003B00CE121D3ADA792212
:10004300021D64CA3B7F30E47AB3001F7AB3001EFB
:10005300E47E73001E121A2FE47AB3001F7E3BB0B6
:100063007E7001121A040B747EB3001F047AB3006E
:100073001FB480E97EB3001E047AB3001E7E7300B2
:100083001EBE700840CADA3B227A3701A37E3701CD
:10009300A3BE34000038F6220218A40203546E00F3
:1000A300807CB1337CB033680D0468EF7CB5337C5E
:1000B300B43378037F10220468E17D5092F77D45C5
:1000C3007D51BF2140067C807F017F121203177E82
:1000D300A1D05CB004780320D5C17CB0047807506C
:1000E30002B2D502035C92D5BE80FF68F67CB89C51
:1000F300B06C00602AB418057C4102033050FB80C9
:10010300032F00047C9B5E900778F630E4067C4363
:100113007D106D0030E3087C437C327C210A003083
:10012300F5199F10780E220203591B8068F92F11CD
:1001330050020B707CB530E7F1801B2D317CB5A5E7
:10014300397C5B50110B80780302035C1E3413501F
:10015300034E60801A2B0203305D22680D5D007828
:10016300122D220B4068099F11222D000B0078F9F4
:100173000203541203175C800B8068082481500724
:100183002CB0500A02035C2CB040030203597C8B51
:100193005D1178267CB17CA5BE1080680A5D33783A
:1001A3000DA5BD80057F100203466D0080307F01E1
:1001B3007C5B7CB17CA5AD1280245D337806A5BD44
:1001C30080F080E1CA887D41AD437CB17CA5AD124E
:1001D3002D1450020B047C5BAD232F01DA88A42D70
:1001E30005BE008040060B80780480982F007C4376
:1001F3007C507C617C72020330BE24FFFF6806BE24
:1002030004FFFF78030203541203175CB00468F57C
:100213007CB8A54868EF7CB870039F1122A5B8008D
:100223000302035C2E008150079C803807020359A8
:100233009C8050ED0A51C2E74D5178030203467E7C
:100243005400807E901A6C0080061B9068142F1156
:10025300BF1040049F104CAB0330E7EECAA86CAA52
:1002630080E8DA39DA587C4ABE5080500A1B80682D
:10027300BC2F1150020B700203307EA020800C7E35
:10028300A01080057EA0086C556D333392D5500ABB
:100293006E34FFFF6E24FFFF0B1CA5EC3340062FCB
:1002A30011D5F0F6227CBA247EA2D5137C767C6528
:1002B300A5CC92E77C5B227CB5337CB43392D54EDC
:1002C3005080248140039F11227C457C567C676CBF
:1002D3007724E0500E7E1CFFFF221E341E245003A1
:1002E3004E60800478F430D50A6E34FFFF6E24FF2D
:1002F300FF0B1C227F707F517EC400007ED4016BF4
:100303007E94030A0203954005E47A7BB0227A7B4C
:10031300B00B7C222D0092D50E104E10807D422D05
:10032300445002B2D54E50806C447CB8222C4450C9
:10033300120B1C7E40005E507FBE18000078040B39
:10034300806816A2D57CB8137C4B7CB592E77C5BA6
:10035300227E1CFFFF229F11227E24FF8020D502D4
:100363006C456D3322540F2490D43440D430F30CB5
:10037300BEB0414007BEB05B500224204CCC6802A3
:100383001BC00B84D389944CCC680B742012037F5D
:1003930080F5CA3B6D889F337CAE7E5BB00B5C708F
:1003A30007C37D38DA3B8994B42569C2F37E5BB019
:1003B3000B5CA5F824D0BEB00A501B7E500A20F671
:1003C3000DAC5CA52D7CCB70034EF00180DDAC5DE4
:1003D300A52D7CDB80D524CFBEB01AA5E850055EE1
:1003E30000DFD2F390076AA3E4936011BCB078F7FF
:1003F3007417934CAB30F6B34EF08080AEA3E49306
:100403006010BCB078F77416937C3B7423937C2BF9
:1004130089147CB08013742012037F20F205BEC0C0
:100423000250F31B6D29B6000112037F02038A1BDE
:100433006E691600020B6A00BE08000078087E048D
:1004430000FF7E141DC020F21E4CCC681A7F10E4FE
:100453007E1B804C8868070B1C04BCBD78F2C2F677
:10046300CA0B120569DA0B7E0BB060C0CA0B12030C
:100473007FDA0B0B0C4CDD68EE1BD078EA80ADD233
:10048300F07E101080037E10085EB05F800AD2F603
:100493007E100A80057E100AC2F66D119F117E0040
:1004A300201B6C7E6B7030F6021A3720F1051B6C33
:1004B3007E6B6030F6041A261A2430F0051B6D0B90
:1004C3006A20A5EC3382F692F6500A7CEA9F229FBB
:1004D300217F127CAE4C44780F7C457C567C676C44
:1004E300772E00F878EF80122F117CB3337C3B9C7E
:1004F300B140047C3B0B70A5D8EE7CB230E005DA4A
:10050300B8C44C3BCA380B207E00207E3000BE1896
:10051300000078C1BE1008780730F404C2F480B537
:10052300CA287CB2BCBD38027CBD120569DA28BC7E
:100533002D500A1BD0E4CA2812036880F07CB21342
:10054300DAB84004C4CAB8C4CA28BEF08040095C03
:10055300DD7805A5DA0260065EF07F120368DA280B
:10056300A5DADA02038ABEF001680F30F40224022E
:1005730020F50620F70330F6010420F229BCBC5015
:1005830025CAB87CBF13B0E67420501174307C8A3E
:100593005E80F068081205A95EA00F800312037F36
:1005A300DAB8BCBC78DB30F40F743012037F7458B4
:1005B30030F302747812037F30F605742D02037F43
:1005C300742B20F5F8742020F7F3221B6C7E6BB09C
:1005D30010F1021B6C20F60B30E704F404D2F27C1A
:1005E300CB800520E7057CDB0203AE5EF07F80F85D
:1005F3001B6E691600020B6A0030F0076D221B0A9E
:10060300200B0D1B0A80020399E46C22BE300750B5
:100613000B7F1F2D312E34FFF77E39B0227CBF2094
:10062300E7A8742E4EF08002037F120753403D7CEF
:10063300BD7003047CDB12086A7C3D4C3368101BDD
:10064300307CBE20E40912060C70044C3378F07C35
:10065300BD7CD3BEA0FD481CBCAB5818E49CBA2C8F
:10066300B31801E47CDB0206F4120753406E7CBD31
:100673000412086A7AFBA07CAE7CBDA2F492F0C29D
:10068300F4400260010424051205697E30FF0B303B
:1006930012060CCA3812036820F0044CDD680312FA
:1006A3000620DA38BC3D78E6740E120368742B7E9C
:1006B300FBA030F707742D6EA0FF0BA07AFBA012EE
:1006C300037F7EA00A7EFBB0847AFBA01203687EC0
:1006D300FBB01203689EF8000802038AD2F27ED0B0
:1006E3000002044912075340F37CBA2CBD041208DC
:1006F3006A7AFBA07CBA7CAE30E701E40420F40400
:100703004CDD6805D2F0C2F4042CBD1205696C33CC
:100713007EFBB0601B20E712147AFBB012060CCAF2
:1007230038120368DA380B3080E6047AFBB01B30EA
:1007330012060CCA381203684CDD68071206201B28
:10074300D080E19EF8000930F00312062002038AEC
:100753007CEA7CAF10F7037ED0067CFA1B6E693609
:1007630000020B6A200207B22D2B204C4248232E95
:100773000053584F44494355502A4E4645470004B9
:100783002080010200104032848991911E9882CE0C
:10079300F3E76C2D040404040404040405050606AD
:1007A300064E614E002B494E46002D494E46007DB4
:1007B300522D557CBE92E67CEB7CBA601F047028F8
:1007C3007CB5C2E77E0400FF60067E1407A4D32233
:1007D3007E1407AD40047E1407A8D322DA099F22B2
:1007E300CA2BCA2BC3CA09220A0A7E144D10AD10A4
:1007F3009E083AF09E10267CB5C2E77EA0567C9BED
:10080300A46E54FFFF2E54C511ACA92D15E4A539D0
:10081300CAB8CA1B20E70A1208DDDA1B1201FC80E2
:100823000AF4041208DDDA1B12015CDAA87CB53382
:100833007CB4334E50806C4424822F111478FBDA3D
:10084300497407BE400A40099E400ACA0201140BBC
:10085300A0CA486C442F117F012F112F112F1014A0
:1008630078EFCA48CA49227F0F20E73ABEB0074053
:100873000274070A0B2D109E1400097E19B02EB0C6
:10088300FB501F4C116817E47A19B01B147E19B082
:10089300047A19B0B40A0BE47A19B0A5D9ED0BA008
:1008A30074017A19B0225EE0BF223F80000041202C
:1008B300000042C80000447A0000461C400047C3C1
:1008C3005000497424004B1896804CBEBC205A0E2D
:1008D3001BCA6753C21C749DC5AE7C7B600654075C
:1008E300681623231209027CB75438680A7F101252
:1008F30008FF12015C7F01227CB7543803241C6C6F
:10090300AA2E5408AD7E4400FF0B2A006912000290
:10091300227D02AD31AD102D21226D0074104D00EA
:10092300780B4D2278278D317D126D22227D437DF8
:10093300326D222F112D445002A50FBF1040049F8A
:10094300100B901478ED7F016D227D34227D417D63
:10095300138D247D022F004004BD0440049D040B2D
:10096300141478F17D237D317D106D0022CA3B7F05
:10097300307A7300D97AB300D8E4020B7D7E73001A
:10098300DA0A372D377D267E1BA0BEA0B0500302A6
:100993000A22BEA0F72803020A227EB300DA0A3B2A
:1009A3002D377D2629B10001BEB0A140720A3A6DF0
:1009B300229E1800B07E14005E1209147A1F01975C
:1009C3000A1B6D002E0802AD2F107A1F01977E14AB
:1009D30000207E1F01971209147A1F01977E0F01D1
:1009E300977CB17A1300DB7C727A2300DC7C637A18
:1009F3003300DD7E0800DE7E50201217247EB30014
:100A0300D87E7300D97E0800DE12177F7EB300D82C
:100A130024107AB300D87EB300DA0BB1020B7D7ECB
:100A23007300DA0A372D377D267E1B70BE70A15006
:100A330003020AE17E7300DA0A372D377D267E1B17
:100A430070BE70A32803020AE17E7300DA0A372D11
:100A5300377D2629B10001BEB0A15003020AE17E11
:100A6300A300DA0A3A2D377D267E1BA00A3A6D22AF
:100A73009E1800A17E14005E1209147A1F01970AC2
:100A83001B6D009E0800A12F107A1F01977E140092
:100A9300207E1F01971209147A1F01977E0F019779
:100AA3007CB17A1300DB7C727A2300DC7C637A33BB
:100AB30000DD7E0800DE7E50201217247EB300D8AE
:100AC3007E7300D97E0800DE12177F7EB300D82420
:100AD300107AB300D87EB300DA0BB1020B7D7E73BC
:100AE30000DA0A372D377D267E1B70BE7020500337
:100AF300020B787E7300DA0A372D377D267E1B7052
:100B0300BE707E38707E7300DA0A372D377D267EFD
:100B13001B700A376D229E1800207A1F01977404F8
:100B23002F111478FB7A1F01972E2400032E18CF60
:100B3300807A1F01977E0F01977CB17A1300DB7CCB
:100B4300727A2300DC7C637A3300DD7E0800FE7E4C
:100B530050101217247EB300D87E7300D97E08008C
:100B6300FE1217D57EB300D824087AB300D87EB31B
:100B730000DA0480057EB300DA047AB300DA7E7308
:100B830000DA0A372D377D267E1B70BE70002803DE
:100B9300020980DA3B22CAF874AA7E34FEB27E24AC
:100BA300007E7A1BB0E47E34FED07A1BB074177ECD
:100BB30034FED17A1BB0E47E14FECC7E04007E7A30
:100BC3000BB07E34FECD7A1BB07EF0707E54FEC82F
:100BD3007E44007E7A2BF07E54FEC97A2BF07E543D
:100BE300FECA7A2BF07E54FECB7A2BF074337A0B49
:100BF300B07A1BB07E3700180A167C267E54FED5C9
:100C03007A2B607C377E34FED67A1B307E34FED757
:100C13007A1B207E34FED87A1B307E34FED97A1BB1
:100C2300207E34FEDA7A1B307E34FEDB7A1B207E94
:100C330034FEDC7A1B3074037E34FED27A1BB0742C
:100C4300E87E34FED37A1BB074557E34FEB17A1B32
:100C5300B074807E34FEDD7A1BB074017E34FEC036
:100C63007A1BB074AA7E34FEB67A1BB0E47E34FEDF
:100C7300F07A1BB074177E34FEF17A1BB0E47E1455
:100C8300FEEC7A0BB07E34FEED7A1BB07E54FEE8A8
:100C93007A2BF07E54FEE97A2BF07E54FEEA7A2B0F
:100CA300F07E54FEEB7A2BF074337A0BB07A1BB0E0
:100CB3007E17000E7E34FEF57A1B207E34FEF67A14
:100CC3001B307E1700107E34FEF77A1B207E34FE25
:100CD300F87A1B307E1700127E34FEF97A1B207ED1
:100CE30034FEFA7A1B307E1700147E34FEFB7A1B27
:100CF300207E34FEFC7A1B3074037E34FEF27A1BB2
:100D0300B074E87E34FEF37A1BB074557E34FEB5BE
:100D13007A1BB074807E34FEFD7A1BB074017E347E
:100D2300FEE07A1BB0DAF822CA3B7CD67F707CE700
:100D33007CFB9F117A1F018A7408ACBD0A3F2D35D5
:100D43002E3400087CF76D117E0442C87F17120110
:100D53005C1202BA7A1F018E0A5F9E5400187C7ED1
:100D63007E141F617E0400FF1209706CCC020E5EBC
:100D73007ED4000A7E7F018E7F177D1D12091D7AA6
:100D83000F018A7F177D1D12091D7A1F018E9EF0A8
:100D930008BEC00278039EF0087E2F018ABE280099
:100DA3000A4003020E5C7EA003A4900DB173020DF2
:100DB300CF020DDD020DEB020DF9020E07020E1537
:100DC300020E23020E31020E3F020E4D7CBF7C7ECB
:100DD3007E141F5F7E0400FF807C7CBF7C7E7E14BC
:100DE3001F5D7E0400FF806E7CBF7C7E7E141F5BD4
:100DF3007E0400FF80607CBF7C7E7E141F597E04CE
:100E030000FF80527CBF7C7E7E141F577E0400FF50
:100E130080447CBF7C7E7E141F557E0400FF803699
:100E23007CBF7C7E7E141F537E0400FF80287CBF22
:100E33007C7E7E141F517E0400FF801A7CBF7C7E63
:100E43007E141F4F7E0400FF800C7CBF7C7E7E14CB
:100E53001F4D7E0400FF1209700BC0BCDC28030287
:100E63000D73DA3B22CAF87E37005C4D3368030208
:100E73000F8B7E3400017A37005C7EB30026B40109
:100E83001A6D337A3700AD7E34EA6012008C7E34FB
:100E930002587A3700ADE47AB300261210997AB378
:100EA3000080BEB00218097E730080BE70FE581128
:100EB3007EB30080B403127E7300457A7300808092
:100EC300087E7300807A7300457EF300804CFF78C0
:100ED300117E3700AD7A3700126D337A3700100276
:100EE3000F64BEF00008347E4300A07CB412028776
:100EF3007E0F00A912015C7F717C4F7CBF120287B9
:100F03007E0F00A112015C7F071200A41202BA7ABD
:100F130037000E6D337A370010804ABEF000584513
:100F23007E7300A01A376D229D237CB41202827E49
:100F33000F00A912015C7F711A3F6D229D237CB4BF
:100F43001202827E0F00A112015C7F071200A46DC2
:100F5300117E0443481200A41202BA7A3700106DBE
:100F6300337A37000E7E3700187A3701457E370013
:100F73000E7E2700107E1700127E07001412157ACA
:100F83007E7300807A7300A0DAF8227E3700414D29
:100F93003368030210987E3400017A3700417E08DB
:100FA30000AF1215E87E3400AF7E2400000B1A2038
:100FB3007CB41202826DFF7EE446007F071201FCBF
:100FC3007A1F004E7E3400B17E2400000B1A207C71
:100FD300B41202827F071201FC7A1F00547E340090
:100FE300B37E2400000B1A207CB41202827F071206
:100FF30001FC7A1F00587E1F00607A1F00467E1F87
:1010030000647A1F004A7E3400B77E2400000B1A66
:10101300209E2700967CB41202827EE442837F07DF
:101023001201FC7A1F00607E3400B97E2400000B9D
:101033001A209E2700987CB41202827F071201FCBB
:101043007A1F00647E3400BB7E2400000B1A209EAE
:1010530027009A7CB41202827F071201FC7A1F00D8
:101063007C7EE442C87E1F004E7F0712015C1202A1
:10107300BA7A37008E7E1F00547F0712015C12027A
:10108300BA7A3700907E1F00587F0712015C120264
:10109300BA7A37009422A2FEE433B401057EA0108D
:1010A30080026CAAA2FDE433B401054EA0088003BC
:1010B3005EA0F7A2A7E433B401054EA00480035E4B
:1010C300A0FBA2A6E433B401054EA00280035EA0F8
:1010D300FDA2A5E433B401054EA00180035EA0FE8A
:1010E3007CBA14BEB01F40030211707EA003A4900B
:1010F30010F67302116402115802116A02115302AD
:10110300117002115E021170021155021170021169
:101113007002117002115B021170021170021170E2
:10112300021161021170021170021170021170023A
:101133001170021170021170021167021170021115
:101143007002117002117002117002117002116DA0
:10115300E42274012274FF2274012274FF227402B8
:101163002274FE2274022274FE2274FD227403226E
:10117300D2C6D2FF7E3400C8121B9C74AE6C7712A9
:101183001A0474026C77121A0474106C77121A041E
:1011930074406C77121A0474B06C77121A04748159
:1011A3006C77121A0474CF6C77121A0474A16C77DB
:1011B300121A0474A66C77121A0474A86C77121AA4
:1011C30004743F6C77121A0474AD6C77121A0474AA
:1011D3008B6C77121A0474336C77121A0474C86C0C
:1011E30077121A0474D36C77121A04E46C77121A08
:1011F3000474D56C77121A0474806C77121A047411
:10120300D96C77121A04741F6C77121A0474DA6C8F
:1012130077121A0474126C77121A0474DB6C771247
:101223001A0474406C77121A0412191374AF6C7792
:10123300021A047E3700924D3368030212F17E34A2
:1012430000017A37009212197D7CAB7AB3009F7E3E
:1012530073009F6E7300BF7C675E63009F7A6300B9
:101263009E7EB3009F64FF5CB77AB300277AA30026
:10127300BF7EB3009E1BB1682514683D14685524D6
:1012830003786B7E37000E2E3400327A37000EBEA1
:101293003403E828597E34012C7A37000E227E3736
:1012A30000102E3400327A370010BE3403E8283E93
:1012B3007E34012C7A370010227E3700122E340040
:1012C300327A370012BE3403E828237E34012C7AA5
:1012D300370012227E3700142E3400327A3700147E
:1012E300BE3403E828087E34012C7A370014227EAA
:1012F3003700524D33680302139E7E3400017A3760
:1013030000527E7300801A377A3701697E080028FD
:101313007E341F457E2400FF1202F7E46C777E08BB
:10132300002812139F7E37000E7A3701697E37003B
:10133300107A3701677E0800287E341F367E24002A
:10134300FF1202F7E47E70027E08002812139F7ECC
:101353003700127A3701697E3700147A3701677EC6
:101363000800287E341F277E2400FF1202F7E47E44
:1013730070037E08002812139F7E3700187A370106
:10138300697E0800287E341F1E7E2400FF1202F7A8
:10139300E47E70047E08002802139F22CA3B7F303C
:1013A3007A7301447AB30143E4807E7E7301450A74
:1013B300372D377D267E1B70BE70204067BE707E42
:1013C30038620A376D229E1800207A1F01972F1169
:1013D3002F112F117A1F01972E2400032E18BFC03F
:1013E3007A1F01977E0F01977CB17A1301467C72B5
:1013F3007A2301477C637A3301487E0801497E5092
:10140300081217247EB301437E7301447E08014909
:101413001219D87EB3014324067AB301437EB30184
:10142300450480057EB30145047AB301457E73010B
:10143300450A372D377D267E1B70BE7000280302B8
:1014430013AEDA3B22CA3B7F307AB3010EE47AB3A0
:101453000142121D497A73014174FD7AB3010FE40D
:101463007AB301107E7301410A372E3400037A7375
:10147300011174017AB301127EB3010EC454F04416
:10148300017AB301136D220972010F6E7301427A5F
:101493007301420B24BE24000578EC6D2280117F7A
:1014A300032D127E0B706E7301427A7301420B247B
:1014B3007E7301410A37BD3238E5CA397F137E088E
:1014C3000114121AA91BFD7E7301427E6301410AB6
:1014D30026197201147E08010F7E7301410A572EEB
:1014E3005400050B54121A5ADA3B22CA39C0D17E72
:1014F3003700520B347A370052BE34006478066DDD
:10150300337A3700527E37005C0B347A37005CBE87
:1015130034000A78066D337A37005C7E3700410B5E
:10152300347A370041BE34003278066D337A37009F
:10153300417E3700920B347A370092BE34000A782A
:10154300066D337A3700927E3700C00B347A37004A
:10155300C0BE341388400BA2EDB392ED6D337A37DE
:1015630000C07E3701A3BE34000028061B347A373F
:1015730001A3D0D1DA3932CA3B7D707D617A27016C
:10158300437D23BE2403E808047E2403E87E370159
:1015930043BE3403E808087E3403E87A370143BEC8
:1015A3006403E808047E6403E8BE7403E808047E69
:1015B3007403E87E370145BE3403E808087E34032C
:1015C300E87A3701457D32121C777E370143121CBE
:1015D3008C7D36121CA17D37121CB67E3701451255
:1015E3001CCBDA3B22CA3B7F30121B6B74D0121A1E
:1015F300CE743B121ACE121B6B74D1121ACEE47A3C
:10160300B30143121A837EA301430A3A2D377D2681
:101613007A1BB0C2B7D2B6121D86C2B6121D867E21
:10162300B30143047AB301437E730143BE700D409B
:10163300D2121A837EA301430A3A2D377D267A1BE1
:10164300B0D2B7D2B6121D86C2B6121D86121D3A8B
:10165300DA3B22CA3BD29012000E12000EC2903027
:1016630091FDC28C758C00758A00D28C2091FDC2CD
:101673008C7E14FFFE7E1F0192120914E58C7C0BF5
:101683006C11E58A0A1B4D106D002F10E412027DC8
:101693007E149BA67E043A4412015C1202BA7F3187
:1016A300758C00758A009F117A1F0192BE38012C38
:1016B30038047D3780047E3400FFDA3B2212186A37
:1016C300121173E4121B32E41219AC121913121D16
:1016D30006121C62121D2A121BB3A9C6A2A9C7A215
:1016E300A9D4FF12194A121DAD6D337A3700AD7EAE
:1016F3002444167A1F00A19F117A1F00A57E24425D
:10170300487A1F00A97E3403E87A37001874017AF7
:10171300B300261212F2120F8E120E6812123680C6
:10172300F2CA3B7A5301547F307A6301537A7301CF
:10173300527AB30151C2FF7403121B507EB301519D
:10174300121B507EB30152121B507EB30153121B66
:1017530050E48015121B857EA301550A3A2D377D6F
:10176300267A1BB07EB30155047AB301557E73010B
:1017730054BE73015538DDD2FFDA3B22CA3B7F30BA
:101783007A73019C7AB3019BE47AB3019E7EB30121
:101793009B7E73019C121A2FE47AB3019D7E3BB0AA
:1017A3007E7001121A040B747EB3019D047AB30197
:1017B3009DB410E97EB3019C047AB3019C7EB3010E
:1017C3009E047AB3019E7E73019EBE700240BEDA10
:1017D3003B22CA3B7F307A7301A07AB3019FE47A3C
:1017E300B301A27EB3019F7E7301A0121A2FE47A84
:1017F300B301A17E3BB07E7001121A040B747EB359
:1018030001A1047AB301A1B408E97EB301A0047A6B
:10181300B301A07EB301A2047AB301A27E7301A235
:10182300BE700240BEDA3B227584017E44041FE48D
:101833007A49B01B4478F97EF801A77E0400FF7E45
:10184300141DC40B0A405D44681A692000020B0E84
:101853000B44800A7E0BB07A29B00B240B0C1B447B
:1018630078F280DF0216C075E900A9D7BA75EA00DD
:1018730075930075940075910075920075950075C8
:10188300960075B10075B20075B30075B40075C9E3
:101893000075CA0075CB0075CC0075E10075E200D8
:1018A30022CAB8CA78C0D17EB30044B401247EB33F
:1018B300005E047AB3005E7E73005EBE706428121D
:1018C3007EB30081047AB30081E47AB3005E7AB315
:1018D3000044D0D1DA78DAB832CA796CEE0A5E2ED7
:1018E3005400B06C77121A0474106C77121A0474D3
:1018F300026C77121A046CFFE47E7001121A040B57
:10190300F0BEF01078F20BE0BEE00840D0DA7922A6
:10191300CA796CFF0A5F2E5400B06C77121A0474F4
:10192300106C77121A0474026C77121A046CEEE4CA
:101933007E7001121A040BE0BEE08078F20BF0BE59
:10194300F00840D0DA7922121D86121D86121D86F8
:10195300121D86746B6C77120026121AF174197EAD
:101963007007120026741A7E7004120026741B7E00
:101973007008120026741C0200266CAAA2C2E4336B
:1019830078057EA001801FA2C1E43378057EA00202
:101993008014A2FBE43378057EA0038009A2F8E457
:1019A3003378037EA0047CBA22CAF87CFB4CFB7814
:1019B3000E74C86C77121A0474A16C77121A04BEE1
:1019C300F001780E74C06C77121A0474A06C77124D
:1019D3001A04DAF822CA3B7F30121A2FE47AB301D1
:1019E300517E3BB07E7001121A040B747EB3015119
:1019F300047AB301517E730151BE700640E3DA3BB2
:101A0300227C6B4C776804D2C88002C2C8C2C67EEF
:101A13007008C2CB7CB630E704D2CA8002C2CAD2F5
:101A2300CB3E601B7078EBD2C6D2C822CAF87CFBCF
:101A33000BF10A572E5400B06C77121A047CBF5472
:101A4300F0C4540F44106C77121A047CBF540F6C0B
:101A530077121A04DAF822CA3B7AB301A57F30E47D
:101A6300800D7E3BB00B74121D707EB301A6047A09
:101A7300B301A67E7301A5BE7301A638E5DA3B2246
:101A8300CA796CFFD2B76CEE3EF0D2B6121D86A2B5
:101A9300B7E4334CFBC2B6121D860BE0BEE0084030
:101AA300E77CBFDA79227F217F707F10800A7E2B4B
:101AB300307A1B300B540B34691FFFFD7D011B046F
:101AC300790FFFFD4D1178E67F1722CA797CFB6CF5
:101AD300EE3EF0A2D792B7D2B6121D86C2B6121D41
:101AE300860BE0BEE00840E9121C22DA79220000EE
:101AF3007EA0057E70907E60477CB6147C6B78F97F
:101B03007CB7147C7B78F27CBA147CAB78EB22BE76
:101B13003400004806C281D2828004D281C282BED0
:101B23002400004805C283D28422D283C28422CAFD
:101B3300F87CFB4CFB780774A66C77121A04BEF092
:101B430001780774A76C77121A04DAF8227C6B7E8B
:101B53007008C2CB7CB630E704D2CA8002C2CA3E48
:101B630060D2CB1B7078EB22121D86121D86D2B772
:101B7300D2B6121D86121D86C2B7121D86C2B602C8
:101B83001D866CAA7E7008C2CB3EA030C5020BA096
:101B9300D2CB1B7078F17CBA227D13800E7E0407B2
:101BA300087D301B044D3378F81B144D1178EE2259
:101BB300759850438E01438E0475D78F75D6FD43B8
:101BC3008E10D2ACD2AF22CA3B7F3080087E3BB0AE
:101BD3000B74121DA47E3BB070F3DA3B22CA3B7F29
:101BE3003080087E3BB00B74121D707E3BB070F3E7
:101BF300DA3B22CA3B7F3080087E3BB00B74121D58
:101C03007B7E3BB070F3DA3B2275AC1053ACBF4321
:101C13008E0475D7CC75D6FF438E10A9D3AF22D2CD
:101C2300B7121D86D2B6121D86A2B792D7C2B612BC
:101C33001D86A2D722748D6C77121A0474106C77E8
:101C4300121A0474AE6C77021A04748D6C77121A2C
:101C53000474146C77121A0474AF6C77021A044379
:101C63008E4053890F758BA0758DF6C28FD28ED29D
:101C7300ABD2AF227D037E34FEF57E24007E7A1B39
:101C8300007E34FEF67A1B10227D037E34FEF77E3F
:101C930024007E7A1B007E34FEF87A1B10227D031B
:101CA3007E34FEF97E24007E7A1B007E34FEFA7AAF
:101CB3001B10227D037E34FEFB7E24007E7A1B00F4
:101CC3007E34FEFC7A1B10227D037E34FED97E24F3
:101CD300007E7A1B007E34FEDA7A1B1022CA1BC0F8
:101CE300D17E1F01920B1C7A1F0192D0D1DA1B32D5
:101CF300759A50438E0475D78F75D6FD438E10A900
:101D0300D0AF22438E805389F0758A00758C00C250
:101D13008DC28CD2A922CA3B7F30121D497CB77F6A
:101D230003121A5ADA3B2243DD0275D54075D4A259
:101D330043DD0843AF2022121D86C2B7D2B6121D5F
:101D430086D2B7021D866D3380020B347E0BB00B37
:101D53001470F7227D236D3380020B34BD2338FAD0
:101D630022C0D1A9309A03A9C09AD0D1327AB19BAB
:101D7300A9319AFCA9C19A227AB19BA9319AFCA9EB
:101D8300C19A227EA0077CBA147CAB78F922C0D119
:101D9300309802C298D0D132D2C2D2C1D2FBD2F88B
:101DA300227AB1993099FDC29922120B991200033C
:101DB30002001ED283C28422D281C2822228302909
:101DC300000001002301000100260000010027009C
:101DD300000100430000010044000004004600002D
:101DE30000000004004A000000000004004E000050
:101DF300000000040054000000000004005800002C
:101E030000000001005E000001005F0000040060AC
:101E13000000000000040064000000000004007CD7
:101E230000000000000100810000040082000000A7
:101E33000000040086000000000004008A00000087
:101E4300000002008E00000002009000000002006B
:101E530094000000020096000000020098000000B9
:101E630002009A00000002009C00000001009E0096
:101E73000001009F00000100BF00000200C000003D
:101E83000004019700000000000201A3000000020B
:101E9300000800000002000A00000002000C00001D
:101EA3000002000E000000020010000000020012F9
:101EB30000000002001400000002001600000002EF
:101EC300001800000002001A00000002001C0000BD
:101ED300000101A7000004019200000000000101BD
:101EE30096000006016BFD00033100CF0005017170
:101EF300FD000202FD00050176FD00028877000562
:101F0300017BFD000204FB00050180FD000221DED0
:101F130000050185FD000203FC0000737065656424
:101F23003A256400323A2530336420333A2530337E
:101F3300642000303A2530336420313A253033644D
:101F430020004C696E653A2564003900380037007B
:101F530036003500340033003200310030002E00EB
:00000001FF
