:0800000002179AC283D2842288
:10000B00021C9300007EA03F7CBA147CAB78F922D3
:10001B000214C8C281D28222021D447EB3000DB4E9
:10002B0001156D337A37017F7E34753012008C7E6B
:10003B0034021C7A37017F22021D17CA3B7F30E442
:10004B007AB3019F7AB3019EE47E73019E12199ECF
:10005B00E47AB3019F7E3BB07E70011219730B746F
:10006B007EB3019F047AB3019FB480E97EB3019EF6
:10007B00047AB3019E7E73019EBE700840CADA3BC0
:10008B00227A3701A07E3701A0BE34000038F62259
:10009B000218130203546E00807CB1337CB03368BA
:1000AB000D0468EF7CB5337CB43378037F102204E6
:1000BB0068E17D5092F77D457D51BF2140067C80E4
:1000CB007F017F121203177EA1D05CB0047803204E
:1000DB00D5C17CB00478075002B2D502035C92D52F
:1000EB00BE80FF68F67CB89CB06C00602AB4180523
:1000FB007C4102033050FB80032F00047C9B5E90FD
:10010B000778F630E4067C437D106D0030E3087C05
:10011B00437C327C210A0030F5199F10780E2202A5
:10012B0003591B8068F92F1150020B707CB530E717
:10013B00F1801B2D317CB5A5397C5B50110B807880
:10014B000302035C1E341350034E60801A2B020310
:10015B00305D22680D5D0078122D220B4068099FDF
:10016B0011222D000B0078F90203541203175C8047
:10017B000B806808248150072CB0500A02035C2CBA
:10018B00B040030203597C8B5D1178267CB17CA5B2
:10019B00BE1080680A5D33780DA5BD80057F100207
:1001AB0003466D0080307F017C5B7CB17CA5AD127A
:1001BB0080245D337806A5BD80F080E1CA887D413F
:1001CB00AD437CB17CA5AD122D1450020B047C5BAE
:1001DB00AD232F01DA88A42D05BE008040060B80CD
:1001EB00780480982F007C437C507C617C720203E6
:1001FB0030BE24FFFF6806BE04FFFF7803020354E2
:10020B001203175CB00468F57CB8A54868EF7CB89E
:10021B0070039F1122A5B8000302035C2E008150CE
:10022B00079C8038070203599C8050ED0A51C2E7A6
:10023B004D5178030203467E5400807E901A6C0069
:10024B0080061B9068142F11BF1040049F104CABFD
:10025B000330E7EECAA86CAA80E8DA39DA587C4A90
:10026B00BE5080500A1B8068BC2F1150020B7002CD
:10027B0003307EA020800C7EA01080057EA0086C31
:10028B00556D333392D5500A6E34FFFF6E24FFFF4A
:10029B000B1CA5EC3340062F11D5F0F6227CBA24AB
:1002AB007EA2D5137C767C65A5CC92E77C5B227C09
:1002BB00B5337CB43392D54E5080248140039F11CB
:1002CB00227C457C567C676C7724E0500E7E1CFFAD
:1002DB00FF221E341E2450034E60800478F430D568
:1002EB000A6E34FFFF6E24FFFF0B1C227F707F51C1
:1002FB007EC400007ED401507E94030A0203954015
:10030B0005E47A7BB0227A7BB00B7C222D0092D550
:10031B000E104E10807D422D445002B2D54E5080AF
:10032B006C447CB8222C4450120B1C7E40005E5057
:10033B007FBE18000078040B806816A2D57CB8131A
:10034B007C4B7CB592E77C5B227E1CFFFF229F11CE
:10035B00227E24FF8020D5026C456D3322540F245E
:10036B0090D43440D430F30CBEB0414007BEB05BE8
:10037B00500224204CCC68021BC00B84D389944CB4
:10038B00CC680B742012037F80F5CA3B6D889F33BA
:10039B007CAE7E5BB00B5C7007C37D38DA3B899417
:1003AB00B42569C2F37E5BB00B5CA5F824D0BEB05C
:1003BB000A501B7E500A20F60DAC5CA52D7CCB7031
:1003CB00034EF00180DDAC5DA52D7CDB80D524CF09
:1003DB00BEB01AA5E850055E00DFD2F390076AA302
:1003EB00E4936011BCB078F77417934CAB30F6B351
:1003FB004EF08080AEA3E4936010BCB078F7741617
:10040B00937C3B7423937C2B89147CB080137420D6
:10041B0012037F20F205BEC00250F31B6D29B600FC
:10042B000112037F02038A1B6E691600020B6A001E
:10043B00BE08000078087E0400FF7E141D7320F2B6
:10044B001E4CCC681A7F10E47E1B804C8868070B0F
:10045B001C04BCBD78F2C2F6CA0B120569DA0B7E1E
:10046B000BB060C0CA0B12037FDA0B0B0C4CDD68B0
:10047B00EE1BD078EA80ADD2F07E101080037E1098
:10048B00085EB05F800AD2F67E100A80057E100AE5
:10049B00C2F66D119F117E00201B6C7E6B7030F6C7
:1004AB00021A3720F1051B6C7E6B6030F6041A269E
:1004BB001A2430F0051B6D0B6A20A5EC3382F692E3
:1004CB00F6500A7CEA9F229F217F127CAE4C447827
:1004DB000F7C457C567C676C772E00F878EF80128A
:1004EB002F117CB3337C3B9CB140047C3B0B70A540
:1004FB00D8EE7CB230E005DAB8C44C3BCA380B20DE
:10050B007E00207E3000BE18000078C1BE10087837
:10051B000730F404C2F480B5CA287CB2BCBD3802E3
:10052B007CBD120569DA28BC2D500A1BD0E4CA2801
:10053B0012036880F07CB213DAB84004C4CAB8C4A2
:10054B00CA28BEF08040095CDD7805A5DA0260069A
:10055B005EF07F120368DA28A5DADA02038ABEF0AE
:10056B0001680F30F402240220F50620F70330F661
:10057B00010420F229BCBC5025CAB87CBF13B0E6DD
:10058B007420501174307C8A5E80F068081205A9C3
:10059B005EA00F800312037FDAB8BCBC78DB30F4AB
:1005AB000F743012037F745830F302747812037F88
:1005BB0030F605742D02037F742B20F5F874202080
:1005CB00F7F3221B6C7E6BB010F1021B6C20F60B49
:1005DB0030E704F404D2F27CCB800520E7057CDB0A
:1005EB000203AE5EF07F80F81B6E691600020B6A89
:1005FB000030F0076D221B0A200B0D1B0A80020333
:10060B0099E46C22BE3007500B7F1F2D312E34FF27
:10061B00F77E39B0227CBF20E7A8742E4EF0800203
:10062B00037F120753403D7CBD7003047CDB120833
:10063B006A7C3D4C3368101B307CBE20E4091206EB
:10064B000C70044C3378F07CBD7CD3BEA0FD481CF1
:10065B00BCAB5818E49CBA2CB31801E47CDB020643
:10066B00F4120753406E7CBD0412086A7AFBA07C1F
:10067B00AE7CBDA2F492F0C2F440026001042405EA
:10068B001205697E30FF0B3012060CCA3812036854
:10069B0020F0044CDD6803120620DA38BC3D78E606
:1006AB00740E120368742B7EFBA030F707742D6E4B
:1006BB00A0FF0BA07AFBA012037F7EA00A7EFBB0EB
:1006CB00847AFBA01203687EFBB01203689EF800CD
:1006DB000802038AD2F27ED000020449120753406B
:1006EB00F37CBA2CBD0412086A7AFBA07CBA7CAEF0
:1006FB0030E701E40420F4044CDD6805D2F0C2F4C9
:10070B00042CBD1205696C337EFBB0601B20E71215
:10071B00147AFBB012060CCA38120368DA380B30A5
:10072B0080E6047AFBB01B3012060CCA3812036841
:10073B004CDD68071206201BD080E19EF8000930C3
:10074B00F00312062002038A7CEA7CAF10F7037ECB
:10075B00D0067CFA1B6E693600020B6A200207B2C8
:10076B002D2B204C4248232E0053584F44494355C0
:10077B00502A4E46454700042080010200104032AB
:10078B00848991911E9882CEF3E76C2D04040404A6
:10079B000404040405050606064E614E002B494E63
:1007AB0046002D494E46007D522D557CBE92E67C6F
:1007BB00EB7CBA601F0470287CB5C2E77E0400FF97
:1007CB0060067E1407A4D3227E1407AD40047E146A
:1007DB0007A8D322DA099F22CA2BCA2BC3CA092224
:1007EB000A0A7E144D10AD109E083AF09E10267C1E
:1007FB00B5C2E77EA0567C9BA46E54FFFF2E54C55A
:10080B0011ACA92D15E4A539CAB8CA1B20E70A12E9
:10081B0008DDDA1B1201FC800AF4041208DDDA1B76
:10082B0012015CDAA87CB5337CB4334E50806C4437
:10083B0024822F111478FBDA497407BE400A400951
:10084B009E400ACA0201140BA0CA486C442F117FA8
:10085B00012F112F112F101478EFCA48CA49227F8C
:10086B000F20E73ABEB007400274070A0B2D109E0B
:10087B001400097E19B02EB0FB501F4C116817E401
:10088B007A19B01B147E19B0047A19B0B40A0BE4B0
:10089B007A19B0A5D9ED0BA074017A19B0225EE0DC
:1008AB00BF223F8000004120000042C80000447A74
:1008BB000000461C400047C35000497424004B18ED
:1008CB0096804CBEBC205A0E1BCA6753C21C749D2B
:1008DB00C5AE7C7B60065407681623231209027C85
:1008EB00B75438680A7F101208FF12015C7F01228F
:1008FB007CB7543803241C6CAA2E5408AD7E4400DC
:10090B00FF0B2A0069120002227D02AD31AD102DC2
:10091B0021226D0074104D00780B4D2278278D31FC
:10092B007D126D22227D437D326D222F112D44507D
:10093B0002A50FBF1040049F100B901478ED7F01A0
:10094B006D227D34227D417D138D247D022F00404D
:10095B0004BD0440049D040B141478F17D237D31F8
:10096B007D106D0022CA3B7F307A7300BE7AB300D4
:10097B00BDE4020B7D7E7300BF0A372D377D267ECB
:10098B001BA0BEA0B05003020A22BEA0F728030290
:10099B000A227EB300BF0A3B2D377D2629B1000109
:1009AB00BEB0A140720A3A6D229E1800B07E1400B0
:1009BB005E1209147A1F01920A1B6D002E0802ADFC
:1009CB002F107A1F01927E1400207E1F01921209B4
:1009DB00147A1F01927E0F01927CB17A1300C07CB6
:1009EB00727A2300C17C637A3300C27E0800C37E17
:1009FB0050201216937EB300BD7E7300BE7E08009E
:100A0B00C31216EE7EB300BD24107AB300BD7EB3C5
:100A1B0000BF0BB1020B7D7E7300BF0A372D377DF4
:100A2B00267E1B70BE70A15003020AE17E7300BFCD
:100A3B000A372D377D267E1B70BE70A32803020A52
:100A4B00E17E7300BF0A372D377D2629B10001BE29
:100A5B00B0A15003020AE17EA300BF0A3A2D377DF5
:100A6B00267E1BA00A3A6D229E1800A17E14005E02
:100A7B001209147A1F01920A1B6D009E0800A12F08
:100A8B00107A1F01927E1400207E1F01921209140E
:100A9B007A1F01927E0F01927CB17A1300C07C7297
:100AAB007A2300C17C637A3300C27E0800C37E5078
:100ABB00201216937EB300BD7E7300BE7E0800C36A
:100ACB001216EE7EB300BD24107AB300BD7EB300C8
:100ADB00BF0BB1020B7D7E7300BF0A372D377D260E
:100AEB007E1B70BE70205003020B787E7300BF0A12
:100AFB00372D377D267E1B70BE707E38707E73005F
:100B0B00BF0A372D377D267E1B700A376D229E1844
:100B1B0000207A1F019274042F111478FB7A1F01A5
:100B2B00922E2400032E18CF807A1F01927E0F0184
:100B3B00927CB17A1300C07C727A2300C17C637AF9
:100B4B003300C27E0800E37E50101216937EB30072
:100B5B00BD7E7300BE7E0800E31217447EB300BD5A
:100B6B0024087AB300BD7EB300BF0480057EB300BA
:100B7B00BF047AB300BF7E7300BF0A372D377D26C3
:100B8B007E1B70BE70002803020980DA3B22CAF874
:100B9B0074AA7E34FEB27E24007E7A1BB0E47E34CF
:100BAB00FED07A1BB074177E34FED17A1BB0E47E74
:100BBB0014FECC7E04007E7A0BB07E34FECD7A1B05
:100BCB00B07EF0707E54FEC87E44007E7A2BF07EA1
:100BDB0054FEC97A2BF07E54FECA7A2BF07E54FE5B
:100BEB00CB7A2BF074337A0BB07A1BB07E37017F44
:100BFB000A167C267E54FED57A2B607C377E34FE1B
:100C0B00D67A1B307E34FED77A1B207E34FED87A00
:100C1B001B307E34FED97A1B207E34FEDA7A1B30F1
:100C2B007E34FEDB7A1B207E34FEDC7A1B307403B1
:100C3B007E34FED27A1BB074E87E34FED37A1BB0BE
:100C4B0074557E34FEB17A1BB074807E34FEDD7A2F
:100C5B001BB074017E34FEC07A1BB074AA7E34FEC6
:100C6B00B67A1BB0E47E34FEF07A1BB074177E3478
:100C7B00FEF17A1BB0E47E14FEEC7A0BB07E34FEF0
:100C8B00ED7A1BB07E54FEE87A2BF07E54FEE97AA7
:100C9B002BF07E54FEEA7A2BF07E54FEEB7A2BF08F
:100CAB0074337A0BB07A1BB07E1701757E34FEF568
:100CBB007A1B207E34FEF67A1B307E1701777E344A
:100CCB00FEF77A1B207E34FEF87A1B307E170179F3
:100CDB007E34FEF97A1B207E34FEFA7A1B307E17A7
:100CEB00017B7E34FEFB7A1B207E34FEFC7A1B30AC
:100CFB0074037E34FEF27A1BB074E87E34FEF37A12
:100D0B001BB074557E34FEB57A1BB074807E34FEF6
:100D1B00FD7A1BB074017E34FEE07A1BB0DAF82248
:100D2B00CA3B7CD67F707CE77CFB9F117A1F0185C9
:100D3B007408ACBD0A3F2D352E3400087CF76D11BD
:100D4B007E0442C87F1712015C1202BA7A1F018916
:100D5B000A5F9E5400187C7E7E141F0E7E0400FFDB
:100D6B001209706CCC020E5E7ED4000A7E7F018964
:100D7B007F177D1D12091D7A0F01857F177D1D12AF
:100D8B00091D7A1F01899EF008BEC00278039EF0F0
:100D9B00087E2F0185BE28000A4003020E5C7EA050
:100DAB0003A4900DB173020DCF020DDD020DEB020A
:100DBB000DF9020E07020E15020E23020E31020E62
:100DCB003F020E4D7CBF7C7E7E141F0C7E0400FF09
:100DDB00807C7CBF7C7E7E141F0A7E0400FF806EAD
:100DEB007CBF7C7E7E141F087E0400FF80607CBF6E
:100DFB007C7E7E141F067E0400FF80527CBF7C7EAF
:100E0B007E141F047E0400FF80447CBF7C7E7E1416
:100E1B001F027E0400FF80367CBF7C7E7E141F0089
:100E2B007E0400FF80287CBF7C7E7E141EFE7E0429
:100E3B0000FF801A7CBF7C7E7E141EFC7E0400FFAC
:100E4B00800C7CBF7C7E7E141EFA7E0400FF120990
:100E5B00700BC0BCDC2803020D73DA3B227E37001B
:100E6B00284D336803020F727E3400017A37002855
:100E7B007E0800941215547E3400947E2400000BDF
:100E8B001A207CB41202826DFF7EE446007F0712AB
:100E9B0001FC7A1F00357E3400967E2400000B1A6D
:100EAB00207CB41202827F071201FC7A1F003B7E6A
:100EBB003400987E2400000B1A207CB41202827F2F
:100ECB00071201FC7A1F003F7E1F00477A1F002D7F
:100EDB007E1F004B7A1F00317E34009C7E24000065
:100EEB000B1A209E27007D7CB41202827EE4428383
:100EFB007F071201FC7A1F00477E34009E7E240080
:100F0B00000B1A209E27007F7CB41202827F0712EF
:100F1B0001FC7A1F004B7E3400A07E2400000B1ACC
:100F2B00209E2700817CB41202827F071201FC7A7B
:100F3B001F00637EE442C87E1F00357F0712015CF1
:100F4B001202BA7A3700757E1F003B7F0712015CD5
:100F5B001202BA7A3700777E1F003F7F0712015CBF
:100F6B001202BA7A37007B22CAF87E3700434D3320
:100F7B0068030210707E3400017A3700431210733D
:100F8B007AB30067BEB00218097E730067BE70FEAD
:100F9B0058117EB30067B403127E73002C7A730072
:100FAB006780087E7300677A73002C7EF300674CB2
:100FBB00FF78107E3700927A3701796D337A3701DB
:100FCB0077807BBEF00008347E4300857CB4120230
:100FDB00877E0F008E12015C7F717C4F7CBF1202EB
:100FEB00877E0F008612015C7F071200A41202BAE3
:100FFB007A3701756D337A3701778046BEF000582A
:10100B00411A3F6D229D237CB41202827E0F008613
:10101B0012015C7F717E4300857CB41202877E0FC8
:10102B00008E12015C7F017F171200A16D117E04EF
:10103B0042C81200A11202BA7A3701776D337A37A0
:10104B0001757E37017F7A37012A7E3701757E273E
:10105B0001777E1701797E07017B1219F27E7300EF
:10106B00677A730085DAF822A2FEE433B401057EB9
:10107B00A01080026CAAA2FDE433B401054EA008B7
:10108B0080035EA0F7A2A7E433B401054EA0048051
:10109B00035EA0FBA2A6E433B401054EA0028003BD
:1010AB005EA0FDA2A5E433B401054EA00180035E52
:1010BB00A0FE7CBA14BEB01F400302114A7EA003EF
:1010CB00A49010D07302113E02113202114402118E
:1010DB002D02114A02113802114A02112F02114A34
:1010EB0002114A02114A02113502114A02114A0237
:1010FB00114A02113B02114A02114A02114A021112
:10110B004A02114A02114A02114A02114102114AC2
:10111B0002114A02114A02114A02114A02114A02F1
:10112B001147E42274012274FF2274012274FF22FE
:10113B0074022274FE2274022274FE2274FD227445
:10114B000322D2C6D2FF7E3400C8121B4F74AE6C82
:10115B007712197374026C7712197374106C7712FF
:10116B00197374406C7712197374B06C771219730E
:10117B0074816C7712197374CF6C7712197374A115
:10118B006C7712197374A66C7712197374A86C7739
:10119B00121973743F6C7712197374AD6C77121943
:1011AB0073748B6C7712197374336C7712197374A5
:1011BB00C86C7712197374D36C77121973E46C774C
:1011CB0012197374D56C7712197374806C771219AA
:1011DB007374D96C77121973741F6C77121973743B
:1011EB00DA6C7712197374126C7712197374DB6CD7
:1011FB007712197374406C7712197312188274AFCB
:10120B006C770219737E3700794D3368030212CB6A
:10121B007E3400017A3700791218EC7CAB7AB3007C
:10122B00847E7300846E7300A47C675E6300847A93
:10123B006300837EB3008464FF5CB77AB3000E7ADD
:10124B00A300A47EB300831BB1682514683D14680A
:10125B00552403786B7E3701752E3400327A3701B3
:10126B0075BE3403E828597E34012C7A3701752278
:10127B007E3701772E3400327A370177BE3403E89C
:10128B00283E7E34012C7A370177227E3701792E66
:10129B003400327A370179BE3403E828237E3401D7
:1012AB002C7A370179227E37017B2E3400327A3744
:1012BB00017BBE3403E828087E34012C7A37017B8E
:1012CB00227E3700394D3368030213787E340001D8
:1012DB007A3700397E7300671A377A37014E7E08EA
:1012EB00000F7E341EF27E2400FF1202F7E46C77AF
:1012FB007E08000F1213797E3701757A37014E7E07
:10130B003701777A37014C7E08000F7E341EE37E5F
:10131B002400FF1202F7E47E70027E08000F121306
:10132B00797E3701797A37014E7E37017B7A370127
:10133B004C7E08000F7E341ED47E2400FF1202F771
:10134B00E47E70037E08000F1213797E37017F7ADB
:10135B0037014E7E08000F7E341ECB7E2400FF1219
:10136B0002F7E47E70047E08000F02137922CA3B59
:10137B007F307A7301297AB30128E4807E7E730172
:10138B002A0A372D377D267E1B70BE70204067BE24
:10139B00707E38620A376D229E1800207A1F0192E8
:1013AB002F112F112F117A1F01922E2400032E18AB
:1013BB00BFC07A1F01927E0F01927CB17A13012B71
:1013CB007C727A23012C7C637A33012D7E08012EEB
:1013DB007E50081216937EB301287E7301297E0876
:1013EB00012E1219477EB3012824067AB301287EF9
:1013FB00B3012A0480057EB3012A047AB3012A7E45
:10140B0073012A0A372D377D267E1B70BE7000288C
:10141B0003021388DA3B22CA3B7F307AB300F3E432
:10142B007AB30127121CFC7A73012674FD7AB30080
:10143B00F4E47AB300F57E7301260A372E340003E9
:10144B007A7300F674017AB300F77EB300F3C454D9
:10145B00F044017AB300F86D22097200F46E730147
:10146B00277A7301270B24BE24000578EC6D2280AC
:10147B00117F032D127E0B706E7301277A73012778
:10148B000B247E7301260A37BD3238E5CA397F1328
:10149B007E0800F9121A401BFD7E7301277E630143
:1014AB00260A26197200F97E0800F47E7301260ABB
:1014BB00572E5400050B541219C9DA3B22CA39C0F6
:1014CB00D17E3700390B347A370039BE340064785B
:1014DB00066D337A3700397E3700430B347A370089
:1014EB0043BE34000A78066D337A3700437E3700EB
:1014FB00280B347A370028BE34003278066D337AE5
:10150B003700287E3700790B347A370079BE3400E8
:10151B000A78066D337A3700797E3700A50B347A5B
:10152B003700A5BE341388400BA2EDB392ED6D339B
:10153B007A3700A57E3701A0BE34000028061B3485
:10154B007A3701A0D0D1DA3932CA3B7F30121B1E59
:10155B0074D0121A65743B121A65121B1E74D112C9
:10156B001A65E47AB30128121A1A7EA301280A3AE3
:10157B002D377D267A1BB0C2B7D2B6121D39C2B633
:10158B00121D397EB30128047AB301287E7301281A
:10159B00BE700D40D2121A1A7EA301280A3A2D37BB
:1015AB007D267A1BB0D2B7D2B6121D39C2B6121D28
:1015BB0039121CEDDA3B22CA3BD29012000E1200FC
:1015CB000EC2903091FDC28C758C00758A00D28C46
:1015DB002091FDC28C7E14FFFE7E1F018D1209141B
:1015EB00E58C7C0B6C11E58A0A1B4D106D002F10DE
:1015FB00E412027D7E149BA67E043A4412015C1217
:10160B0002BA7F31758C00758A009F117A1F018D8C
:10161B00BE38012C38047D3780047E3400FFDA3B62
:10162B00221217D912114DE4121AC9E412191B1206
:10163B001882121CB9121C15121CDD121B66A9C6CE
:10164B00A2A9C7A2A9D4FF1218B9121D606D337AD3
:10165B003700927E2443FA7A1F00869F117A1F006F
:10166B008A7E2442487A1F008E7E3403E87A370143
:10167B007F74017AB3000D1212CC120E68120F7325
:10168B0012121012002680EFCA3B7A5301397F30B9
:10169B007A6301387A7301377AB30136C2FF740368
:1016AB00121B037EB30136121B037EB30137121BD1
:1016BB00037EB30138121B03E48015121B387EA383
:1016CB00013A0A3A2D377D267A1BB07EB3013A04D4
:1016DB007AB3013A7E730139BE73013A38DDD2FF1A
:1016EB00DA3B22CA3B7F307A7301977AB30196E4D7
:1016FB007AB301997EB301967E73019712199EE41A
:10170B007AB301987E3BB07E70011219730B747E15
:10171B00B30198047AB30198B410E97EB30197042E
:10172B007AB301977EB30199047AB301997E730161
:10173B0099BE700240BEDA3B22CA3B7F307A7301FE
:10174B009B7AB3019AE47AB3019D7EB3019A7E73BF
:10175B00019B12199EE47AB3019C7E3BB07E700113
:10176B001219730B747EB3019C047AB3019CB408F9
:10177B00E97EB3019B047AB3019B7EB3019D047A8E
:10178B00B3019D7E73019DBE700240BEDA3B227594
:10179B0084017E44041FE47A49B01B4478F97EF837
:1017AB0001A47E0400FF7E141D770B0A405D446884
:1017BB001A692000020B0E0B44800A7E0BB07A29AB
:1017CB00B00B240B0C1B4478F280DF02162C75E94E
:1017DB0000A9D7BA75EA007593007594007591004E
:1017EB0075920075950075960075B10075B2007510
:1017FB00B30075B40075C90075CA0075CB0075CC04
:10180B000075E10075E20022CAB8CA78C0D17EB378
:10181B00002BB401247EB30045047AB300457E73DC
:10182B000045BE706428127EB30068047AB300686A
:10183B00E47AB300457AB3002BD0D1DA78DAB83238
:10184B00CA796CEE0A5E2E5400B06C771219737461
:10185B00106C7712197374026C771219736CFFE4A6
:10186B007E70011219730BF0BEF01078F20BE0BE14
:10187B00E00840D0DA7922CA796CFF0A5F2E540057
:10188B00B06C7712197374106C7712197374026C35
:10189B00771219736CEEE47E70011219730BE0BEB4
:1018AB00E08078F20BF0BEF00840D0DA7922121DFE
:1018BB0039121D39121D39121D39746B6C77121ABE
:1018CB00E7121A8874197E7007121AE7741A7E7061
:1018DB0004121AE7741B7E7008121AE7741C021AA2
:1018EB00E76CAAA2C2E43378057EA001801FA2C1D7
:1018FB00E43378057EA0028014A2FBE43378057EE6
:10190B00A0038009A2F8E43378037EA0047CBA22FA
:10191B00CAF87CFB4CFB780E74C86C771219737485
:10192B00A16C77121973BEF001780E74C06C77122C
:10193B00197374A06C77121973DAF822CA3B7F30D3
:10194B0012199EE47AB301367E3BB07E70011219F8
:10195B00730B747EB30136047AB301367E73013692
:10196B00BE700640E3DA3B227C6B4C776804D2C82E
:10197B008002C2C8C2C67E7008C2CB7CB630E704F8
:10198B00D2CA8002C2CAD2CB3E601B7078EBD2C6E1
:10199B00D2C822CAF87CFB0BF10A572E5400B06C4C
:1019AB00771219737CBF54F0C4540F44106C771228
:1019BB0019737CBF540F6C77121973DAF822CA3B78
:1019CB007AB301A27F30E4800D7E3BB00B74121D05
:1019DB00237EB301A3047AB301A37E7301A2BE736A
:1019EB0001A338E5DA3B22CA3B7D707D617A270182
:1019FB0028121C2A7E370128121C3F7D36121C54DC
:101A0B007D37121C697E37012A121C7EDA3B22CAF3
:101A1B00796CFFD2B76CEE3EF0D2B6121D39A2B77D
:101A2B00E4334CFBC2B6121D390BE0BEE00840E7B5
:101A3B007CBFDA79227F217F707F10800A7E2B306A
:101A4B007A1B300B540B34691FFFFD7D011B04798E
:101A5B000FFFFD4D1178E67F1722CA797CFB6CEEE8
:101A6B003EF0A2D792B7D2B6121D39C2B6121D39AB
:101A7B000BE0BEE00840E9121BD5DA792200007EAC
:101A8B00A0057E70907E60477CB6147C6B78F97CE9
:101A9B00B7147C7B78F27CBA147CAB78EB22BE3427
:101AAB0000004806C281D2828004D281C282BE2449
:101ABB0000004805C283D28422D283C28422CAF892
:101ACB007CFB4CFB780774A66C77121973BEF00184
:101ADB00780774A76C77121973DAF822CA797CEB42
:101AEB00121B1E74D0121A657CBE121A657CB712BB
:101AFB001A65121CEDDA79227C6B7E7008C2CB7CE6
:101B0B00B630E704D2CA8002C2CA3E60D2CB1B7089
:101B1B0078EB22121D39121D39D2B7D2B6121D39EC
:101B2B00121D39C2B7121D39C2B6021D396CAA7EFD
:101B3B007008C2CB3EA030C5020BA0D2CB1B707875
:101B4B00F17CBA227D13800E7E0407087D301B04C6
:101B5B004D3378F81B144D1178EE22759850438E47
:101B6B0001438E0475D78F75D6FD438E10D2ACD240
:101B7B00AF22CA3B7F3080087E3BB00B74121D57DF
:101B8B007E3BB070F3DA3B22CA3B7F3080087E3B52
:101B9B00B00B74121D237E3BB070F3DA3B22CA3BB1
:101BAB007F3080087E3BB00B74121D2E7E3BB070D5
:101BBB00F3DA3B2275AC1053ACBF438E0475D7CC14
:101BCB0075D6FF438E10A9D3AF22D2B7121D39D2CF
:101BDB00B6121D39A2B792D7C2B6121D39A2D7229F
:101BEB00748D6C7712197374106C7712197374AE41
:101BFB006C77021973748D6C7712197374146C777C
:101C0B0012197374AF6C77021973438E4053890F9B
:101C1B00758BA0758DF6C28FD28ED2ABD2AF227DD3
:101C2B00037E34FEF57E24007E7A1B007E34FEF6A6
:101C3B007A1B10227D037E34FEF77E24007E7A1BF6
:101C4B00007E34FEF87A1B10227D037E34FEF97E73
:101C5B0024007E7A1B007E34FEFA7A1B10227D0351
:101C6B007E34FEFB7E24007E7A1B007E34FEFC7AE3
:101C7B001B10227D037E34FED97E24007E7A1B004E
:101C8B007E34FEDA7A1B1022CA1BC0D17E1F018D57
:101C9B000B1C7A1F018DD0D1DA1B32759A50438EF3
:101CAB000475D78F75D6FD438E10A9D0AF22438E06
:101CBB00805389F0758A00758C00C28DC28CD2A9B5
:101CCB0022CA3B7F30121CFC7CB77F031219C9DA86
:101CDB003B2243DD0275D54075D4A243DD0843AFEB
:101CEB002022121D39C2B7D2B6121D39D2B7021D2E
:101CFB00396D3380020B347E0BB00B1470F7227DE1
:101D0B00236D3380020B34BD2338FA22C0D1A930A6
:101D1B009A03A9C09AD0D1327AB19BA9319AFCA966
:101D2B00C19A227AB19BA9319AFCA9C19A227EA0B1
:101D3B00077CBA147CAB78F922C0D1309802C298D8
:101D4B00D0D132D2C2D2C1D2FBD2F8227AB19930E1
:101D5B0099FDC29922120B9912000302001ED28325
:101D6B00C28422D281C28222283029000001000ABB
:101D7B00010001000D000001000E000001002A000F
:101D8B000001002B000004002D00000000000400E7
:101D9B0031000000000004003500000000000400CA
:101DAB003B000000000004003F00000000000100A9
:101DBB004500000100460000040047000000000041
:101DCB0004004B0000000000040063000000000052
:101DDB000100680000040069000000000004006DB1
:101DEB0000000000000400710000000000020075FC
:101DFB0000000002007700000002007B00000002E0
:101E0B00007D00000002007F000000020081000046
:101E1B0000010083000001008400000100A4000009
:101E2B000200A50000000401920000000000020166
:101E3B00A000000002016F00000002017100000011
:101E4B00020173000000020175000000020177001F
:101E5B00000002017900000002017B00000002017A
:101E6B007D00000002017F000000020181000000E4
:101E7B000201830000000101A4000004018D000099
:101E8B000000000101910000060150FD000331002C
:101E9B00CF00050156FD000202FD0005015BFD00B0
:101EAB0002887700050160FD000204FB0005016557
:101EBB00FD000221DE0005016AFD000203FC0000AB
:101ECB0073706565643A256400323A2530336420BB
:101EDB00333A253033642000303A253033642031D7
:101EEB003A2530336420004C696E653A256400391D
:101EFB000038003700360035003400330032003133
:051F0B000030002E0073
:00000001FF
