:0800000002166BC283D28422B8
:10000B00021B4800007EA03F7CBA147CAB78F9221F
:10001B000213AEC281D28222021BEACA797CEB1296
:10002B0019D374D01219367CBE1219367CB712193B
:07003B003612008CDA792275
:10004300021BBDCA3B7F30E47AB3019E7AB3019DA4
:10005300E47E73019D12186FE47AB3019E7E3BB078
:100063007E70011218440B747EB3019E047AB301AF
:100073009EB480E97EB3019D047AB3019D7E730132
:100083009DBE700840CADA3B22121BDFC2B7D2B64C
:10009300121BDFD2B7021BDF0216E45D22680D5D7F
:1000A3000078122D220B4068099F11222D000B00AE
:1000B30078F90202961202595C800B806808248149
:1000C30050072CB0500A02029E2CB0400302029B40
:1000D3007C8B5D1178267CB17CA5BE1080680A5D9F
:1000E30033780DA5BD80057F100202886D00803036
:1000F3007F017C5B7CB17CA5AD1280245D337806E7
:10010300A5BD80F080E1CA887D41AD437CB17CA56B
:10011300AD122D1450020B047C5BAD232F01DA8842
:10012300A42D05BE008040060B80780480982F0024
:100133007C437C507C617C72020272BE24FFFF68A8
:1001430006BE04FFFF78030202961202595CB00454
:1001530068F57CB8A54868EF7CB870039F1122A5A9
:10016300B8000302029E2E008150079C80380702CC
:10017300029B9C8050ED0A51C2E74D517803020265
:10018300887E5400807E901A6C0080061B90681451
:100193002F11BF1040049F104CAB0330E7EECAA8E9
:1001A3006CAA80E8DA39DA587C4ABE5080500A1BC0
:1001B3008068BC2F1150020B700202727EA0208057
:1001C3000C7EA01080057EA0086C556D333392D54C
:1001D300500A6E34FFFF6E24FFFF0B1CA5EC334067
:1001E300062F11D5F0F6227CBA247EA2D5137C7695
:1001F3007C65A5CC92E77C5B227CB5337CB43392DF
:10020300D54E5080248140039F11227C457C567C2F
:10021300676C7724E0500E7E1CFFFF221E341E24E1
:1002230050034E60800478F430D50A6E34FFFF6EBD
:1002330024FFFF0B1C227F707F517EC400007ED4FD
:10024300014F7E94024C0202D74005E47A7BB02230
:100253007A7BB00B7C222D0092D50E104E10807D40
:10026300422D445002B2D54E50806C447CB8222CAF
:100273004450120B1C7E40005E507FBE1800007875
:10028300040B806816A2D57CB8137C4B7CB592E72F
:100293007C5B227E1CFFFF229F11227E24FF802095
:1002A300D5026C456D3322540F2490D43440D4309E
:1002B300F30CBEB0414007BEB05B500224204CCCCF
:1002C30068021BC00B84D389944CCC680B74201236
:1002D30002C180F5CA3B6D889F337CAE7E5BB00B59
:1002E3005C7007C37D38DA3B8994B42569C2F37E19
:1002F3005BB00B5CA5F824D0BEB00A501B7E500A3D
:1003030020F60DAC5CA52D7CCB70034EF00180DD97
:10031300AC5DA52D7CDB80D524CFBEB01AA5E850FB
:10032300055E00DFD2F39006ACA3E4936011BCB08A
:1003330078F77417934CAB30F6B34EF08080AEA3CE
:10034300E4936010BCB078F77416937C3B742393EA
:100353007C2B89147CB0801374201202C120F20517
:10036300BEC00250F31B6D29B600011202C1020286
:10037300CC1B6E691600020B6A00BE0800007808E9
:100383007E0400FF7E141C1920F21E4CCC681A7FD9
:1003930010E47E1B804C8868070B1C04BCBD78F2FC
:1003A300C2F6CA0B1204ABDA0B7E0BB060C0CA0BE9
:1003B3001202C1DA0B0B0C4CDD68EE1BD078EA801D
:1003C300ADD2F07E101080037E10085EB05F800A0D
:1003D300D2F67E100A80057E100AC2F66D119F11B7
:1003E3007E00201B6C7E6B7030F6021A3720F105FD
:1003F3001B6C7E6B6030F6041A261A2430F0051B42
:100403006D0B6A20A5EC3382F692F6500A7CEA9FC4
:10041300229F217F127CAE4C44780F7C457C567C16
:10042300676C772E00F878EF80122F117CB3337C42
:100433003B9CB140047C3B0B70A5D8EE7CB230E012
:1004430005DAB8C44C3BCA380B207E00207E30004E
:10045300BE18000078C1BE1008780730F404C2F457
:1004630080B5CA287CB2BCBD38027CBD1204ABDAAD
:1004730028BC2D500A1BD0E4CA281202AA80F07CA3
:10048300B213DAB84004C4CAB8C4CA28BEF0804064
:10049300095CDD7805A5DA0260065EF07F1202AA28
:1004A300DA28A5DADA0202CCBEF001680F30F402D2
:1004B300240220F50620F70330F6010420F229BCBC
:1004C300BC5025CAB87CBF13B0E6742050117430F9
:1004D3007C8A5E80F068081204EB5EA00F80031232
:1004E30002C1DAB8BCBC78DB30F40F74301202C13D
:1004F300745830F30274781202C130F605742D0279
:1005030002C1742B20F5F8742020F7F3221B6C7EB4
:100513006BB010F1021B6C20F60B30E704F404D22D
:10052300F27CCB800520E7057CDB0202F05EF07FE6
:1005330080F81B6E691600020B6A0030F0076D220B
:100543001B0A200B0D1B0A800202DBE46C22BE3067
:1005530007500B7F1F2D312E34FFF77E39B0227CDD
:10056300BF20E7A8742E4EF0800202C11206954008
:100573003D7CBD7003047CDB1207AC7C3D4C3368CF
:10058300101B307CBE20E40912054E70044C3378F6
:10059300F07CBD7CD3BEA0FD481CBCAB5818E49CCA
:1005A300BA2CB31801E47CDB020636120695406EC2
:1005B3007CBD041207AC7AFBA07CAE7CBDA2F49296
:1005C300F0C2F4400260010424051204AB7E30FF44
:1005D3000B3012054ECA381202AA20F0044CDD6813
:1005E30003120562DA38BC3D78E6740E1202AA746F
:1005F3002B7EFBA030F707742D6EA0FF0BA07AFBB8
:10060300A01202C17EA00A7EFBB0847AFBA0120274
:10061300AA7EFBB01202AA9EF800080202CCD2F214
:100623007ED00002038B12069540F37CBA2CBD04E6
:100633001207AC7AFBA07CBA7CAE30E701E404205D
:10064300F4044CDD6805D2F0C2F4042CBD1204ABF3
:100653006C337EFBB0601B20E712147AFBB01205EB
:100663004ECA381202AADA380B3080E6047AFBB09D
:100673001B3012054ECA381202AA4CDD6807120558
:10068300621BD080E19EF8000930F003120562027C
:1006930002CC7CEA7CAF10F7037ED0067CFA1B6E9B
:1006A300693600020B6A200206F42D2B204C4248C7
:1006B300232E0053584F44494355502A4E4645472D
:1006C30000042080010200104074C6CBD3D360DA4B
:1006D300C4103529AE6F03030303030303030505A6
:1006E3000605054E614E002B494E46002D494E46E8
:1006F300007D522D557CBE92E67CEB7CBA601F04D4
:1007030070287CB5C2E77E0400FF60067E1406E60F
:10071300D3227E1406EF40047E1406EAD322DA09BC
:100723009F22CA2BCA2BC3CA09220A0A7E144D1060
:10073300AD109E083AF09E10267CB5C2E77EA05607
:100743007C9BA46E54FFFF2E54C511ACA92D15E458
:10075300A539CAB8CA1B20E70A12081FDA1B1201FF
:100763003E800AF40412081FDA1B12009EDAA87CEA
:10077300B5337CB4334E50806C4424822F111478EB
:10078300FBDA497407BE400A40099E400ACA0201C7
:10079300140BA0CA486C442F117F012F112F112F66
:1007A300101478EFCA48CA49227F0F20E73ABEB037
:1007B30007400274070A0B2D109E1400097E19B01E
:1007C3002EB0FB501F4C116817E47A19B01B147E2E
:1007D30019B0047A19B0B40A0BE47A19B0A5D9EDAB
:1007E3000BA074017A19B0225EE0BF223F800000A3
:1007F3004120000042C80000447A0000461C40002B
:1008030047C35000497424004B1896804CBEBC204B
:100813005A0E1BCA6753C21C749DC5AE7C7B60060F
:100823005407681623231208447CB75438680A7F98
:100833001012084112009E7F01227CB75438032412
:100843001C6CAA2E5407EF7E4400FF0B2A0069128A
:100853000002227D02AD31AD102D21226D007410F6
:100863004D00780B4D2278278D317D126D22227D2C
:10087300437D326D222F112D445002A50FBF10402E
:10088300049F100B901478ED7F016D227D34227D3F
:10089300417D138D247D022F004004BD0440049D3F
:1008A300040B141478F17D237D317D106D0022CA71
:1008B3003B7F307A7300BD7AB300BCE4020ABF7E8B
:1008C3007300BE0A372D377D267E1BA0BEA0B05015
:1008D30003020964BEA0F728030209647EB300BEC5
:1008E3000A3B2D377D2629B10001BEB0A140720A13
:1008F3003A6D229E1800B07E14005E1208567A1FCD
:1009030001910A1B6D002E0802AD2F107A1F019171
:100913007E1400207E1F01911208567A1F01917EDA
:100923000F01917CB17A1300BF7C727A2300C07CE3
:10093300637A3300C17E0800C27E50201215647EA4
:10094300B300BC7E7300BD7E0800C21215BF7EB328
:1009530000BC24107AB300BC7EB300BE0BB1020A04
:10096300BF7E7300BE0A372D377D267E1B70BE7097
:10097300A15003020A237E7300BE0A372D377D265A
:100983007E1B70BE70A32803020A237E7300BE0A77
:10099300372D377D2629B10001BEB0A15003020ACD
:1009A300237EA300BE0A3A2D377D267E1BA00A3A7A
:1009B3006D229E1800A17E14005E1208567A1F0154
:1009C300910A1B6D009E0800A12F107A1F01917ED2
:1009D3001400207E1F01911208567A1F01917E0F89
:1009E30001917CB17A1300BF7C727A2300C07C63CF
:1009F3007A3300C17E0800C27E50201215647EB394
:100A030000BC7E7300BD7E0800C21215BF7EB3001A
:100A1300BC24107AB300BC7EB300BE0BB1020ABF84
:100A23007E7300BE0A372D377D267E1B70BE702075
:100A33005003020ABA7E7300BE0A372D377D267E25
:100A43001B70BE707E38707E7300BE0A372D377DF3
:100A5300267E1B700A376D229E1800207A1F019193
:100A630074042F111478FB7A1F01912E2400032E96
:100A730018CF807A1F01917E0F01917CB17A130008
:100A8300BF7C727A2300C07C637A3300C17E080086
:100A9300E27E50101215647EB300BC7E7300BD7EEF
:100AA3000800E21216157EB300BC24087AB300BC1A
:100AB3007EB300BE0480057EB300BE047AB300BEDD
:100AC3007E7300BE0A372D377D267E1B70BE7000F5
:100AD30028030208C2DA3B22CAF874AA7E34FEB2A3
:100AE3007E24007E7A1BB0E47E34FED07A1BB07481
:100AF300177E34FED17A1BB0E47E14FECC7E040054
:100B03007E7A0BB07E34FECD7A1BB07EF0707E54BD
:100B1300FEC87E44007E7A2BF07E54FEC97A2BF009
:100B23007E54FECA7A2BF07E54FECB7A2BF07433BC
:100B33007A0BB07A1BB07E37017E0A167C267E5470
:100B4300FED57A2B607C377E34FED67A1B307E341A
:100B5300FED77A1B207E34FED87A1B307E34FED932
:100B63007A1B207E34FEDA7A1B307E34FEDB7A1B5E
:100B7300207E34FEDC7A1B3074037E34FED27A1B73
:100B8300B074E87E34FED37A1BB074557E34FEB164
:100B93007A1BB074807E34FEDD7A1BB074017E3420
:100BA300FEC07A1BB074AA7E34FEB67A1BB0E47E14
:100BB30034FEF07A1BB074177E34FEF17A1BB0E476
:100BC3007E14FEEC7A0BB07E34FEED7A1BB07E54BD
:100BD300FEE87A2BF07E54FEE97A2BF07E54FEEA8F
:100BE3007A2BF07E54FEEB7A2BF074337A0BB07AC7
:100BF3001BB07E1701747E34FEF57A1B207E34FE13
:100C0300F67A1B307E1701767E34FEF77A1B207E40
:100C130034FEF87A1B307E1701787E34FEF97A1B96
:100C2300207E34FEFA7A1B307E17017A7E34FEFB77
:100C33007A1B207E34FEFC7A1B3074037E34FEF272
:100C43007A1BB074E87E34FEF37A1BB074557E349D
:100C5300FEB57A1BB074807E34FEFD7A1BB074013E
:100C63007E34FEE07A1BB0DAF822CA3B7CD67F7072
:100C73007CE77CFB9F117A1F01847408ACBD0A3F9B
:100C83002D352E3400087CF76D117E0442C87F1782
:100C930012009E1201FC7A1F01880A5F9E540018FD
:100CA3007C7E7E141DA77E0400FF1208B26CCC026A
:100CB3000DA07ED4000A7E7F01887F177D1D120858
:100CC3005F7A0F01847F177D1D12085F7A1F0188E9
:100CD3009EF008BEC00278039EF0087E2F0184BEFA
:100CE30028000A4003020D9E7EA003A4900CF37318
:100CF300020D11020D1F020D2D020D3B020D4902C3
:100D03000D57020D65020D73020D81020D8F7CBF1D
:100D13007C7E7E141DA57E0400FF807C7CBF7C7ED0
:100D23007E141DA37E0400FF806E7CBF7C7E7E1438
:100D33001DA17E0400FF80607CBF7C7E7E141D9F0E
:100D43007E0400FF80527CBF7C7E7E141D9D7E044A
:100D530000FF80447CBF7C7E7E141D9B7E0400FFCD
:100D630080367CBF7C7E7E141D997E0400FF802824
:100D73007CBF7C7E7E141D977E0400FF801A7CBF9F
:100D83007C7E7E141D957E0400FF800C7CBF7C7EE0
:100D93007E141D937E0400FF1208B20BC0BCDC2836
:100DA30003020CB5DA3B227E3700274D336803027A
:100DB3000EB47E3400017A3700277E0800931214A4
:100DC3002A7E3400937E2400000B1A207CB4120187
:100DD300C46DFF7EE446007F0712013E7A1F003494
:100DE3007E3400957E2400000B1A207CB41201C4CB
:100DF3007F0712013E7A1F003A7E3400977E24005B
:100E0300000B1A207CB41201C47F0712013E7A1F23
:100E1300003E7E1F00467A1F002C7E1F004A7A1F69
:100E230000307E34009B7E2400000B1A209E270096
:100E33007C7CB41201C47EE442837F0712013E7AB4
:100E43001F00467E34009D7E2400000B1A209E273F
:100E5300007E7CB41201C47F0712013E7A1F004A50
:100E63007E34009F7E2400000B1A209E2700807C86
:100E7300B41201C47F0712013E7A1F00627EE4426E
:100E8300C87E1F00347F0712009E1201FC7A3700D0
:100E9300747E1F003A7F0712009E1201FC7A37000E
:100EA300767E1F003E7F0712009E1201FC7A3700F8
:100EB3007A227E3700784D336803020F8F7E340029
:100EC300017A3700781217BD7CAB7AB300837E7347
:100ED30000836E7300A37C675E6300837A63008282
:100EE3007EB3008364FF5CB77AB3000D7AA300A3DB
:100EF3007EB300821BB1682F14684E14686D2403FF
:100F03006803020F8F7E3701742E3400327A370163
:100F130074121ADF7E370174BE3403E8286E7E3400
:100F2300012C7A370174227E3701762E3400327A0F
:100F3300370176121AF47E370176BE3403E8284C63
:100F43007E34012C7A370176227E3701782E3400E5
:100F5300327A370178121B097E370178BE3403E8F1
:100F6300282A7E34012C7A370178227E37017A2EA3
:100F73003400327A37017A121B1E7E37017ABE346F
:100F830003E828087E34012C7A37017A22A2FEE492
:100F930033B401057EA01080026CAAA2FDE433B431
:100FA30001054EA00880035EA0F7A2A7E433B401B5
:100FB300054EA00480035EA0FBA2A6E433B40105A2
:100FC3004EA00280035EA0FDA2A5E433B401054E4A
:100FD300A00180035EA0FE7CBA14BEB01F400302D2
:100FE30010677EA003A4900FED7302105B02104FF5
:100FF30002106102104A02106702105502106702C4
:10100300104C0210670210670210670210520210A0
:101013006702106702106702105802106702106718
:10102300021067021067021067021067021067025E
:10103300105E021067021067021067021067021049
:1010430067021067021064E42274012274FF2274A1
:10105300012274FF2274022274FE2274022274FE9F
:101063002274FD22740322D2C6D2FF7E3400C8123A
:101073001A0474AE6C7712184474026C7712184415
:1010830074106C7712184474406C7712184474B05F
:101093006C7712184474816C7712184474CF6C7790
:1010A30012184474A16C7712184474A66C77121842
:1010B3004474A86C77121844743F6C771218447404
:1010C300AD6C77121844748B6C7712184474336CBC
:1010D3007712184474C86C7712184474D36C77125F
:1010E3001844E46C7712184474D56C77121844745E
:1010F300806C7712184474D96C77121844741F6C7F
:101103007712184474DA6C7712184474126C7712DD
:10111300184474DB6C7712184474406C77121844CB
:1011230012175374AF6C770218447E3700384D336F
:1011330068030211D97E3400017A3700387E7300C8
:10114300661A377A37014D7E08000E7E341D8B7E7A
:101153002400FF120239E46C777E08000E1211DAC4
:101163007E3701747A37014D7E3701767A37014B2A
:101173007E08000E7E341D7D7E2400FF120239E4BA
:101183007E70027E08000E1211DA7E3701787A37FC
:10119300014D7E37017A7A37014B7E08000E7E348B
:1011A3001D6F7E2400FF120239E47E70037E080067
:1011B3000E1211DA7E37017E7A37014D7E08000E5A
:1011C3007E341D667E2400FF120239E47E70047EA5
:1011D30008000E0211DA22CA3B7F307A7301287AA3
:1011E300B30127E4807E7E7301290A372D377D26DC
:1011F3007E1B70BE70204067BE707E38620A376DFA
:10120300229E1800207A1F01912F112F112F117A7E
:101213001F01912E2400032E18BFC07A1F01917E57
:101223000F01917CB17A13012A7C727A23012B7C02
:10123300637A33012C7E08012D7E50081215647EDB
:10124300B301277E7301287E08012D1218187EB37F
:10125300012724067AB301277EB301290480057E82
:10126300B30129047AB301297E7301290A372D3783
:101273007D267E1B70BE700028030211E9DA3B2233
:10128300CA3B7F307AB300F2E47AB30126121BA281
:101293007A73012574FD7AB300F3E47AB300F47E24
:1012A3007301250A372E3400037A7300F574017A2B
:1012B300B300F67EB300F2C454F044017AB300F7EE
:1012C3006D22097200F36E7301267A7301260B24D3
:1012D300BE24000578EC6D2280117F032D127E0B56
:1012E300706E7301267A7301260B247E7301250A1F
:1012F30037BD3238E5CA397F137E0800F812191159
:101303001BFD7E7301267E6301250A26197200F8F0
:101313007E0800F37E7301250A572E5400050B54F3
:1013230012189ADA3B227E3700424D33787C7E34A2
:1013330000017A370042120F907AB30066700E6D87
:10134300337A3701747A3701767A3701787EB300BE
:1013530066BEB00168077EB30066B402107E340334
:10136300E87A3701746D337A370176801E7EB300D5
:1013730066BEB0FF68077EB30066B4FE127E340318
:10138300E87A3701766D337A3701747A3701787EDC
:1013930037017E7A3701297E3701747E2701767EF5
:1013A3001701787E07017A0218C322CA39C0D17E99
:1013B3003700380B347A370038BE34006478066D52
:1013C300337A3700387E3700420B347A370042BE17
:1013D30034000A78066D337A3700427E3700270BD4
:1013E300347A370027BE34003278066D337A3700FB
:1013F300277E3700780B347A370078BE34000A78BA
:10140300066D337A3700787E3700A40B347A3700C1
:10141300A4BE341388400BA2EDB392ED6D337A373B
:1014230000A4D0D1DA3932CA3B7F301219D374D039
:10143300121936743B1219361219D374D112193694
:10144300E47AB301271218EB7EA301270A3A2D375A
:101453007D267A1BB0C2B7D2B6121BDFC2B6121BEF
:10146300DF7EB30127047AB301277E730127BE70A1
:101473000D40D21218EB7EA301270A3A2D377D26A1
:101483007A1BB0D2B7D2B6121BDFC2B6121BDF1261
:10149300008CDA3B22CA3BD29012000E12000EC21D
:1014A300903091FDC28C758C00758A00D28C20918E
:1014B300FDC28C7E14FFFE7E1F018C120856E58C44
:1014C3007C0B6C11E58A0A1B4D106D002F10E41282
:1014D30001BF7E149BA67E043A4412009E1201FCB7
:1014E3007F31758C00758A009F117A1F018CBE387D
:1014F300012C38047D3780047E3400FFDA3B22124E
:1015030016AA12106AE412199AE41217EC1217536E
:10151300121B6E121ACA121B92121A1BA9C6A2A977
:10152300C7A2A9D4FF12178A121C067E3402587A66
:101533003700916D337E2443C87A1F00859F117A4B
:101543001F00897E2441A07A1F008D7E3403E87A30
:1015530037017E12112D120DAA121329120EB58016
:10156300F2CA3B7A5301387F307A6301377A7301C9
:10157300367AB30135C2FF74031219B87EB301354D
:101583001219B87EB301361219B87EB30137121996
:10159300B8E480151219ED7EA301390A3A2D377D7F
:1015A300267A1BB07EB30139047AB301397E730105
:1015B30038BE73013938DDD2FFDA3B22CA3B7F30B4
:1015C3007A7301967AB30195E47AB301987EB301F5
:1015D300957E73019612186FE47AB301977E3BB040
:1015E3007E70011218440B747EB30197047AB30121
:1015F30097B410E97EB30196047AB301967EB301E2
:1016030098047AB301987E730198BE700240BEDAE3
:101613003B22CA3B7F307A73019A7AB30199E47A09
:10162300B3019C7EB301997E73019A12186FE47A19
:10163300B3019B7E3BB07E70011218440B747EB3E2
:10164300019B047AB3019BB408E97EB3019A047A3F
:10165300B3019A7EB3019C047AB3019C7E73019C0F
:10166300BE700240BEDA3B227584017E44041FE44F
:101673007A49B01B4478F97EF801A17E0400FF7E0D
:10168300141C1D0B0A405D44681A692000020B0EEE
:101693000B44800A7E0BB07A29B00B240B0C1B443D
:1016A30078F280DF02150275E900A9D7BA75EA005E
:1016B300759300759400759100759200759500758A
:1016C300960075B10075B20075B30075B40075C9A5
:1016D3000075CA0075CB0075CC0075E10075E2009A
:1016E30022CAB8CA78C0D17EB3002AB401247EB31B
:1016F3000044047AB300447E730044BE706428122D
:101703007EB30067047AB30067E47AB300447AB324
:10171300002AD0D1DA78DAB832CA796CEE0A5E2EB2
:101723005400B06C7712184474106C771218447418
:10173300026C771218446CFFE47E70011218440B9C
:10174300F0BEF01078F20BE0BEE00840D0DA792268
:10175300CA796CFF0A5F2E5400B06C771218447478
:10176300106C7712184474026C771218446CEEE410
:101773007E70011218440BE0BEE08078F20BF0BEDD
:10178300F00840D0DA7922121BDF121BDF121BDFB5
:10179300121BDF746B6C7712002612195974197EB1
:1017A3007007120026741A7E7004120026741B7EC2
:1017B3007008120026741C0200266CAAA2C2E4332D
:1017C30078057EA001801FA2C1E43378057EA002C4
:1017D3008014A2FBE43378057EA0038009A2F8E419
:1017E3003378037EA0047CBA22CAF87CFB4CFB78D6
:1017F3000E74C86C7712184474A16C77121844BE27
:10180300F001780E74C06C7712184474A06C7712D0
:101813001844DAF822CA3B7F3012186FE47AB30116
:10182300357E3BB07E70011218440B747EB30135D4
:10183300047AB301357E730135BE700640E3DA3BAB
:10184300227C6B4C776804D2C88002C2C8C2C67EB1
:101853007008C2CB7CB630E704D2CA8002C2CAD2B7
:10186300CB3E601B7078EBD2C6D2C822CAF87CFB91
:101873000BF10A572E5400B06C771218447CBF54F6
:10188300F0C4540F44106C771218447CBF540F6C8F
:1018930077121844DAF822CA3B7AB3019F7F30E407
:1018A300800D7E3BB00B74121BC97EB301A0047A7A
:1018B300B301A07E73019FBE7301A038E5DA3B221A
:1018C300CA3B7D707D617A270127121ADF7E3701BB
:1018D30027121AF47D36121B097D37121B1E7E3721
:1018E3000129121B33DA3B22CA796CFFD2B76CEEA3
:1018F3003EF0D2B6121BDFA2B7E4334CFBC2B612E2
:101903001BDF0BE0BEE00840E77CBFDA79227F21D2
:101913007F707F10800A7E2B307A1B300B540B3480
:10192300691FFFFD7D011B04790FFFFD4D1178E653
:101933007F1722CA797CFB6CEE3EF0A2D792B7D216
:10194300B6121BDFC2B6121BDF0BE0BEE00840E994
:10195300121A8ADA792200007EA0057E70907E60DA
:10196300477CB6147C6B78F97CB7147C7B78F27C6B
:10197300BA147CAB78EB22BE3400004806C281D295
:10198300828004D281C282BE2400004805C283D271
:101993008422D283C28422CAF87CFB4CFB7807746E
:1019A300A66C77121844BEF001780774A76C7712FF
:1019B3001844DAF8227C6B7E7008C2CB7CB630E721
:1019C30004D2CA8002C2CA3E60D2CB1B7078EB221B
:1019D300121BDF121BDFD2B7D2B6121BDF121BDFC3
:1019E300C2B7121BDFC2B6021BDF6CAA7E7008C22D
:1019F300CB3EA030C5020BA0D2CB1B7078F17CBAD2
:101A0300227D13800E7E0407087D301B044D33783E
:101A1300F81B144D1178EE22759850438E01438EB6
:101A23000475D78F75D6FD438E10D2ACD2AF22CAC0
:101A33003B7F3080087E3BB00B74121BFD7E3BB0B6
:101A430070F3DA3B22CA3B7F3080087E3BB00B74D5
:101A5300121BC97E3BB070F3DA3B22CA3B7F308056
:101A6300087E3BB00B74121BD47E3BB070F3DA3BA1
:101A73002275AC1053ACBF438E0475D7CC75D6FF1B
:101A8300438E10A9D3AF22D2B7121BDFD2B6121BDB
:101A9300DFA2B792D7C2B6121BDFA2D722748D6C16
:101AA3007712184474106C7712184474AE6C770272
:101AB3001844748D6C7712184474146C771218449C
:101AC30074AF6C77021844438E4053890F758BA013
:101AD300758DF6C28FD28ED2ABD2AF227D037E3408
:101AE300FEF57E24007E7A1B007E34FEF67A1B1000
:101AF300227D037E34FEF77E24007E7A1B007E3433
:101B0300FEF87A1B10227D037E34FEF97E24007ECC
:101B13007A1B007E34FEFA7A1B10227D037E34FE8C
:101B2300FB7E24007E7A1B007E34FEFC7A1B10228F
:101B33007D037E34FED97E24007E7A1B007E34FE34
:101B4300DA7A1B1022CA1BC0D17E1F018C0B1C7AB0
:101B53001F018CD0D1DA1B32759A50438E0475D78E
:101B63008F75D6FD438E10A9D0AF22438E80538943
:101B7300F0758A00758C00C28DC28CD2A922CA3B33
:101B83007F30121BA27CB77F0312189ADA3B2243E1
:101B9300DD0275D54075D4A243DD0843AF20226D25
:101BA3003380020B347E0BB00B1470F7227D236D50
:101BB3003380020B34BD2338FA22C0D1A9309A03F3
:101BC300A9C09AD0D1327AB19BA9319AFCA9C19A02
:101BD300227AB19BA9319AFCA9C19A227EA0077CE3
:101BE300BA147CAB78F922C0D1309802C298D0D114
:101BF30032D2C2D2C1D2FBD2F8227AB1993099FD46
:101C0300C29922120ADB12000302001ED283C2848D
:101C130022D281C28222283029000001000A010059
:101C230001000D0000010029000001002A0000044A
:101C3300002C00000000000400300000000000043D
:101C43000034000000000004003A0000000000041B
:101C5300003E0000000000010044000001004500B8
:101C630000040046000000000004004A00000000D9
:101C7300000400620000000000010067000004008F
:101C830068000000000004006C0000000000040075
:101C930070000000000002007400000002007600E3
:101CA300000002007A00000002007C000000020035
:101CB3007E0000000200800000000100820000019D
:101CC300008300000100A300000200A40000000440
:101CD3000191000000000002016E0000000201708B
:101CE3000000000201720000000201740000000203
:101CF300017600000002017800000002017A000072
:101D03000002017C00000002017E0000000201804D
:101D13000000000201820000000101A10000040193
:101D23008C0000000000010190000006014FFD003F
:101D3300033100CF00050155FD000202FD0005013E
:101D43005AFD000288770005015FFD000204FB00D5
:101D5300050164FD000221DE00050169FD000203A7
:101D6300FC000073706565643A256400323A2530DF
:101D7300336420333A2530336400303A25303364FA
:101D830020313A25303364004C696E653A2564008E
:101D93003900380037003600350034003300320094
:061DA300310030002E00AB
:00000001FF
